:020000040800F2
:1000000000000220A1020008492800084D2800082D
:100010005128000855280008592800080000000051
:100020000000000000000000000000005D28000843
:1000300061280008000000006528000881210008F0
:10004000CD030008CD030008CD030008CD03000850
:10005000CD030008CD030008CD030008CD03000840
:10006000CD030008CD030008CD030008CD03000830
:10007000CD030008CD030008CD030008CD03000820
:10008000CD030008CD030008CD030008CD03000810
:10009000CD030008CD030008CD030008CD03000800
:1000A000CD030008CD030008CD030008CD030008F0
:1000B000CD030008CD030008CD030008CD030008E0
:1000C000CD030008CD030008CD030008CD030008D0
:1000D000CD030008CD030008CD030008CD030008C0
:1000E000D1260008CD030008CD030008CD03000889
:1000F000CD030008CD030008CD030008CD030008A0
:10010000CD030008CD030008CD030008CD0300088F
:10011000CD030008CD030008CD030008CD0300087F
:10012000CD030008CD030008CD030008CD0300086F
:10013000CD030008CD030008CD030008CD0300085F
:10014000CD030008CD030008CD030008CD0300084F
:10015000CD030008CD030008CD030008CD0300083F
:10016000CD030008CD030008CD030008CD0300082F
:10017000CD030008CD030008CD25000800000000D5
:10018000CD030008CD03000800B583B001F05EFA8E
:10019000314B324A1360324A1360324B324A03E029
:1001A000116819600433043230498B42F8D32B4B69
:1001B0001A682F4B9A4204D1294B1A682D4B9A4248
:1001C00000D0FEE7244B2C4A13602C4A13602C4BC2
:1001D00002E000221A6004332A4A9342F9D3264BE4
:1001E0001B6813B9254B1B6803B1FEE701F03AFA0F
:1001F00001A8694601F018F8234B244DED1AAD1003
:10020000002404E0204B53F8243098470134A542E1
:10021000F8DC1F4B1F4DED1AAD10002404E01C4B01
:1002200053F8243098470134A542F8DC01F078FBFC
:100230000198009902F0FCF90546174B174CE41A97
:10024000A41004E0013C144B53F824309847002CD0
:10025000F8DC284600F084FFBABADECA00000020AD
:10026000C801002000000020443B0408CC0100200D
:100270007856341232547698CC010020441900206C
:10028000CC01002048190020F8030008F8030008FA
:10029000F803000804040008040400080804000827
:1002A00008B5FFF771FF00BF00BEFEE71EF0040FA8
:1002B0000CBFEFF30880EFF309807146404A104706
:1002C0002DE9F04383B005468946124C676BA66B57
:1002D000D4F82880236B13F0020F0BD0E36A002BB5
:1002E00008DA4BF6AB6101F039FA18B14FF0004271
:1002F000E2620CE0084801F04BF9CDF80090284686
:1003000041463A46334601F0B1F900BEFEE703B07C
:10031000BDE8F08300ED00E04CAA010800BEFEE756
:100320001EF0040F0CBFEFF30880EFF30980714655
:10033000244A10472DE9F04182B007468846084C10
:10034000666BA56BA46A074801F022F9CDF800801E
:100350003846214632462B4601F088F900BEFEE7BA
:1003600000ED00E05CAA01081EF0040F0CBFEFF3E3
:100370000880EFF309807146134A10472DE9F041D8
:1003800082B007468846084C666BA56BA46A07488E
:1003900001F0FEF8CDF800803846214632462B4663
:1003A00001F064F900BEFEE700ED00E068AA010874
:1003B00000BEFEE700BEFEE700BEFEE7704700009D
:1003C000C1020008350300087D03000800BEFEE7F7
:1003D000443B040800000020CC010020443B0408FA
:1003E0000000001000000010CC010020481900207F
:1003F000000000100000001049270008D5900008F8
:08040000F9EF0008592700087C
:1004080010B4C3781BB3194BDB68DB43C3F3022377
:10041800C3F10402D2B20F2141FA03F3417801FA81
:1004280002F2D2B2847803EA040111430901C9B285
:1004380002780F4B1A4482F800130278510902F02F
:100448001F02012000FA02F243F821200AE0037893
:10045800590903F01F03012202FA03F32031044A69
:1004680042F821305DF8044B704700BF00ED00E012
:1004780000E100E010B4436823F0407323F4807374
:100488000C790A6842EA04221343436082680C4BE1
:1004980013400C69CA6814438A6822434C7942EABB
:1004A800440213438360C26A22F470020B7D013B4D
:1004B800DBB242EA0353C3625DF8044B704700BFE6
:1004C800FDF7FFC010B4084A5168084B0B40046898
:1004D80041680C4381682143C06801430B43536062
:1004E8005DF8044B704700BF00230140E030FCFF7B
:1004F80070B409290ED9C668A1F10A0404EB4404B2
:100508000725A54026EA050503FA04F445EA04038D
:10051800C3600BE0066901EB41040725A54026EA04
:10052800050503FA04F445EA04030361062A0CD816
:10053800446B013A02EB82021F23934024EA03032F
:10054800914043EA010242631AE00C2A0CD8046B7A
:10055800073A02EB82021F23934024EA03039140E7
:1005680043EA010202630BE0C46A0D3A02EB82021D
:100578001F23934024EA0303914043EA0102C26225
:1005880070BC7047054B00221A60DA601F21596160
:100598009A61DA611A625A62704700BF000005501A
:1005A800F0B40F4B1A6822F4804222F001021A605C
:1005B8001A6822F47F6222F00202B0F800C0418873
:1005C8008788C6880589448980894CEA01013943AE
:1005D80031432943214301430A431A60F0BC704761
:1005E8000000055028B1064B1A6842F480421A6090
:1005F8007047034B1A6822F480421A60704700BFA4
:100608000000055028B1064B1A6842F001021A6032
:100618007047034B1A6822F001021A60704700BF46
:100628000000055021B1064BDA681043D8607047C6
:10063800034BDA68C04380B21040D860704700BFEF
:1006480000000550034B1B69034201D0012070478D
:100658000020704700000550014B5861704700BFEB
:1006680000000550036823F00103036000230360C2
:1006780043608360C3600361212343613B4B98421D
:1006880003D13D22103B9A607047394B984204D100
:100698004FF47462283B9A607047364B984204D1F5
:1006A8004FF47412403B9A607047334B984204D120
:1006B8004FF07462583B9A607047304B984203D1B0
:1006C8002F4A703BDA6070472E4B984203D12E4A6E
:1006D800883BDA6070472D4B984203D12C4AA03BE7
:1006E800DA6070472B4B984204D14FF03D52B83B2B
:1006F800DA607047284B984203D13D22103B9A603C
:100708007047264B984204D14FF47462283B9A6094
:100718007047234B984204D14FF47412403B9A60BF
:100728007047204B984204D14FF07462583B9A604E
:1007380070471D4B984203D1114A703BDA607047ED
:100748001A4B984203D1104A883BDA607047184B1D
:10075800984203D10E4AA03BDA607047154B984285
:1007680003D14FF03D52B83BDA6070471060024049
:1007780028600240406002405860024070600240B9
:100788003D00002088600240400F0020A060024029
:1007980000003D20B8600240106402402864024016
:1007A8004064024058640240706402408864024019
:1007B800A0640240B864024010B40268134B1340AE
:1007C8000C68CA6814434A6914438A691443CA699D
:1007D80014430A6A14434A6A14438A6A14434A6BE4
:1007E80014438A6B224313430360446924F00704CB
:1007F800CA6A0B6B1343234343610B6943604B681D
:1008080083608B68C3605DF8044B70473F801CF0C1
:1008180021B1036843F0010303607047036823F0C4
:1008280001030360704700BF036813F0010F01D094
:1008380001207047002070470B4B984202D8A3F262
:100848000F4300E0094B11F0005F01D05B6800E046
:100858001B6823F0F02323F082130B4201D0012000
:1008680070470020704700BF0F64024000640240D8
:1008780010B48379002B33D0204B1968026821EA21
:1008880002021A605968026821EA02025A60027973
:1008980002F1804202F59E3214680168214311601A
:1008A8009968026821EA02029A60D968026821EA16
:1008B8000202DA604379102B09D1104B996802685B
:1008C8000A439A60D96802680A43DA6012E003F1C1
:1008D800804303F59E33196802680A431A6009E0E9
:1008E800037903F1804303F59E331A68016822EA0D
:1008F80001021A605DF8044B704700BF003C0140DC
:10090800034B5B69034201D0012070470020704708
:10091800003C0140014B5861704700BF003C01405A
:1009280010B40368416882681143C26811430269C0
:1009380011434269114382691143C2691143026A32
:100948001143426A1143826A1143C26A1143026B1E
:100958000A434FF0204141F823208368082B07D130
:1009680002680B4651F8221041F0400143F822106A
:1009780003685C1C436B1A68596842EA01119A685B
:1009880041EA0221DA6841EA02411A6941EA025160
:100998005A6941EA02629B691A434FF0204141F8C3
:1009A8002420C36AB3F5804F14D10468836B1A6896
:1009B800596842EA01119A6841EA02211A6941EA32
:1009C80002515A6941EA02629B691A43064B43F88D
:1009D800242005E002686FF07041034B43F82210B1
:1009E8005DF8044B704700BF040100A041B14FF00F
:1009F800204353F8202042F0010243F8202070479A
:100A08004FF0204252F82010024B0B4042F82030A1
:100A1800704700BFFEFF0F0070B400233CE00122C6
:100A28009A400C681440944235D105685A00032452
:100A38009440E4432540056006680D7995403543A8
:100A480005600D79013DEDB2012D15D885682C4062
:100A5800846085684C7994402C43846046689CB2D5
:100A68000125A54026EA0505456045688E7906FA00
:100A780004F4A4B22C434460C5689CB26400032605
:100A880006FA04F425EA0404C460C468CD7905FABA
:100A980002F22243C26001330F2BC0D970BC7047E9
:100AA80003690B4201D0012070470020704700BF46
:100AB80001837047418370474369594041617047DA
:100AC80030B401F007039B009A40C908083150F878
:100AD80021400F2505FA03F324EA030340F82130E7
:100AE80050F821301A4340F8212030BC704700BF2D
:100AF80070B584B004460D46868826F03F06360455
:100B0800360C684600F0E0F8029A2B49A1FB020176
:100B1800890C88B20643A680238823F001031B04AE
:100B28001B0C23802B68254EB34209D85B00B2FB0F
:100B3800F3F292B2032A00D804220130208424E080
:100B4800EE884BF6FF70864205D103EB4303B2FBF8
:100B5800F3F292B208E003EB830303EB8303B2FBE7
:100B6800F3F292B242F48042C2F30B030BB942F0A3
:100B7800010242F400424FF4967301FB03F1104B5B
:100B880083FB0101891101312184A28323889BB24F
:100B980043F001032380228892B222F4816222F07A
:100BA8000202A9886B890B4313432380AA892B89E6
:100BB8001343238104B070BD83DE1B43A08601006C
:100BC800D34D621029B103889BB243F0010303801F
:100BD8007047038823F001031B041B0C0380704734
:100BE80029B103889BB243F480730380704703885C
:100BF80023F480731B041B0C0380704729B10388FE
:100C08009BB243F4007303807047038823F4007396
:100C18001B041B0C0380704712B141F0010101E075
:100C280001F0FE010182704729B103889BB243F4A9
:100C3800806303807047038823F480631B041B0CC4
:100C48000380704701827047008AC0B2704700BFB6
:100C5800838A9BB2028B43EA024323F07F430B4013
:100C68008B4201D1012070470020704782B00023D9
:100C78000193009300900B0F019321F07F41019B9A
:100C88001BB1009B1433009303E0090C009B18333D
:100C98000093009B1B680B4201D0012000E000205C
:100CA80002B07047024B00221A701870704700BFDC
:100CB80002380240034B9A6822F0EC6201430A436F
:100CC8009A6070470038024010B4294B9B6803F0C3
:100CD8000C03042B05D0082B06D053BB254B03600F
:100CE80029E0254B036026E0214B5A685B6803F036
:100CF8003F0312F4800F09D01F4AB2FBF3F31C4ADA
:100D08005268C2F3881202FB03F308E0194AB2FBE7
:100D1800F3F3174A5268C2F3881202FB03F3144A2A
:100D28005268C2F3014201325200B3FBF2F303608E
:100D380001E0104B03600E498B68C3F303130F4A9D
:100D4800D35CDBB2046824FA03F343608C68C4F311
:100D58008224145DE4B223FA04F484608968C1F340
:100D68004231525CD2B2D340C3605DF8044B704745
:100D7800003802400024F40000127A000400002029
:100D880021B1054B1A6B104318637047024B1A6B5D
:100D980022EA0000186370470038024021B1054B71
:100DA8005A6B104358637047024B5A6B22EA000093
:100DB800586370470038024021B1054B9A6B1043C5
:100DC80098637047024B9A6B22EA00009863704759
:100DD8000038024021B1054B1A6C10431864704763
:100DE800024B1A6C22EA000018647047003802406F
:100DF80021B1054B5A6C104358647047024B5A6C2A
:100E080022EA000058647047003802404309012B69
:100E180002D10A4B1B6806E0022B02D1074B1B6F5D
:100E280001E0064B5B6F00F01F0023FA00F010F0A2
:100E3800010F01D0012070470020704700380240A0
:100E480000B583B0002301933120FFF7DFFF019B3A
:100E580001330193019BB3F5A04F01D00028F3D0D3
:100E68003120FFF7D3FF08B1012000E0002003B0D4
:100E78005DF804FB2DE9F003028802F44152B1F851
:100E880000904B88B1F80480B1F806C00F894E89EC
:100E98008D89CC8949EA030348EA03034CEA030332
:100EA8003B4333432B43234313430380838B23F474
:100EB80000631B041B0C83830B8A0382BDE8F003C9
:100EC800704700BF0023038043808380C380038171
:100ED80043818381C38107230382704729B1038833
:100EE8009BB243F0400303807047038823F040031C
:100EF8001B041B0C03807047808980B2704700BFB9
:100F0800818170470389194201D001207047002070
:100F1800704700BF30B401F0030292000F249440E0
:100F28008908084B023153F8215025EA040443F894
:100F3800214053F821409040044343F8214030BCFD
:100F4800704700BF0038014003889BB21B4A90429B
:100F580012D002F5806290420ED0B0F1804F0BD0D3
:100F6800A2F58032904207D002F58062904203D009
:100F780002F58062904203D123F070034A8813433C
:100F88000F4A904208D002F58062904204D023F4C0
:100F980040739BB20A89134303804B68C3620B8872
:100FA8000385064B984203D003F58063984201D12C
:100FB8008B7A038601238382704700BF00000140BB
:100FC8000010004029B103889BB243F080030380DE
:100FD8007047038823F080031B041B0C03807047B1
:100FE80029B103889BB243F001030380704703884B
:100FF80023F001031B041B0C0380704730B4038CDF
:1010080023F001031B041B0C0384038C8488A4B203
:10101800028B22F073021204120C0D882A4323F06B
:1010280002031B041B0C8D892B434D882B430E4D4B
:10103800A84203D005F58065A8420DD123F0080326
:10104800CD892B4323F004038D882B4324F440746B
:101058000D8A2C434D8A2C43848002838A6842631C
:10106800038430BC704700BF00000140038B23F0AD
:1010780008031B041B0C19430183704708B5024879
:1010880000F09CFA00F002F8D0A8010808B503485F
:1010980000F094FA012000F05FF800BFE4A801080E
:1010A80008B50D4B1B6813B90C4A0B4B1A600A4B59
:1010B8001B68033020F003001844094A904206D9FF
:1010C80012F056F90C2303604FF0FF3008BD024AB6
:1010D8001060184608BD00BFD00100204819002044
:1010E80000FC012030B50025132420462946ABBE5C
:1010F8000446204630BD00BF38B5044612F038F922
:101108000546FFF7EFFF2860204638BD08B5B0F167
:10111800FF3F01D1FFF7F0FF08BD00BF10B504463F
:101128000B4B186818B1836B0BB912F03BFA132CF0
:1011380009D8084B53F83430B3F1FF3F05D00548C0
:1011480000EBC40010BD002010BD002010BD00BF82
:10115800180100205802002000B508B9044C00E02E
:10116800044C182528462146ABBE0446FEE700BFBE
:1011780026000200230002002DE9F04184B0234F2D
:1011880001970326039600230293012401AD20460C
:101198002946ABBE80461E4BC3F8008001970396D4
:1011A8000423029320462946ABBE8046194BC3F858
:1011B8000080019703960823029320462946ABBE78
:1011C8000446154B1C60B4F1FF3F03D1114B1A685C
:1011D800114B1A60002305E04FF0FF310F4A42F827
:1011E80033100133132BF7DD0C4B094A12681A60D0
:1011F80000225A60074909689960DA600649096857
:1012080019615A6104B0BDE8F08100BFF8A801086F
:1012180028020020D40100202C02002058020020BF
:101228002DE9F04182B080460F46314B00934F23A1
:1012380001936D46152420462946ABBE0446002C72
:1012480042D12B4B83F84F40009A2046254636E082
:10125800E5B928490E681E4496F90160002E03DBA3
:10126800092B03D1012102E0012100E0002129BB63
:10127800082C2ADC222B01D0272B01D10132184659
:101288001D4B43F824200134012517E028B183427F
:1012980014D100251570284610E01649096819442C
:1012A80091F90110002903DB092B03D1012302E086
:1012B800012300E000230BB100251570013292F9DB
:1012C8000030002BC4D100E000242CB9084B0022C8
:1012D8001A70094A13600134074B002243F824208E
:1012E800C8F800403B60FFF747FF02B0BDE8F08157
:1012F800D8010020B40000203002002030B585B0AD
:1013080001900291039201AD062420462946ABBE06
:1013180004462046FFF7FAFE05B030BD70B50E460C
:101328001546FFF7FBFE044630B912F021F80923F1
:1013380003604FF0FF3070BD006831462A46FFF762
:10134800DDFFB0F1FF3F03D0281A636803446360F0
:1013580070BD00BFF0B583B00C461546FFF7DEFE42
:10136800064630B912F004F8092303604FF0FF3045
:101378004CE0022D06D911F0FBFF162303604FF055
:10138800FF3043E0012D13D14368E4180FD511F065
:10139800EFFF162303607368002B2CDD002C2DDD76
:1013A80011F0E6FF8B2303604FF0FF302EE000259D
:1013B800022D0FD1336802AD45F8083D0C27384699
:1013C8002946ABBE05462846FFF7A0FEB0F1FF3F11
:1013D80017D004443368009301946F460A252846C1
:1013E8003946ABBE05462846FFF790FE00280BDBC2
:1013F800746020460AE04FF0FF3007E04FF0FF30FE
:1014080004E04FF0FF3001E04FF0FF3003B0F0BDD3
:1014180008B5FFF79FFF08BD30B585B00190029170
:10142800039201AD052420462946ABBE044620465A
:10143800FFF76CFE05B030BD70B50E461446FFF7D9
:101448006DFE054630B911F093FF092303604FF094
:10145800FF3070BD006831462246FFF7DDFF031EEE
:1014680009DBE01A6A6802446A609C4205D10020E0
:10147800FFF742FE70BD4FF0FF3070BD30B583B04E
:1014880002AC44F8040D022528462146ABBE0446AA
:101498002046FFF73BFE03B030BD00BF38B5054618
:1014A800FFF73CFE044630B911F062FF09230360E0
:1014B8004FF0FF3038BD013D012D09D8094B9A681E
:1014C8001B699A4204D14FF0FF330360002038BDF6
:1014D8002068FFF7D3FF034610B94FF0FF322260B0
:1014E800184638BD5802002070B50C46FFF716FEA6
:1014F800054630B911F03CFF092303604FF0FF3077
:1015080070BD636843F4005363604FF48063E36223
:101518000C2630462946ABBE05462846FFF7F6FDA1
:10152800B0F1FF3F02D02061002070BD4FF0FF30C6
:1015380070BD00BF38B505460C46084600213C2260
:1015480012F062FC28462146FFF7CEFF38BD00BFE7
:1015580038B5FFF7E3FD044628B911F009FF092360
:101568000360002038BD092528462146ABBE044645
:10157800012C07D011F0FCFE0446FFF7B3FD2060F4
:10158800002038BD012038BD0FB400B583B004ABCE
:1015980053F8042B01930848802115F0A1F9011E86
:1015A80003DD054800F04AF80146084603B05DF837
:1015B80004EB04B0704700BFF802002010B50446E1
:1015C80013F06AFB0146204600F038F80248012172
:1015D80000F034F810BD00BF241504082DE9F043CD
:1015E80085B004468846435C0BBB04252846214643
:1015F800ABBE04461EE0102F34BF3E461026002323
:1016080006E014F8015B04AA1A4402F8105C0133DE
:10161800B342F6D304AA1344002203F8102CE94677
:10162800042528464946ABBE0546BF1B00E00F46C9
:10163800002FE0D1404605B0BDE8F08308B5FFF7BC
:10164800CDFF08BD08B500F067F9024B024A9A6061
:1016580008BD00BF00ED00E00000000808B500F07C
:101668007DF908BDF8B504460D4617461E462648BE
:10167800FFF78AFF25482168FFF786FF244861683D
:10168800FFF782FF2348A168FFF77EFF2248E16841
:10169800FFF77AFF21482169FFF776FF2048616943
:1016A800FFF772FF1F48A169FFF76EFF1E48E16947
:1016B800FFF76AFF1D48FFF767FF1D482946FFF738
:1016C80063FF1C4CE16A1C48FFF75EFF216B1B4857
:1016D800FFF75AFFE16B1A48FFF756FF15F0800F26
:1016E80003D018483946FFF74FFF15F4004F03D0D1
:1016F80015483146FFF748FF1448FFF745FF1448DF
:101708000699FFF741FFF8BD30A9010840A9010873
:1017180050A9010860A9010870A9010880A9010859
:1017280090A90108A0A90108B0A90108C0A9010849
:10173800CCA9010800ED00E0DCA90108ECA901082A
:10174800FCA901080CAA01081CAA01082CAA010876
:1017580034AA010838B5044683691B888B426ED1C8
:1017680003684568013B302B6BD8DFE803F0421D66
:1017780063635A2C2F2919196A1919191919321959
:10178800206A19236A356A6A6A6A6A6A6A6A6A6AC8
:101798006A6A6A6A6A6A6A6A6A6A6A6A6A191900AD
:1017A8004FF0FF33036045E00023036042E000236D
:1017B80003603FE000232B606B60AB60EB6039E0B7
:1017C8000023036036E0AB68036033E00023036066
:1017D80030E0002303602DE0BFF34F8F1A4AD16831
:1017E80001F4E061194B0B43D360BFF34F8F00BF87
:1017F800FDE72868164912F0AAFD70B96B6813B99D
:101808000123236016E0042B02D10223236011E098
:10181800082B02D1032323600CE04FF0FF33236031
:1018280008E02B68023B012B02D80023036001E08B
:10183800AB680360A3690233A361012038BD0020AF
:1018480038BD002038BD00BF00ED00E00400FA05F7
:10185800F8A8010882B00023019300932A4B1A6864
:1018680042F480321A60284B1B6803F4003300935B
:10187800019B01330193009B1BB9019BB3F5A04F5A
:10188800F1D1214B1B6813F4003F02D001230093D0
:1018980001E000230093009B012B32D11A4B1A6CF4
:1018A80042F080521A64194A116841F440411160AB
:1018B8009A689A609A6842F400429A609A6842F478
:1018C800A0529A60124A5A601A6842F080721A60EE
:1018D8000D4B1B6813F0007FFAD040F205620D4BE8
:1018E8001A60A3F580639A6822F003029A609A68E6
:1018F80042F002029A60044B9B6803F00C03082B29
:10190800F9D102B0704700BF0038024000700040B3
:1019180008544007003C024008B50D4B1A6842F0D5
:1019280001021A60002199601A6822F0847222F478
:1019380080321A60074A5A601A6822F480221A60B4
:10194800D960FFF787FF4FF00062034B9A6008BD2C
:10195800003802401030002400ED00E0234B9B6863
:1019680003F00C03042B07D0082B09D0002B2DD132
:101978001F4A204B1A602CE01F4A1E4B1A6028E0B1
:101988001A4B59685B6803F03F0311F4800F09D0C4
:10199800194AB2FBF3F3154A5268C2F3881202FBE4
:1019A80003F208E0124AB2FBF3F3104A5268C2F39A
:1019B800881202FB03F20D4B5B68C3F3014301334A
:1019C8005B00B2FBF3F20B4B1A6002E0084A094BCA
:1019D8001A60064B9B68C3F30313084AD15CC9B26B
:1019E800044B1A68CA401A60704700BF00380240AA
:1019F8000024F4002400002000127A0014000020C3
:101A0800014B1860704700BF78030020014B188015
:101A180059807047FEFF016010B503460C464E2002
:101A28001946FFF7F3FF4F202146FFF7EFFF10BDE0
:101A380010B51C4C20464FF40051FFF73BF81E2010
:101A480000F07EFB20464FF40051FFF731F80A20E2
:101A580000F076FB07202121FFF7D8FF00200121A5
:101A6800FFF7D4FF07202321FFF7D0FF1020002124
:101A7800FFF7CCFF1E2000F063FB07203321FFF7A0
:101A8800C5FF112046F21801FFF7C0FF02204FF4EE
:101A9800C061FFF7BBFF012042F63F31FFF7B6FFF9
:101AA80010BD00BF000802402222014B1A80704777
:101AB800FEFF0160014B5880704700BFFEFF0160C8
:101AC80010B582B00446002101910846FFF7A4FF33
:101AD8004FF496330193FFF7E7FF02E02046FFF744
:101AE800E9FF019B5A1E0192002BF7D102B010BDED
:101AF8002DE9F84F83468A4691461F460A9D4FF0C6
:101B0800000816E00BEB080080B25146FFF784FF8F
:101B1800FFF7CAFF002406E0AE1C2888FFF7CAFFBB
:101B28000134A4B23546BC42F6D308F101081FFAC5
:101B380088F8C845E6D3BDE8F88F00BFF0B583B094
:101B48000025009501951C200121FFF719F94FF494
:101B58000053009301278DF8047002268DF8056064
:101B680045486946FEF758FF4CF6B37300938DF865
:101B780004608DF805508DF806508DF807503F4CDD
:101B880020466946FEF748FF204629460C22FEF704
:101B980097FF204639460C22FEF792FF2046042183
:101BA8000C22FEF78DFF204605210C22FEF788FF48
:101BB800204607210C22FEF783FF204608210C222D
:101BC800FEF77EFF204609210C22FEF779FF20460A
:101BD8000A210C22FEF774FF20460B210C22FEF787
:101BE8006FFF20460E210C22FEF76AFF20460F21C8
:101BF8000C22FEF765FF4FF6807300938DF80460A2
:101C08008DF805508DF806508DF8075004F580645E
:101C180020466946FEF700FF204607210C22FEF702
:101C28004FFF204608210C22FEF74AFF20460921D3
:101C38000C22FEF745FF20460A210C22FEF740FF42
:101C480020460B210C22FEF73BFF20460C210A46BA
:101C5800FEF736FF20460D210C22FEF731FF204605
:101C68000E210C22FEF72CFF20460F210C22FEF736
:101C780027FF03B0F0BD00BF00080240000C02407F
:101C880010B596B000240F941094119412941394E4
:101C980014941594684621463C2212F0B5F80120A8
:101CA8000146FFF789F802230F930A23119313942F
:101CB80015940094019402941023039304940694B9
:101CC800079408944FF4805309930A940B940C9446
:101CD8000FAB0D930E9305946846FEF721FE204640
:101CE8000121FEF783FE16B010BD00BFF8B5074608
:101CF8000C4615461E4628480121FEF771FF264866
:101D08002649FEF7A5FF0028F9D0234839460022C6
:101D1800FEF782FF204B988A00F0020080B200286C
:101D2800F8D01D48008B00F0040080B20028F8D0DD
:101D3800022E16D11848210AFEF784FF164B9B8AFB
:101D480003F080039BB2002BF8D01348E1B2FEF7F2
:101D580079FF114B9B8A03F080039BB2002BF8D0CC
:101D68000AE00D48E1B2FEF76DFF0B4B9B8A03F0CA
:101D780080039BB2002BF8D007482978FEF762FF52
:101D880005480749FEF764FF0028F9D002480121F9
:101D9800FEF734FF0720F8BD00580040010003009B
:101DA800840007002DE9F04105460E46174698467F
:101DB8003E484FF40031FEF759FF0028F8D13B4860
:101DC8000121FEF70DFF39483949FEF741FF002888
:101DD800F9D0364829460022FEF71EFF334B9B8A6E
:101DE80003F002039BB2002BF8D0304C248B04F094
:101DF8000404A4B2002CF8D0B8F1020F16D12B4875
:101E0800310AFEF71FFF294B9B8A03F080039BB220
:101E1800002BF8D02548F1B2FEF714FF234B9B8A1C
:101E280003F080039BB2002BF8D00AE01F48F1B200
:101E3800FEF708FF1D4B9B8A03F080039BB2002B23
:101E4800F8D01A4C20460121FEF7D8FE2046012181
:101E5800FEF7C6FE15481649FEF7FAFE0028F9D027
:101E6800124829460122FEF7D7FE10481149FEF70D
:101E7800EFFE0028F9D00D4C20460021FEF7D4FED5
:101E880020460121FEF7BAFE08480B49FEF7E0FE9E
:101E98000028F9D0054C2046FEF7D6FE38702046BB
:101EA8000121FEF7C1FE0020BDE8F0810058004086
:101EB80001000300020003004000030008B50346C8
:101EC8000A46422019460123FFF76CFF08BD00BFF0
:101ED80008B503460A46432019460123FFF706FFC3
:101EE80008BD00BF41F2707303FB00F0002300E05F
:101EF80001338342FCD3704770B586B004460D4663
:101F080002238DF8143001238DF816308DF8173020
:101F180003238DF815301D4B98421BD14FF48000D8
:101F28000121FEF757FF02200121FEF729FF06A92C
:101F38004FF4406341F8083D154E3046FEF76CFDFE
:101F480030460A210422FEF7BBFD30460B2104224D
:101F5800FEF7B6FD0F4B00930023ADF804304BF6A7
:101F6800FF72ADF80620ADF80830ADF80A504FF40E
:101F78008043ADF80C3020460121FEF723FE2046B1
:101F88006946FEF7B5FD06B070BD00BF00580040B9
:101F980000040240A08601000160828013B1002382
:101FA800837101E0012383710023C371012303724C
:101FB80003234372704700BF30B583B0046881883B
:101FC8008279C379057A407A00950190204600F01D
:101FD800A9FE03B030BD00BF036882881A8370472A
:101FE800036882885A837047F0B583B000248DF85F
:101FF80000408DF801408DF802408DF803408DF8BF
:1020080004404248012100F0F3FF0C2001F008FAD7
:1020180007463F4D294610222346FFF7BDFF3D4E98
:1020280037600C2001F0FCF90746294602222346B6
:10203800FFF7B2FF384D2F603068FFF7BDFF286803
:10204800FFF7BAFF04F1804404F5903420460C21D0
:1020580000F056FC014668460A2200F0A3F86846DC
:1020680012F030F82868FFF7BBFF20460C2100F07B
:1020780047FC014668460A2200F094F8684612F0C8
:1020880021F84FF47A7000F049F820460C2100F04E
:1020980037FC014668460A2200F084F8684612F0C8
:1020A80011F82868FFF798FF3068FFF799FF204676
:1020B8000C2100F025FC014668460A2200F072F85F
:1020C800684611F0FFFF4FF47A7000F027F82046B9
:1020D8000C2100F015FC014668460A2200F062F85F
:1020E800684611F0EFFF40F6B83000F017F82046C8
:1020F8000C2100F005FC014668460A2200F052F85F
:10210800684611F0DFFF03B0F0BD00BF003C00409F
:10211800000802407C0300208003002082B0019068
:10212800019B4FF47A7202FB03F2044B1A60034BD3
:102138001B68002BFBD102B0704700BF840300204E
:1021480082B00190019B4FF47A7202FB03F2044BB8
:102158001A60034B1B68002BFBD102B0704700BF0D
:1021680084030020034B1B681BB1024B1A68013A19
:102178001A6070478403002008B5FFF7F3FF074A89
:102188001378013BDBB213703BB9C822034B1A70BA
:1021980003484FF40051FEF78FFC08BD28000020CB
:1021A800000C024030B4012301E002FB03F3B1FB51
:1021B800F3F415469442F8D200240EE0B1FBF3F292
:1021C80003FB1211B3FBF5F3092A02D93732025582
:1021D80001E0303202550134E4B2002BEED1035550
:1021E80030BC704770B504460D46012815D14FF62E
:1021F800FF73994211D10D4801F04CF90C4E0D486E
:1022080031464FF400720023FFF7C6FE0A483146F4
:102218004FF480720023FFF7BFFE34B94FF6FF7307
:102228009D4202D1014801F0BDF970BDA003002014
:1022380000080240940300208803002000B583B002
:102248000A200DF10701FFF739FE012003B05DF800
:1022580004FB00BF2DE9F0479AB000248DF8074031
:102268008DF80C408DF80D408DF80E408DF80F401C
:102278008DF81040C44E3046FFF79EFEC34D2846E9
:10228800FFF79AFE01200146FEF77AFD4FF48073AE
:10229800059303238DF8193002238DF818308DF833
:1022A8001A408DF81B40BA4805A9FEF7B5FB4FF454
:1022B80080002146FEF7FEFC3046FFF791FE2846D7
:1022C800FFF78AFE6420FFF729FFB2484FF48061C8
:1022D800FFF712FE0EE00A20FFF720FFAE4B03EBDC
:1022E800440252781AA901F8612D13F81400FFF777
:1022F800EFFD0134A42CEEDD00240EE00A20FFF7E8
:102308000DFFA64B03EB440252781AA901F8612D80
:1023180013F81400FFF7DCFD0134272CEEDD002450
:102328000EE00A20FFF7FAFE9D4B03EB44025278B9
:102338001AA901F8612D13F81400FFF7C9FD01343B
:102348001D2CEEDDFFF77AFF0128FBD111200DF1DE
:102358000701FFF7B3FD9DF8073023F07F0343F033
:1023680001038DF8073011200DF10701FFF7B0FDCB
:1023780040200DF10701FFF7A1FD03A89DF8071004
:102388000A22FFF70FFF874E30469DF8071011F01D
:10239800DBFD854D284611F095FE9DF8073023F0AA
:1023A800300343F010038DF8073040200DF107018A
:1023B800FFF78EFD00248DF8074040200DF107013E
:1023C800FFF77CFD03A89DF807100A22FFF7EAFE35
:1023D80030469DF8071011F0B7FD284611F072FE3F
:1023E80017200121FEF7CCFC4FF480000121FEF7F5
:1023F800C7FC01200146FEF7D1FC4E238DF80830BA
:102408008DF809408DF80A4001258DF80B5002A877
:10241800FDF7F6FFDFF87891484604210D22FEF714
:102428004FFB484606210D22FEF74AFBDFF8908154
:10243800404606210D22FEF743FB404607210D22A8
:10244800FEF73EFB594F384606210D22FEF738FBB2
:10245800384607210D22FEF733FB554E30462146FC
:102468000D22FEF72DFB304629460D22FEF728FBEC
:10247800304604210D22FEF723FB304605210D22AC
:10248800FEF71EFB304606210D22FEF719FB5023EE
:1024980005934FF0020A8DF818A003238DF8193020
:1024A8008DF81A408DF81B50484605A9FEF7B4FA76
:1024B8004FF0C009CDF81490404605A9FEF7ACFAD4
:1024C800CDF81490384605A9FEF7A6FA73230593AC
:1024D800304605A9FEF7A0FAFEF754F8ADF81C40FF
:1024E800ADF81E402023ADF820308023ADF822300F
:1024F800ADF82440ADF82640ADF8284007A8FEF70F
:102508004FF828462946FEF78DF808202946FEF799
:1025180089F810202946FEF785F850462946FEF727
:1025280081F804202946FEF77DF82248FEF79AF83C
:102538002048FEF779F90028FAD14FF000730B9381
:102548001D4B0C931D4B0D9300230E9301220F92EC
:10255800109311934FF4805212924FF40052139239
:102568004FF4807214924FF400321592042216929E
:1025780003221792189319930E480BA9FEF71CF91A
:102588001AB0BDE8F08700BF88030020940300203C
:102598000000024000580040801604083016040865
:1025A80048BC010884140408881404080008024080
:1025B8000010024028640240280005500000026014
:1025C8000004024008B50120FEF73CF8012801D1BB
:1025D800FEF742F80820FEF735F801280FD1082049
:1025E800FEF73AF80E480F49FEF726F90028F9D009
:1025F800002040F23F11FFF70FFAFFF755FA1020BD
:10260800FEF720F8012802D11020FEF725F8022055
:10261800FEF718F8012802D10220FEF71DF808BDC0
:10262800286402400008001030B583B00120FEF78E
:1026380039FBFEF705FC0028FBD01D4BA7225A608A
:10264800F0241C4A82F8234000259D6007221A6066
:1026580019480C2100F0ACFAFFF7C6FCFFF76EFA38
:10266800FFF70EFBFFF7E4F900F07AF800F054FDED
:102678004FF6FF70FFF724FA1048FFF7C1F9FFF78C
:10268800E9FDFFF7DBFD0E480121FEF7C1F8012047
:10269800FDF7A8FF0120FDF7B5FF0A4B0093284678
:1026A80040F23F1122464FF4A073FFF721FAFEE7EC
:1026B80010E000E000ED00E0002001402C000020C8
:1026C8002864024084BC010810B582B04FF48050E1
:1026D800FEF716F960B30024ADF80440ADF80640E3
:1026E80001A80DF1060100F057FE1248BDF80410CC
:1026F800BDF8062011F028FC0F4811F0E3FC204635
:1027080040F23F11FFF788F9FFF7CEF90B48012196
:10271800FEF77EF80120FDF765FF0120FDF772FF47
:102728004FF4FA70FFF7DEFB4FF48050FEF7F2F833
:1027380002B010BD8C1404089C14040828640240DC
:1027480008B501204FF6FF71FFF74CFD08BD00BF2B
:1027580008B500204FF6FF71FFF744FD08BD00BF24
:102768002DE9F0418AB004200121FEF733FB08204F
:102778000121FEF705FB4FF4805308934FF0020840
:102788008DF8248003278DF8257000258DF82650B4
:1027980001248DF82740264E304608A9FEF73CF95B
:1027A80030460C214246FEF78BF94FF4005308934C
:1027B8008DF824408DF825708DF826508DF8274027
:1027C800304608A9FEF728F91A4B1A681A4BA3FBDA
:1027D80002131B0E013B9BB2184A138040F2992248
:1027E8000692ADF81430ADF81C50ADF81650A6F5A9
:1027F8000136304605A9FEF7A7FB6023ADF8003087
:10280800ADF802400295ADF80C5030466946FEF727
:10281800F5FB30460821FEF729FC30462146FEF735
:10282800D1FB30462146FEF7DBFB0AB0BDE8F0815C
:10283800000C02402400002029D94266A40300208D
:10284800704700BFFEE700BFFEE700BFFEE700BF1E
:10285800FEE700BF704700BF704700BF704700BF6A
:1028680010B58AB0044600238DF8153008930793F5
:10287800069301228DF824208DF8143003F180434B
:1028880003F59033984208D103F58C335A6C42F41F
:1028980080725A640023049315E0164B984207D1BE
:1028A800154B5A6C42F400725A64002304930AE0F0
:1028B800124B984207D103F58B335A6C42F480626D
:1028C8005A64002304930023029300934FF4803347
:1028D80001934FF4407303936846FDF7F3FD2046D8
:1028E80004A9FDF7C7FDA36843F00103A3600AB07C
:1028F80010BD00BF00210140003802400022014005
:1029080010B5044601221346FDF7F2FDA36843F013
:102918008043A36040F6FF7302E05A1E3BB11346A2
:10292800226812F0020FF8D0E06C80B210BD0020CF
:1029380010BD00BF00B583B00223009301230193AB
:102948000322002300F0EEF903B05DF804FB00BF9A
:1029580008B502480121FFF7EDFF08BD000002405D
:1029680008B502480221FFF7E5FF08BD0000024054
:1029780008B502480421FFF7DDFF08BD000002404A
:1029880008B502480821FFF7D5FF08BD000002403E
:1029980010B50446094B984203D003F5807398425A
:1029A80003D107481021FFF7C5FF064B9C4203D10E
:1029B80005484021FFF7BEFF10BD00BF00200140C1
:1029C80000000240002201400014024010B50446F5
:1029D800094B984203D003F58073984203D1074806
:1029E8002021FFF7A7FF064B9C4203D10548802111
:1029F800FFF7A0FF10BD00BF00200140000002400B
:102A0800002201400014024010B50446094B9842C8
:102A180003D003F58073984203D107484021FFF79C
:102A280089FF064B9C4204D105484FF48071FFF79B
:102A380081FF10BD0020014000000240002201403B
:102A48000014024010B50446094B984203D003F520
:102A58008073984203D107488021FFF76BFF064B2C
:102A68009C4204D105484FF40071FFF763FF10BD85
:102A780000200140000002400022014000140240F2
:102A880010B50446094B984203D003F58073984269
:102A980003D107480121FFF74DFF064B9C4204D1A3
:102AA80005484FF48061FFF745FF10BD0020014045
:102AB80000040240002201400014024010B5044600
:102AC800094B984203D003F58073984203D1074815
:102AD8000221FFF72FFF064B9C4203D1054808212E
:102AE800FFF728FF10BD00BF00200140000402408E
:102AF800002201400014024008B502480121FFF7F6
:102B080019FF08BD0008024008B502480221FFF776
:102B180011FF08BD0008024008B502480421FFF76C
:102B280009FF08BD0008024008B502480821FFF760
:102B380001FF08BD0008024010B50446094B984241
:102B480003D003F58073984203D107481021FFF79B
:102B5800F1FE064B9C4203D105481021FFF7EAFE1F
:102B680010BD00BF002001400008024000220140C3
:102B78000014024008B50A4B984203D003F580734D
:102B8800984204D107482021FFF7D4FE08BD064B20
:102B9800984203D105482021FFF7CCFE08BD00BFAD
:102BA80000200140000802400022014000140240B9
:102BB80010B5044611B9FFF7CBFE49E0012902D14F
:102BC800FFF7CEFE44E0022902D1FFF7D1FE3FE035
:102BD800032902D1FFF7D4FE3AE0042902D1FFF716
:102BE800D7FE35E0052902D1FFF7F0FE30E00629CF
:102BF80002D1FFF709FF2BE0072902D1FFF722FFD7
:102C080026E0082902D1FFF73BFF21E0092902D17C
:102C1800FFF754FF1CE00A2902D1FFF76DFF17E008
:102C28000B2902D1FFF770FF12E00C2902D1FFF740
:102C380073FF0DE00D2902D1FFF776FF08E00E299A
:102C480002D1FFF779FF03E00F2901D1FFF792FFC7
:102C58002046FFF705FE10BD00F13F4000F57E005D
:102C6800C0F38F20704700BF38B5054C256BFFF7C0
:102C7800F3FF012303FA00F00543256338BD00BFC5
:102C8800003802402DE9F04F83B00546884691464A
:102C98009B469DF830A09DF834100191FFF7DCFFAA
:102CA800C0B2002437E048FA04F313F0010F30D023
:102CB8000126A6401A4B33F81020324323F810207F
:102CC800EF68630003229A40D24307EA020C0AFA2B
:102CD80003F74CEA0707EF602F6807EA020C09FAC6
:102CE80003F74CEA07072F6009F1FF37FFB2012FFE
:102CF8000FD86F68B6B227EA06060BFA04F189B254
:102D080031436960A9680A40019901FA03F3134342
:102D1800AB600134E4B20F2CC5D903B0BDE8F08F25
:102D2800A8030020F0B583B0044616461D460F469A
:102D380069B1FFF799FF9DF8203000939DF8243082
:102D480001932046394632462B46FFF79BFF03B0D6
:102D5800F0BD00BF2DE9F04782B0064691469A467D
:102D68009DF82C800F4631B3FFF77EFF002415E055
:102D780047FA04F515F0010F0FD0E508083556F8A5
:102D8800251004F007039B000F229A4021EA020253
:102D980008FA03F3134346F8253001340F2CE7D91A
:102DA800CDF800A09DF8283001933046394602221C
:102DB8004B46FFF767FF02B0BDE8F087704700BFDA
:102DC80010B582B0044648B9032300930523019344
:102DD8000C48E02100221346FFF7BCFF012C09D163
:102DE8000323009305230193074838210022134643
:102DF800FFF7B0FF032C03D104480521FFF7DEFFDE
:102E080002B010BD00000240000402400030014042
:102E180070B582B00446A8B9032600960525019529
:102E280000F1804000F501304FF480610022134624
:102E3800FFF790FF0096019513480C2100221346D6
:102E4800FFF788FF012C0AD1032300930523019380
:102E58000E484FF4604100221346FFF77BFF022C17
:102E680009D1032300930523019309480D2100226A
:102E78001346FFF76FFF032C03D106480521FFF720
:102E88009DFF02B070BD00BF000802400004024070
:102E9800002002400038004010B582B0044660B9F6
:102EA800032300930623019300F1804000F50130CD
:102EB800382100221346FFF74DFF012C0AD10323C6
:102EC80000930623019307484FF4E051002213466C
:102ED800FFF740FF032C03D103480621FFF76EFFDD
:102EE80002B010BD00080240003C0040F0B587B0B9
:102EF80004460F4615461E4601A8FDF7E3FF394B69
:102F08009C420BD103F584335A6C42F480525A64C4
:102F18003846FFF755FF0023ADF80830324B9C4286
:102F28000BD103F500331A6C42F480421A64384618
:102F3800FFF76EFF0023ADF808302C4B9C420BD1F5
:102F480003F5FE331A6C42F400421A643846FFF760
:102F5800A3FF0023ADF80830ADF810600023ADF8EA
:102F68000430BDF83430ADF81230BDF83030ADF86B
:102F780006304FF40073ADF80E300723ADF8143067
:102F88002DB90023ADF80A30ADF80C3019E0012D49
:102F980006D10023ADF80A300123ADF80C3010E05B
:102FA800022D06D10223ADF80A300023ADF80C300B
:102FB80007E0032D05D10223ADF80A300123ADF84F
:102FC8000C30238823F040031B041B0C238020466D
:102FD80001A9FDF74FFF23889BB243F040032380EC
:102FE80007B0F0BD0030014000380040003C004010
:102FF80030B583B004460D46134B984208D14FF4C0
:1030080082730093002201920F482023FFF76EFF7E
:103018000E4B9C4209D14FF4827300930022019217
:103028000A4829462023FFF761FF094B9C4209D132
:103038004FF48273009300220192054829463023F9
:10304800FFF754FF03B030BD0030014000380040A6
:10305800003C004010B504460A480221FDF752FF23
:103068000028F9D007482146FDF74AFF0548012105
:10307800FDF748FF0028F9D00248FDF73DFFC0B230
:1030880010BD00BF0038004038B50D4C20464FF445
:103098000061FDF70FFDD020FFF7DCFF0020FFF7F0
:1030A800D9FF000285B20020FFF7D4FF284485B27B
:1030B80020464FF40061FDF7FBFC280938BD00BF2E
:1030C8000004024038B50D4C20464FF40061FDF76E
:1030D800F1FC9020FFF7BEFF0020FFF7BBFF0002C6
:1030E80085B20020FFF7B6FF284485B220464FF48A
:1030F8000061FDF7DDFC280938BD00BF000402406F
:1031080010B5FFF7DFFF034CA080FFF7BDFFE0809D
:10311800012010BD0C1900202DE9F04782B04FF4B2
:1031280080400121FDF764FE4FF480400121FDF746
:1031380051FE02200121FDF723FE454D28460D21B1
:103148000522FDF7BDFC28460E210522FDF7B8FC37
:1031580028460F210522FDF7B3FC4FF002088DF831
:1031680004808DF8058000268DF806608DF80780AC
:1031780002AF4FF4005347F8083D28466946FDF76B
:103188004BFC4FF40043009328466946FDF744FC86
:103198004FF48049CDF8009028466946FDF73CFC7D
:1031A8004FF4006ACDF800A001248DF804408DF892
:1031B800066003238DF805308DF8074028466946D8
:1031C800FDF72AFC28465146FDF772FC21490E807E
:1031D8004FF482724A808E80A1F806800C814FF4E9
:1031E80000724A8130228A81CE8107220A82DFF862
:1031F80070804046FDF73EFE40462146FDF76EFED4
:1032080048462146FDF7F4FD8DF804608DF8076007
:103218004FF48058CDF8008028466946FDF7FCFB3E
:1032280020460C21FDF776FE0B48C0F80080067199
:10323800082343718471FDF71BFB0848282303709A
:1032480044708470C470FDF7DBF802B0BDE8F08705
:1032580000040240281900203C1900200819002009
:1032680000380040F0B58BB047484FF48051FDF767
:1032780017FC0546002840F08280FFF741FF002434
:1032880010E0FFF73DFF68B1404B99880AA800EBB2
:10329800440222F8281CDA8800EB440323F8142C93
:1032A8000134E4B2092CECD90A2C64D11BE00AAD34
:1032B80005EB430232F8285C5E1C0AAF07EB4602B6
:1032C80032F8282C954208D907EB460626F8285CE0
:1032D80007EB400020F8282C01210133DBB204E081
:1032E80000210B4601E000210B461846621E93425E
:1032F800DDDB0029F4D10C46002318E00DF1280C81
:103308000CEB430535F8146C5F1C35F8125CAE42C3
:1033180008D90CEB470727F8146C0CEB400020F891
:10332800145C01240133DBB201E00C46002318468B
:103338009A42E3DC002CF8D1BDF80610BDF808303D
:103348001944BDF80A301944114B83FB01010F4A97
:103358009180BDF81A00BDF81C100844BDF81E1075
:10336800014483FB0143C3F5FF630733D380012581
:10337800084B1D7004E00022064B1A7000E000257F
:1033880028460BB0F0BD00BF000402400C19002015
:1033980056555555C0030020F8B506460F46FFF7A9
:1033A80061FF1D4CA08867380FF002F916A3D3E916
:1033B80000230FF08DFA0FF0FBFB85B22580E08823
:1033C80068380FF0F5F812A3D3E900230FF080FA5C
:1033D8000FF0EEFB80B26080F02D01D9F021218042
:1033E800B0F5A07F03D94FF4A0720B4B5A800A4B5B
:1033F8001A8832805B883B803288F02A02D1B3F584
:10340800A07FCCD0F8BD00BFCDCCCCCCCCCC1E405E
:103418003D0AD7A3703D16400C190020AFF3008079
:1034280010B5002814BF04460124204610F04EFCB5
:1034380030B9044B1B680BB9FDF728FE9847F4E731
:1034480010BD00BFC403002010B5034B0360044641
:103458000BF060FF204610BD6818040810B5034B38
:10346800036004460BF062FF204610BDA81804084C
:1034780010B50446FFF7E8FF20460DF08FF8204608
:1034880010BD10B50446FFF7E9FF20460DF086F899
:10349800204610BD2DE9F843314D2B685A1C814652
:1034A8002A60002B58D12F4C2F4B3048304FDFF873
:1034B800F080304E01221A702368996800F0A8FA4B
:1034C80023682D48596800F0A3FA23682B48D96867
:1034D80000F09EFA384625490CF084F82649404603
:1034E8000BF068FE304625490CF07CF82349244847
:1034F8000CF078F83369776743F400533361236835
:10350800C8F8787099681F481F4E204F00F090FA4D
:1035180023681F48596800F08BFA23681D48D9684A
:103528001D4C00F085FA174930460CF085F818490B
:1035380038460BF055FE174920460CF07DF8174821
:1035480014490CF079F82369BE6743F400532361EA
:103558002B68666701332B604846BDE8F88300BFD7
:10356800200A00201801002034000020D009002083
:1035780048070020B8040020640800202007002025
:103588001C090020F806002044050020D40500206E
:1035980090040020A80900208C080020680600205C
:1035A800D40700200D4A1368591E022B10B5044693
:1035B800116011D10A480CF029F80A480CF026F8D5
:1035C80009480CF023F809480CF04AF808480CF0B0
:1035D80047F808480CF044F8204610BD200A00209F
:1035E80048070020B80400201C09002044050020DA
:1035F8008C0800206806002010B5034B03600446C1
:103608000DF0AEFB204610BDD817040810B5034BCB
:10361800036004460DF0A4FB204610BDE81704081B
:1036280010B50446FFF7E8FF20460CF0B7FF204628
:1036380010BD10B50446FFF7E9FF20460CF0AEFFB9
:10364800204610BD08B5836F0BB941F001014161F7
:10365800426903691A4202D001480CF025F808BDF6
:103668004218040808B543691943FFF7EBFF08BD82
:1036780010B504460DF032FB074B2360002384F895
:103688007430236784F87530A367E367C4F8803023
:10369800C4F88430204610BDD817040838B504464D
:1036A80008460D4607F09CF910B1284606F076FE4C
:1036B800E067284607F0B2F910B1284606F05EFF29
:1036C800C4F88000284607F0C7F910B1284606F06C
:1036D80073FFC4F8840038BD38B504460D460BF0B6
:1036E8000BFD204604F16C01FFF7D8FF002384F896
:1036F800743084F8753023672361EB1AA5675D423F
:103708005D41656138BD000008B5C36F0BB941F074
:1037180001014161426903691A4202D001480BF074
:10372800C3FF08BD4218040808B543691943FFF7E9
:10373800EBFF08BD10B504460DF0D0FA074B236027
:1037480000232367636784F87830E367C4F8803020
:10375800C4F88430C4F88830204610BDE81704083F
:1037680038B5044608460D4600F0AEFF10B12846AD
:1037780000F0D8FEC4F88000284600F0C3FF10B15E
:10378800284600F00BFFC4F88400284600F0D8FF54
:1037980010B1284600F020FFC4F8880038BD38B5BD
:1037A80004460D460BF0A8FC204604F16C01FFF717
:1037B800D7FF0023636784F8783023672361EB1A07
:1037C800E5675D425D41656138BD82B037B506ADDC
:1037D80085E80C0000220B6800920A9A01921D6984
:1037E800DDE906230446A847204603B0BDE830407B
:1037F80002B0704782B037B506AD85E80C000022EC
:103808000B6800920A9A01921D69DDE906230446B5
:10381800A847204603B0BDE8304002B0704738B52D
:1038280004460D46236A084601210FF077FF002859
:10383800CABF2D184FF0FF3315F8013C636238BD3D
:10384800034608461B6A012110F0F8B8F8B505468A
:103858000E4617460024BC4204D0286A10F02EF900
:10386800431C06D14CB104F18043013B56F8233088
:1038780005E046F824000134EDE74FF0FF336B62B2
:103888002046F8BD10B50446006A10F017F96062CA
:1038980010BDF8B505460E4617460024BC4208D0B0
:1038A80056F82400296A10F015FC013001D00134C3
:1038B800F4E72046F8BD10B50446006A10F0CEF8CB
:1038C800606210BD10B50446006A10F0C7F8216A9E
:1038D800BDE8104012F078BB4A1C10B5044603D16D
:1038E800406A431C01D103E00846216A12F06CFBD0
:1038F8004FF0FF33636210BD006A0FF0EDBD006A40
:103908000FF0EABD2DE9F8431446089A00234FF05A
:10391800FF364FF0FF3780468946C0E9006783606D
:10392800C3601AB1012A14BF02220122D9F820006B
:1039380021460FF003FF30B9D9F820000FF09AFFA5
:10394800C117C8E900014046BDE8F8832DE9F843EE
:103958001446089A00234FF0FF364FF0FF37804691
:103968008946C0E900678360C3601AB1012A14BFA1
:1039780002220122D9F8200021460FF0DFFE30B9DB
:10398800D9F820000FF076FFC117C8E900014046BA
:10399800BDE8F88310B50446006A10F08FF8216A74
:1039A800BDE8104012F042BB4A1C10B5044603D1D2
:1039B800406A431C04D000E00846216A12F036FB36
:1039C8004FF0FF33636210BD4A1C08B5034607D1A8
:1039D800006A0FF081FD003018BF0120404208BD89
:1039E8000846196ABDE8084010F002BB4A1C08B531
:1039F800034607D1006A0FF06FFD003018BF0120A1
:103A0800404208BD0846196ABDE8084010F062BB8C
:103A180038B504460D460BF059FD044B23604FF0B2
:103A2800FF3325626362204638BD00BF681804086A
:103A380038B504460D460BF07FFD044B23604FF06C
:103A4800FF3325626362204638BD00BFA81804080A
:103A58008368586970478368986970478368586BAA
:103A6800704783689B6B0020DAB262F30700C3F3E8
:103A7800072262F30F20C3F3074262F317401B0EBD
:103A880063F31F6082B002B070478368DB6B00206D
:103A9800DAB262F30700C3F3072262F30F20C3F31D
:103AA800074262F317401B0E63F31F6082B002B037
:103AB8007047836858697047836898697047836856
:103AC800586B704783689B6B0020DAB262F307007B
:103AD800C3F3072262F30F20C3F3074262F31740D0
:103AE8001B0E63F31F6082B002B070478368DB6B04
:103AF8000020DAB262F30700C3F3072262F30F2053
:103B0800C3F3074262F317401B0E63F31F6082B0D2
:103B180002B070478368586A70478368986A70472C
:103B2800002070470020704770470020914204D25F
:103B380051F8043B03EB7060F8E7704713B58B68E6
:103B480001AA996804460CF039F9204602B010BD64
:103B580013B58B6801AA996804460CF02FF9204622
:103B680002B010BD13B58B6801AA996804460CF021
:103B780025F9204602B010BD13B58B6801AAD96992
:103B880004460CF08BFC204602B010BD13B58B68C0
:103B980001AA596A04460CF081FC204602B010BD07
:103BA80013B58B6801AAD96A04460CF077FC204645
:103BB80002B010BD13B58B6801AAD96904460CF090
:103BC8006DFC204602B010BD13B58B6801AA596A76
:103BD80004460CF063FC204602B010BD13B58B6898
:103BE80001AAD96A04460CF059FC204602B010BD5F
:103BF80013B58B6801AA596904460CF04FFC20469E
:103C080002B010BD13B58B6801AAD96904460CF03F
:103C180045FC204602B010BD0D4B10B5036090F86E
:103C28006C3004467BB1806808B10CF059FFE0693C
:103C380008B10CF055FF606A08B10CF051FFE06A5A
:103C480008B10CF04DFF20460DF00EF9204610BDCE
:103C5800381C04080D4B10B5036090F86C3004460E
:103C68007BB1806808B10CF03BFFE06908B10CF04B
:103C780037FF606A08B10CF033FFE06A08B10CF056
:103C88002FFF20460DF0F0F8204610BD481C040810
:103C980010B5034B036004460DF0E6F8204610BD4E
:103CA800C81B040810B5034B036004460DF0DCF88C
:103CB800204610BDE01B04080B4B10B5036090F8BC
:103CC800243104465BB1806808B10CF009FF6069D3
:103CD80008B10CF005FFE06908B10CF001FF2046BF
:103CE8000DF0C2F8204610BD581C040810B5034B4F
:103CF800036004460DF0B8F8204610BD781A040891
:103D080010B5034B036004460DF0AEF8204610BD15
:103D1800B81A040810B5034B036004460DF0A4F864
:103D2800204610BDE81A040810B5034B036004468A
:103D38000DF09AF8204610BDF81B040810B5034B87
:103D4800036004460DF090F8204610BD101C0408CE
:103D580010B5034B036004460DF086F8204610BDED
:103D6800981B040810B5034B036004460DF07CF85B
:103D7800204610BD101A040810B50446FFF74CFF82
:103D880020460CF00BFC204610BD10B50446FFF78A
:103D980061FF20460CF002FC204610BD10B5044619
:103DA800FFF776FF20460CF0F9FB204610BD10B552
:103DB8000446FFF777FF20460CF0F0FB204610BDC5
:103DC80010B50446FFF778FF20460CF0E7FB2046C5
:103DD80010BD10B50446FFF789FF20460CF0DEFB46
:103DE800204610BD10B50446FFF78AFF20460CF0A8
:103DF800D5FB204610BD10B50446FFF78BFF2046C3
:103E08000CF0CCFB204610BD10B50446FFF78CFF24
:103E180020460CF0C3FB204610BD10B50446FFF742
:103E28008DFF20460CF0BAFB204610BD10B50446A5
:103E3800FFF78EFF20460CF0B1FB204610BD10B5F1
:103E48000446FFF78FFF20460CF0A8FB204610BD64
:103E580010B5054B044640F8083B0DF05DFA2046C6
:103E68000DF002F8204610BD781B040810B5044672
:103E7800FFF7EEFF20460CF091FB204610BD000036
:103E880010B5054B044640F8083B0DF045FA2046AE
:103E98000CF0EAFF204610BDF019040810B50446DE
:103EA800FFF7EEFF20460CF079FB204610BD00001E
:103EB80038B50D4B0360056904460DF00BF88542D3
:103EC80003D015B128460CF00BFEA06810B10368AA
:103ED8005B68984704F10C000DF01EFA20460CF0C0
:103EE800C3FF204638BD00BFF81A040810B50446C1
:103EF800FFF7DEFF20460CF051FB204610BD2DE9F0
:103F0800FF411C46804603AB02A80CF0DDFA2146AF
:103F180003A80A9A01AB0CF0D7FA029D039C55F846
:103F28000C7C54F80C6C05EB870704EB86064046BE
:103F3800294622460BF0CFF8A8B9284613F056FABE
:103F480005EB8005204613F051FABD4204EB8000D2
:103F580004D1841B18BF6FF0000407E0B04204D0FE
:103F68000435041DE3E7044600E0012403A80CF02F
:103F780021F802A80CF01EF8204604B0BDE8F08134
:103F88002DE9F7431D462A4B036014466B46074646
:103F9800884601A811462A460CF096FA2C1B019E69
:103FA8006410B4F1FE5F56F80C3C94BFA0004FF0CB
:103FB800FF3006EB83090CF012FE054632464046F8
:103FC800294623460BF093F8A042024614D3441C1A
:103FD80015B128460CF084FDB4F1FE5F94BFA00033
:103FE8004FF0FF300CF0FBFD0546324640462946AF
:103FF80023460BF07CF80246294638460CF062F955
:10400800304613F0F3F906EB8000484505D0061D4D
:10401800002138460CF0E7F9D0E715B128460CF036
:104028005FFD01A80BF0C6FF384603B0BDE8F0837A
:10403800140A00200A2807D82F2917D930308142BE
:1040480014D2A1F130007047A1F1300009280FD92E
:10405800A1F16103052B02D8A1F157007047A1F126
:104068004103052B02D8A1F1370070474FF0FF300C
:104078007047000008B4F3B50F46042000210FF084
:10408800CDFD1649054610F062F980B1284610F0BA
:1040980003FE461C30460CF0A2FD29463246044673
:1040A8000FF08EFE0D4904200FF0B8FD00E0044625
:1040B80008AA38460799019212F03AFC054634B12D
:1040C800042021460FF0AAFD20460CF009FD2846E1
:1040D80002B0BDE8F04001B0704700BF15330408D6
:1040E80010B5003218BF0122054B8160002104463B
:1040F800426003600A460DF049FA204610BD00BF31
:10410800401B040808B503689B68984708BD08B5B4
:104118000368DB68984708BD10B50B6804461B693F
:104128009847204610BD10B50B6804465B69984750
:10413800204610BD10B50B6804469B699847204679
:1041480010BD10B50B680446DB699847204610BDC2
:1041580008B503681B6A984708BD036807B55B6A1A
:1041680098470023C2B262F30703C0F3072262F341
:104178000F23C0F3074262F31743000E60F31F6377
:10418800184603B05DF804FB036807B59B6A9847B7
:104198000023C2B262F30703C0F3072262F30F23BE
:1041A800C0F3074262F31743000E60F31F6318461B
:1041B80003B05DF804FB000010B5003218BF0122FF
:1041C800054B816000210446426003600A460DF0F9
:1041D80097F9204610BD00BF081B040808B50368FE
:1041E8009B68984708BD08B50368DB68984708BD11
:1041F80010B50B6804461B699847204610BD10B5DA
:104208000B6804465B699847204610BD10B50B68DB
:1042180004469B699847204610BD10B50B680446B4
:10422800DB699847204610BD08B503681B6A9847A4
:1042380008BD036807B55B6A98470023C2B262F3FA
:104248000703C0F3072262F30F23C0F3074262F3A8
:104258001743000E60F31F63184603B05DF804FBB4
:10426800036807B59B6A98470023C2B262F3070345
:10427800C0F3072262F30F23C0F3074262F3174328
:10428800000E60F31F63184603B05DF804FB0000DE
:1042980000310B4A026018BF012100224160826090
:1042A800C260027442618261C261026242628262D9
:1042B800C262026342638263C26380F86C20704703
:1042C800381C040800310B4A026018BF0121002283
:1042D80041608260C260027442618261C2610262AE
:1042E80042628262C262026342638263C26380F88E
:1042F8006C207047481C040810B5003218BF012212
:10430800044B426004460360816000210DF062FAAC
:10431800204610BD501A040808B503689B689847E2
:1043280008BD08B50368DB68984708BD10B50B6879
:1043380004461B699847204610BD10B50B68044613
:104348005B699847204610BD10B50B6804469B6909
:104358009847204610BD00000031094A026018BF86
:104368000121002241608260C26002744261826160
:10437800C26102624262826280F82421704700BFF3
:10438800581C0408003218BF0122074B10B54260C0
:104398000360816004460CF09DFD002120612046E9
:1043A80005F062F8204610BDF81A040883689B6877
:1043B8000B608368DB684B60704783681B690B6020
:1043C80083685B694B60704783689B690B6083688F
:1043D800DB694B6070478368DB6A0B6083681B6B23
:1043E8004B6083685B6B8B6083689B6BCB60836877
:1043F800DB6B0B6183681B6C4B6183685B6C8B6147
:10440800704783689B6C0B608368DB6C4B608368C8
:104418001B6D8B6083685B6DCB6083689B6D0B61E4
:104428008368DB6D4B6183681B6E8B6170478368A3
:104438005B6E0B6083689B6E4B608368DB6E8B6082
:1044480083681B6FCB6083685B6F0B6183689B6FAE
:104458004B618368DB6F8B618368D3F88030CB61F5
:104468008368D3F884300B628368D3F888304B6252
:104478008368D3F88C308B628368D3F89030CB6232
:1044880070478368D3F894300B608368D3F898300A
:104498004B608368D3F89C308B608368D3F8A03076
:1044A800CB608368D3F8A4300B618368D3F8A83055
:1044B8004B618368D3F8AC308B618368D3F8B03034
:1044C800CB618368D3F8B4300B628368D3F8B83013
:1044D8004B628368D3F8BC308B628368D3F8C030F2
:1044E800CB627047003110B518BF0121044B416001
:1044F800036004460CF0E2FCA060204610BD00BF3B
:10450800781B0408003110B518BF0121044B416025
:10451800036004460CF0D2FCA060204610BD00BF2A
:10452800F019040810B504460A480CF059FD226831
:1045380051689268904202D251F8200008B90BF0F5
:10454800A4F80549054A00230BF0CAFF08B90CF086
:1045580022F810BD180A0020C43204088830040864
:1045680010B504460A480CF03BFD22685168926871
:10457800904202D251F8200008B90BF086F805499C
:10458800054A00230BF0ACFF08B90CF004F810BD85
:1045980014040020C4320408E41F040810B50446BB
:1045A8000A480CF01DFD226851689268904202D2B8
:1045B80051F8200008B90BF068F80549054A0023AE
:1045C8000BF08EFF08B90BF0E6FF10BD0C040020BD
:1045D800C4320408201D040810B504460A480CF02B
:1045E800FFFC226851689268904202D251F820007C
:1045F80008B90BF04AF80549054A00230BF070FF8B
:1046080008B90BF0C8FF10BD10040020C43204081C
:10461800C01D040810B504460A480CF0E1FC2268E5
:1046280051689268904202D251F8200008B90BF004
:104638002CF80549054A00230BF052FF08B90BF086
:10464800AAFF10BD20040020C4320408FC1E040880
:1046580010B504460A480CF0C3FC226851689268F9
:10466800904202D251F8200008B90BF00EF8054923
:10467800054A00230BF034FF08B90BF08CFF10BD7E
:1046880024040020C4320408001D040810B50446A0
:104698000A480CF0A5FC226851689268904202D240
:1046A80051F8200008B90AF0F0FF0549054A00232F
:1046B8000BF016FF08B90BF06EFF10BD08040020C0
:1046C800C4320408641F040810B504460A480CF0F4
:1046D80087FC22685168926890420BD251F82000FA
:1046E80048B10649064A00230BF0FAFE003018BF0D
:1046F800012010BD002010BD180A0020C432040893
:104708008830040810B504460A480CF069FC226891
:104718005168926890420BD251F8200048B106497E
:10472800064A00230BF0DCFE003018BF012010BD44
:10473800002010BD0C040020C4320408201D040809
:1047480010B504460A480CF04BFC22685168926880
:1047580090420BD251F8200048B10649064A00237E
:104768000BF0BEFE003018BF012010BD002010BDA8
:1047780010040020C4320408C01D04082DE9F047C5
:10478800089E099F00252C4612F804C0C6EB0709AD
:10479800BCEBA90F02EB040802DB334684460DE0AC
:1047A8004FFA8CF9B9F1000FF7DDA7EB8C0703F18D
:1047B800FF3C644534BF01340135E5E7BB4204D012
:1047C80053F8049B4CF8049BF8E79B1B23F0030366
:1047D800184415F1FF35334417D3016098F8007079
:1047E80000F1040984463E46184636B150F804AB39
:1047F8004CF804AF013EF6B2F7E7BE0009EB06003D
:10480800E7E7B5000CEB05002B4414F1FF340ED399
:104818000160165D00F1040C35461F46002DF0D0EE
:1048280057F8048B40F8048F013DEDB2F6E7BDE878
:10483800F0872DE9F341089EDDF824800A9F0B9C40
:104848008C46964616B1F51BAD1000E0256800971A
:1048580007EB850701971946404662467346FFF7FE
:104868008DFFC8EB0007BF103EB122683146521BCE
:1048780012F058FF23685D1B2F44276002B0BDE883
:10488800F081F7B50A980B9C00902668099D8E4622
:10489800174600EB860001901946284672463B46AB
:1048A800FFF76CFF401B8510256003B0F0BD70B5A5
:1048B8009DF81050041F75B10A26B1FBF6F506FBEA
:1048C80015110431234652F8211044F804192946D9
:1048D800002DF1D11DE003F04A05402D0AD101F069
:1048E80007050435C90852F82550234644F80459E9
:1048F800F5D10EE013F4804F0CBF0426142601F006
:104908000F053544090952F82550234644F804593F
:10491800F5D1C01A801070BD2DE9F84F9DF8301000
:1049280014461D4682460B9A031FC9B11E462046EF
:1049380029460A2200230EF0F9F90A98043229467A
:1049480050F82230B346204646F804390A2200239C
:104958000EF0ECF904460D4654EA0501E7D12FE0C4
:1049680002F04A01402914D104F007024FEAD408A2
:1049780004320A9848EA45784FEAD50950F82220C7
:1049880058EA09019B46444643F804294D46EBD1B1
:1049980016E012F4804F0CBF0421142104F00F021A
:1049A8000A440A98260946EA057650F822202F0973
:1049B8009B4643F8042956EA070234463D46EDD1A2
:1049C800CBEB0A008010BDE8F88F10B50468E46AE4
:1049D800A04710BD0123F7B5044680F86C3008469F
:1049E8000F46FFF735FE0546FFF78CFB606128464A
:1049F800FFF78DFBA0612846FFF7AAFB29466063F5
:104A080001A8FFF789FB019B53F80C3CE36001A860
:104A18000AF048FFE0680CF0E2F82946064601A8CB
:104A2800FFF77AFB00233146E26801A80AF08CFE02
:104A380001A80AF037FFE368A6602BB196F90030A9
:104A4800002BD4BF002301232946237401A8FFF7B4
:104A58006AFB019B53F80C3C236201A80BF0AAFAED
:104A6800206AB0F1FE5F94BF80004FF0FF300CF079
:104A7800B6F82946064601A8FFF755FB226A3146D3
:104A8800002301A80BF00AFA01A80BF093FA2946B3
:104A9800E66101A8FFF74EFB019B53F80C3CA362AB
:104AA80001A80BF087FAA06AB0F1FE5F94BF8000FE
:104AB8004FF0FF300CF093F82946064601A8FFF79F
:104AC80039FBA26A3146002301A80BF0E7F901A8D7
:104AD8000BF070FA2946666201A8FFF732FB019BCA
:104AE80053F80C3C236301A80BF064FA206BB0F177
:104AF800FE5F94BF80004FF0FF300CF070F829463D
:104B0800064601A8FFF71DFB3146226B002301A8CA
:104B18000BF0C4F901A80BF04DFAE6622846FFF73E
:104B28001CFBA0632846FFF72FFBE0633846FFF71E
:104B3800F9FC054B196804F1400301F10B02FFF77A
:104B480044FF03B0F0BD00BFAC0000202DE9F041E8
:104B580004460F480CF044FA2368DF6857F82080B1
:104B68000546B8F1000F0FD17020FEF759FC4146F9
:104B78000646FFF78DFB30462146FFF72BFF2068DE
:104B880031462A460CF00AFA57F82500BDE8F081AC
:104B9800240400200123F7B5044680F86C30084649
:104BA8000F46FFF737FD0546FFF718FB60612846FB
:104BB800FFF719FBA0612846FFF736FB294660631B
:104BC80001A8FFF715FB019B53F80C3CE36001A813
:104BD8000AF068FEE0680CF002F82946064601A8CB
:104BE800FFF706FB00233146E26801A80AF0ACFD96
:104BF80001A80AF057FEE368A6602BB196F90030C9
:104C0800002BD4BF002301232946237401A8FFF7F2
:104C1800F6FA019B53F80C3C236201A80BF0CAF981
:104C2800206AB0F1FE5F94BF80004FF0FF300BF0B8
:104C3800D6FF2946064601A8FFF7E1FA226A31465F
:104C4800002301A80BF02AF901A80BF0B3F92946B3
:104C5800E66101A8FFF7DAFA019B53F80C3CA3625E
:104C680001A80BF0A7F9A06AB0F1FE5F94BF80001D
:104C78004FF0FF300BF0B3FF2946064601A8FFF7B7
:104C8800C5FAA26A3146002301A80BF007F901A86A
:104C98000BF090F92946666201A8FFF7BEFA019B5E
:104CA80053F80C3C236301A80BF084F9206BB0F196
:104CB800FE5F94BF80004FF0FF300BF090FF294655
:104CC800064601A8FFF7A9FA3146226B002301A87E
:104CD8000BF0E4F801A80BF06DF9E6622846FFF73F
:104CE800A8FAA0632846FFF7BBFAE0633846FFF747
:104CF80019FC054B196804F1400301F10B02FFF799
:104D080064FE03B0F0BD00BFAC0000202DE9F04107
:104D180004460F480CF064F92368DF6857F82080D0
:104D28000546B8F1000F0FD17020FEF779FB414618
:104D38000646FFF7C7FA30462146FFF72BFF2068E3
:104D480031462A460CF02AF957F82500BDE8F081CB
:104D5800200400200123F7B5044680F824310846D2
:104D68000F46FFF7FDFB0546294601A8FFF7DEFAC7
:104D7800019B53F80C3CE36001A80AF093FDE0683E
:104D88000BF02DFF2946064601A8FFF7CFFA0023AE
:104D98003146E26801A80AF0D7FC01A80AF082FDB2
:104DA800E368A6602BB196F90030002BD4BF00232E
:104DB80001232946237401A8FFF7BFFA019B53F882
:104DC8000C3CA36101A80BF0F5F8A069B0F1FE5FF7
:104DD80094BF80004FF0FF300BF001FF29460646D4
:104DE80001A8FFF7AAFAA2693146002301A80BF02F
:104DF80055F801A80BF0DEF82946666101A8FFF70F
:104E0800A3FA019B53F80C3C236201A80BF0D2F8DB
:104E1800206AB0F1FE5F94BF80004FF0FF300BF0C6
:104E2800DEFE2946064601A8FFF78EFA3146226AB9
:104E3800002301A80BF032F801A80BF0BBF8E661DB
:104E48002846FFF769FA60622846FFF76AFAA06207
:104E58003846FFF767FB0A4B196804F12C0301F188
:104E680024020546FFF7B1FD064B1968284601F1F3
:104E78001A0204F1BC03FFF7A8FD03B0F0BD00BFA0
:104E8800B0000020A80000202DE9F0410446104899
:104E98000CF0A6F82368DF6857F820800546B8F1BB
:104EA800000F10D14FF49470FEF7BAFA4146064647
:104EB800FFF752FA30462146FFF74CFF206831468B
:104EC8002A460CF06BF857F82500BDE8F08100BFC2
:104ED8001404002010B50446006820B10AF00DFB48
:104EE8004FF0FF336360204610BD08B503689B6828
:104EF800984708BDF7B58DE806009DF80450089F4F
:104F080006466C463DB908463A4619460AF00EFB75
:104F1800B84218BF01258DF8045094E8030086E8CC
:104F28000300304603B0F0BD2DE9F04F91B008A959
:104F38001A9F069007F16C04204681E80C00DDF802
:104F48006C80FFF7EFFA82462046FFF7DFFE1C9BD6
:104F58001E68036C32689A42044656F80C3C06D028
:104F6800826B0B92426A0492D0F8289007E0C26BD9
:104F78000B92C26A0492D0F8309003B10436DAF882
:104F88000020504655690421324606EB8303A847A2
:104F9800801B8510AA46002D00F0DC800DF1400B27
:104FA800724B4BF8103D690058460BF03EF9626BA6
:104FB800AB1A002B2BDD15EA220538BF1D46E36826
:104FC8005846FBB1690000220BF0A4F858460BF0D4
:104FD80063F806EB850300960193A268E368A1696C
:104FE8000C98FFF7CBFB0146584603910BF054F899
:104FF8000C9B0399C91A584689104FF0FF320BF0E1
:1050080055F805E031462A460BF0B4F800E01D4695
:10501800636B002B13DD0CA861690BF0E4F9002D1C
:105028000CA803DB06EB8501626B06E06942626C43
:105038000BF086F90CA8314652460BF043F9FB6891
:1050480003F0B00207920C9A13F4007352F80C2C78
:1050580018BF236A4A4410AD02EB030B434B45F8D3
:105068000C3D4FEA4B0128460BF0DFF8079BBE6862
:10507800102B04D1B3452CBF0023012300E00023EB
:1050880005934FF0000A0BAB1AF80330042B28D80D
:10509800DFE803F01F18030C1300FB689B0520D5FD
:1050A8000DA8E169226A0BF00DF91AE0B9F1000FB9
:1050B80017D0049B2846196808E028460CA90BF06D
:1050C800FDF80EE0059B33B9284641460BF08BF9F5
:1050D80007E0059B2BB10DA8CBEB060142460BF070
:1050E8002FF90AF1010ABAF1040FCCD1B9F1010F75
:1050F80006D9049A2846111D09F1FF320BF0E2F88F
:105108000D9B53F80C2C96420FD9079B202B284651
:10511800C2EB060204D1114642460BF011F905E034
:10512800002143460BF002F800E016460EAC00964C
:1051380008AB93E8060020460D9BFFF7DBFE94E8DA
:105148000300089028468DF824100AF033FF0CA8B5
:105158000AF030FF0023BB6008AB93E80300069A0F
:1051680082E80300104611B0BDE8F08F140A002051
:105178002DE9F04F91B008A91A9F069007F16C0429
:10518800204681E80C00DDF86C80FFF7CBF98246F9
:105198002046FFF7DBFC1C9B1E68036C32689A42B2
:1051A800044656F80C3C06D0826B0B92426A049275
:1051B800D0F8289007E0C26B0B92C26A0492D0F82C
:1051C800309003B10436DAF80020504655690421BE
:1051D800324606EB8303A847801B8510AA46002D9C
:1051E80000F0DC800DF1400B724B4BF8103D69006C
:1051F80058460BF01AF8626BAB1A002B2BDD15EA38
:10520800220538BF1D46E3685846FBB169000022F5
:105218000AF080FF58460AF03FFF06EB8503009628
:105228000193A268E368A1690C98FFF7A7FA014601
:10523800584603910AF030FF0C9B0399C91A584647
:1052480089104FF0FF320AF031FF05E031462A4657
:105258000AF090FF00E01D46636B002B13DD0CA8DD
:1052680061690BF0C0F8002D0CA803DB06EB850183
:10527800626B06E06942626C0BF062F80CA831467A
:1052880052460BF01FF8FB6803F0B00207920C9A25
:1052980013F4007352F80C2C18BF236A4A4410AD5B
:1052A80002EB030B434B45F80C3D4FEA4B012846F4
:1052B8000AF0BBFF079BBE68102B04D1B3452CBF77
:1052C8000023012300E0002305934FF0000A0BABF5
:1052D8001AF80330042B28D8DFE803F01F18030C52
:1052E8001300FB689B0520D50DA8E169226A0AF026
:1052F800E9FF1AE0B9F1000F17D0049B2846196896
:1053080008E028460CA90AF0D9FF0EE0059B33B93E
:10531800284641460BF067F807E0059B2BB10DA81E
:10532800CBEB060142460BF00BF80AF1010ABAF181
:10533800040FCCD1B9F1010F06D9049A2846111DE2
:1053480009F1FF320AF0BEFF0D9B53F80C2C964270
:105358000FD9079B202B2846C2EB060204D1114621
:1053680042460AF0EDFF05E0002143460AF0DEFE62
:1053780000E016460EAC009608AB93E806002046FF
:105388000D9BFFF7B7FD94E80300089028468DF8B9
:1053980024100AF00FFE0CA80AF00CFE0023BB60D4
:1053A80008AB93E80300069A82E80300104611B0A0
:1053B800BDE8F08F140A00202DE9F04F8DB004AF3E
:1053C80007F1080585E80C00FB6C06468A4607F1DC
:1053D800180003F16C010BF061FD07F11800FFF7ED
:1053E800A1F8D0B078600BF069FD07F12004D7E987
:1053F800162344F8040D0DF110084FF00009CDE90B
:10540800022341464A46204BCDF800902046FEF73D
:1054180031FE834659464A4607F1140320460AF0EE
:10542800AFFD20460AF038FED7F804C0FB69C34434
:10543800604641465A46FFF7C8FA97F848305BB1CC
:10544800FB6C00933B6D019302943046514695E8FE
:105458000C00FFF769FD0AE0FB6C00933B6D0193BC
:1054680002943046514695E80C00FFF781FE20462D
:105478000AF0A0FD07F118000BF07AFD304624373A
:10548800BD46BDE8F08F00BFF61F0408F0B587B031
:1054980004AC84E80C000D9D0E9A0F9B9DF83070AB
:1054A800009501920293064694E80C0017B1FFF7A5
:1054B8003BFD01E0FFF75CFE304607B0F0BD08B5E4
:1054C80003681B6B984708BD08B503689B6A984733
:1054D80008BD2DE9F843099E1D46089BC6EB030845
:1054E800C36803F0B003202B894614460CD1294623
:1054F8001046324612F016F904EB86004946424639
:10550800BDE8F84312F014B9102B19D16C30FFF72D
:1055180009F82D210746FFF7D7FF2B6898421ED0C0
:1055280038462B21FFF7D0FF2B68984217D0384612
:105538003021FFF7C9FF2B68984201D1012E13DCF7
:10554800002749464246204612F0F2F804EB88004C
:1055580005EB8701F21BBDE8F84312F0E3B82B68AE
:1055680044F8043B0127ECE738467821FFF7ACFF05
:105578006B68984206D038465821FFF7A5FF6B683C
:105588009842DDD12B6823606B686360022708347A
:10559800D7E737B5089C009215462268019218464D
:1055A800069A079BFFF795FF256003B030BD2DE9EC
:1055B800F04F8DB004AFBD6CF860B96005F16C00B8
:1055C80007F1100181E80C003E6DFFF75DFCD5F88E
:1055D8000C8008F04A0A96B0BAF1400F044600F170
:1055E8002C0B0DF1100C07D0BAF1080318BF0123DA
:1055F800002E04DC33B902E04FF0000900E09946C0
:10560800314602E071424FF001090CF150005A4650
:105618004346CDF80090C7F804C0FFF748F9D7F81B
:1056280004C0227CF861C0F114030CEB8303B2B10F
:10563800C0001030ADEB000D0DF1180C8DE82010F6
:10564800029307F11C030393A36AA168E268B86890
:10565800C7F804C0FFF715F9D7F804C06346FA691C
:10566800B9F1000F07D0002E03DB18F4006F2CD11E
:1056780014E0E16A2AE018F4007F0FD066BB0DE061
:10568800C8F3803808F1020802325BF8281043F8A2
:10569800041CE16B43F8081CFA61083BAA68F96925
:1056A8008A421EDD91000E3121F00701ADEB010D9C
:1056B80004AC019307F11C03029300942B46B868CD
:1056C800F96CFFF766FF23460BE0216B013243F8C4
:1056D800041CFA61043BE1E7BAF1400FD0D1E16B59
:1056E800F4E70022AA60FA69009207F11002F8684C
:1056F80006CAFFF7FFFBF8682437BD46BDE8F08F00
:105708002DE9F04F8BB004AF07F1080484E80C00D2
:105718003B6C97F84860D3F80CB01BF0010F80463B
:1057280007F1100509D17A6C009301920296284678
:1057380094E80C00FFF73BFF57E003F16C007B6037
:10574800FFF7A2FB7B681EB1D0F81490866902E0CF
:10575800D0F81C90066A9A68B2423DDDC6EB020A90
:105768004FEA8A020E3222F00702ADEB020D0DF16C
:10577800100C60465246796C7B60C7F800C00BF08D
:10578800B00B11F0D5FF7B68D7F800C00022BBF141
:10579800200F9A6013D194E8060028464B460096DD
:1057A800FFF7A8FB95E80300D7F800C0B860397385
:1057B800CDF800A0284694E80600634613E0284682
:1057C80094E80600CDF800A06346FFF793FB95E840
:1057D8000300B860397301E000229A6094E806007B
:1057E800009628464B46FFF785FB95E80300B8600E
:1057F800397394E803001C3788E803004046BD4627
:10580800BDE8F08F30B587B004AC84E80C000A9B83
:1058180000930B9B01930C9B029394E80C000546A4
:10582800FFF7C5FE284607B030BD2DE9F04F8BB015
:1058380004AF82463D6C796005F16C0007F1080100
:1058480081E80C00FFF720FBEE6806F04A0996B0E5
:10585800B9F1400F044600F12C0B0DF1100C05D0E6
:10586800B9F1080818BF4FF0010801E04FF000082F
:105878000CF150005A463346CDF80080B96CC7F891
:1058880000C0FFF714F8D7F800C0227C7861C0F197
:1058980014030CEB8303B2B1C0001030ADEB000D64
:1058A8000DF1180C8DE82010029307F114030393EF
:1058B800A36AA168E2687868C7F800C0FEF7E1FF4C
:1058C800D7F800C06346B8F1000F0DD1B2050BD56B
:1058D800BA6C4AB1B9F1400F7A691CD1E16B43F84F
:1058E800041C01327A61043BAA6879698A4220DD86
:1058F80091000E3121F00701ADEB010D04AC0193CD
:1059080007F11403029300942B467868796CFFF72B
:1059180040FE23460DE0C6F38036023602325BF8BD
:10592800261043F8041CE16B43F8081C7A61083B15
:10593800DAE70022AA607A69009207F10802504665
:1059480006CAFFF7D7FA50461C37BD46BDE8F08FA8
:1059580030B587B004AC84E80C000A9B00930B9B1D
:1059680001930C9B029394E80C000546FFF75DFF3A
:10597800284607B030BD2DE9F04188B004AC0E9D33
:10598800D5F80C8084E80C0028F4804323F04A03FF
:1059980043F40273EB600F9B0193109B009506AFD5
:1059A8000293064694E80C003846FFF73EFF97E856
:1059B800030004908DF8141094E8030086E80300AF
:1059C8003046C5F80C8008B0BDE8F0812DE9F04FED
:1059D8008BB004AF82463D6C796005F16C0007F12D
:1059E800080181E80C00FFF74FFAEE6806F04A0953
:1059F800AAB0B9F1400F044600F12C0B0DF1100CC0
:105A08000BD0D7E91201B9F1080318BF0123012807
:105A180071F1000104DA3BB902E04FF0000800E040
:105A28009846D7E9122306E0D7E912234FF0010878
:105A3800524263EB43030CF1A000CDF800B001968D
:105A4800CDF80880C7F800C0FEF766FFD7F800C099
:105A5800227C7861C0F128030CEB8303B2B1C0004B
:105A68001030ADEB000D0DF1180C8DE820100293ED
:105A780007F114030393A36AA168E2687868C7F87A
:105A880000C0FEF7FEFED7F800C063467A69B8F199
:105A9800000F0AD0D7E91201002871F1000102DBDA
:105AA80030052DD415E0E16A2BE0B10511D5D7E911
:105AB800120101432BD10CE0C6F3803602360232C4
:105AC8005BF8261043F8041CE16B43F8081C7A6164
