:020000040800F2
:100000000000022089010008FD13000809140008FF
:100010001114000819140008211400080000000041
:10002000000000000000000000000000291400088B
:1000300035140008000000004114000831090008D0
:100040001902000819020008190200081902000824
:100050001902000819020008E11100080112000845
:10006000311200085912000819020008B1130008E3
:1000700019020008190200081902000819020008F4
:1000800019020008190200081902000819020008E4
:1000900019020008190200081902000819020008D4
:1000A00019020008190200081902000819020008C4
:1000B000190200088D110008190200081902000831
:1000C00019020008190200081902000819020008A4
:1000D00019020008D10E00081902000819020008D0
:1000E0001902000819020008190200081902000884
:1000F000190200081902000819020008A5130008D7
:10010000190200081902000819020008BD130008AE
:100110001902000819020008190200080109000864
:100120001902000819020008190200081902000843
:100130001902000819020008190200081902000833
:100140001902000819020008190200081902000823
:100150001902000819020008190200081902000813
:100160001902000819020008190200081902000803
:1001700019020008190200081902000819020008F3
:10018000190200081902000880B584B000AF0E4BB8
:10019000BB600E4B7B60BB683B6004E03B681A1D94
:1001A0003A6000221A607A683B689A42F6D801F0F9
:1001B000DBF901F033FA00F03BFFF86001F00AFAD6
:1001C000F86801F025FA00BFC4080020C409002027
:1001D00080B584B000AF0D4BFB600D4BBB600D4B89
:1001E0007B60BB683B6007E03B681A1D3A60FA68B9
:1001F000111DF96012681A607A683B689A42F3D858
:1002000001F00CFA1037BD4680BD00BF748E0008A7
:1002100000000020C408002080B400AFFEE700BF4B
:1002200080B400AFFEE700BF80B400AFFEE700BFC0
:1002300080B400AFFEE700BF80B400AFFEE700BFB0
:1002400080B400AFFEE700BF80B400AFFEE700BFA0
:1002500080B400AFFEE700BF80B400AFFEE700BF90
:0802600080B400AFFEE700BF0F
:04026800D1010008B8
:1002700080B584B000AF786079807A703B707B681D
:10028000214A93421AD0204A934206D81F4A9342E9
:100290000AD01F4A93420CD01FE01E4A934212D04C
:1002A0001D4A934214D018E00120012101F0C2FD43
:1002B00013E00220012101F0BDFD0EE00420012128
:1002C00001F0B8FD09E00820012101F0B3FD04E0D0
:1002D0001020012101F0AEFD00BF7B88BB607B7860
:1002E0003B737B78012B01D13B78BB733B7EFB7367
:1002F0003B7F7B7307F108037868194601F01CFC0B
:100300001037BD4680BD00BF00080240000002401B
:1003100000040240000C02400010024080B483B090
:1003200000AF78600B467B807B687A881A830C3735
:10033000BD465DF8047B704780B483B000AF786041
:100340000B467B807B687A885A830C37BD465DF804
:10035000047B704780B584B002AF78600B467B8029
:100360007B880122009202220192786819460122BC
:100370000023FFF77DFF0837BD4680BD80B485B000
:1003800000AF78607B6841F2707202FB03F37B6020
:100390000023FB6002E0FB680133FB60FA687B68C6
:1003A0009A42F8D31437BD465DF8047B704700BF0E
:1003B00080B485B000AF0346FB800023FB8102E0E0
:1003C000FB890133FB81FA89FB889A42F8D3143701
:1003D000BD465DF8047B704780B58AB000AF786099
:1003E00013460A467A807B70002387F82730002363
:1003F0003B627B883B6207E097F82730013387F840
:1004000027303B6A5B083B623B6A012BF4D17B6877
:10041000594A934230D0584A934206D8574A934299
:100420000AD0574A934217D056E0564A934233D0E7
:10043000554A934240D04FE00120012101F0FAFCDF
:100440004FF48040012101F031FD97F82730002062
:10045000194601F073FD3FE00220012101F0EAFCA2
:100460004FF48040012101F021FD97F82730012051
:10047000194601F063FD2FE00420012101F0DAFCB0
:100480004FF48040012101F011FD97F82730022040
:10049000194601F053FD1FE00820012101F0CAFCBC
:1004A0004FF48040012101F001FD97F8273003202F
:1004B000194601F043FD0FE01020012101F0BAFCC4
:1004C0004FF48040012101F0F1FC97F8273004201F
:1004D000194601F033FD00BF00233B750123FB7576
:1004E0000023BB7503237B757B883B6107F11003F9
:1004F0007868194601F020FB7B88BB6100233B77BD
:100500007B787B770123BB7707F11803184601F04E
:1005100097FA97F82730002B02D106233B731DE092
:1005200097F82730012B02D107233B7316E097F889
:100530002730022B02D108233B730FE097F82730B6
:10054000032B02D109233B7308E097F82730042BD3
:1005500002D10A233B7301E017233B7300237B7313
:100560000023BB730123FB7307F10C03184601F052
:10057000FBF82837BD4680BD00080240000002405D
:1005800000040240000C02400010024080B58CB014
:1005900000AF13460246FA710A46BA807B807B8818
:1005A000013B7B800420012101F062FC022001213B
:1005B00001F040FC022387F82C30002387F82E300E
:1005C000022387F82D30012387F82F30FB79012B88
:1005D0000DD14023BB6207F128036548194601F09D
:1005E000ABFA63480621022201F034FB51E0FB79AB
:1005F000022B12D1C023BB6207F128035C481946C5
:1006000001F09AFA5A480621022201F023FB5848C9
:100610000721022201F01EFB3BE0FB79032B18D1DE
:100620004FF4E073BB6207F128035148194601F00B
:1006300083FA4F480621022201F00CFB4C480721A7
:10064000022201F007FB4A480821022201F002FBC6
:100650001FE0FB79042B1CD14FF47073BB6207F1D0
:1006600028034348194601F067FA4148062102224F
:1006700001F0F0FA3E480721022201F0EBFA3C4873
:100680000821022201F0E6FA39480921022201F08C
:10069000E1FABB88BB837B883B620023BB840023D9
:1006A000FB8307F11C033348194601F085FC6023E6
:1006B0003B8101237B810023BB82FB79012B06D187
:1006C00007F108032B48194601F020FD40E0FB79B3
:1006D000022B0CD107F108032648194601F016FD3C
:1006E00007F108032348194601F08AFD30E0FB7941
:1006F000032B12D107F108031E48194601F006FD2D
:1007000007F108031B48194601F07AFD07F10803B9
:100710001848194601F0FCFD1AE0FB79042B17D1AB
:1007200007F108031348194601F0F0FC07F108032C
:100730001048194601F064FD07F108030D481946F9
:1007400001F0E6FD07F108030A48194601F066FECC
:100750000848002101F09AFC0648012101F0FCFE46
:100760000448012101F0B2FC3037BD4680BD00BF16
:10077000000402400008004080B588B000AFF86077
:100780000B467A607B81FB68564A934231D0554ACA
:10079000934209D8544A934221D0544A934223D0D9
:1007A000B3F1804F16D038E0514A93422BD0504AD3
:1007B000934203D84F4A934220D02EE04E4A9342B0
:1007C00003D04E4A934223D027E00120012101F0BB
:1007D0006DFB22E00120012101F04AFB1DE0022017
:1007E000012101F045FB18E00420012101F040FB4C
:1007F00013E00820012101F03BFB0EE01020012155
:1008000001F036FB09E02020012101F031FB04E07A
:100810000220012101F04AFB00BF7B89013B9BB212
:10082000BB820023FB827B68013BBB610023BB834F
:100830000023BB77FA6807F114031046194601F04C
:10084000BBFBFB681846012101F040FCFB68184621
:100850000121012201F0A6FEFA68274B9A4202D13B
:1008600019233B742FE0FB68B3F1804F02D11C23A6
:100870003B7428E0FA681C4B9A4202D11D233B745A
:1008800021E0FA68194B9A4202D11E233B741AE008
:10089000FA68144B9A4202D132233B7413E0FA688F
:1008A000144B9A4202D136233B740CE0FA68104B89
:1008B0009A4202D137233B7405E0FA680F4B9A4203
:1008C00001D12C233B7400237B740123BB740123CF
:1008D000FB7407F11003184600F046FF2037BD46B1
:1008E00080BD00BF000C0040000400400008004034
:1008F00000140040001000400000014000040140CE
:1009000080B500AF4FF08040012101F06FFE03463B
:10091000002B0AD04FF08040012101F091FE034BE3
:100920001B8801339AB2014B1A8080BDC408002095
:1009300080B400AF064B1B68002B04D0044B1B682F
:100940005A1E034B1A60BD465DF8047B704700BF1A
:10095000C808002080B483B000AF78607B684FF493
:100960007A7202FB03F2064B1A6000BF044B1B684D
:10097000002BFBD10C37BD465DF8047B704700BFF0
:10098000C808002080B489B000AFF860B9607A6010
:100990007B68012B02DD7B68242B04DDBB68002211
:1009A0001A70BB683BE0BB68FB61BB68BB61FB685E
:1009B0007B61FA687B6892FBF3F3FB60FB695A1C6E
:1009C000FA61FA68796801FB02F279698A1A2332BE
:1009D00016498A5C1A70FB68002BE8D17B69002BF2
:1009E00004DAFB695A1CFA612D221A70FB695A1E3F
:1009F000FA6100221A700DE0FB691B78FB74FB6939
:100A00005A1EFA61BA6912781A70BB695A1CBA6127
:100A1000FA7C1A70BA69FB699A42EDD3BB68184632
:100A20002437BD465DF8047B704700BF1080000886
:100A300080B483B000AF03463960FB7197F907308B
:100A4000002B0BDA0D49FB7903F00F03043B3A68E6
:100A5000D2B21201D2B20B441A7609E0084997F9D2
:100A600007303A68D2B21201D2B20B4483F80023A5
:100A70000C37BD465DF8047B704700BF00ED00E019
:100A800000E100E080B582B000AF78607B68013B98
:100A9000B3F1807F01D301230FE00A4B7A68013A5A
:100AA0005A604FF0FF300F21FFF7C2FF054B0022C5
:100AB0009A60044B07221A60002318460837BD4687
:100AC00080BD00BF10E000E080B500AF3C4802F000
:100AD0009BF83C480421FFF721FC3A481021FFF71E
:100AE0002BFC38482021FFF727FC36484021FFF730
:100AF00023FC4FF4FA70FFF72DFF32480421FFF773
:100B00001BFC30481021FFF709FC2E482021FFF77D
:100B100013FC2C484021FFF70FFC4FF4FA70FFF74D
:100B200019FF28480421FFF707FC26481021FFF78A
:100B300003FC24482021FFF7F1FB22484021FFF766
:100B4000FBFB4FF4FA70FFF705FF1E480421FFF787
:100B5000F3FB1C481021FFF7EFFB1A482021FFF799
:100B6000EBFB18484021FFF7D9FB4FF4FA70FFF771
:100B7000F1FE14480421FFF7D1FB12481021FFF7C2
:100B8000DBFB10482021FFF7D7FB0E484021FFF781
:100B9000D3FB4FF4FA70FFF7DDFE0B4B01221A6016
:100BA0000A4B1B6903F00803002B08D102E0012067
:100BB00000F084F8064B1B889BB2002BF7D180BD58
:100BC000848C000800100240CC080020000C024079
:100BD0000000002080B582B000AF786061E0354B46
:100BE0001B68012B13D134480421FFF797FB3248CF
:100BF0001021FFF793FB30482021FFF79DFB2E4883
:100C00004021FFF799FB2B4B02221A6046E0294B4B
:100C10001B68022B13D128480421FFF77FFB2648CD
:100C20001021FFF789FB24482021FFF785FB22488C
:100C30004021FFF773FB1F4B03221A602EE01D4B70
:100C40001B68032B13D11C480421FFF775FB1A48BE
:100C50001021FFF771FB18482021FFF75FFB1648B2
:100C60004021FFF75BFB134B04221A6016E0114B87
:100C70001B68042B12D110480421FFF75DFB0E48BE
:100C80001021FFF74BFB0C482021FFF747FB0A48D8
:100C90004021FFF751FB074B01221A600620FFF7A6
:100CA00059FE7B685A1E7A60002B98D10837BD46E2
:100CB00080BD00BFCC0800200010024080B582B08B
:100CC00000AF78608DE0514B1B68012B1ED1504B5B
:100CD0001B889BB2002B19D04E4B1B6903F00803F5
:100CE000002B13D14C480421FFF718FB4A48102170
:100CF000FFF722FB48482021FFF71EFB4648402112
:100D0000FFF70CFB414B04221A6067E03F4B1B6866
:100D1000022B1ED13E4B1B889BB2002B19D03D4BA2
:100D20001B6903F00803002B13D13B480421FFF794
:100D3000F5FA39481021FFF7F1FA37482021FFF77B
:100D4000FBFA35484021FFF7F7FA304B01221A60D1
:100D500044E02E4B1B68032B1ED12D4B1B889BB2EE
:100D6000002B19D02B4B1B6903F00803002B13D168
:100D700029480421FFF7E0FA27481021FFF7CEFAAF
:100D800025482021FFF7CAFA23484021FFF7D4FA6B
:100D90001E4B02221A6021E01C4B1B68042B1DD144
:100DA0001B4B1B889BB2002B18D01A4B1B6903F0FE
:100DB0000803002B12D118480421FFF7BDFA16488A
:100DC0001021FFF7B9FA14482021FFF7A7FA1248BB
:100DD0004021FFF7A3FA0D4B03221A600420FFF70E
:100DE000B9FD7B685A1E7A60002B0BD0084B1B881C
:100DF0009BB2002B06D0074B1B6903F00803002BA6
:100E00003FF461AF0837BD4680BD00BFCC0800206D
:100E100000000020000C02400010024080B58AB0A3
:100E200000AF78601020012101F040F8022001217C
:100E300001F000F8C0233B62022387F8243002232C
:100E400087F82530002387F82630002387F82730DD
:100E500007F120031C48194600F06EFE1A480621CF
:100E6000072200F0F7FE18480721072200F0F2FEE3
:100E70007B683B610023BB820023FB8200233B8312
:100E80000023BB830C237B8307F110030F48194613
:100E900001F0E6FB0D4840F22551012201F0CCFCA7
:100EA00025233B7300237B730023BB730123FB7358
:100EB00007F10C03184600F057FC0448012101F02B
:100EC00089FC2837BD4680BD000402400010014067
:100ED000B0B500AF3C4840F2255101F011FD03468A
:100EE000002B70D0394B1B68002B0CD1364B9B88E4
:100EF0009BB2DAB2364B1A70364B00221A60334B73
:100F000001221A605FE0314B1B68012B5BD12E4B35
:100F10009B889BB21A462F4B5A602E4B1A682D4B5A
:100F20005B681A442B4B1A602A4B5B68002B4AD132
:100F3000284B1B68184628490A22FFF723FD26483C
:100F4000042100F055F8224B1B78DBB25BB26C2B0E
:100F500017D1214A214B14460FCB84E80F001E48BD
:100F60000F2100F045F81E4B1B889AB2194B1B68E5
:100F70009BB2D31A9AB21A4B1A801A4B01221A60EA
:100F80001EE0134B1B78DBB25BB2722B18D1124AF6
:100F9000154B14461D460FCD0FC42B6823700E4809
:100FA0000F2100F025F80B4B1B689AB20C4B1B88E5
:100FB0009BB213449AB20A4B1A800C4B01221A605E
:100FC000024B00221A60B0BD00100140D008002082
:100FD000280900201C0900202C090020A88C0008EA
:100FE0000000002024090020B88C0008D40800204C
:100FF00080B582B000AF786039600FE000BF0B4869
:10100000802101F061FC0346002BF8D07B685A1C5C
:101010007A601B780548194601F0FCFB3B685A1EB4
:101020003A60002BEAD10837BD4680BD0010014070
:1010300080B500AFA820FFF725FD474801F0A2FDCD
:10104000464801210822FFF7C7F944480221082237
:10105000FFF7C2F9414804210822FFF7BDF93F48D4
:1010600008210822FFF7B8F9042053213222FFF7A4
:101070008DFA3B48002101F037FA3948002101F090
:1010800041FA3748002101F04BFA3548002101F0C0
:1010900055FA34484AF210414FF4FA72FFF76CFBEC
:1010A00031480421FFF756F92F481021FFF752F974
:1010B0002D482021FFF74EF92B484021FFF74AF930
:1010C0004FF41650FFF7AAFEFFF7FEFC274B012254
:1010D0001A80264B00221A80254B264A92E80300EC
:1010E00018600433198002330A0C1A70224B9B8853
:1010F0009BB21A46214B1A601D480521FFF778FF65
:101100001F4B1B68012B04D1FFF7DEFC1C4B002298
:101110001A601C4B1B68012B0AD1184B1B68184620
:10112000FFF758FD174B00221A60144B00221A607B
:10113000154B1B68012B0AD1104B1B681846FFF793
:10114000BDFD114B00221A600C4B00221A604FF4B7
:10115000FA70FFF72DF9D3E7CC8C0008000C0240A1
:101160000008004000040040001002400000002081
:101170002C090020DC8C0008001001401C09002014
:1011800040090020D40800202409002080B500AFC9
:101190000F48012101F02AFA0346002B17D00C4812
:1011A000012101F04DFA0B4B1B78DBB2002B0ED066
:1011B000094B1B68312B04DC074B1B685A1C064B80
:1011C0001A60054B1B680548194601F0B7F980BD48
:1011D00000040040DC080020D8080020000800407F
:1011E00080B500AF054B00221A704FF4FA70FFF77C
:1011F000C5F8012000F092FC80BD00BFDC08002093
:1012000080B500AF084B00221A60074B1B680748E7
:10121000194601F093F94FF4FA70FFF7AFF8022086
:1012200000F07CFC80BD00BFD80800200008004012
:1012300080B500AF064B01221A70064B00221A60DF
:101240004FF4FA70FFF79AF8042000F067FC80BDB5
:10125000DC080020D808002080B500AF4FF4FA70F9
:10126000FFF78CF8064B1B6903F00803002B02D034
:10127000044B00221A80082000F050FC80BD00BF03
:10128000000C02400000002080B400AF002318468C
:10129000BD465DF8047B704780B483B000AF7860D2
:1012A00039600C37BD465DF8047B704780B500AFF0
:1012B000374B1A68374B1B681046194600F056FB2F
:1012C0000346002B62D0344B1B68002B4AD000BF72
:1012D0002F4B1B68184600F031FB0346002BF7D15B
:1012E0002B4B1A682B4B1B681046194600F07AFBF3
:1012F0002A4B1B681A462A4B9A60274B1A684FF6EE
:10130000FF739A4228BF1A46254B1A61204B1B686F
:101310001846234900F0A0FA1D4B1B68184601210E
:1013200000F0F0FA1D4B1A681B4B19684FF6FF735B
:10133000994238BF0B465B001A44184B1A60164B93
:101340001A68154B19684FF6FF73994238BF0B4660
:10135000D21A114B1A600E4B1B681846012100F07F
:10136000D1FA13E00A4B1B681846002100F0CAFAB4
:10137000074B1A68074B1B681046194600F032FBF2
:10138000064B1B6818460021FFF786FF80BD00BF93
:101390000C00002010000020040000204409002060
:1013A0008409002080B500AFFFF780FF80BD00BF3B
:1013B00080B500AFFFF77AFF80BD00BF80B500AFFA
:1013C0000C48022100F09EFD0346002B11D00A4B71
:1013D0001B68022B06D1FFF757FF0346042019466E
:1013E00000F020FAFFF750FF03460248194600F0CC
:1013F0007BFD80BD003C00400800002080B400AFB1
:10140000BD465DF8047B704780B400AFFEE700BFC7
:1014100080B400AFFEE700BF80B400AFFEE700BFBE
:1014200080B400AFFEE700BF80B400AFBD465DF8FA
:10143000047B704780B400AFBD465DF8047B704705
:1014400080B400AFBD465DF8047B704780B584B0C2
:1014500000AF7860144B1B68002B02D1124B134A6B
:101460001A60114B1B68FB607B68033323F0030396
:101470007B600D4B1A687B681A440D4B9A4207D962
:1014800001F096FA03460C221A604FF0FF3306E093
:10149000054B1A687B681A44034B1A60FB681846B0
:1014A0001037BD4680BD00BFE0080020C409002001
:1014B00000FC012080B584B000AFF860B9607A60AC
:1014C000FB68012B05D1B868796800F009F803467C
:1014D00001E04FF0FF3318461037BD4680BD00BF16
:1014E00080B485B000AF786039601C4B1B68002B5E
:1014F00002D11A4B01221A600023FB6023E0184B33
:101500001B6803F00103002B01D1FB6820E0154BA1
:101510001B6803F00103002B01D1FB6818E000BF3A
:101520004FF060431B78DBB2DBB203F00103002B0A
:10153000F6D04FF060427B68591C79601B781370BD
:10154000FB680133FB60FA683B689A42D7DB3B6873
:1015500018461437BD465DF8047B7047E408002048
:10156000800E00E0000E00E080B582B000AF154AAA
:10157000154BD31A9B103B6000237B6007E0124B96
:101580007A6853F8223098477B6801337B607A6829
:101590003B689A42F3D30D4A0D4BD31A9B103B6024
:1015A00000237B6007E00A4B7A6853F822309847A3
:1015B0007B6801337B607A683B689A42F3D30837D3
:1015C000BD4680BD6C020008680200086C0200087D
:1015D0006C02000880B582B000AF0B4A0B4BD31AE7
:1015E0009B103B603B687B6008E07B685A1E074BA2
:1015F00053F8223098477B68013B7B607B68002B67
:10160000F3D10837BD4680BD6C0200086C020008AB
:1016100080B483B000AF7860FEE700BF80B500AF54
:10162000114B114A126842F001021A600E4B00225F
:101630009A600D4A0C4B1B6823F0847323F48033AB
:101640001360094B094A5A60074B074A126822F493
:1016500080221A60044B0022DA6000F00BF8044B81
:101660004FF000629A6080BD0038024010300024C4
:1016700000ED00E080B483B000AF00237B60002366
:101680003B60354B344A126842F480321A60324B68
:101690001B6803F400333B607B6801337B603B686D
:1016A000002B03D17B68B3F5A04FF0D12A4B1B6808
:1016B00003F40033002B02D001233B6001E0002340
:1016C0003B603B68012B42D1234B234A126C42F012
:1016D00080521A64214B214A126842F440421A6037
:1016E0001D4B1D4A92689A601B4B1B4A926842F43C
:1016F00000429A60184B184A926842F4A0529A60CD
:10170000154B174A5A60144B134A126842F0807204
:101710001A6000BF104B1B6803F00073002BF9D058
:10172000104B40F205621A600B4B0B4A926822F094
:1017300003029A60084B084A926842F002029A60DB
:1017400000BF054B9B6803F00C03082BF9D10C3745
:10175000BD465DF8047B70470038024000700040D1
:1017600008544007003C024080B485B000AF786068
:101770000023FB730023BB730F237B737B68DB7831
:10178000002B37D0254BDB68DB4303F4E0631B0AF7
:10179000FB73FB7BC3F10403BB737A7BFB7B42FAD5
:1017A00003F37B737B685B781A46BB7B02FA03F317
:1017B000FB737B689A787B7B1340DAB2FB7B134325
:1017C000FB73FB7B1B01FB73154A7B681B7813447F
:1017D000FA7B83F80023124B7A6812785209D2B24E
:1017E0007968097801F01F01012000FA01F143F83E
:1017F00022100EE00A4B7A6812785209D2B2796848
:10180000097801F01F01012000FA01F1203243F8AC
:1018100022101437BD465DF8047B704700ED00E0F0
:1018200000E100E080B485B000AF78600B467B80BB
:101830000023FB60074BFB60FA687B6813440833A6
:10184000FB60FB687A881A601437BD465DF8047B3C
:10185000704700BF0074004080B485B000AF78606E
:1018600039600023FB607B681B68FB60FA68244BCF
:101870001340FB603B681A683B68DB681A433B68AF
:101880005B691A433B689B691A433B68DB691A43EF
:101890003B681B6A1A433B685B6A1A433B689B6A56
:1018A0001A433B685B6B1A433B689B6B1343FA68B4
:1018B0001343FB607B68FA681A607B685B69FB60B6
:1018C000FB6823F00703FB603B68DA6A3B681B6B2D
:1018D0001343FA681343FB607B68FA685A613B68FC
:1018E0001A697B685A603B685A687B689A603B68F3
:1018F0009A687B68DA601437BD465DF8047B7047F0
:101900003F801CF080B483B000AF78600B46FB7062
:10191000FB78002B06D07B681B6843F001027B68D4
:101920001A6005E07B681B6823F001027B681A607F
:101930000C37BD465DF8047B704700BF80B485B0AE
:1019400000AF78600023FB737B681B6803F0010322
:10195000002B02D00123FB7301E00023FB73FB7B10
:1019600018461437BD465DF8047B704780B487B0D5
:1019700000AF786039600023FB750023FB607A6854
:10198000154B9A4202D8154B3B6101E0144B3B6169
:101990003B6803F00053002B03D03B695B68FB609E
:1019A00002E03B691B68FB60FB6823F0F02323F037
:1019B0008213FB60FA683B681340002B02D00123BE
:1019C000FB7501E00023FB75FB7D18461C37BD4607
:1019D0005DF8047B704700BF0F6402400060024066
:1019E0000064024080B485B000AF786039607A68E6
:1019F000104B9A4202D8104BFB6001E00F4BFB608A
:101A00003B6803F00053002B07D03B6823F0F02322
:101A100023F08213FA68D36006E03B6823F0F023DA
:101A200023F08213FA6893601437BD465DF8047B97
:101A3000704700BF0F640240006002400064024033
:101A400080B485B000AF78600023FB60324BFB6050
:101A50007B689B79002B4DD02F4B2F4A11687A68F9
:101A60001268D2430A401A602B4B2B4A51687A689D
:101A70001268D2430A405A607B681B79FA681344A3
:101A8000FB60FB68FA6811687A6812680A431A609A
:101A9000214B214A91687A681268D2430A409A60C1
:101AA0001D4B1D4AD1687A681268D2430A40DA6039
:101AB0007B685B79102B0ED1174B174A91687A68B7
:101AC00012680A439A60144B134AD1687A68126804
:101AD0000A43DA601BE0104BFB607B685B79FA68B5
:101AE0001344FB60FB68FA6811687A6812680A435D
:101AF0001A600CE07B681B79FA681344FB60FB6892
:101B0000FA6811687A681268D2430A401A6014377A
:101B1000BD465DF8047B7047003C014080B483B053
:101B200000AF7860034B7A685A610C37BD465DF8A8
:101B3000047B7047003C014080B487B000AF786000
:101B4000396000237B6100233B610023FB6000239D
:101B50007B6176E07B69012202FA03F33B613B681B
:101B60001A683B691340FB60FA683B699A4265D189
:101B70007B681A687B695B00032101FA03F3DB438E
:101B80001A407B681A607B681A683B681B791946A3
:101B90007B695B0001FA03F31A437B681A603B68B8
:101BA0001B79012B03D03B681B79022B2ED17B685C
:101BB0009A687B695B00032101FA03F3DB431A4057
:101BC0007B689A607B689A683B685B7919467B6999
:101BD0005B0001FA03F31A437B689A607B685A68DA
:101BE0007B699BB2012101FA03F3DB431A407B6856
:101BF0005A607B685A683B689B7919467B699BB23F
:101C000001FA03F39BB21A437B685A607B68DA6877
:101C10007B699BB25B00032101FA03F3DB431A40AB
:101C20007B68DA607B68DA683B68DB7919467B6938
:101C30005B0001FA03F31A437B68DA607B690133C6
:101C40007B617B690F2B85D91C37BD465DF8047B12
:101C5000704700BF80B485B000AF786013460A4675
:101C60007A807B700023FB600023BB607A787B88DE
:101C700003F007039B0002FA03F3FB607B88DB0899
:101C80009BB21A467B88DB089BB219467B680831F9
:101C900053F821107B8803F007039B000F2000FA04
:101CA00003F3DB4319407B68083243F822107B883A
:101CB000DB089BB21A467B68083253F82220FB6887
:101CC0001343BB607B88DB089BB21A467B680832F3
:101CD000B96843F822101437BD465DF8047B70479D
:101CE00080B489B000AF78600023BB6100237B61C2
:101CF0000023FB6102233B610023FB600223BB60E6
:101D0000484B9B6803F00C03BB61BB69042B07D0F5
:101D1000082B09D0002B3FD17B68434A1A603FE073
:101D20007B68424A1A603BE03E4B5B6803F48003E9
:101D30009B0DFB603B4B5B6803F03F03BB60FB68A4
:101D4000002B0DD0394ABB68B2FBF3F2354B596812
:101D500047F6C0730B409B0903FB02F3FB610CE0E9
:101D6000314ABB68B2FBF3F22E4B596847F6C07399
:101D70000B409B0903FB02F3FB612A4B5B6803F4F6
:101D800040331B0C01335B003B61FA693B69B2FBDA
:101D9000F3F27B681A6003E07B68234A1A6000BF95
:101DA000204B9B6803F0F003BB61BB691B09BB615F
:101DB0001F4ABB6913441B78DBB27B617B681A68DE
:101DC0007B69DA407B685A60164B9B6803F4E053EA
:101DD000BB61BB699B0ABB61154ABB6913441B7895
:101DE000DBB27B617B685A687B69DA407B689A600A
:101DF0000C4B9B6803F46043BB61BB695B0BBB612D
:101E00000B4ABB6913441B78DBB27B617B685A6861
:101E10007B69DA407B68DA602437BD465DF8047B75
:101E2000704700BF003802400024F40000127A001E
:101E30001400002080B483B000AF78600B46FB70C4
:101E4000FB78002B06D0094B084A116B7A680A43CD
:101E50001A6306E0054B054A116B7A68D2430A40C3
:101E60001A630C37BD465DF8047B704700380240AA
:101E700080B483B000AF78600B46FB70FB78002B1A
:101E800006D0094B084A116C7A680A431A6406E0C6
:101E9000054B054A116C7A68D2430A401A640C3724
:101EA000BD465DF8047B70470038024080B483B0C3
:101EB00000AF78600B46FB70FB78002B06D0094B17
:101EC000084A516C7A680A435A6406E0054B054A91
:101ED000516C7A68D2430A405A640C37BD465DF8AB
:101EE000047B70470038024080B483B000AF786054
:101EF0000B467B807B687A889A810C37BD465DF8FB
:101F0000047B704780B485B000AF78600B467B805F
:101F10000023FB737B681B899AB27B8813409BB2BA
:101F2000002B02D00123FB7301E00023FB73FB7B3A
:101F300018461437BD465DF8047B704790B484B0F2
:101F400000AF02460B46FA71BB710023FB60BB7900
:101F500003F003039B000F2202FA03F3FB60154B0F
:101F6000BA799208D2B21349B8798008C0B2023067
:101F700051F82000F968C9430140023243F82210A9
:101F80000C4BBA799208D2B20A49B8798008C0B22B
:101F9000023051F82000FC79B97901F00301890081
:101FA00004FA01F10143023243F822101037BD4612
:101FB00090BC70470038014080B485B000AF7860B5
:101FC00039600023FB817B681B88FB817A68284B82
:101FD0009A4213D07A68274B9A420FD07B68B3F1AC
:101FE000804F0BD07A68244B9A4207D07A68234BF3
:101FF0009A4203D07A68224B9A4208D1FB8923F097
:102000007003FB813B685A88FB891343FB817A6824
:102010001C4B9A420CD07A681B4B9A4208D0FB8921
:1020200023F44073FB813B681A89FB891343FB81CE
:102030007B68FA891A803B685A687B68DA623B6879
:102040001A887B681A857A68094B9A4203D07A68A5
:10205000084B9A4204D13B689B7A1A467B681A86E1
:102060007B6801229A821437BD465DF8047B704775
:10207000000001400004014000040040000800404E
:10208000000C0040001000400014004080B483B0F9
:1020900000AF78600B46FB70FB78002B08D07B68A4
:1020A0001B889BB243F080039AB27B681A8007E0DA
:1020B0007B681B889BB223F080039AB27B681A80EE
:1020C0000C37BD465DF8047B704700BF80B483B019
:1020D00000AF78600B46FB70FB78002B08D07B6864
:1020E0001B889BB243F001039AB27B681A8007E019
:1020F0007B681B889BB223F001039AB27B681A802D
:102100000C37BD465DF8047B704700BF80B485B0D6
:1021100000AF7860396000237B810023FB810023BE
:10212000BB817B681B8C9BB223F001039AB27B6856
:102130001A847B681B8CFB817B689B88BB817B68D6
:102140001B8B7B817B8923F070037B817B8923F050
:1021500003037B813B681A887B8913437B81FB895E
:1021600023F00203FB813B689A89FB891343FB81BF
:102170003B685A88FB891343FB817A681E4B9A425D
:1021800003D07A681D4B9A4223D1FB8923F00803C0
:10219000FB813B68DA89FB891343FB81FB8923F0D0
:1021A0000403FB813B689A88FB891343FB81BB894D
:1021B00023F48073BB81BB8923F40073BB813B682C
:1021C0001A8ABB891343BB813B685A8ABB89134374
:1021D000BB817B68BA899A807B687A891A833B685D
:1021E0009A687B685A637B68FA891A841437BD46FB
:1021F0005DF8047B704700BF00000140000401400F
:1022000080B485B000AF7860396000237B81002303
:10221000FB810023BB817B681B8C9BB223F01003E6
:102220009AB27B681A847B681B8CFB817B689B88D5
:10223000BB817B681B8B7B817B8923F4E0437B81A3
:102240007B8923F440737B813B681B881B029AB215
:102250007B8913437B81FB8923F02003FB813B684F
:102260009B891B019AB2FB891343FB813B685B8806
:102270001B019AB2FB891343FB817A68224B9A4275
:1022800003D07A68214B9A422BD1FB8923F080033B
:10229000FB813B68DB891B019AB2FB891343FB81FD
:1022A000FB8923F04003FB813B689B881B019AB2AA
:1022B000FB891343FB81BB8923F48063BB81BB890A
:1022C00023F40063BB813B681B8A9B009AB2BB89E5
:1022D0001343BB813B685B8A9B009AB2BB89134363
:1022E000BB817B68BA899A807B687A891A833B684C
:1022F0009A687B689A637B68FA891A841437BD46AA
:102300005DF8047B704700BF0000014000040140FD
:1023100080B485B000AF7860396000237B810023F2
:10232000FB810023BB817B681B8C9BB223F48073F1
:102330009AB27B681A847B681B8CFB817B689B88C4
:10234000BB817B689B8B7B817B8923F070037B81C6
:102350007B8923F003037B813B681A887B891343C5
:102360007B81FB8923F40073FB813B689B891B0203
:102370009AB2FB891343FB813B685B881B029AB2CC
:10238000FB891343FB817A68224B9A4203D07A6817
:10239000214B9A422BD1FB8923F40063FB813B68DC
:1023A000DB891B029AB2FB891343FB81FB8923F46F
:1023B0008063FB813B689B881B029AB2FB891343B5
:1023C000FB81BB8923F48053BB81BB8923F4005379
:1023D000BB813B681B8A1B019AB2BB891343BB813B
:1023E0003B685B8A1B019AB2BB891343BB817B6844
:1023F000BA899A807B687A899A833B689A687B68F5
:10240000DA637B68FA891A841437BD465DF8047B69
:10241000704700BF000001400004014080B485B057
:1024200000AF786039600023BB8100237B810023EB
:10243000FB817B681B8C9BB223F480539AB27B6830
:102440001A847B681B8C7B817B689B88FB817B6803
:102450009B8BBB81BB8923F4E043BB81BB8923F405
:102460004073BB813B681B881B029AB2BB89134334
:10247000BB817B8923F400537B813B689B891B03D1
:102480009AB27B8913437B813B685B881B039AB2BA
:102490007B8913437B817A68114B9A4203D07A6817
:1024A000104B9A420AD1FB8923F48043FB813B689D
:1024B0001B8A9B019AB2FB891343FB817B68FA89D3
:1024C0009A807B68BA899A833B689A687B681A64A9
:1024D0007B687A891A841437BD465DF8047B70479F
:1024E000000001400004014080B483B000AF786078
:1024F00039607B683A685A630C37BD465DF8047BE7
:10250000704700BF80B483B000AF786039607B68EB
:102510003A689A630C37BD465DF8047B704700BF8C
:1025200080B483B000AF786039607B683A68DA6362
:102530000C37BD465DF8047B704700BF80B483B0A4
:1025400000AF786039607B683A681A640C37BD4622
:102550005DF8047B704700BF80B483B000AF786043
:102560000B46FB70FB78002B0CD07B68B3F8443033
:102570009BB26FEA43436FEA53439AB27B68A3F876
:10258000442009E07B68B3F844309BB2C3F30E03E8
:102590009AB27B68A3F844200C37BD465DF8047BF3
:1025A000704700BF80B483B000AF786013460A461E
:1025B0007A807B707B78002B08D07B689B899AB2ED
:1025C0007B8813439AB27B689A8109E07B689B8978
:1025D0009AB27B88DB439BB213409AB27B689A81A4
:1025E0000C37BD465DF8047B704700BF80B485B0F2
:1025F00000AF78600B467B800023FB730023BB8118
:1026000000237B817B681B8A9AB27B881340BB8145
:102610007B689B899AB27B8813407B81BB89002BA6
:1026200005D07B89002B02D00123FB7301E000233E
:10263000FB73FB7B18461437BD465DF8047B70477F
:1026400080B483B000AF78600B467B807B88DB432F
:102650009AB27B681A820C37BD465DF8047B7047DE
:1026600080B58AB000AF7860396000237B620023B8
:102670003B620023FB610023BB617B681B8A9BB22A
:102680007B627B6A23F440537B623B68DB887A6A17
:1026900013437B627B6A9AB27B681A827B689B8950
:1026A0009BB27B627B6A23F4B05323F00C037B6202
:1026B0003B689A883B681B8913439AB23B685B89E5
:1026C00013439BB27A6A13437B627B6A9AB27B683C
:1026D0009A817B689B8A9BB27B627B6A23F44073FE
:1026E0007B623B689B897A6A13437B627B6A9AB2FE
:1026F0007B689A8207F108031846FFF7F1FA7A68B7
:10270000314B9A4203D07A68304B9A4202D17B69AE
:102710003B6201E03B693B627B689B899BB29BB259
:102720001BB2002B0CDA3A6A13469B0013449A0042
:102730001A443B681B685B00B2FBF3F3FB610BE0E0
:102740003A6A13469B0013449A001A443B681B687C
:102750009B00B2FBF3F3FB61FA691D4BA3FB021371
:102760005B091B017B627B6A1B09642202FB03F38A
:10277000FA69D31ABB617B689B899BB29BB21BB27F
:10278000002B0DDABB69DB0003F13202104BA3FB17
:1027900002135B0903F007037A6A13437B620CE0C0
:1027A000BB691B0103F13202094BA3FB02135B0956
:1027B00003F00F037A6A13437B627B6A9AB27B68E9
:1027C0001A812837BD4680BD001001400014014029
:1027D0001F85EB5180B483B000AF78600B46FB706F
:1027E000FB78002B08D07B689B899BB243F4005395
:1027F0009AB27B689A8107E07B689B899BB223F43D
:1028000000539AB27B689A810C37BD465DF8047B11
:10281000704700BF80B483B000AF78600B467B8008
:102820007B88C3F308039AB27B689A800C37BD4655
:102830005DF8047B704700BF80B487B000AF78605C
:1028400013460A467A807B7000233B610023FB60BD
:102850000023BB6000237B617B687B617B88DBB2EC
:102860005B09DBB23B617B8803F01F03FB60FB6805
:10287000012202FA03F3BB603B69012B03D17B69A0
:102880000C337B6109E03B69022B03D17B69103378
:102890007B6102E07B6914337B617B78002B06D07F
:1028A0007B697A691168BA680A431A6006E07B6935
:1028B0007A691168BA68D2430A401A601C37BD466B
:1028C0005DF8047B704700BF80B485B000AF7860CE
:1028D0000B467B800023FB737B681B889AB27B8846
:1028E00013409BB2002B02D00123FB7301E00023B5
:1028F000FB73FB7B18461437BD465DF8047B7047BD
:1029000080B487B000AF78600B467B800023FB600B
:1029100000237B610023BB600023FB747B88DBB258
:102920005B09DBB2BB607B8803F01F037B617B69C3
:10293000012202FA03F37B61BB68012B06D17B689D
:102940009B899BB27A6913407B610FE0BB68022BC5
:1029500006D17B681B8A9BB27A6913407B6105E0D4
:102960007B689B8A9BB27A6913407B617B881B0AD8
:102970009BB2FB60FB68012202FA03F3FB607B68F9
:102980001B889BB2FA681340FB607B69002B05D063
:10299000FB68002B02D00123FB7401E00023FB74D1
:1029A000FB7C18461C37BD465DF8047B704700BFB2
:1029B000014B1868704700BF50040020844641EA6C
:1029C000000313F003036DD1403A41D351F8043BA7
:1029D00040F8043B51F8043B40F8043B51F8043BF9
:1029E00040F8043B51F8043B40F8043B51F8043BE9
:1029F00040F8043B51F8043B40F8043B51F8043BD9
:102A000040F8043B51F8043B40F8043B51F8043BC8
:102A100040F8043B51F8043B40F8043B51F8043BB8
:102A200040F8043B51F8043B40F8043B51F8043BA8
:102A300040F8043B51F8043B40F8043B51F8043B98
:102A400040F8043B51F8043B40F8043B403ABDD207
:102A5000303211D351F8043B40F8043B51F8043BA9
:102A600040F8043B51F8043B40F8043B51F8043B68
:102A700040F8043B103AEDD20C3205D351F8043B38
:102A800040F8043B043AF9D2043208D0D2071CBF04
:102A900011F8013B00F8013B01D30B88038060462D
:102AA000704700BF082A13D38B078DD010F00303A3
:102AB0008AD0C3F10403D21ADB071CBF11F8013B13
:102AC00000F8013B80D331F8023B20F8023B7BE762
:102AD000043AD9D3013A11F8013B00F8013BF9D28D
:102AE0000B7803704B7843708B7883706046704727
:102AF000F0B4840743D0541E002A3ED0CDB2034622
:102B000003E0621E002C38D0144603F8015B9A07DC
:102B1000F7D1032C2AD9CDB245EA05250F2C45EA79
:102B2000054515D9A4F110073F0903F1100606EB7E
:102B300007161A46156055609560D5601032B2428E
:102B4000F8D104F00F040137032C03EB07130DD960
:102B50001E462246043A032A46F8045BFAD8221F8E
:102B600022F003020432134404F003042CB1C9B26E
:102B70001C4403F8011BA342FBD1F0BC7047144670
:102B80000346C6E70FB400B5074A83B004AB10682C
:102B900053F8042B8168019300F06EF803B05DF8E0
:102BA00004EB04B0704700BF50040020F0B50446A9
:102BB00089B008460D4600F02FF8A368114F9A8996
:102BC0000495022100F1010E012604AD0291910449
:102BD0000590CDF80CE006970796019506D4596E3E
:102BE00042F4005221F400519A8159662046194658
:102BF00001AA02F095FD00280CBF0A204FF0FF301B
:102C000009B0F0BDE88C0008024B01461868FFF7D8
:102C1000CDBF00BF5004002020F0030110F00300DE
:102C2000C0F1000051F8043B00F1040C4FEACC0C59
:102C30006FF000021CBF22FA0CF213434FF0010C9C
:102C40004CEA0C2C4CEA0C4CA3EB0C0222EA0302DB
:102C500012EACC1204BF51F8043B0430F4D013F054
:102C6000FF0F1FBF013013F47F4F013013F47F0FAC
:102C700018BF0130704700BF2DE9F04FC9B01C46A6
:102C800089460A920D9002F007FF00681590FFF741
:102C9000C3FF0D9D18900F941DB1AB6B002B00F07E
:102CA0000981B9F80C2093B299040AD4D9F86410B8
:102CB00042F4005321F40051A9F80C30C9F8641013
:102CC0009BB21A0740F1C080D9F81020002A00F00A
:102CD000BB8003F01A030A2B00F0C28038ACA44674
:102CE00008942B9400250024CDE916450023119368
:102CF0002D932C931A931993109366460A9D2B7863
:102D0000002B00F0DB80252B00F0D8806A1C02E04D
:102D1000252B00F08B80144601322378002BF7D14D
:102D20000A98251A7DB12C9B2D9A0A9830600133A0
:102D30002A44072B75602D922C9300F3A48008364B
:102D40001099294410912378002B00F0A4800023CF
:102D5000651C94F801808DF88F304FF0FF341A46CF
:102D60000E9309930A950B942B460133A8F1200189
:102D7000582900F2F883DFE811F03702F603F60372
:102D80000303F603F603F603F603F603F6033E0227
:102D90003302F60360003503F60375037C037C03FE
:102DA0007C037C037C037C037C037C037C03F603B1
:102DB000F603F603F603F603F603F603F603F6034B
:102DC000F60353039D03F6039D03F603F603F60390
:102DD000F6038D03F603F603D403F603F603F603B6
:102DE000F603F603A302F603F603C302F603F603A3
:102DF000F603F603F603F603F603F603F603F6030B
:102E00000A031C039D039D039D03D9021C03F603C3
:102E1000F603E202F603EE020A021C024B02F6037C
:102E20005402F603A300F603F6037B020A99651A1F
:102E300078E70E9C0F9164420E94099D45F00405BD
:102E4000099593F8008090E70D98494601F0F2F952
:102E5000A0B9B9F80C3003F01A030A2B7FF43EAF87
:102E6000B9F90E30002BFFF639AF0D980A9A494692
:102E7000234601F0A3F949B0BDE8F08F4FF0FF30D1
:102E800049B0BDE8F08F0D9849462BAA03F068FFC2
:102E900040B938AE54E72D9B23B10D9849462BAA73
:102EA00003F05EFFB9F80C305B06E7D4109849B028
:102EB000BDE8F08F284602F099FAF2E60A9C42E754
:102EC000099C0A93A20640F106820F9DEB1D23F098
:102ED000070303F1080CD3E90045CDF83CC00123FA
:102EE0004FF0000A8DF88FA00B99002905DBDDF863
:102EF00024C02CF0800CCDF824C054EA050040F02A
:102F00004B830B99002940F04783002B40F0BD8490
:102F1000DDF824C01CF0010F00F0B78448AF302367
:102F200007F8413D089DEC1BDDF82CC000256445E9
:102F3000A8BFA446CDF830C01495BAF1000F02D056
:102F40000C9D01350C95099B13F00203129302D0DE
:102F50000C9D02350C95DDF824C01CF0840CCDF8D6
:102F60004CC040F016830E9DDDF830C0CCEB050B55
:102F7000BBF1000F40F30D83BBF1100F2D992C9A7C
:102F8000DFF828A527DD1B9710255746A2460D9C84
:102F900006E0ABF1100BBBF1100F06F1080617DDD0
:102FA00001321031072A2D912C9237607560F0DDC7
:102FB000204649462BAA03F0D3FE00287FF472AFC7
:102FC000ABF1100BBBF1100F2D992C9A38AEE7DC4A
:102FD0005446BA461B9F01320BEB010C072ACDF871
:102FE000B4C02C9286E8000C00F39E849DF88FA05C
:102FF0000836BAF1000F0FD02C9B01330CF1010CF5
:103000000DF18F010122072BCDF8B4C02C9386E877
:10301000060000F320840836129B73B12C9B013309
:103020000CF1020C24A90222072BCDF8B4C02C937A
:1030300086E8060000F31C840836139D802D00F0FE
:103040004C830B9A151B002D3DDD102D2C9BDFF8BA
:1030500060A42CDD51460B94AA464FF0100B62463B
:103060000D9C0D4606E0AAF1100ABAF1100F06F108
:10307000080617DD01331032072B2D922C9386E8BA
:103080002008F0DD204649462BAA03F069FE0028FF
:103090007FF408AFAAF1100ABAF1100F2D9A2C9BF9
:1030A00038AEE7DC94460B9C2A46554692460133DF
:1030B000AC44072BCDF8B4C02C93C6F800A07560C3
:1030C00000F3BD830836099DEB0500F1A6822C9B19
:1030D00037600133A444072BCDF8B4C074602C933F
:1030E00000F397830836099C620740D50E9D0C9823
:1030F0002C1A002C3BDD102C2C9BDFF8B0A322DD1A
:1031000010256246DDF83480574604E0103C102C50
:1031100006F1080615DD01331032072B2D922C9392
:1031200037607560F2DD404649462BAA03F018FE71
:1031300000287FF4B7AE103C102C2D9A2C9B38AE93
:10314000E9DC9446BA460133A444072BCDF8B4C059
:103150002C93C6F800A0746009DD0D9849462BAA8F
:1031600003F0FEFD00287FF49DAEDDF8B4C0109C96
:103170000C980E9DA842ACBF241864191094BCF1A1
:10318000000F40F0528300232C9338AEB6E5DDF8F3
:1031900024C00A931CF0200300F0CE810F9CE31D95
:1031A00023F0070303F108050F95D3E90045002339
:1031B00096E60F9ADDF824C00A93151D30234FF0D0
:1031C00078084CF0020CB7488DF890300F951468D1
:1031D000CDF824C000258DF891801A9002237FE657
:1031E00093F800802B22C0E593F80080002A7FF43A
:1031F000BCAD2022B9E50F9C0F9D24680E94002CD5
:1032000005F10401FFF615AE0F9193F80080ACE5CF
:10321000DDF824C04CF0200CCDF824C093F80080D9
:10322000A3E50F9C0A9327684FF0000A8DF88FA042
:10323000251D002F00F06B860B9C002C3846C0F239
:1032400016865146224602F037FF002800F0AB8672
:103250000B9C0F95C01BA042B8BF044624EAE4753E
:10326000CDF82CA0CDF850A00C959DF88FA064E669
:10327000099D8C4C0A93AF061A948DF88F2047D580
:10328000DDF83CC00CF1070323F0070303F1080449
:103290000F94D3E90045DDF824C01CF0010F00F0C5
:1032A000F88254EA050000F0F48230234CF0020C5E
:1032B0008DF890308DF89180CDF824C002230FE670
:1032C000DDF824C00A934CF0100CCDF824C0099C02
:1032D000A2063FF5FAAD099CE30600F13483DDF860
:1032E00024C01CF0400F00F02E83DDF83CC0BCF879
:1032F00000400CF1040C00250123CDF83CC0EFE5A3
:10330000099D694C0A93AF068DF88F201A94B7D4A3
:10331000099DED0640F1EC84DDF83CC0DCF800408E
:103320000CF1040CCDF83CC00025B4E7DDF824C056
:103330004CF0400CCDF824C093F8008015E593F8CC
:103340000080B8F16C0F194600F07C85099D45F0AE
:103350001005099509E5DDF824C00A931CF0200F3B
:103360008DF88F2000F0A8840F9C2168109CE51731
:103370002B460F9D224604350F95C1E90023BDE47D
:10338000099D45F00105099593F80080EDE40F9A39
:103390000F9D0A9312688DF8B8200023012404358C
:1033A0009A460C940F958DF88F300B9314932EAF93
:1033B000C9E5099C0A93A3068DF88F203CD50F9D83
:1033C000E91D21F00701D1E9002308310F911446CE
:1033D0001D46002A73F10000C0F2D1839DF88FA032
:1033E000012381E593F80080B8F12A0F03F1010071
:1033F00000F0BD86A8F13001092998BF002300F232
:103400001B8610F8018B03EB830301EB4303A8F148
:1034100030010929F5D943EAE3730B930346A5E488
:10342000DDF824C00A934CF0100CCDF824C0099CA0
:103430008DF88F20A306C2D4DDF824C01CF0100F35
:1034400040F0B382099C670640F1AF82DDF83CC0D2
:10345000BCF900400CF1040CE51722462B46CDF8D0
:103460003CC0B6E7099D45F08005099593F80080BA
:103470007BE40024A8F130010E94204613F8018B60
:1034800000EB800001EB4000A8F130010929F5D9DB
:103490000E906BE4099D45F00805099593F80080AE
:1034A00063E400BF208D00080C8D0008EC8C000840
:1034B000408D00080F9D099C0A93EB1D25078DF890
:1034C0008F2023F0070340F10B84D3E90045CDE9B9
:1034D000164503F1080CCDF83CC0DDE9160103F0F8
:1034E00087FB0128DDE9160140F053830022002309
:1034F00004F040FA002840F03C859DF88FA0032599
:103500000C95099D9E4F9F4B25F080050024099541
:1035100000250B94B8F1470FD8BF1F46032414951C
:103520000BE5099D0A9345F010050995DDF824C0C7
:103530001CF020037FF432AEDDF824C01CF0100232
:1035400040F03F82DDF824C01CF0400300F03982D7
:10355000DDF83CC0BCF800400CF1040C134600251B
:10356000CDF83CC0BCE40A938DF88F20B8F1000F71
:103570003FF491AC00234FF0010C9A46CDF830C0D7
:103580008DF8B8808DF88F300B93149364462EAF6E
:10359000D9E4DDF8B4C02CE5012B00F0E380022B68
:1035A0000DF1DF0318D1DDF868C0194604F00F00F3
:1035B000220942EA05720F462B091CF800103970E7
:1035C00052EA030014461D4607F1FF31EED1089D73
:1035D000CDE91E23EC1BA7E4E00840EA457004F0A7
:1035E0000702E908303250EA010C1F461A700446FF
:1035F0000D4603F1FF33EFD1099CCDE91C01E00733
:10360000394640F1B880302A00F0B580089D1F4649
:103610003023EC1B01F8013C86E4B8F1650F40F360
:10362000B780DDE9160100220023CDF81CC004F0AC
:1036300097F9DDF81CC0002800F02E812C9B524A1F
:10364000326001330CF1010C0122072BCDF8B4C01C
:103650002C93726000F36C830836259B119CA34267
:1036600003DB099DEF077FF53EAD2C9B189D159C54
:1036700034600133AC44072BCDF8B4C075602C9393
:1036800000F3E9830836119D6C1E002C7FF72BADEB
:10369000102C2C9BDFF8F4A040F39C81102562468F
:1036A000DDF83480574604E00836103C102C40F317
:1036B0008F8101331032072B2D922C933760756068
:1036C000F2DD404649462BAA03F04AFB00287FF46E
:1036D000E9AB2D9A2C9B38AEE7E70E980C99451A6A
:1036E000002D7FF7AEAC102D2C9BDFF8A0A02CDDB9
:1036F00051461294AA464FF0100B62460D9C0D469F
:1037000006E0AAF1100ABAF1100F06F1080617DD5B
:1037100001331032072B2D922C9386E82008F0DD20
:10372000204649462BAA03F01BFB00287FF4BAABC6
:10373000AAF1100ABAF1100F2D9A2C9B38AEE7DCD3
:103740009446129C2A46554692460133AC44072BB8
:10375000CDF8B4C02C93C6F800A0756000F30282C7
:1037600008366EE4002D08BF0A2C80F03F8148AF78
:10377000303407F8414D089DEC1BFFF7D5BB00BF67
:10378000008D0008FC8C00083C8D0008408D00086E
:10379000119C012C2C9C40F3A78101340CF10105F4
:1037A0000123072C2D952C943760736000F3B781AB
:1037B000083618981599316001340544072C2D9569
:1037C0002C94706000F3C2810836DDE916010022F6
:1037D000002304F0C5F8002840F0BD80119A0134A0
:1037E000531E01371D44072C2C942D9537607360B0
:1037F00000F389810836DDF864C00134AC44199DBA
:10380000CDF8B4C027AB072C2C9486E828007FF7AE
:1038100069AC0D9849462BAA03F0A2FA00287FF460
:1038200041ABDDF8B4C038AE5DE40D9849462BAA33
:1038300003F096FA00283FF4A6ACFFF733BB0D98CF
:1038400049462BAA03F08CFA00287FF42BABDDF855
:10385000B4C038AE37E40D9849462BAA03F080FA7D
:1038600000287FF41FABDDF8B4C038AEFFF7D4BB3F
:103870000D9849462BAA03F073FA00287FF412AB87
:10388000DDF8B4C038AEFFF7D8BB0B9C38AFFFF7FC
:103890004BBB0223FFF724BB259B002B40F3548234
:1038A000119C149DDDF84480AC42A8BF2C46002C2E
:1038B000B8440BDD2C9B37600133A444072BCDF8B3
:1038C000B4C074602C9300F3FB820836149D24EA84
:1038D000E4742C1B002C40F3B180102C2C9BDFF8DF
:1038E000F0A640F3188251461025BA466246DDF82C
:1038F00034B00F4604E00836103C102C40F3078229
:1039000001331032072B2D922C9337607560F2DD56
:10391000584649462BAA03F023FA00287FF4C2AA8E
:103920002D9A2C9B38AEE7E70D9849462BAA03F059
:1039300017FA00287FF4B6AA9DF88FA0DDF8B4C06E
:1039400038AEFFF756BB0F9D2C6804350F95012349
:103950000025FFF7C5BA119B5F1E002F7FF74BAF05
:10396000102FDFF86CA640F3E6804FF01008DDF86A
:1039700034B004E00836103F102F40F3DC800134EF
:103980001035072C2D952C94C6F800A0C6F804809D
:10399000F0DD584649462BAA03F0E2F900287FF4EF
:1039A00081AA2D9D2C9C38AEE5E70F9DDDF83CC02B
:1039B0002C680CF1040CE517CDF83CC022462B46D0
:1039C00007E50F9D2C6804350F950025FFF788BA91
:1039D0009446BA460133A444072BCDF8B4C02C93C7
:1039E000C6F800A074607FF77DAB12E70DF1DF0B26
:1039F000204629460A22002304F00CF830328BF8C6
:103A00000020204629460A22002304F003F8044639
:103A10000D4654EA050C5F460BF1FF3BE8D1089DCB
:103A2000EC1BFFF781BA0D9849462BAA03F098F9D1
:103A300000287FF437AADDF8B4C038AE149D259C69
:103A40002F44119DAC4240DB099DE8073DD41198FD
:103A5000C7EB0805041BAC42B8BF2546002D0BDDA3
:103A60002C9B37600133AC44072BCDF8B4C0756094
:103A70002C9300F35B82083625EAE575641B002C65
:103A80007FF731AB102C2C9BDFF844A5A2DD10256D
:103A90006246DDF83480574603E00836103C102CAF
:103AA00096DD01331032072B2D922C933760756011
:103AB000F3DD404649462BAA03F052F900287FF473
:103AC000F1A92D9A2C9B38AEE8E72C9B159D35600B
:103AD000189D75600133AC44072BCDF8B4C02C930E
:103AE00000F308820836B2E7099DE9073FF555AEB5
:103AF00001340CF101050123072C2D952C9437601E
:103B000073607FF777AE0D9849462BAA03F028F92A
:103B100000287FF4C7A92D9D2C9C38AE6BE60D982C
:103B200049462BAA03F01CF900287FF4BBA92D9D60
:103B30002C9C38AE3DE601343D44072C2D952C9449
:103B4000C6F800A077607FF755AEDCE70D984946D0
:103B50002BAA03F005F900287FF4A4A92D9D2C9C25
:103B600038AE32E60D9849462BAA03F0F9F8002842
:103B70007FF498A9DDF8B4C038AEFFF762BA4FF011
:103B80002D0A644265EB45058DF88FA00123FFF7F0
:103B9000ABB903F02DF8002800F023810B9D01350F
:103BA00028F0200A00F07582BAF1470F04D10B9D6E
:103BB000002D08BF01250B95DDE91623DDF824C093
:103BC000002B4CF4807CCDF848C0C0F25982DDE96E
:103BD0001645CDE920454FF0000BB8F1660F00F017
:103BE0003D82B8F1460F00F09582BAF1450F0ABF49
:103BF0000B9C0B9D651C022025A926AA29AB8DE8EC
:103C000021000392049302910D98DDE9202300F036
:103C10000BFCB8F1670F074602D0B8F1470F05D18A
:103C2000DDF824C01CF0010F00F04482BAF1460F09
:103C300007EB050400F0B081DDE92001002200233C
:103C400003F08EFE002840F0A581299B9C4206D9F6
:103C500030215A1C29921970299B9C42F9D8DB1BF0
:103C6000BAF1470F119300F07C81B8F1650F40F372
:103C70009D82B8F1660F00F00F82259C1494119C70
:103C8000149DAC4200F3DD81DDF824C01CF0010F6F
:103C900040F05C8225EAE5732C464FF06708BBF1E3
:103CA000000F40F06C81129D0C930995CDF82CB05B
:103CB0009DF88FA0FFF741B9DDF824C01CF0100F6C
:103CC00040F0AB80DDF824C01CF0400F00F03D81D7
:103CD0000F9C109D236804340F941D80FFF70EB8CD
:103CE000D3E900450833CDE916450F93FFF7F5BB3F
:103CF000099C640640F18A80DDF83CC0BCF80040B5
:103D00000CF1040C0025CDF83CC0FFF7C4BA944672
:103D10003A46574692460133A444072BCDF8B4C027
:103D20002C93C6F800A074603FF77DAE083685E698
:103D30000D9849462BAA03F013F800287FF4B2A887
:103D4000DDF8B4C038AE88E42C9A9D493160013268
:103D50000CF1010C0121072ACDF8B4C02C9271603E
:103D600063DC08361C462CB9119D1DB9099DED0771
:103D70007FF5B9A92C9B189A159D356001336244D3
:103D8000189D2D92072B75602C9300F348810836FF
:103D90006442002C40F38680102CDFF834A240F3FC
:103DA0009E8051461025BA46DDF834800F4604E067
:103DB0000836103C102C40F38F8001331032072B53
:103DC0002D922C9337607560F2DD404649462BAA50
:103DD00002F0C6FF00287FF465A82D9A2C9B38AE10
:103DE000E7E7099C774F784B9DF88FA00B904FF039
:103DF000030C24F080040994CDF830C01490B8F17D
:103E0000470FD8BF1F466446FFF797B80F9D2C6831
:103E100004350F950025FFF73EBA0F9C109D2368CF
:103E200004340F941D60FEF769BF0D9849462BAA14
:103E300002F096FF00287FF435A8259CDDF8B4C079
:103E400038AE90E7099C91F8018044F020040133DA
:103E50000994FEF78ABF0D9849462BAA02F080FF0D
:103E600000287FF41FA8DDF8B4C038AE0BE4CDF80D
:103E70002CA0FEF7D1FE0F9520EAE07C0B9DCDF83B
:103E800030C0044614959DF88FA0FFF756B80D98E2
:103E900049462BAA02F064FF00287FF403A82D9A5C
:103EA0002C9B38AEDDF844C0119C3760013394443C
:103EB000072BCDF8B4C02C9374607FF713A9A8E446
:103EC0000D9849462BAA02F04BFF00287EF4EAAF7A
:103ED000DDF8B4C038AEF9E4394657468A460133B6
:103EE0002244072B2D922C93C6F800A07460CEDCE0
:103EF0000836D7E70D9849462BAA02F031FF002873
:103F00007EF4D0AF259CDDF8B4C038AE9FE50B9CA5
:103F10001497062C28BF062424EAE47CBA460B97A3
:103F20000F95CDF830C0294FFFF707B80D984946D7
:103F30002BAA02F015FF00287EF4B4AF259C11993E
:103F4000DDF8B4C00C1B38AE96E5DDF83CC0109C23
:103F5000DCF800300CF1040CCDF83CC01C60FEF71E
:103F6000CDBE259BDC1C35DB0B9C9C4232DB1493C5
:103F700085E64FF02D0A8DF88FA0FFF7C0BA129D8D
:103F800009954FF02D0A00250C938DF88FA00B9505
:103F9000FEF7D6BF234662E63B78302B00F0C180A7
:103FA000259D2C4448E624EAE47CCDF830C00B9CE7
:103FB0000F950B9014909DF88FA0FEF7BEBF00BF29
:103FC0003C8D0008088D0008048D0008348D000821
:103FD000408D0008A8F10208013B002B2593BABFD1
:103FE0005B422D222B22092B8DF89C808DF89D2081
:103FF00062DC303330228DF89F308DF89E2028AB64
:10400000119D119C27AA9A1A012D1992144440F36C
:10401000A4800134002524EAE47314953FE60D984A
:1040200049462BAA02F09CFE00287EF43BAF259C5B
:104030002D9A2C9B38AEABE6002403460B94FEF77A
:1040400095BE149C119D002CD4BFC4F10204012420
:104050002C4424EAE4734FF0670820E60B9C01949B
:10406000032025A926AA29AB00900392049302916C
:104070000D98DDE9202300F0D7F90B9D0746D5E523
:1040800017991698209001F1004121914FF02D0BC6
:10409000A3E506240B948FE5259D1495002D0B9C1C
:1040A00078DD002C4BD1099DE80748D4149C24EA04
:1040B000E473F4E5299BD2E50DF1AA003E4DDA1731
:1040C00085FB0351C2EBA10101EB81040246A3EB86
:1040D000440303F13000092910700B4602F1FF3050
:1040E000ECDC01F130030DF1AB04D9B2844202F8EB
:1040F000011C5DD90DF19D00134601E013F8011B71
:10410000A34200F8011FF9D10DF5907CC2EB4C03DE
:10411000F63B75E70B9D0195032025A926AA29AB3F
:10412000A2E7DDE920010022002303F019FC0028AA
:104130007FF436AFC5F1010525952C447CE50B9D38
:104140006C1C149D2C4424EAE473A8E5149D6C1C9B
:1041500024EAE4734FF06708A1E5DDF824C01CF001
:1041600001037FF456AF149324EAE47397E50F9D9F
:10417000DDF83CC02D6893F801800B950CF104012B
:10418000002D0F910346BEF6F0AD4FF0FF340B94B7
:10419000FEF7EBBD2CB9099DE90702D401231C46AB
:1041A0007DE50B9DAC1C24EAE47378E5259B13E7C1
:1041B0000DF19E0324E700BF676666662DE9F043B4
:1041C0000C46ADF26C4DB1F80C90E769496EB4F84D
:1041D0000E8019911AAD4FF480664FF0000E0797CC
:1041E00029F00209676A00956946049502960596CA
:1041F000ADF80C90ADF80E800997CDF818E00646A2
:10420000FEF73AFD051E07DB3046694601F0D2F89D
:10421000002818BF4FF0FF35BDF80C305B0603D502
:10422000A38943F04003A38128460DF26C4DBDE8FD
:10423000F08300BF2F4B1B6870B506460C4613B1C8
:104240009A6B002A36D0A589ABB219070CD5226922
:10425000AAB113F001011ED0636900215B42A36182
:10426000A160F2B1002070BDDA063BD55B0725D412
:10427000226945F00803A3819BB2002AE9D103F427
:104280002071B1F5007FE4D03046214601F008FCF2
:10429000A3892269DDE7980758BF6169A160002AF8
:1042A000E0D1A3891A06DDD543F04003A3814FF086
:1042B000FF3070BD184601F099F8C4E7216B49B191
:1042C00004F14003994203D0304601F05BF9A5891F
:1042D0000023236325F02405002322696360ADB227
:1042E0002260C6E745F04005092333604FF0FF30F8
:1042F000A58170BD500400202DE9F04F03690D69C0
:104300009D4283B0834600F38B80013D01F114048C
:1043100000F1140A54F825205AF825300132B3FB75
:10432000F2F8AA00914600925244A1440192B8F1D9
:10433000000F3DD04FF0000E7046224653468C468B
:1043400052F8046B1968B7B2360C07FB08EE06FB8F
:1043500008F606EB1E461FFA8EF7C71BB0B217FA17
:1043600081F7C0EB114000EB2740BFB247EA00479E
:10437000914543F8047B4FEA20404FEA164EDFD2C6
:10438000009A5AF80230614693B9019A131F9A4570
:104390000CD252F8043C4BB9A2F1080302E01A68AF
:1043A000043B1AB99A4505F1FF35F8D3CBF8105004
:1043B000584602F04BF900282EDB08F1010853465D
:1043C000002254F8046B1868B1B2521A360C12FA73
:1043D00080F1C6EB104202EB214289B241EA024170
:1043E000A14543F8041B4FEA2242EAD25AF825209D
:1043F0000AEB850382B91A1F92450BD253F8042C9D
:1044000042B9083B02E01A68043B1AB99A4505F123
:10441000FF35F8D3CBF81050404603B0BDE8F08F1D
:10442000002003B0BDE8F08F2DE9F04F016C9BB088
:104430000446279D92469B4649B1436C4B6001223E
:1044400002FA03F38B6001F009FF00232364BBF140
:10445000000FD94633DB00232B60A54B1A4609EA2F
:104460000303934214D0504659460022002303F020
:1044700077FA804648B3269E289D01233360002D9D
:1044800000F0C9809B48286001381BB0BDE8F08F60
:10449000269D42F20F732B60BAF1000F00F0A4804A
:1044A0009548289E002EF0D0C378002B00F0B580F0
:1044B00000F10803289D2B601BB0BDE8F08F01239D
:1044C0002BF000492B60CB46C7E719AA18AB8DE843
:1044D0000C00204652465B4602F046F95FEA195549
:1044E0000A9040F08A80189F199D6FF482633D44C2
:1044F0009D42C0F294821F3305F212425B1B09FAFF
:1045000003F32AFA02F243EA020002F04BFF01260B
:10451000013DB846A1F1F87116960022774B02F0E2
:1045200003FE6DA3D3E9002302F0B2FF6CA3D3E92D
:10453000002302F0FBFD064628460F4602F042FF2C
:1045400069A3D3E9002302F0A3FF02460B463046DD
:10455000394602F0EBFD06460F4603F033FA3946C2
:10456000079000223046002303F004FA002840F0B0
:104570002882079E162E00F22182614B03EBC603B0
:10458000D3E9000152465B4603F012FA002800F01E
:104590004B82013E079600260E96C5EB0805013DAD
:1045A000069500F1258200250895079E002EC0F291
:1045B0001682069D0D963544002606950C96249D80
:1045C000092D2CD8052DC4BF043D2495249EA6F1A9
:1045D0000203CCBF00250125032B22D8DFE813F00E
:1045E000B7039E02C0039A04464A434BC9F3130023
:1045F00000280CBF1046184653E7CBF3130343F0D3
:104600007F51CDF858805046A5F2FF3541F4401156
:10461000DDF8608081E73C4837E7C31C4AE70025A6
:104620002495002565642946204601F0F1FD4FF0F0
:10463000FF390126099025952064CDF83C900B9612
:10464000199B002BC0F2D280079E0E2E00F3CE8065
:104650002B4B03EBC603D3E90001CDE904012599F7
:104660000029C0F28083DDE904235946504603F057
:1046700039F803F0A7F9054602F0A4FEDDE90423AA
:1046800002F006FF02460B465046594602F04CFD2A
:10469000099A05F13003B9F1010F06460F46137070
:1046A00002F1010B64D00022184B02F0F1FE00224F
:1046B000002306460F4603F053F9002840F081809E
:1046C000DDF82480099D0394C844DDE904AB05F1BD
:1046D000020928E0AFF3008061436F63A787D23FF0
:1046E000B3C8608B288AC63FFB799F501344D33FE1
:1046F0000000F07F3D8D00085C8D00080000F83F51
:10470000708D0008508D00083C8D0008000024408A
:1047100002F0BEFE0022002306460F4603F020F9F9
:10472000002840F0C18352465B463046394602F0CD
:10473000D9FF03F047F9054602F044FE52465B46B6
:1047400002F0A6FE02460B463046394602F0ECFC6B
:1047500005F1300EC14509F801EC4C4606460F46FE
:104760004FF00002A74B09F10109D1D1A346039CE8
:1047700032463B463046394602F0D8FC06460F46E4
:104780003246DDE904013B4603F0F4F840B9DDE9C7
:10479000040132463B4603F0E3F890B1EB0710D535
:1047A0001BF8015C099A05E09A4200F0288413F88E
:1047B000015C9B46392D0BF1FF33F5D06A1CD2B258
:1047C0001A7020460A9901F049FD079E269D731C28
:1047D000289E00228BF800202B60002E00F02583FD
:1047E0000998C6F800B01BB0BDE8F08F0B9D002DF6
:1047F00000F00381249E012E40F3DC820C9E09F11F
:10480000FF37BE42C0F28983F71BB9F1000FC0F237
:104810008684089D4B46089E1E440896069E2046A8
:104820001E440121069601F0BDFD064665B10698BD
:10483000002809DD03460899AB42A8BF2B46C91AD8
:10484000C01A0891ED1A06900C9A002A1DDD0B9BE8
:10485000002B00F05883002F11DD31463A462046E8
:1048600001F048FE064631460A9A204601F0A4FDB2
:104870000A998046204601F0F1FCCDF82880DDF849
:1048800030E0BEEB070240F08F822046012101F0AC
:1048900089FD80460D98002805DD414620460D9A89
:1048A00001F028FE80462499012940F3C1820027A7
:1048B0000D98002840F0AF820120069B034413F0BE
:1048C0001F0300F0A180C3F12002042A40F3B58445
:1048D0000899069AC3F11C0319441A4408911D440F
:1048E00006920899002905DD0A99089A204601F0E8
:1048F0004FFE0A90069A002A04DD4146204601F048
:1049000047FE80460E9B002B40F06A82B9F1000FF3
:1049100040F3A6820B98002840F088800B9D0A9FE8
:10492000DDF824B006E0394620460A22002301F0D3
:104930009FFC074638464146FFF7DEFC30300BF857
:1049400005000135A945EEDCDDF824B00A97824662
:10495000B9F1010FACBFCB440BF1010B00250A9953
:104960000122204601F014FE41460A9001F06EFE3D
:10497000002840F309831BF8012C099905E09942AE
:1049800000F08B8213F8012C9B46392A0BF1FF3380
:10499000F5D001321A704146204601F05FFC002E2E
:1049A0003FF40FAF2DB1B54203D02946204601F0A8
:1049B00055FC3146204601F051FC02E701260E96D7
:1049C000EBE5079802F0FEFC32463B4602F0C8FFDA
:1049D00000287FF4CEAD079E013E0796C9E5079EED
:1049E000089DAD1B0895754200260C950D96E6E5D1
:1049F0006D42002608950696D7E50C9F089D0B9EF4
:104A000014E700BF000024401C23DDF820E00698D6
:104A10009E441844CDF820E01D44069061E7A74865
:104A2000401B0AFA00F070E50E90B6E5002D05DD9A
:104A300031462A46204601F0ABFD0646002F40F0E5
:104A4000E8823746099D09984D4408950AF001050A
:104A50000B95DDF82890451C0AE001F009FC394669
:104A600006460A222046002301F002FC07460135D3
:104A700041464846FFF740FC31468346484601F030
:104A8000E5FD414603903A46204601F003FEC26828
:104A9000691E03460BF1300A0691002A40F093810B
:104AA00019464846029301F0D1FD029B0246194681
:104AB0002046029201F0D2FB029A2AB9249B1BB92C
:104AC0000B98002800F09183039B002BC0F23482E6
:104AD00005D1249818B90B99002900F02D82002ADD
:104AE00000F3AB82DDF820E005F801AC7545AB467C
:104AF00000F0B38249460A220023204601F0B8FBA9
:104B0000BE428146314620464FF00A024FF0000374
:104B1000A3D101F0ADFB06460746A8E700260B9699
:104B2000079EDDF894E0B6440EF10109B9F1000FDB
:104B3000CDF83CE04E4640F350810021172E6164D1
:104B40000AD9012204235B0003F11400B04211468C
:104B500002F10102F7D96164204601F059FB0E2EE3
:104B6000099020643FF66CAD002D3FF469AD079DC0
:104B7000002DCDE912AB40F31B82514B05F00F0223
:104B800003EBC2032D11D3E90067EB0640F1CD81A1
:104B90004C4B50465946D3E9082302F0A3FDCDE91A
:104BA000100105F00F054FF003088DB1DFF814A1D7
:104BB00030463946EE0705D5DAE9002308F1010849
:104BC00002F066FC6D100AF1080AF3D106460F46A2
:104BD000DDE9100132463B4602F084FD82468B46F9
:104BE0000E9D45B1504659460022374B02F0C2FE99
:104BF000002840F0A982404602F0E4FB52465B46A2
:104C000002F046FC0022314B02F090FA0646A1F178
:104C10005077B9F1000F00F05A81079D1795C846EB
:104C20000B9D002D00F02282254B294903EBC80380
:104C300053E90223002002F055FD32463B4602F0C4
:104C400073FACDE910015946504602F0BBFE054605
:104C500002F0B8FB02460B465046594602F064FA91
:104C60003035099ECDE90401EDB23570DDE9100162
:104C7000DDE9042306F1010B02F09AFE002840F062
:104C8000A982DDE9042300200F4902F04DFA024613
:104C90000B46DDE9100102F08BFE002840F0A082F7
:104CA000B8F1010F40F38081B044CDF85090A24696
:104CB000C146DDE90467DDE9104519E0EEFBFFFFC1
:104CC000708D0008388E00080000F03F00001C4086
:104CD0000000E03F0020A84902F026FA22462B46B9
:104CE00002F048FE002840F07982CB4500F059815F
:104CF000204629460022A14B02F0CAFB00229F4B0E
:104D000004460D463046394602F0C2FB0F460646C1
:104D100002F058FE804602F055FB02460B46304634
:104D2000394602F001FA08F130085FFA88F82246A5
:104D30002B460BF8018B06460F4602F01BFE32464F
:104D40003B460028C6D0179E0796544639E50026F4
:104D50000B96259800283CDD06460F908146ECE630
:104D600001260B96F5E7B9F1000F3FF77CAC40F058
:104D7000C6800022824BDDE9040102F089FB524625
:104D80005B4602F00BFEC8464E4600287CD0259DAF
:104D9000DDF824B0ED4307954146204601F05EFA68
:104DA000002E7FF406AE0CE50A99204601F0A2FB26
:104DB0000A906AE5169D002D00F0B78103F2334397
:104DC0000C9F089D27E50146204601F047FA012285
:104DD0007AE6012625960F96B14600216164BBE66E
:104DE0000A98414601F032FC0028BFF68FADDDF88D
:104DF0001CE00A990EF1FF3E20460A220023CDF85E
:104E00001CE001F035FA0A900B98002840F0078268
:104E1000DDF83C907AE5D8F8103008EB8303186988
:104E200001F072FAC0F1200047E50998FFF72DBBA9
:104E3000BAF1000F7FF43BADCBF31303002B40F02E
:104E40007B812BF000473F0D3F05002F3FF430AD35
:104E5000089A069B0132013308920693012727E541
:104E6000249902297FF756ADB9F1000F8FD1414641
:104E70004B460522204601F0FBF9804641460A9840
:104E800001F0E4FB002882DD079D01350795099DAF
:104E900031232B7005F1010B7EE707980999312327
:104EA000013007900B7076E5A346039C89E44046E9
:104EB00002F088FA02460B465046594602F0E8FADC
:104EC0000022304B02F032F90646A1F150775046ED
:104ED000594600222A4B02F027F932463B468246C9
:104EE0008B4602F065FD002840F0BC80324607F199
:104EF00000435046594602F03DFD002854D04FF083
:104F00000008464643E70A990C9A204601F0F2FA57
:104F10000A90BAE401260B9602E60C9D0D9E0C97B2
:104F20007B1B1E440D9600276FE4DDE912014FF054
:104F30000208CDE9100138E6002ACDF82890D946BC
:104F400011DD0A990122204601F022FB41460A9018
:104F500001F07CFB002840F35B81BAF1390F00F0CF
:104F60001A8109F1310A069B354683F800A003F146
:104F7000010B3E460FE500BF0000F03F000024405B
:104F80000000144000001C4003D11AF0010F7FF410
:104F9000F2AC5B469B46013B1BF8012C302AF9D052
:104FA000F9E4DDF850905446DDE912ABFFF748BB59
:104FB000079E7542002D00F0C280A34B05F00F0242
:104FC00003EBC203D3E90023DDE9120102F060FA2A
:104FD0002D1182468B4600F02D819C4E4FF0020829
:104FE000EA0705D5D6E9002308F1010802F050FAD6
:104FF0006D1006F10806F3D182468B46F0E5079E58
:10500000099D30222A700136312207961A70FFF767
:10501000D8BB7168204601F0FBF833699A1C05463D
:10502000920006F10C010C30FDF7C8FC2046294621
:10503000012201F0ADFA074604E5BAF1390FCDF8C7
:10504000289000F0A880069D0AF101032B703546D8
:10505000069E06F1010B3E469DE43546CDF82890AC
:105060003E467CE44FF0000846460DE7764908F1DD
:10507000FF3501EBC50132463B46D1E900011095F1
:1050800002F006FACDE914015946504602F09AFCA6
:10509000054602F097F902460B465046594602F083
:1050A00043F8DDF824E03035B8F1010F06460F462D
:1050B0008EF800500EF1010B1ED0099D6B1E03EB04
:1050C000080A0022624B02F0E3F90F46064602F09E
:1050D00079FC804602F076F908F1300802460B466A
:1050E0003046394602F020F805F8018F5545E8D1E1
:1050F000109D06460F46AB440022564BDDE91401D5
:1051000002F014F832463B4602F034FC00284DD041
:10511000179E07961BF8015C099AFFF74BBB089E88
:105120000023C9EB0605FFF776BB189B0C9F089D73
:10513000C3F13603FFF76FBB5746FFF7B9BBDDE995
:1051400012AB4FF002084BE5B9F1000F3FF4AFAEE0
:105150000F9E002E7FF728AF00223D4B5046594648
:1051600002F096F9824608F101008B4602F02AF916
:1051700002460B465046594602F08AF90022364B49
:1051800001F0D4FF079DDDF83C80013D0646A1F10A
:105190005077179544E53546069B069E09993922B6
:1051A000327003F1010B3E46FFF7EFBBDDE914233C
:1051B0000020284901F0B8FF32463B4602F0F8FBD8
:1051C00000283FF4F1AE5B469B46013B1BF8012CE7
:1051D000302AF9D0179D0795FFF7F3BA4546544694
:1051E000179E0796099AFFF7E5BABAF1390FCDF87D
:1051F0002890D0D0039B3546002B069EC8BF0BF1EC
:10520000310A86F800A006F1010B3E46FFF7C3BB4A
:105210007FF4A9AE1AF0010F3FF4A5AE9DE631462A
:1052200020460A220023DDF83C9001F021F80646D2
:10523000FFF76CBB4FF00208D2E43FF452ABC3F16E
:105240003C03FFF7E2BB00BF708D0008388E0008FA
:10525000000024400000E03F00001C40AFF300804D
:105260008B899AB22DE9F0410D46110780463CD456
:105270006A6843F40063002AAB8159DDAC6A002CF4
:105280004BD09BB203F48052002192B2D8F8006058
:10529000C8F80010002A4FD02A6D5F0705D569684D
:1052A0002B6B521A0BB1EB6BD21A4046E969002303
:1052B000A047441C4AD0AA892B692B6022F40063C2
:1052C0009BB200226A60DA04AB814CD4296BC8F827
:1052D000006011B305F14003994202D0404600F04E
:1052E00051F900202863BDE8F0812E69AEB12C6829
:1052F0002E6091070CBF6B690023A41BAB600AE012
:10530000324623466F6AE9694046B8470028C0EB39
:105310000404064404DD002CF2DC0020BDE8F0812A
:10532000AB8943F04003AB814FF0FF30BDE8F08123
:10533000EA6B002AA2DCF0E701234046E969A047B6
:10534000431C02461ED0AB89AC6AA6E7D8F80030F1
:105350005BB9A9896B6021F400639BB22A69AB81B8
:10536000DB042A60B2D52865B0E71D2B01D0162BCF
:1053700019D1AA892B692B6022F400620023AA812B
:105380006B60A3E7D8F80030002BDCD01D2B07D0D2
:10539000162B05D0AB8943F04003AB81BDE8F0810B
:1053A000C8F80060B9E7AB8943F04003AB81BDE8C2
:1053B000F08100BF10B5044682B008B1836B53B1D1
:1053C000B1F90C0008B902B010BD204602B0BDE82A
:1053D0001040FFF745BF019100F008F80199EFE791
:1053E000014900F029BB00BFA56E00082DE9F04F70
:1053F000846B83B00746002C65D145683348F86359
:105400000423032107F53B72C7F8E412C7F8E8222A
:10541000C7F8E04205F15C00AB812C606C60AC60C9
:105420006C66EC812C616C61AC6121460822FDF751
:105430005FFBBE68DFF898B0DFF898A0DFF89890BF
:10544000DFF89880ED6101230922C5F820B0C5F886
:1054500024A0C5F82890C5F82C802146F381B2819C
:1054600034607460B460746634617461B46108223D
:1054700006F15C000193FDF73BFBFD68F66112202D
:105480000222C6F820B0C6F824A0C6F82890C6F8B4
:105490002C802146A881EA812C606C60AC606C662F
:1054A0002C616C61AC6105F15C000822FDF720FB0A
:1054B000019BED61C5F820B0C5F824A0C5F828907F
:1054C000C5F82C80BB6303B0BDE8F08FE153000842
:1054D000656C0008896C0008C16C0008E16C00086C
:1054E000704700BF704700BFF8B5234D0F46044614
:1054F00000F08AFEAB685E6826F00306F11B01F639
:10550000EF7121F47F6121F00F01A1F58057B7F50C
:10551000805F07DB2046002101F092FBAB6833443B
:10552000984204D0204600F071FE0020F8BD2046CD
:10553000794201F085FB01300DD0104BAA68196843
:10554000F61B46F001062046C91B5660196000F0A4
:105550005DFE0120F8BD2046002101F071FBAB6823
:10556000C21A0F2ADEDD064D04492D6842F0010201
:10557000401B5A600860D5E7B0040020F408002002
:10558000BC0800202DE9F0410D460646002955D003
:1055900000F03AFE55F8041CDFF874C121F0010355
:1055A000A5F10804E218DCF808005768904227F0DB
:1055B000030769D011F00101576032D00021D019E2
:1055C0004068C00706D43B44906800294ED0D2689A
:1055D000C260906043F001026260E350E1B9B3F54C
:1055E000007F2DD35A0A042A6AD89809383041001E
:1055F0000CEB810C4649DCF80820624566D0516806
:1056000021F003018B4202D292689445F7D1D3680E
:10561000E360A2609C60D4603046BDE8F04100F0D9
:10562000F5BD55F8085C641B0CF10808A0684045FE
:105630002B4443D0E568C560A860C0E7BDE8F081B1
:10564000DB080CEBC3020125DCF804009168A160C3
:105650009B1005FA03F31843E260CCF80400946051
:105660003046CC60BDE8F04100F0D0BD294DA842E5
:10567000ADD143F00102CCF81440CCF81040E0600A
:10568000A0606260E350C7E71F44CB0707D455F81A
:10569000083CE41A1F44A268E368D3609A601E4B7A
:1056A0001B6847F001029F426260CCF80840B3D308
:1056B0001A4B30461968FFF717FFADE701217EE767
:1056C000142A0CD802F15B00410091E74B6880106E
:1056D000012505FA00F003434B60134698E7542A6E
:1056E00003D8180B6E30410082E7B2F5AA7F03D8C9
:1056F000D80B773041007BE740F254518A4203D8FF
:10570000980C7C30410073E7FC217E2070E700BFDD
:10571000B0040020B8040020B8080020F0080020E1
:105720002DE9F04F936883B0164681460C462BB3A3
:105730008B89190726D5226922B303F0020292B29F
:105740003568002A2CD04FF0000ADFF8E8B2D046C6
:10575000D84534BF43465B4652464846B8F1000F31
:105760004FD0E169676AB847002856DDB3681B1A55
:105770008244C0EB0808B360002BE9D1002003B0DD
:10578000BDE8F08F48462146FEF754FD002840F062
:105790004881A389356803F0020292B2002AD2D16F
:1057A00013F0010A42D1D046B8F1000F23D09A0578
:1057B000A76876D5B845C0F0A48013F4906F40F088
:1057C000B2802068BB4651465A4600F0BDFCA26834
:1057D0002168D21B01EB0B03A26023604246B36831
:1057E0009B1A9244C2EB0808B360002BC6D0A38971
:1057F000B8F1000FDBD1D5F800A0D5F8048008354A
:10580000D2E7D5F800A0D5F804800835A0E74846CF
:105810002146FFF7CFFD002859D0A38943F040036C
:105820004FF0FF30A38103B0BDE8F08F92460192A4
:1058300093469046B8F1000F2BD0019F002F64D003
:1058400020682169D4F808C06269C24534BF534654
:10585000434688421F4603D99444634500F3AE8013
:10586000934236DB1346676AE16948465A46B847B1
:10587000071ED2DDBAEB070A3AD0B368DB1BBB4484
:10588000C7EB0808B360002B3FF478AFB8F1000F06
:10589000D3D10027D5F800B0D5F80480019708359A
:1058A000C8E720682369984202D86369984572D294
:1058B000B84538BF47463A46514600F045FCA36814
:1058C0002268DB1B3A44A3602260002B9FD03A463B
:1058D00085E71A465946009300F036FC009BA16804
:1058E0002268C91ABAEB070A1344A1602360C4D125
:1058F00048462146FFF75EFD00288ED1CDF804A072
:10590000BBE720684746C3465DE758460A21424642
:1059100000F0D2FB00287FD000F1010A0127CBEB79
:105920000A0A01978CE7226821696769C1EB020CBA
:1059300007EB47070CF1010207EBD77742447F10D2
:10594000974234BF17463A465B054FD51146484645
:10595000CDF800C000F014F9DDF800C0834600283F
:1059600062D062462169CDF800C0FDF727F8A28910
:10597000DDF800C022F4906242F08002A2810BEBBD
:105980000C00CCEB0702C4F810B067612060A26085
:105990004746C34617E76FF00042904538BF42467E
:1059A00092FBF3F202FB03F3676AE1694846524651
:1059B000B84700287FF731AF024610E762465946E4
:1059C000CDF800C000F0C0FBDDF800C023686344E0
:1059D000236048462146CDF800C0FFF7EBFCDDF818
:1059E00000C000287FF419AF674643E74846CDF86A
:1059F00000C000F017FFDDF800C083460028BED1CC
:105A000048462169FFF7BEFDA3890C2223F08003DD
:105A10009BB2C9F8002001E7012708F1010A0197AC
:105A20000EE74FF0FF30AAE60C23C9F80030A38937
:105A3000F4E600BF00FCFF7F2DE9F04110F5387758
:105A400088461AD000267D68BC68013D0FD4A38922
:105A5000012B05F1FF3506D9B4F90E30013320468C
:105A600001D0C04706436B1C04F16804EFD13F68C6
:105A7000002FE8D13046BDE8F0813E463046BDE813
:105A8000F08100BF004870478C040020014B18686B
:105A9000704700BFAC040020004870475404002049
:105AA000F0B58B899AB2960791B00C46054637D46B
:105AB000B1F90E10002917DB01AA01F059FA0028EC
:105AC00010DB029B03F47043B3F500514F424F418A
:105AD000B3F5004F2CD0A38943F40063A3814FF4A6
