:020000040800F2
:1000000000000220A1020008293200082D32000859
:100010003132000835320008393200080000000093
:100020000000000000000000000000003D32000859
:1000300041320008000000004532000899290008FC
:10004000D1030008D1030008D1030008D103000840
:10005000D1030008D1030008D1030008D103000830
:1000600005320008D1030008D1030008D1030008BD
:10007000D1030008D1030008D1030008D103000810
:10008000D1030008D1030008D1030008D103000800
:10009000D1030008D1030008D1030008D1030008F0
:1000A000D1030008D1030008D1030008D1030008E0
:1000B000E9310008D1030008D1030008D10300088A
:1000C000D1030008D1030008D1030008D1030008C0
:1000D000D1030008D1030008D1030008D1030008B0
:1000E000651C0008D1030008D1030008D1030008F3
:1000F000D1030008D1030008D1030008D103000890
:10010000D1030008D1030008D1030008D10300087F
:10011000D1030008D1030008D1030008D10300086F
:10012000D1030008D1030008D1030008D10300085F
:10013000D1030008D1030008D1030008D10300084F
:10014000D1030008D1030008D1030008D10300083F
:10015000D1030008D10300083D210008D1030008A5
:10016000D1030008D1030008D1030008D10300081F
:10017000D1030008D1030008DD2F000800000000B3
:10018000D1030008D103000800B583B001F0C8F91D
:10019000314B324A1360324A1360324B324A03E029
:1001A000116819600433043230498B42F8D32B4B69
:1001B0001A682F4B9A4204D1294B1A682D4B9A4248
:1001C00000D0FEE7244B2C4A13602C4A13602C4BC2
:1001D00002E000221A6004332A4A9342F9D3264BE4
:1001E0001B6813B9254B1B6803B1FEE701F0A4F9A6
:1001F000694601A800F08AFF234C244B1C1BA41065
:10020000002504E0204B53F8253098470135AC42D7
:10021000F8DC1F4C1F4B1C1BA410002504E01C4BDA
:1002200053F8253098470135AC42F8DC01F0E2FA8A
:100230000099019802F0FAFE0546174C174B1C1B5B
:10024000A41004E0013C144B53F824309847002CD0
:10025000F8DC284600F0F6FEBABADECA000000203C
:1002600020020020000000209051000824020020FD
:100270007856341232547698240200209C040020D0
:1002800024020020A0040020FC030008FC03000856
:10029000FC03000800040008000400080004000833
:1002A00008B5FFF771FF00BF00BEFEE71EF0040FA8
:1002B0000CBFEFF30880EFF309807146414A104705
:1002C0002DE9F04182B004468846134B5E6B9F6B6C
:1002D0009D6A1B6B13F0020F0DD00F4BDB6A002BD6
:1002E00009DA4BF6AB6101F0A3F920B14FF00042FF
:1002F000094BDA620CE0094801F0C4F8CDF800803F
:100300003B4632462946204601F01AF900BEFEE778
:1003100002B0BDE8F08100BF00ED00E084480008B5
:1003200000BEFEE71EF0040F0CBFEFF30880EFF3F2
:1003300009807146244A10472DE9F04182B00446F5
:100340008846084B5E6B9F6B9D6A074801F09AF8E0
:10035000CDF800803B4632462946204601F0F0F8B1
:1003600000BEFEE700ED00E0944800081EF0040F18
:100370000CBFEFF30880EFF309807146134A104772
:100380002DE9F04182B004468846084B5E6B9F6BB6
:100390009D6A074801F076F8CDF800803B4632466A
:1003A0002946204601F0CCF800BEFEE700ED00E053
:1003B000A048000800BEFEE700BEFEE700BEFEE764
:1003C00070470000C10200083903000881030008DB
:0403D00000BEFEE786
:1003D40090510008000000202402002090510008E1
:1003E400000000100000001024020020A0040020DF
:0C03F4000000001000000010193200088A
:1004000040F0BF6040F40030014BD860704700BF3F
:1004100000ED00E0C3780BB310B4174BDA68D24399
:10042000C2F30222C2F10401CCB20F23134141787E
:10043000A140C9B2827813400B431B01DBB20278A2
:100440000E490A4482F800330378580903F01F0369
:10045000012202FA03F341F820300BE003785A0935
:1004600003F01F03012101FA03F32032034941F88D
:100470002230704710BC704700ED00E000E100E062
:10048000F0B5104E336823F4804323F0010333604A
:10049000336823F47F6525F00205B0F800C0448876
:1004A0008188C288B0F808E0438987894CEA040053
:1004B000014311434EEA01021A4347EA02032B4368
:1004C0003360F0BD0000055028B1064A136843F4BC
:1004D000804313607047034A136823F4804313601A
:1004E000704700BF0000055028B1064A136843F06A
:1004F000010313607047034A136823F0010313607C
:10050000704700BF0000055021B1064AD368184368
:10051000D0607047034AD368C04380B21840D060AF
:10052000704700BF00000550034B1B69034201D018
:10053000012070470020704700000550014B5861B2
:10054000704700BF00000550036823F001030360FB
:100550000023036043608360C36003612123436120
:100560003B4B984203D13D22103B9A607047394B78
:10057000984204D14FF47462283B9A607047364B1E
:10058000984204D14FF47412403B9A607047334B49
:10059000984204D14FF07462583B9A607047304BD8
:1005A000984203D12F4A703BDA6070472E4B984235
:1005B00003D12E4A883BDA6070472D4B984203D115
:1005C0002C4AA03BDA6070472B4B984204D14FF085
:1005D0003D52B83BDA607047284B984203D13D2228
:1005E000103B9A607047264B984204D14FF47462D6
:1005F000283B9A607047234B984204D14FF4741201
:10060000403B9A607047204B984204D14FF074628F
:10061000583B9A6070471D4B984203D1114A703B7A
:10062000DA6070471A4B984203D1104A883BDA606F
:100630007047184B984203D10E4AA03BDA607047CE
:10064000154B984203D14FF03D52B83BDA607047EA
:100650001060024028600240406002405860024042
:10066000706002403D00002088600240400F002082
:10067000A060024000003D20B860024010640240CB
:1006800028640240406402405864024070640240A2
:1006900088640240A0640240B864024010B4036859
:1006A000134A1A400C68CB681C434B691C438B6986
:1006B0001C43CB691C430B6A1C434B6A1C438B6A6B
:1006C0001C434B6B1C438B6B2343134303604369F5
:1006D00023F00702CC6A0B6B2343134343610B697E
:1006E00043604B6883608B68C36010BC704700BF79
:1006F0003F801CF00023036043608360C36003619C
:1007000043618361C361036243628362C3620363C3
:1007100043638363704700BF21B1036843F0010363
:1007200003607047036823F001030360704700BF54
:1007300011F0800F09D022B1436943F08003436177
:1007400003E0436923F08003436180290CD02AB180
:10075000036801F01E01194301607047036801F04E
:100760001E0123EA01010160704700BF10B4144B61
:10077000984201D8134C00E0134C21F0F02323F0F1
:10078000C3132BB1CA0A02F01E0203681A4002E02A
:10079000426902F0800211F0005F01D0636800E05E
:1007A000236823F0F02323F08213194202D01AB9F0
:1007B000002002E0002000E0012010BC704700BFD4
:1007C0000F64024000600240006402400A4B9842FD
:1007D00002D8A3F20F4300E0084B11F0005F05D0F0
:1007E00021F0F02121F08211D960704721F0F02131
:1007F00021F08211996070470F640240006402404A
:100800008379002B34D010B4204B1A68016822EA97
:1008100001021A605A68016822EA01025A600279EC
:1008200002F1804202F59E32146801682143116092
:100830009A68016822EA01029A60DA68016822EA8D
:100840000102DA604379102B09D1104B99680268D4
:100850000A439A60D96802680A43DA6013E003F138
:10086000804303F59E33196802680A431A600AE060
:10087000037903F1804303F59E331A68016822EA85
:1008800001021A60704710BC704700BF003C014075
:10089000014B5861704700BF003C0140034B5B694E
:1008A000034201D00120704700207047003C014006
:1008B000014B5861704700BF003C014010B4016813
:1008C000426883681A43C3681A4303691A43436939
:1008D0001A4383691A43C3691A43036A1A43436A72
:1008E0001A43836A1A43C36A1A43036B1A43436B5E
:1008F00013434FF0204242F821308368082B06D181
:10090000016852F8213043F0400342F82130436B34
:10091000B3F5801F13D102688AB14FF020425168AD
:1009200021F47001146823431360136843F4807347
:100930001360836B1B69013B41EA035353600168F9
:100940000131826B1368546843EA0413946843EAE4
:100950000423D46843EA0443146943EA0453546902
:1009600043EA0463926913434FF0204242F8213076
:10097000836AB3F5804F14D10168C26B1368506865
:1009800043EA0013906843EA0023106943EA0053E6
:10099000506943EA006392691343064A42F82130E2
:1009A00005E002686FF07041024B43F8221010BC62
:1009B000704700BF040100A041B14FF0204252F83F
:1009C000203043F0010342F8203070474FF02042BE
:1009D00052F82010024B0B4042F82030704700BF05
:1009E000FEFF0F0070B400233AE001229A400C6829
:1009F000A24334D104685D000322AA40D2431440CC
:100A0000046006680C79AC40344304600C79013C06
:100A1000E4B2012C15D884682240826084684A7947
:100A2000AA402243826046689AB20124944026EA92
:100A30000404446046688C7904FA02F292B23243AC
:100A40004260C4689AB256000322B24024EA02020D
:100A5000C260C668CC7904FA05F23243C260013341
:100A60000F2BC2D970BC70470369194201D0012015
:100A700070470020704700BF018370474183704773
:100A8000436959404161704730B401F007039B004E
:100A90009A40C908083150F821400F2505FA03F3A0
:100AA00024EA030340F8213050F821301A4340F87B
:100AB000212030BC704700BF08B5154B98420AD1C1
:100AC00001214FF4001000F09DF900214FF40010B7
:100AD00000F098F908BD0F4B98420AD101214FF45C
:100AE000800000F08FF900214FF4800000F08AF9B7
:100AF00008BD094B984209D101214FF4000000F0D4
:100B000081F900214FF4000000F07CF908BD00BF1E
:100B10000054004000580040005C0040F0B585B033
:100B200004460D468688B6B226F03F06B6B2684641
:100B300000F0CAF802982D49A1FB0031890C8FB250
:100B40003E43A680228892B222F0010292B2228015
:100B50002B68274A934209D85B00B0FBF3F39BB2A2
:100B6000032B00D804230137278427E0EE884BF6B7
:100B7000FF72964205D103EB4302B0FBF2F39BB246
:100B800008E003EB830303EB8303B0FBF3F39BB2B7
:100B900043F48043C3F30B020AB943F0010343F467
:100BA00000434FF4967201FB02F1124A82FB0102EC
:100BB000C917C1EBA211013189B22184A383238813
:100BC0009BB243F00103238023889BB223F481630B
:100BD00023F00203A9886A890A4313432380AA8960
:100BE0002B891343238105B0F0BD00BF83DE1B4377
:100BF000A0860100D34D621029B103889BB243F057
:100C000001030380704703889BB223F001039BB26A
:100C10000380704729B103889BB243F4807303803B
:100C2000704703889BB223F480739BB203807047A4
:100C300029B103889BB243F4007303807047038893
:100C40009BB223F400739BB20380704712B141F052
:100C5000010101E001F0FE0189B20182704700BF8D
:100C600029B103889BB243F48063038070470388F3
:100C70009BB223F480639BB203807047018270476C
:100C8000008AC0B2704700BF838A9BB2028B43EADE
:100C9000024323F07F4331EA030301D1012070476F
:100CA00000207047024B00221A701870704700BF76
:100CB00002380240034A936823F0EC63014319436E
:100CC000916070470038024010B4284B9B6803F0D5
:100CD0000C03042B05D0082B06D053BB244B036018
:100CE00029E0234B036026E0204B5A685B6803F041
:100CF0003F0312F4800F09D01D4AB2FBF3F21B4BE5
:100D00005B68C3F3881303FB02F208E0184AB2FBE6
:100D1000F3F3164A5168C1F3881101FB03F2134B38
:100D20005B68C3F3014301335B00B2FBF3F3036081
:100D300001E00F4B03600D4CA368C3F303130D498F
:100D4000CB5CDAB20368D3404360A268C2F382226C
:100D50008A5CD2B223FA02F28260A268C2F3423203
:100D60008A5CD2B2D340C36010BC704700380240E6
:100D70000024F4000400002021B1054B1A6B10433D
:100D800018637047024A136B23EA00001063704730
:100D90000038024021B1054B5A6B1043586370472D
:100DA000024A536B23EA0000506370470038024048
:100DB00021B1054B9A6B104398637047024A936BBD
:100DC00023EA0000906370470038024021B1054BD0
:100DD0001A6C104318647047024A136C23EA00002F
:100DE000106470470038024021B1054B5A6C104323
:100DF00058647047024A536C23EA000050647047FD
:100E00000038024021B1054B1A6A1043186270473E
:100E1000024A136A23EA0000106270470038024059
:100E20004309012B02D10A4B1B6806E0022B02D1B9
:100E3000074B1B6F01E0064B5B6F00F01F0023FAAE
:100E400000F010F0010F01D0012070470020704722
:100E50000038024000B583B0002301933120FFF732
:100E6000DFFF019B01330193019BB3F5A04F01D03C
:100E70000028F3D03120FFF7D3FF08B1012000E0B4
:100E8000002003B05DF804FB30B401F003039B00C5
:100E90000F2404FA03F58908074A023152F8214069
:100EA00024EA050442F8214052F8214098402043AA
:100EB00042F8210030BC70470038014003889BB2E3
:100EC0001B4A904212D002F5806290420ED0B0F1DF
:100ED000804F0BD0A2F58032904207D002F580629D
:100EE000904203D002F58062904203D123F0700358
:100EF0004A8813430F4A904208D002F5806290421C
:100F000004D023F440739BB20A89134303804B68D7
:100F1000C3620B880385064B984203D003F58063B8
:100F2000984201D18B7A038601238382704700BFE8
:100F3000000001400010004029B103889BB243F03B
:100F400001030380704703889BB223F001039BB227
:100F50000380704722B183899BB219438181704716
:100F60008389C94389B2194081817047028A838984
:100F70000B40114202D01BB900207047002070477F
:100F800001207047C94389B20182704708B50D4BF3
:100F90001B6813B90C4A0B4B1A600A4B1A68C31C26
:100FA00023F00303134409498B4206D902F0D6F912
:100FB0000C2303604FF0FF3008BD02490B60104660
:100FC00008BD00BF28020020A004002000FC012072
:100FD00030B50025132420462946ABBE04462046E2
:100FE00030BD00BF38B5044602F0B8F90546FFF73A
:100FF000EFFF2860204638BDB0F1FF3F03D108B5B0
:10100000FFF7F0FF08BD704710B504460B4B18689A
:1010100018B1836B0BB902F0E7F9132C09D8084B10
:1010200053F83430B3F1FF3F05D0054800EBC4005E
:1010300010BD002010BD002010BD00BFB00000207A
:10104000B002002000B508B9044D00E0044D18249A
:1010500020462946ABBE0446FEE700BF260002003C
:10106000230002002DE9F04184B0234F01970326AD
:10107000039600230293012401AD20462946ABBE0E
:1010800080461E4BC3F80080019703960423029309
:1010900020462946ABBE8046194BC3F80080019715
:1010A00003960823029320462946ABBE0446154BFF
:1010B0001C60B4F1FF3F03D1114B1A68114B1A6049
:1010C000002305E04FF0FF310F4A42F8331001339F
:1010D000132BF7DD0C4B094A12681A6000225A6084
:1010E000074909689960DA600649096819615A6117
:1010F00004B0BDE8F08100BF5C470008800200201A
:101100002C020020AC020020B00200202DE9F047A4
:1011100082B082468946364B00934F2301936D4639
:10112000152420462946ABBE0446002C46D14FF07C
:1011300000082F4B83F84F80009D4746464638E015
:10114000F6B902F0E7F9204490F90130002B03DBF7
:10115000092C03D1012302E0012300E000233BBB63
:10116000B8F1080F2CDC222C01D0272C01D101353D
:101170002746204B43F8285008F10108012617E0C4
:101180002FB1A74214D100262E70374610E002F08E
:10119000C1F9204490F90130002B03DB092C03D165
:1011A000012302E0012300E000230BB100262E7092
:1011B000013595F90040002CC2D101E04FF0000844
:1011C000B8F1000F06D10A4B00221A70094A1360C9
:1011D00008F10108074B002243F82820CAF80080D4
:1011E000C9F80030FFF73EFF02B0BDE8F08700BF4E
:1011F000300200208402002030B585B001900291B9
:10120000039201AD062420462946ABBE0446204683
:10121000FFF7F2FE05B030BD70B50E461546FFF77C
:10122000F3FE30B902F09AF8092303604FF0FF3063
:1012300070BD04462A4631460068FFF7DDFFB0F175
:10124000FF3F03D0281A63680344636070BD00BF8A
:10125000F0B583B00C461546FFF7D6FE30B902F064
:101260007DF8092303604FF0FF304DE00646022D64
:1012700006D902F073F8162303604FF0FF3043E005
:10128000012D13D14368E4180FD502F067F8162337
:1012900003607368002B2CDD002C2DDD02F05EF85E
:1012A0008B2303604FF0FF302EE00025022D0FD17D
:1012B000336802AF47F8083D0C2528463946ABBED7
:1012C00005462846FFF798FEB0F1FF3F17D00444CB
:1012D0003368009301946F460A2528463946ABBE11
:1012E00005462846FFF788FE00280BDB7460204681
:1012F0000AE04FF0FF3007E04FF0FF3004E04FF01E
:10130000FF3001E04FF0FF3003B0F0BD08B5FFF74C
:101310009FFF08BD30B585B001900291039201ADE9
:10132000052420462946ABBE04462046FFF764FE4E
:1013300005B030BD70B50E461446FFF765FE30B9F6
:1013400002F00CF8092303604FF0FF3070BD054632
:10135000224631460068FFF7DDFF021E09DBA01AB6
:101360006B6803446B60944205D10020FFF73AFE9E
:1013700070BD4FF0FF3070BD30B583B002AD45F8A1
:10138000040D022420462946ABBE04462046FFF742
:1013900033FE03B030BD00BF38B50446FFF734FE5E
:1013A00030B901F0DBFF092303604FF0FF3038BD97
:1013B0000546013C012C09D8094B9A681B699A42E1
:1013C00004D14FF0FF330360002038BD2868FFF7D9
:1013D000D3FF18B94FF0FF322A6038BD38BD00BFC7
:1013E000B002002070B50C46FFF70EFE30B901F0D8
:1013F000B5FF092303604FF0FF3070BD06466368F8
:1014000043F4005363604FF48063E3620C25284685
:101410003146ABBE05462846FFF7EEFDB0F1FF3F73
:1014200002D02061002070BD4FF0FF3070BD00BFC2
:1014300038B505460C463C220021204602F086F8CD
:1014400021462846FFF7CEFF38BD00BF38B5FFF76D
:10145000DBFD28B901F082FF09230360002038BDBD
:101460000546092420462946ABBE0446012C07D078
:1014700001F074FF0446FFF7ABFD2060002038BD8B
:10148000012038BD0FB400B583B004AB53F8042B72
:1014900001938021064802F0E5F9002803DD0146AA
:1014A000034800F039F803B05DF804EB04B070476E
:1014B000500300202DE9F04385B004460F46435603
:1014C00013BB042528462146ABBE04461FE0354623
:1014D000102E28BF1025002306E014F9011B04AAD2
:1014E0001A4402F8101C0133AB42F6D304AA134489
:1014F000002203F8102CE9464FF004084046494604
:10150000ABBE8046761B00E00E46002EDFD138468B
:1015100005B0BDE8F08300BF08B5FFF7CBFF08BDFD
:1015200008B500F067F9024B024A9A6008BD00BF97
:1015300000ED00E00000000808B500F07DF908BDEE
:10154000F8B504460D4617461E462648FFF79AFF93
:1015500021682548FFF796FF61682448FFF792FF4E
:10156000A1682348FFF78EFFE1682248FFF78AFF52
:1015700021692148FFF786FF61692048FFF782FF54
:10158000A1691F48FFF77EFFE1691E48FFF77AFF58
:101590001D48FFF777FF29461C48FFF773FF1C4CD7
:1015A000E16A1C48FFF76EFF216B1B48FFF76AFFDB
:1015B000E16B1A48FFF766FF15F0800F03D039463C
:1015C0001748FFF75FFF15F4004F03D03146154869
:1015D000FFF758FF1448FFF755FF06991348FFF728
:1015E00051FFF8BD684700087847000888470008A1
:1015F00098470008A8470008B8470008C8470008EF
:10160000D8470008E8470008F847000804480008E1
:1016100000ED00E0144800082448000834480008A1
:101620004448000854480008644800086C48000812
:1016300038B583691B888B426FD1044603684568BF
:10164000013B302B6BD8DFE803F0421D63635A2C5B
:101650002F2919196A19191919193219206A192308
:101660006A356A6A6A6A6A6A6A6A6A6A6A6A6A6A0F
:101670006A6A6A6A6A6A6A6A6A1919004FF0FF330D
:10168000036045E00023036042E0002303603FE085
:1016900000232B606B60AB60EB6039E000230360DC
:1016A00036E0AB68036033E00023036030E00023E2
:1016B00003602DE0BFF34F8F1A49CA6802F4E0625D
:1016C000194B1343CB60BFF34F8F00BFFDE71749A2
:1016D000286802F092F870B96B6813B9012323608F
:1016E00016E0042B02D10223236011E0082B02D163
:1016F000032323600CE04FF0FF33236008E02B68E6
:10170000023B012B02D80023036001E0AB680360B9
:10171000A3690233A361012038BD002038BD002039
:1017200038BD00BF00ED00E00400FA055C4700088A
:1017300082B00023019300932A4A136843F4803354
:101740001360284B1B6803F400330093019B0133A3
:101750000193009B1BB9019BB3F5A04FF1D1214B25
:101760001B6813F4003F02D00123009301E0002323
:101770000093009B012B32D11A4B1A6C42F080521D
:101780001A6419490A6842F440420A609A689A60E9
:101790009A6842F400429A609A6842F4A0529A60B1
:1017A000124A5A601A6842F080721A600D4B1B6828
:1017B00013F0007FFAD040F205620D4B1A60A3F5DA
:1017C00080639A6822F003029A609A6842F00202EB
:1017D0009A60044B9B6803F00C03082BF9D102B00C
:1017E000704700BF0038024000700040105A4008A7
:1017F000003C024008B50D4B1A6842F001021A6025
:10180000002199601A6822F0847222F480321A60F2
:10181000074A5A601A6822F480221A60D960FFF7DA
:1018200087FF4FF00062034B9A6008BD003802400A
:101830001030002400ED00E0234B9B6803F00C0304
:10184000042B07D0082B09D0002B2DD11F4A204B89
:101850001A602CE01D4A1E4B1A6028E01A4B5A6889
:101860005B6803F03F0312F4800F09D0174AB2FB04
:10187000F3F2154B5B68C3F3881303FB02F208E035
:10188000124AB2FBF3F3104A5168C1F3881101FB0D
:1018900003F20D4B5B68C3F3014301335B00B2FB02
:1018A000F3F30B4A136002E0084A094B1A60064B37
:1018B0009B68C3F30313074AD35CDAB204490B688D
:1018C000D3400B60704700BF003802400024F40092
:1018D000240000201400002030B583B00121022034
:1018E000FFF74AFA01238DF8043000228DF8062014
:1018F00003228DF805208DF8073002AC4FF40073F9
:1019000044F8083D064D21462846FFF76BF84FF492
:101910008073009321462846FFF764F803B030BD7A
:101920000004024000B583B001210220FFF724FA31
:1019300000238DF804308DF8063003238DF8053030
:1019400001238DF8073002A94FF4007341F8083DD8
:101950000248FFF747F803B05DF804FB00040240BB
:1019600000B583B001210220FFF706FA01238DF8AC
:10197000043000228DF8062003228DF805208DF812
:10198000073002A94FF4007341F8083D0248FFF701
:1019900029F803B05DF804FB0004024010B5FFF71E
:1019A000DFFF0E4C4FF400712046FFF765F84FF44F
:1019B00080712046FFF760F8012000F00DF94FF428
:1019C00000712046FFF75AF8012000F005F94FF4A6
:1019D00080712046FFF752F810BD00BF000402409E
:1019E00010B5FFF7BDFF0E4C4FF480712046FFF796
:1019F00045F84FF400712046FFF740F8012000F051
:101A0000EBF84FF480712046FFF736F84FF4007181
:101A10002046FFF731F8012000F0DEF810BD00BFCE
:101A20000004024038B5FFF77DFF164C4FF40071FB
:101A30002046FFF721F8012000F0CEF84FF4807126
:101A40002046FFF719F8012000F0C6F8002407E04F
:101A50000134E4B2FA2C03D9FFF7C2FF01250FE0ED
:101A60004FF400710748FEF7FFFF05460028EFD14D
:101A70004FF4807100F1804000F50130FEF7FEFF69
:101A8000284638BD0004024010B50F4C4FF4807159
:101A90002046FEF7F3FFFFF763FF4FF40071204687
:101AA000FEF7ECFF012000F097F84FF4807120461C
:101AB000FEF7E2FF012000F08FF84FF4807120461E
:101AC000FEF7DCFF10BD00BF0004024010B50F4C54
:101AD0004FF480712046FEF7D1FFFFF741FF4FF42E
:101AE00000712046FEF7C8FF012000F075F84FF4A2
:101AF00080712046FEF7C0FF012000F06DF84FF422
:101B000080712046FEF7BAFF10BD00BF00040240FE
:101B100070B50546FFF724FF4FF480711548FEF7B6
:101B2000ADFF002422E015F0800F05D04FF40071C6
:101B30001048FEF7A1FF04E04FF400710D48FEF7D6
:101B40009DFF6D00EDB20B4E4FF480713046FEF7F5
:101B500093FF012000F040F84FF480713046FEF70B
:101B60008DFF012000F038F80134E4B2072CDAD9F7
:101B700070BD00BF00040240F8B50746FFF7D2FE73
:101B80000024254619E0124E4FF480713046FEF7CE
:101B900075FF012000F020F84FF480713046FEF709
:101BA0006BFF6400E4B24FF400713046FEF75CFF57
:101BB00008B10134E4B20135EDB2072DE3D917B90C
:101BC000FFF784FF01E0FFF75FFF2046F8BD00BF8D
:101BD00000040240704700BF08B500F0C5FE08BD14
:101BE00008B500F0AFFE08BD30B587B001214FF455
:101BF0008040FFF7F9F801210220FFF7BDF84FF40C
:101C00008055049500248DF814408DF81740022368
:101C10008DF8153004A91248FEF7E4FE0C210120CE
:101C2000FFF732F902958DF80C400C238DF80D303A
:101C300001258DF80E5002A8FEF7E2FD4FF4E0609A
:101C4000FEF7DEFB28238DF804308DF805408DF873
:101C500006408DF8075001A8FEF7DCFB07B030BD49
:101C60000004024008B54FF48050FEF717FE70B133
:101C70004FF48050FEF71CFE4FF48050FEF708FE34
:101C8000034A92F8213063F07F0382F8213008BDC7
:101C900028000020F8B504460F461646FFF77EFEE2
:101CA000BA20FFF735FFFFF7BDFE200AFFF730FF30
:101CB000FFF7B8FEE0B2FFF72BFFFFF7B3FE0025FA
:101CC0002C4608E0385DFFF723FFFFF7ABFE054623
:101CD00018B90134E4B2B442F4D3FFF781FE2846C8
:101CE000F8BD00BF70B504460E461546FFF756FE18
:101CF000BA20FFF70DFFFFF795FE200AFFF708FF58
:101D0000FFF790FEE0B2FFF703FFFFF78BFEFFF750
:101D100045FEBB20FFF7FCFEFFF784FE002408E031
:101D2000681E201A18BF0120FFF726FF3055013426
:101D3000E4B2AC42F4D3FFF753FE70BD3B4B93F9D2
:101D40002130002B71DA00B58BB0222201A940F2BC
:101D50002170FFF7C7FF9DF80420344B02F01F02EB
:101D600083F821209DF806109DF8072002EB012240
:101D7000C2F5F0725A829DF808109DF8092002EB16
:101D800001221A819DF80A201A779DF80B109DF800
:101D90000C2002EB0122C2F5F0729A829DF80D1020
:101DA0009DF80E2002EB01225A819DF80F205A77F0
:101DB0009DF810109DF8112002EB0122C2F5F0727F
:101DC000DA829DF812109DF8132002EB01229A810D
:101DD0009DF814209A779DF815109DF81C2002EBB1
:101DE0000122C2F5F0721A839DF81D109DF81E2085
:101DF00002EB0122DA819DF81F20DA779DF820108E
:101E00009DF8212002EB0122C2F5F0725A839DF861
:101E100022109DF8232002EB01221A829DF8242033
:101E200083F820200BB05DF804FB704728000020E9
:101E3000F8B507460E46002425460CE0F2B23946B6
:101E400040F2A260FFF726FF054630B10A20FFF7F7
:101E5000C7FE0134E4B2042CF0D92846F8BD00BF17
:101E600010B582B0FFF738FDFFF7BEFE01220DF17D
:101E7000070140F21770FFF735FF9DF80740240275
:101E800001220DF107014FF4E360FFF72BFF9DF8EE
:101E900007301C4321460A4801F0BEFB42F2100302
:101EA0009C4206D16A210748FFF7C2FF8DF8070060
:101EB00002E002238DF807309DF8070002B010BD44
:101EC000B04800083449000810B5044600F046F94F
:101ED000A4B2014B1C8010BD000002604FF0C04353
:101EE000188070474FF0C0431888C0B2704700BFD9
:101EF000014B1888C0B270470000026010B582B074
:101F000001215820FEF738FF01210846FEF750FF57
:101F1000494C0C2200212046FEF7B6FD0C2201217F
:101F20002046FEF7B1FD0C2204212046FEF7ACFD51
:101F30000C2205212046FEF7A7FD0C220621204693
:101F4000FEF7A2FD0C2207212046FEF79DFD0C2284
:101F500008212046FEF798FD0C2209212046FEF7B5
:101F600093FD0C220A212046FEF78EFD0C220B2148
:101F70002046FEF789FD0C220E212046FEF784FD47
:101F80000C220F212046FEF77FFD4CF6F3730093E1
:101F900002238DF804308DF8053000238DF80630CB
:101FA0008DF8073069462046FEF71CFD04F5806475
:101FB0000C2207212046FEF767FD0C22082120464F
:101FC000FEF762FD0C2209212046FEF75DFD0C2282
:101FD0000A212046FEF758FD0C220B212046FEF771
:101FE00053FD0C2211462046FEF74EFD0C220D211A
:101FF0002046FEF749FD0C220E212046FEF744FD47
:102000000C220F212046FEF73FFD4FF68073009310
:1020100069462046FEF7E6FC04F500640C22062122
:102020002046FEF731FD4023009369462046FEF727
:10203000D9FC02B010BD00BF000C024030B599B011
:102040000024089409940A9410230B930C940D9483
:102050000E940F944FF48053109311941394129490
:10206000149401AB16930F2201920125029503925D
:102070000494059406940794179329462046FEF786
:102080009BFC08A8FEF71AFC29462046FEF794FCA4
:1020900019B030BD08B5FFF731FFFFF7CFFF08BD1E
:1020A00070B582B001214FF48000FEF765FE204E2E
:1020B0003046FEF749FA00213046FEF72DFB1D4C55
:1020C0002046FEF717FB0025256065604FF0C043F2
:1020D000A3608023E36025614FF400736361A56111
:1020E0004FF48053E3614FF48043236265624FF401
:1020F0000033A362E56221463046FEF7CFFA0122A3
:1021000010213046FEF714FB46238DF804308DF87D
:10211000055001238DF806308DF8073001A8FEF731
:1021200079F905493046FEF751FB02B070BD00BF9A
:10213000B8640240D00300200080002808B505499B
:102140000548FEF713FB012803D102490248FEF7B8
:102150003DFB08BD00800028B864024008B5FFF7C9
:10216000C7FE10F0800FFAD108BD00BF08B50120EE
:10217000FFF7AAFE0120FFF7B1FE0020FFF7AEFE39
:102180000120FFF72DFD08BD08B58820FFF79CFE54
:102190008620FFF7A3FE0120FFF722FD8920FFF72D
:1021A00093FE0020FFF79AFE0120FFF719FDFFF7CD
:1021B000DDFF0520FFF714FD08BD00BFF8B5074699
:1021C0000E4615461C463020FFF77EFEF8B2FFF79C
:1021D00085FE3120FFF778FE380AFFF77FFE3420B6
:1021E000FFF772FEF0B2FFF779FE3520FFF76CFEC5
:1021F000300AFFF773FE3220FFF766FEE8B2FFF702
:102200006DFE3320FFF760FE280AFFF767FE3620D9
:10221000FFF75AFEE0B2FFF761FE3720FFF754FEEA
:10222000200AFFF75BFEF8BD38B505460C46462090
:10223000FFF74AFEE8B2FFF751FE4720FFF744FEE2
:10224000280AFFF74BFE4820FFF73EFEE0B2FFF7FB
:1022500045FE4920FFF738FE200AFFF73FFE38BD54
:1022600010B504466320FFF72FFEE00AFFF736FEA5
:102270006420FFF729FEC4F34510FFF72FFE652009
:10228000FFF722FE04F01F00FFF728FE10BD00BF7D
:1022900008B58A20FFF718FEFFF724FE60F07F00E4
:1022A000C0B2FFF71BFE08BD08B58A20FFF70CFE81
:1022B000FFF718FE00F0EF00FFF710FE08BD00BFAB
:1022C00010B500F00F048A20FFF7FEFDFFF70AFEAD
:1022D00000F0F0002043FFF701FE10BD10B50446EA
:1022E0008B20FFF7F1FD2046FFF7F8FD10BD00BF82
:1022F000F8B507460E4615461C469120FFF7E4FD4B
:10230000F8B2FFF7EBFD9220FFF7DEFD380AFFF78A
:10231000E5FD9320FFF7D8FDF0B2FFF7DFFD942035
:10232000FFF7D2FD300AFFF7D9FD9520FFF7CCFD6E
:10233000E8B2FFF7D3FD9620FFF7C6FD280AFFF7A6
:10234000CDFD9720FFF7C0FDE0B2FFF7C7FD982055
:10235000FFF7BAFD200AFFF7C1FDF8BD08B5FFF78A
:102360007FFF40F2DF134FF4487200210846FFF769
:10237000BFFF9020FFF7A8FDB020FFF7AFFD0120C1
:10238000FFF7A2FD8020FFF7A9FD08BD2DE9F84366
:10239000FFF780FE0A20FFF723FCFFF7F5FE102071
:1023A000FFF792FD0C20FFF799FD0420FFF78CFD4D
:1023B0008120FFF793FD0120FFF712FC1420FFF7A7
:1023C00083FD6320FFF78AFD1520FFF77DFD0020C8
:1023D000FFF784FD1620FFF777FD0320FFF77EFD52
:1023E0001720FFF771FD0320FFF778FD1820FFF796
:1023F0006BFD0B20FFF772FD1920FFF765FDDF2055
:10240000FFF76CFD1A20FFF75FFD0120FFF766FD67
:102410001B20FFF759FD2020FFF760FD1C20FFF770
:1024200053FD0020FFF75AFD1D20FFF74DFD16203C
:10243000FFF754FD1E20FFF747FD0020FFF74EFD7C
:102440001F20FFF741FD0120FFF748FD3020FFF777
:102450003BFD0020FFF742FD3120FFF735FD002056
:10246000FFF73CFD3420FFF72FFD1F20FFF736FD5F
:102470003520FFF729FD0320FFF730FD3220FFF75D
:1024800023FD0020FFF72AFD3320FFF71DFD00206C
:10249000FFF724FD3620FFF717FDDF20FFF71EFDB5
:1024A0003720FFF711FD0120FFF718FDFFF7F0FEC1
:1024B000FFF7FAFE0520FFF703FF0520FFF70EFFE9
:1024C000FFF74CFE3F4D01272F804FF0C04427807F
:1024D0000A2000F037FAFFF741FE2F800026268001
:1024E0000A2000F02FFAFFF739FE88232B804FF0E7
:1024F0000A09A4F80090484600F024FAFFF72EFEDF
:1025000089232B8002232380484600F01BFA1023E6
:102510002B800F23238004232B804FF08008A4F806
:102520000080484600F00EFA14232B80632323809A
:1025300015232B80268016232B800322228017212F
:102540002980228018222A800B22228019222A80A8
:10255000DF2222801A222A8027801B222A80202222
:1025600022801C222A8026801D222A8023801E236E
:102570002B8026804FF01F09A5F80090278040F29D
:10258000DF13324640F21F313046FFF717FE8A2331
:102590002B80A4F800802B80812323808B232B8029
:1025A000A4F80090FFF7DAFD2F80A4F800803046F1
:1025B000FFF7D4FEFFF7D2FD8E232B80A4F8008016
:1025C000BDE8F883000002602DE9F04186B00546C1
:1025D0000F4690460B46002402E00134E4B25B084B
:1025E000012BFAD1514B9D422DD008D8A3F50063A1
:1025F0009D420CD003F580639D4216D04CE04C4BBD
:102600009D422ED003F580639D4238D044E00121E5
:102610000846FEF7B1FB01214FF48040FEF7E4FBD2
:1026200021460020FEF730FC36E001210220FEF7B3
:10263000A3FB01214FF48040FEF7D6FB2146012089
:10264000FEF722FC28E001210420FEF795FB012182
:102650004FF48040FEF7C8FB21460220FEF714FC31
:102660001AE001210820FEF787FB01214FF480408A
:10267000FEF7BAFB21460320FEF706FC0CE0012121
:102680001020FEF779FB01214FF48040FEF7ACFBF0
:1026900021460420FEF7F8FB00268DF80C608DF82B
:1026A0000F608DF80E6003238DF80D3006A941F8F8
:1026B000107D2846FEF796F904978DF814608DF882
:1026C000158001238DF8163004A8FEF799F81CB97F
:1026D00006238DF804301AE0012C03D107238DF86E
:1026E000043014E0022C03D108238DF804300EE0EE
:1026F000032C03D109238DF8043008E0042C03D106
:102700000A238DF8043002E017238DF804300023EB
:102710008DF805308DF8063001238DF8073001A8BB
:10272000FDF778FE06B0BDE8F08100BF000802406A
:10273000000C024070B584B004460E461546524B5C
:10274000984231D00BD8A3F50063984222D003F50C
:102750008063984223D0B0F1804F38D115E04B4BC5
:1027600098422BD004D8A3F58063984221D02EE064
:10277000474B984204D003F58063984223D026E06B
:1027800001210846FEF730FB21E001210846FEF753
:102790001DFB1CE001210220FEF718FB17E00121C0
:1027A0000420FEF713FB12E001210820FEF70EFBC8
:1027B0000DE001211020FEF709FB08E00121202097
:1027C000FEF704FB03E001210220FEF70DFB013EB2
:1027D000ADF804600023ADF80630013D0295ADF878
:1027E0000C308DF80E3001A92046FEF767FB012161
:1027F0002046FEF7A1FB012211462046FEF7AAFB68
:10280000234B9C4203D119238DF800302FE0B4F103
:10281000804F03D11C238DF8003028E01D4B9C42D3
:1028200003D11D238DF8003021E01B4B9C4203D1C6
:102830001E238DF800301AE0134B9C4203D1322343
:102840008DF8003013E0154B9C4203D136238DF8F0
:1028500000300CE00D4B9C4203D137238DF8003043
:1028600005E00F4B9C4202D12C238DF80030002351
:102870008DF8013001238DF802308DF80330684661
:10288000FDF7C8FD04B070BD000C0040001400400E
:10289000000001400004004000080040001000401B
:1028A000000401400160828013B10023837101E0C4
:1028B000012383710023C371012303720323437235
:1028C000704700BF30B583B0046881888279C379CE
:1028D000057A407A01900095204600F027FD03B06C
:1028E00030BD00BF036882881A83704703688288FE
:1028F0005A83704708B5114B1B78012B1CD1104B24
:102900001B7813B1012B08D00FE000F05BF800201A
:1029100000F02CF900F018FA08BD00F053F801207F
:1029200000F024F900F02CFA08BD00F04BF800206C
:1029300000F01CF900F008FA08BD00BF990400205F
:102940009804002082B00190019A4FF47A7303FB3F
:1029500002F3044A1360034B1B68002BFBD102B047
:10296000704700BF1004002082B00190019A044B10
:102970001A60034B1B68002BFBD102B0704700BFED
:1029800010040020034B1B681BB1024A1368013B73
:10299000136070471004002008B5FFF7F3FF074AE3
:1029A0001378013B5BB213703BB9C822034B1A701A
:1029B0004FF400510248FEF763F808BD4C000020B8
:1029C000000C02402DE9F04F87B001215720FEF79F
:1029D000D3F901214FF48000FEF7CEF9012108461A
:1029E000FEF7D8F95B4F0D2204213846FEF74CF86C
:1029F0000D2206213846FEF747F8574C0D220621D6
:102A00002046FEF741F80D2207212046FEF73CF84C
:102A1000DFF850A10D2206215046FEF735F80D22B1
:102A200007215046FEF730F8DFF83C810D220421E3
:102A30004046FEF729F80D2205214046FEF724F80E
:102A40000D2206214046FEF71FF80D220A214348B9
:102A5000FEF71AF80D220B214048FEF715F8102357
:102A600004934FF002098DF8149003238DF815306C
:102A700000258DF8165001268DF8176004A93846F8
:102A8000FDF7B0FF4FF0C00BCDF810B004A9204601
:102A9000FDF7A8FFCDF810B004A95046FDF7A2FF3E
:102AA0007023049304A94046FDF79CFF4FF440684F
:102AB000CDF8108004A92948FDF794FF4023049322
:102AC0008DF814908DF8165004A93846FDF78AFF4A
:102AD00031464FF48000FEF779F904220A2120469E
:102AE000FDF7D2FF04220B212046FDF7CDFFCDF8E4
:102AF00010808DF814908DF815508DF816608DF8B3
:102B0000175004A92046FDF76DFFA4F5D6342046E2
:102B1000FDF7D2FF31462046FEF76EF8ADF80450BF
:102B20004BF6FF73ADF80630FE23ADF808304FF4D6
:102B30008063ADF80A304FF48043ADF80C3006A93D
:102B4000074B41F8183D2046FDF7E8FF07B0BDE808
:102B5000F08F00BF00000240000402400018024055
:102B6000A0860100000802400010024030B595B078
:102B7000054601210846FEF70DF90024ADF8404056
:102B8000ADF842402023ADF84430ADF84640ADF8F2
:102B90004840ADF84A40ADF84C4001214FF4800068
:102BA000FEF7EAF83348FDF7CFFC4FF000730193CE
:102BB000314B02934FF0C0430393049401230593D8
:102BC000069407944FF4805308934FF400530993ED
:102BD0004FF480730A934FF400330B9304230C9348
:102BE00003230D930E940F9415B1012D0BD012E019
:102BF0008023ADF8463010A8FDF742FC01A91D481E
:102C0000FDF74CFD11E010A8FDF73AFC01A91948A9
:102C1000FDF744FD09E08023ADF8463010A8FDF72C
:102C20002FFC01A91348FDF739FD4E238DF8003024
:102C300000238DF801308DF8023001248DF8034017
:102C40006846FDF7E7FB21462046FDF75DFC21467F
:102C50000820FDF759FC21461020FDF755FC2146C0
:102C60000220FDF751FC21460420FDF74DFC15B074
:102C700030BD00BF286402402800055070B50546ED
:102C80000E4601212748FDF7C5FF42F2107403E00C
:102C9000631E002C3ED01C4623492248FDF7F4FF5A
:102CA0000028F5D0002260211E48FDF7CFFF42F238
:102CB000107403E0631E002C2ED01C461B491948DB
:102CC000FDF7E2FF0028F5D0E9B21648FDF7D6FF80
:102CD00042F2107402E0631E04B31C46144911480A
:102CE000FDF7D2FF0028F6D031460E48FDF7C6FFAB
:102CF00042F2107402E0631E94B11C460C4909486C
:102D0000FDF7C2FF0028F6D001210648FDF790FF2D
:102D1000002070BDFF2070BDFF2070BDFF2070BD82
:102D2000FF2070BD00580040010003008200070032
:102D30008400070008B50121FF20FFF79FFF8021D5
:102D40001220FFF79BFF08BD10B5FFF7F3FF6420CB
:102D5000FFF7F8FD00240CE0084B13F9140003EB17
:102D60004403597880B2FFF789FF0120FFF7EAFD9D
:102D70000134B4F5A47FEFD310BD00BFA049000813
:102D800010B5FFF7D7FF6420FFF7DCFD00240BE050
:102D9000074B03EB4402517813F81400FFF76EFF62
:102DA0000120FFF7CFFD0134DB2CF1D910BD00BFAE
:102DB000144E000810B5FFF7BDFF6420FFF7C2FDF9
:102DC00000240BE0074B03EB4402517813F8140086
:102DD000FFF754FF0120FFF7B5FD0134F02CF1D9C6
:102DE00010BD00BF304C000838B505460C46002128
:102DF000FF20FFF743FF00217C20FFF73FFF042166
:102E00007D20FFF73BFF07217C20FFF737FF2021C4
:102E10007D20FFF733FF29467D20FFF72FFF214656
:102E20007D20FFF72BFF06217D20FFF727FF38BD10
:102E300038B5054601213F48FDF7ECFE42F210741B
:102E400003E0631E002C69D01C463B493948FDF75E
:102E50001BFF0028F5D0002261213648FDF7F6FE61
:102E600042F2107403E0631E002C59D01C46334913
:102E70003048FDF709FF0028F5D0E9B22D48FDF7ED
:102E8000FDFE42F2107403E0631E002C4AD01C4683
:102E90002B492848FDF7F8FE0028F5D02548838AFD
:102EA0009BB243F4806383820121FDF7B3FE42F2BB
:102EB000107403E0631E002C36D01C461E491D48CA
:102EC000FDF7E2FE0028F5D0012261211948FDF747
:102ED000BDFE42F2107402E0631E3CB31C46194969
:102EE0001448FDF7D1FE0028F6D000211148FDF767
:102EF000B7FE42F2107402E0631ECCB11C461249C8
:102F00000C48FDF7C1FE0028F6D00A4C01212046EE
:102F1000FDF78EFE2046FDF7B3FE38BDFF2038BD1D
:102F2000FF2038BDFF2038BDFF2038BDFF2038BD51
:102F3000FF2038BD00580040010003008200070058
:102F400084000700020003004000030010B504469F
:102F50000121FF20FFF792FE1C20FFF769FF207080
:102F60001D20FFF765FF60700A20FFF761FFA0706A
:102F70000B20FFF75DFFE07010BD00BF01281FD1DF
:102F80004FF6FF7399421BD110B5002308220D495B
:102F90000D48FFF787FC0D4C00234FF400522146EB
:102FA0000B48FFF77FFC0023202221460948FFF74A
:102FB00079FC0023102221460748FFF773FC10BD5F
:102FC000704700BF000C02403C0400200008024093
:102FD00018040020300400202404002008B501203B
:102FE000FDF7A2FA012801D1FDF7A8FA0820FDF7A4
:102FF0009BFA012816D10820FDF7A0FA0A4A1368A7
:10300000013313601020FDF78FFA012802D1102040
:10301000FDF794FA0220FDF787FA012802D1022079
:10302000FDF78CFA08BD00BF1404002070B582B013
:103030000120FDF737FEFDF70DFF0028FBD05A4BAE
:10304000B3225A60F021594A82F8231000249C6070
:1030500007221A60FEF7BEFD1420FFF773FC544EE2
:103060003046FFF72FFC534D2846FFF72BFC284630
:10307000FFF73CFC3046FFF739FC6420FFF762FCA9
:103080002846FFF72FFCC820FFF75CFCFFF77EF90E
:10309000FFF706F8484E3046FFF714FC474D284628
:1030A000FFF710FC01210846FDF766FE4FF4807320
:1030B000009303238DF8053002238DF804308DF83A
:1030C00006408DF8074069463D48FDF78BFC2146D8
:1030D0004FF48000FDF7EEFD3046FFF707FC284671
:1030E000FFF700FC6420FFF72DFC0122354B1A701E
:1030F000FFF768FC344C2046FFF728FFA278262A09
:1031000009D10121314B19703149324800F00EFBD1
:103110000222314B1A70FFF7EDFBFFF74BFE012047
:10312000FDF7D2F96420FFF70DFC0120FDF7DCF973
:1031300001212A48FDF7F0FA224B1B786BB977235F
:1031400000229F211046FFF739F800210846FFF7BB
:103150006BF80220FEF7B8FE10E0012B0ED140F212
:10316000DF13002240F27F211046FFF727F80021ED
:103170000846FFF759F80220FEF7A6FE42F2107249
:1031800042F228314FF08040FFF7D4FA0C2204219C
:103190001348FFF719FA0C212820FFF725FE1148E4
:1031A00000F0ACFAFEE700BF10E000E000ED00E048
:1031B0003C040020180400202404002030040020D7
:1031C00000000240980400207004002099040020B0
:1031D000CC4F0008480400200C0400202864024062
:1031E00000100240E44F000808B501214FF0804074
:1031F000FDF7BCFE20B101214FF08040FDF7C2FE7B
:1032000008BD00BF08B50420FDF748FB10B104203D
:10321000FDF74EFB08BD00BF08B54FF6FF7101205A
:10322000FFF7ACFE08BD00BF704700BFFEE700BF60
:10323000FEE700BFFEE700BFFEE700BF704700BF2C
:10324000704700BF704700BF00F13F4000F57E00AF
:10325000C0F38F20704700BF08B5FFF7F5FF0123CB
:1032600003FA00F0024A136B1843106308BD00BF55
:10327000003802402DE9F84F04460D46164699469F
:103280009DF828709DF82C80FFF7DEFFC0B2002368
:1032900046E045FA03F212F0010F3FD04FF0010E65
:1032A0000EFA03FE204931F810204EEA020221F8FE
:1032B0001020D4F80CC0590003228A40D24302EAFD
:1032C0000C0B07FA01FC4BEA0C0CC4F80CC0D4F848
:1032D00000C00CEA020B06FA01FC4BEA0C0CC4F825
:1032E00000C006F1FF3C5FFA8CFCBCF1010F15D861
:1032F000D4F804C01FFA8EFE2CEA0E0E09FA03FA67
:103300001FFA8AFA4AEA0E0AC4F804A0D4F808E0C0
:1033100002EA0E0208FA01F10A43A2600133DBB2AD
:103320000F2BB6D9BDE8F88F74040020A9B1F0B511
:1033300083B00F461E4615460446FFF78DFF9DF8E5
:10334000243001939DF82030009333462A463946B5
:103350002046FFF78FFF03B0F0BD7047014B1868A0
:10336000704700BFB0000020014900F0A9B800BFBD
:10337000753B0008002310B504460360436083607A
:1033800081814366C28103614361836119460822DA
:103390005C3000F0DBF8054B6362054BA362054B24
:1033A000E362054B2462236310BD00BF753700083C
:1033B00097370008CF370008F337000870B5682347
:1033C0004D1E5D430E4605F1740100F0C7F804463A
:1033D00040B1002180E842000C30A06005F1680295
:1033E00000F0B4F8204670BD836910B5044633BBC5
:1033F0008364C3640365124B124A1B68826298425D
:1034000004BF0123836100F01FF86060204600F0D4
:103410001BF8A060204600F017F80022E0600421AD
:103420006068FFF7A7FF01220921A068FFF7A2FF4C
:1034300002221221E068FFF79DFF0123A36110BD66
:103440004C50000869330008F8B51C4B1E68B3697E
:10345000074613B93046FFF7C7FF4836B4687368AC
:10346000013B04D4B4F90C507DB16834F8E73368FB
:103470000BB13668F2E704213846FFF79FFF306052
:103480000028F6D10C233B60F8BD4FF6FF73E381B3
:103490000123A38165662560A5606560256165617E
:1034A000A5610822294604F15C0000F04FF865632D
:1034B000A563A564E5642046F8BD00BF4C50000834
:1034C0002DE9F8438046894600F14804002694B16E
:1034D000A5686768013F0CD4AB89012B07D9B5F902
:1034E0000E30013303D029464046C84706436835AD
:1034F000F0E72468EBE73046BDE8F883034B1B6830
:10350000186A034B002808BF18467047B000002017
:10351000B400002008B5034B1868FFF7EFFFD0F8A0
:10352000EC0008BDB000002082B001B901A93AB199
:1035300043B113780B601278101C18BF012003E010
:10354000104601E06FF0010002B0704702440346EC
:10355000934202D003F8011BFAE7704770B5CD1C07
:1035600025F0030508350C2D38BF0C25002D064627
:1035700001DBA94202D90C23336046E000F096FB40
:10358000234B1C681A462146A1B10B685B1B0ED465
:103590000B2B03D90B60CC18CD501EE08C420DBF15
:1035A00063684B686360136018BF0C4615E00C46F7
:1035B0004968E9E7174C23681BB9304600F0A6F8C4
:1035C00020602946304600F0A1F8431C18D0C41CE6
:1035D00024F00304A0420DD12560304600F067FBC3
:1035E00004F10B00231D20F00700C31A0ED05A422D
:1035F000E25070BD211A304600F088F80130EBD15E
:103600000C233360304600F052FB002070BD00BF39
:10361000900400208C0400200FB40A4B13B51C68E2
:1036200024B1A36913B92046FFF7DEFE05AB049A67
:10363000A1680193204600F0FFFC02B0BDE81040F5
:1036400004B07047B000002070B50E46054618B1B2
:1036500083690BB9FFF7C8FEAB69AC6813B928469C
:10366000FFF7C2FE224B9C4201D16C6808E0214B5F
:103670009C4201D1AC6803E01F4B9C4208BFEC6840
:10368000A3891B0701D523693BB92146284600F0D1
:103690006BF910B14FF0FF3070BD013EA36816F812
:1036A000011F013BA36091B1002B04DAA269934290
:1036B00006DB0A2904D023685A1C22601970EDE742
:1036C0002246284600F0DCF80130E7D1E2E7002B83
:1036D00008DA22460A21284600F0D2F80130D9D073
:1036E0000A2070BD23680A205A1C2260187070BD21
:1036F000EC4F00080C5000082C500008024B01460B
:103700001868FFF7A1BF00BFB000002038B5064C15
:103710000023054608462360FDF738FC431C02D110
:10372000236803B12B6038BD940400200EB400B5AB
:103730009CB04FF402711DABADF8141002900690CE
:103740006FF000410A48049107914FF6FF7153F85A
:10375000042BADF816100068019302A900F050FB8D
:10376000029B00221A701CB05DF804EB03B0704796
:10377000B000002010B50C46B1F90E1000F014FF97
:103780000028ABBF636DA3891B1823F48053ACBF23
:103790006365A38110BD2DE9F0411F468B89DB05D0
:1037A00005460C46164605D502230022B1F90E1037
:1037B00000F00AFAA389B4F90E1023F48053A38110
:1037C00032463B462846BDE8F04100F0BBB810B594
:1037D0000C46B1F90E1000F0F7F9431CA38915BF90
:1037E000606523F4805343F48053A38118BFA38101
:1037F00010BDB1F90E1000F025B910F8012B11F829
:10380000013B012A28BF9A42F7D0D01A704730B541
:10381000141E05469BB0184604DA8B232B604FF02C
:10382000FF301DE04FF40273ADF80C3014BF04F10B
:10383000FF332346029305934FF6FF7300910491E3
:10384000ADF80E3002461E9B6946284600F0D8FAB5
:10385000431CBCBF8B232B6014B1009B00221A7049
:103860001BB030BD07B5009313460A460146034816
:103870000068FFF7CCFF03B05DF804FBB000002048
:10388000F8B50F461446054618B183690BB9FFF722
:10389000ABFD224B9C4201D16C6808E0204B9C425E
:1038A00001D1AC6803E01F4B9C4208BFEC68A369E0
:1038B000A360A3891A0709D523693BB1236820694E
:1038C000181A63699842FEB20FDB08E021462846C9
:1038D00000F04AF80028F1D04FF0FF361BE02146F7
:1038E000284600F047F90028F6D1A368013BA36001
:1038F00023685A1C22601F7063690130984204D00B
:10390000A389DB0707D50A2E05D12146284600F0FA
:1039100031F90028E0D13046F8BD00BFEC4F000877
:103920000C5000082C50000849B1FF2A85BF8A239B
:1039300003600A704FF0FF3098BF012070470846BF
:103940007047000038B5074C05460846114600226E
:1039500022601A46FDF7EEFC431C02D1236803B136
:103960002B6038BD94040020324B70B51D680646AC
:103970000C4625B1AB6913B92846FFF735FD2E4B30
:103980009C4201D16C6808E02C4B9C4201D1AC6890
:1039900003E02B4B9C4208BFEC68B4F90C309AB2A0
:1039A00015071DD4D00602D4092232603AE051072F
:1039B00012D5616B41B104F14403994202D0304603
:1039C00000F076F900236363A38923F02403A38125
:1039D0000023636023692360A38943F00803A38164
:1039E00023694BB9A38903F42073B3F5007F03D097
:1039F0002146304600F01EF9A28912F0010305D0DD
:103A00000023A36063695B42A36103E0920758BF90
:103A10006369A36023695BB9B4F90C3003F08000DB
:103A200080B230B143F04003A3814FF0FF3070BD4E
:103A3000002070BDB0000020EC4F00080C500008C2
:103A40002C50000838B5064C002305460846236074
:103A5000FDF7A2FC431C02D1236803B12B6038BDE3
:103A6000940400208A892DE9F041054610070C4690
:103A700059D44B68002B02DC0B6C002B17DDE66A77
:103A8000AEB102F48052002392B22F682B600AB1CB
:103A9000606D15E0216A01232846B047411C0FD113
:103AA0002B686BB11D2B01D0162B03D12F6000208A
:103AB000BDE8F081A38943F04003A381BDE8F08114
:103AC000A3895A0705D56368C01A636B0BB1236CD1
:103AD000C01A00230246E66A216A2846B047431C02
:103AE000A38906D129681D293AD8214ACA40D60798
:103AF00036D500226260D9042269226004D5421CB6
:103B000001D12B6803B96065616B2F600029CED0AD
:103B100004F14403994202D0284600F0C9F800207D
:103B20006063BDE8F0810F69002FC0D093070E6875
:103B300008BF4B690F6018BF0023C7EB06088B60F6
:103B400002E00744C0EB0808B8F1000FAFDD4346C0
:103B50003A46216AA66A2846B0470028F1DCA389C4
:103B600043F04003A3814FF0FF30BDE8F08100BF78
:103B70000100402038B50B6905460C46DBB118B191
:103B800083690BB9FFF730FC0C4B9C4201D16C6888
:103B900008E00B4B9C4201D1AC6803E0094B9C420E
:103BA00008BFEC68B4F90C302BB121462846BDE8BB
:103BB0003840FFF757BF002038BD00BFEC4F00086A
:103BC0000C5000082C50000838B5074C0546084634
:103BD0001146002222601A46FDF798FB431C02D1D1
:103BE000236803B12B6038BD9404002070B50E46E5
:103BF000B1F90E10002990B014461D4606DA0023D4
:103C00002B60B3891A060ED540230EE001AA00F0FE
:103C1000DDFC0028F3DB029A02F47042A2F50053A7
:103C20005A425A412A604FF480630020236010B04A
:103C300070BD00008B8973B59E0705460C4610D4F5
:103C400001AB6A46FFF7D2FF009906462846FFF708
:103C500085FC68B9B4F90C309A0522D443F002030C
:103C6000A38104F14703236023610123636118E00A
:103C70000D4BAB62A389206043F08003A381009BBE
:103C80006361019B20614BB1B4F90E10284600F02E
:103C9000AFFC18B1A38943F00103A381A08930438D
:103CA000A08102B070BD00BF693300087047704743
:103CB00038B50546002946D051F8043C0C1F002BAE
:103CC000B8BFE418FFF7F2FF1F4A1368114613B993
:103CD0006360146032E0A3420ED92268A0188342C8
:103CE00004BF18685B68636004BF121822600C6030
:103CF00024E0A24203D813465A68002AF9D1186872
:103D00001918A1420BD12168014458188242196048
:103D100014D1106852685A60014419600EE002D94B
:103D20000C232B600AE021686018824204BF1068EF
:103D30005268626004BF091821605C602846BDE8D3
:103D40003840FFF7B4BF38BD900400202DE9F0479C
:103D50008E689E4282460C46914698463ED88A8995
:103D600012F4906F3AD0256809696F1A65690223C9
:103D700005EB450595FBF3F57B1C43449D4238BF9D
:103D80001D4653050FD52946FFF7E8FB064698B1B7
:103D90003A46216900F08CFCA38923F4906343F038
:103DA0008003A38113E02A4600F0A8FC064670B900
:103DB00021695046FFF77CFF0C23CAF80030A38925
:103DC00043F04003A3814FF0FF30BDE8F087266148
:103DD00065613E44ED1B2660A5604646464528BF0A
:103DE000464632464946206800F06DFCA3689B1B9E
:103DF000A36023681E4426600020BDE8F087000011
:103E00002DE9F04F9DB0804603938B891C060D462B
:103E100016460DD50B695BB94021FFF79FFB286063
:103E2000286118B90C23C8F80030CDE040236B613D
:103E30000023099320238DF82930DFF89CB130232B
:103E40008DF82A3037463C4614F8013B1BB9B7EBD6
:103E5000060910D003E0252BF9D02746F3E74B469F
:103E6000324629464046FFF771FF013000F0A78037
:103E7000099B4B4409933B78002B00F0A080002362
:103E80004FF0FF3204930793059206938DF8533059
:103E90001A930126052221784E4800F0B9FB671CD1
:103EA000049B38B14B4A801A06FA00F0184304907C
:103EB0003C46EFE7D90644BF20228DF853201A076D
:103EC00044BF2B228DF8532022782A2A03D0079A48
:103ED00000210A200BE0039A111D12680391002AA9
:103EE00010DA524243F00200079204900BE027469A
:103EF00001343B78303B092B03D800FB023201210F
:103F0000F5E701B107923B782E2B1ED17B782A2B47
:103F10000AD1039B1A1D1B680392002BB8BF4FF0F8
:103F2000FF330237059310E000230593781C1946F0
:103F30000A24074601303A78303A092A03D804FBAC
:103F400001210123F5E703B10591032239782248C5
:103F500000F05EFB40B14023CBEB000003FA00F021
:103F6000049B18430490013739781C488DF82810B9
:103F700006227E1C00F04CFB88B1194B33B9039B21
:103F8000073323F007030833039314E003AB0093D4
:103F90002A46144B04A94046AFF3008007E003AB68
:103FA00000932A460F4B04A9404600F0D7F9B0F120
:103FB000FF3F824603D0099B5344099342E7AB89F4
:103FC0005B0601D4099801E04FF0FF301DB0BDE859
:103FD000F08F00BF5B510008615100086551000877
:103FE000000000004D3D00089368013B002B10B419
:103FF000936008DA9469A34202DBCBB20A2B02D1A8
:1040000010BCFFF73DBC1368581C10601970C8B293
:1040100010BC7047F8B506460F461446D518AC429A
:1040200008D03A4614F8011B3046FFF7DDFF431C69
:10403000F5D100E00020F8BD2DE9F04F9DB00C4611
:1040400017460393064618B183690BB9FFF7CCF9FD
:104050007F4B9C4201D1746808E07E4B9C4201D1A9
:10406000B46803E07C4B9C4208BFF468A38918073E
:104070000CD5236953B10023099320238DF82930EF
:1040800030238DF82A30DFF8D4B144E021463046A1
:10409000FFF76AFC0028EED04FF0FF30D5E0039A1E
:1040A000111D12680391002A80F28C80524243F065
:1040B00002000792049098F800302E2B00F08480C4
:1040C000032298F80010654800F0A2FA48B1402396
:1040D000CBEB000003FA00F0049B1843049008F1B6
:1040E000010898F800105E488DF82810062208F1A3
:1040F000010700F08DFA002800F09580594B002B45
:1041000040F08880039B073323F0070308330393B1
:10411000099B53440993B846454615F8013B1BB922
:10412000B8EB07090FD003E0252BF9D0A846F3E739
:104130004B463A4621463046FFF76CFF01307FD0B0
:10414000099B4B44099398F80030002B78D000234A
:104150004FF0FF3204930793059206938DF8533086
:104160001A930127052229783F4800F051FA05F1FA
:104170000108049B38B13C4A801A07FA00F0184342
:1041800004904546EEE7D90644BF20228DF853201F
:104190001A0744BF2B228DF853202A782A2A3FF48D
:1041A0007EAF079A00210A20A846013598F8003012
:1041B000303B092B03D800FB02320121F4E7002930
:1041C0003FF479AF079276E798F801302A2B0BD1AC
:1041D000039B1A1D1B680392002BB8BF4FF0FF33DF
:1041E00008F1020805936BE70023059308F101002D
:1041F00019460A258046013098F80020303A092AED
:1042000003D805FB01210123F4E7002B3FF458AF4D
:10421000059155E703AB00932246144B04A93046A1
:10422000AFF3008007E003AB009322460F4B04A9D5
:10423000304600F093F8B0F1FF3F82467FF468AF5C
:10424000A3895B063FF528AF09981DB0BDE8F08F44
:10425000EC4F00080C5000082C5000086151000879
:1042600065510008000000005B510008154000087F
:104270002DE9F04791461F460A698B68DDF82080DA
:104280009342B8BF1346C9F8003091F84320064660
:104290000C4612B10133C9F800302368990642BFB9
:1042A000D9F800300233C9F80030256815F006054A
:1042B00010D104F1190A07E001235246394630466D
:1042C000C04701301AD00135E368D9F800209B1AA5
:1042D0009D42F1DB94F843302268003318BF01237C
:1042E00092060FD5E1185A1C302081F84300224471
:1042F00094F8451082F84310023303E04FF0FF308A
:10430000BDE8F08704F1430239463046C04701302A
:10431000F4D02268D9F80050E36802F00602042ABB
:1043200008BF5D1B2269A3680CBF25EAE57500255F
:104330009342C4BF9B1AED184FF000091A344D4543
:1043400009D00123224639463046C0470130D5D036
:1043500009F10109F3E70020BDE8F0872DE9F043FA
:1043600017460A7E85B06E2A984606460C460C9B78
:1043700001F1430E00F0AE8011D8632A22D009D893
:10438000002A00F0BB80582A40F0CA8081F84520FE
:10439000834955E0642A1ED0692A1CD0C0E0732AE4
:1043A00000F0B08009D86F2A2ED0702A40F0B88073
:1043B0000A6842F020020A603EE0752A24D0782A7A
:1043C0003AD0ADE01A6801F14205111D1960136879
:1043D00084F84230A8E021681A6811F0800F02D0FA
:1043E000111D196008E011F0400F02F1040119607D
:1043F00002D0B2F9003000E01368002B3CDA2D2225
:104400005B4284F8432037E021681A6811F0800F7E
:1044100002D0111D196007E011F0400F02F10401F4
:10442000196001D0138800E01368227E5C496F2A6E
:1044300014BF0A2208221BE078225A4984F845203A
:104440002268186812F0800F00F104051D6003D186
:10445000550601D5038800E00368D00744BF42F049
:10446000200222601BB9226822F020022260102262
:10447000002084F8430001E049490A226568A560EC
:10448000002D08DB206820F0040020602BB9002DEF
:104490007DD175460CE0002B79D07546B3FBF2F068
:1044A00002FB1033CB5C05F8013D03460028F5D133
:1044B000082A0BD12368DA0708D5236962689A4273
:1044C000DEBF302305F8013C05F1FF35C5EB0E03D7
:1044D00023612EE008681A68496910F0800F03D044
:1044E000101D1860136808E010F0400F02F104007E
:1044F0001860136801D0198000E01960002323615F
:10450000754616E01A68111D196015686268002169
:10451000284600F07DF808B1401B6060636804E045
:1045200004F1420584F8422001232361002384F82A
:104530004330CDF800803B4603AA21463046FFF7C2
:1045400097FE013002D14FF0FF3026E023692A4662
:1045500039463046C0470130F5D023689B0710D557
:10456000002504F1190907E001234A46394630467F
:10457000C0470130E7D00135E368039A9B1A9D429A
:10458000F2DBE068039B9842B8BF184605E00B7861
:1045900084F8423004F142058AE705B0BDE8F083B3
:1045A0006C5100087D51000838B5074C0546084697
:1045B0001146002222601A46FCF72EFE431C02D14F
:1045C000236803B12B6038BD9404002038B5074C34
:1045D00000230546084611462360FCF729FF431CCB
:1045E00002D1236803B12B6038BD00BF94040020C2
:1045F00038B5064C0023054608462360FCF726FF25
:10460000431C02D1236803B12B6038BD9404002001
:1046100001F0FF01102A2BDB10F0070F08D010F873
:10462000013B013A8B422DD010F0070F42B3F6D177
:10463000F0B441EA012141EA014122F007047FF090
:1046400000070023F0E80256083C85EA010586EAE7
:10465000010685FA47F5A3FA87F586FA47F6A5FA23
:1046600087F68EB9EED1F0BC01F0FF0102F007022F
:1046700032B110F8013B013A83EA010313B1F8D1DA
:104680000020704701387047002D06BF35460338BB
:10469000073815F0010F07D1013015F4807F02BFF4
:1046A000013015F4C03F0130F0BC0138704700BF45
:1046B00010B5431E0A44914204D011F8014B03F88F
:1046C000014FF8E710BD884210B501EB020301D895
:1046D000421E0BE09842FBD28118D21AD34204D07A
:1046E00013F8014D01F8014DF8E710BD994204D0CF
:1046F00011F8014B02F8014FF8E710BDF8B5074675
:1047000015460E4621B91146BDE8F840FEF726BF12
:104710001AB9FFF7CDFA2846F8BD00F015F8854222
:104720000ED929463846FEF719FF044650B13146E6
:104730002A46FFF7BDFF31463846FFF7B9FA01E0D8
:104740003046F8BD2046F8BD51F8040C0028BEBF25
:10475000091851F8043CC018043870473A747400C2
:104760002F746D7000000000537461636B206672DB
:10477000616D653A0A000000205230203D2020255E
:104780003038580A00000000205231203D202025FA
:104790003038580A00000000205232203D202025E9
:1047A0003038580A00000000205233203D202025D8
:1047B0003038580A0000000020523132203D2025B8
:1047C0003038580A00000000204C52203D2020259F
:1047D0003038580A00000000205043203D2020259A
:1047E0003038580A0000000020505352203D202548
:1047F0003038580A000000004653522F4641523AC2
:104800000A0000002043465352203D202025303826
:10481000580A00002048465352203D2020253038B9
:10482000580A00002044465352203D2020253038AD
:10483000580A00002041465352203D2020253038A0
:10484000580A0000204D4D464152203D2025303869
:10485000580A00002042464152203D202025303891
:10486000580A00004D6973630A000000204C522F63
:104870004558435F52455455524E3D2025303858D7
:104880000A0000005B486172644661756C745D0AE1
:10489000000000005B4275734661756C745D0A0030
:1048A0005B55736167654661756C745D0A00000055
:1048B00076657273696F6E3A25780D0A0000000004
:1048C0004361706163697469766520746F756368AC
:1048D0002073637265656E20746573740000000058
:1048E000636F6F7264696E6174657320000000000D
:1048F000783A00002020793A00000000475438310F
:104900003120696E697469616C697A6174696F6E6E
:10491000206572726F720D00475438313120696E14
:10492000697469616C697A6174696F6E204F4B0DAF
:104930000000000012100E0C0A08060402000555C3
:104940001555255535554555555565557555855557
:104950009555A555B555C555D555E555F5551B0383
:104960000000001313130F0F0A503005036405E015
:104970000120030000322C342E0000041422040015
:10498000000000002014EC01000000000000000006
:1049900000000C3025281400000000000001000079
:1049A000FF002CFF2EDFFF013C321100090203CF74
:1049B000040813E514482C0C33783A333BFB3E00D3
:1049C0004311161039023588220A3740230034A0DB
:1049D000361A060207C00DB70E014C004A81219914
:1049E000243A253226825C0063005D555E7D5F7D42
:1049F0006055617062807C05208028306C006D807D
:104A00006E007002719673E13D345A574FBB509C53
:104A10000F43FF00E57FF9C04124E01476FF33A087
:104A2000422043184C0087D0883FD703D910D38247
:104A3000C808C9807C007D027C037D487D487C08D5
:104A40007D207D107D0E9000910E911A9131915A2A
:104A500091699175917E9188918F919691A391AF73
:104A600091C491D791E891209200930693E3930526
:104A70009305930093009300930093009300930099
:104A8000930093009600970897199702970C972424
:104A900097309728972697029798978097009700C6
:104AA000C3EDA400A800BF00BAF0BC64BB02B63DD1
:104AB000B857B738B94EB3E8B4E1B566B067B15E80
:104AC000B204C700C651C511C49CCF02A600A7E01E
:104AD000A710A71EA721A700A728A7D0A710A71631
:104AE000A721A700A728A7D0A710A717A721A7002D
:104AF000A728C0C8C196861D500051905218530077
:104B00005400558857005A905B185C05C3EF7F002E
:104B1000DA00E51FE167E000DDFF0500FF01FF01AE
:104B200012001711187519011A9732364FBB6D8094
:104B30003D3439023588220A3740230034A0361A22
:104B4000060207C00DB70E014C00FF00E0048C0008
:104B500087D0E000FF00E014E177E51FD703DA100B
:104B6000E000FF00E004C0C8C196861D50005190CF
:104B7000522C53005400558857005A905B2C5C050A
:104B8000E000D304FF00C3EFA600A7DDA778A77E4F
:104B9000A724A700A725A606A720A758A773A73470
:104BA000A700A725A60CA728A758A76DA734A7007C
:104BB000A725FF00E004E167E51FD701DA08DA095D
:104BC000E00098009900FF010428FF01124017112E
:104BD000184319001A4B32094FCA50A85A236D00C6
:104BE000391235DA221A37C3230034C0361A068840
:104BF00007C00D870E414C00FF00E004C064C14BAC
:104C00008635509251C852965300540055005700B3
:104C10005A285B1E5C00E000FF0111003D382D00AA
:104C20005065FF00D3047C007D047C097D287D0055
:104C3000FF002CFF2EDFFF013C3211000902042887
:104C400013E514482C0C33783A333BFB3E004311F8
:104C500016104A8121992440253826825C00630081
:104C6000463F0C3C617062807C05208028306C00DF
:104C70006D806E007002719473C13D345A571200FA
:104C800011001711187519011A973236030F3740A2
:104C90004FBB509C5A576D806D3839023588220AB7
:104CA0003740230034A0361A060207C00DB70E01A4
:104CB0004C00FF00E57FF9C04124E01476FF33A0EB
:104CC000422043184C0087D0883FD703D910D382A5
:104CD000C808C9807D007C037D487C087D207D104C
:104CE0007D0E9000910E911A9131915A91699175B2
:104CF000917E9188918F919691A391AF91C491D714
:104D000091E891209200930693E39302930293001B
:104D100093049300930393009300930093009300F4
:104D2000930093009600970897199702970C972481
:104D30009730972897269702979897809700970023
:104D4000C3EFFF00BADCBB08B624B833B720B930D4
:104D5000B3B4B4CAB543B05CB14FB206C700C651D4
:104D6000C511C49CBF00BC64A600A71EA76BA747C3
:104D7000A733A700A723A72EA785A742A733A7007D
:104D8000A723A71BA774A742A733A700A723C0C8C0
:104D9000C1968C00863D50925190522C5300540085
:104DA00055885A505B3C5C00D3047F00DA00E51F55
:104DB000E167E000DD7F0500FF00E004C0C8C196A8
:104DC000863D50925190522C530054005588570004
:104DD0005A505B3C5C00D304E000FF000500DA0998
:104DE00098009900FF007C007D047C097D107D0007
:104DF000FF00E004C0C8C196863D50895190522CF6
:104E000053005400558857005AA05B785C00D304C7
:104E1000E0000000FF002CFF2EDFFF013C321100FC
:104E20000902042813E514482C0C33783A333BFB71
:104E30003E00431116104A812199244025382682CC
:104E40005C006300463F0C3C617062807C05208002
:104E500028306C006D806E007002719473C13D3417
:104E60005A57120011001711187519011A97323686
:104E7000030F37404FBB509C5A576D806D38390235
:104E80003588220A3740230034A0361A060207C0AC
:104E90000DB70E014C00FF00E57FF9C04124E0147E
:104EA00076FF33A0422043184C0087D0883FD703B9
:104EB000D910D382C808C9807D007C037D487C0856
:104EC0007D207D107D0E9000910E911A9131915AA6
:104ED00091699175917E9188918F919691A391AFEF
:104EE00091C491D791E891209200930693E39302A5
:104EF0009302930093049300930393009300930011
:104F000093009300930093009600970897199702D7
:104F1000970C972497309728972697029798978011
:104F200097009700C3EFFF00BADCBB08B624B83384
:104F3000B720B930B3B4B4CAB543B05CB14FB20610
:104F4000C700C651C511C49CBF00BC64A600A71E03
:104F5000A76BA747A733A700A723A72EA785A7421C
:104F6000A733A700A723A71BA774A742A733A700AF
:104F7000A723C0C8C1968C00863D50925190522CF8
:104F80005300540055885A505B3C5C00D3047F00AA
:104F9000DA00E51FE167E000DD7F0500FF00E004C7
:104FA000C0C8C196863D50925190522C5300540077
:104FB000558857005A505B3C5C00D304E000FF006A
:104FC0000500DA08DA099800990000004F563236D9
:104FD00034302043616D657261204944203078256A
:104FE00078000000496D6167650D00000000000059
:104FF00000000000000000000000000000000000B1
:1050000000000000000000000000000000000000A0
:105010000000000000000000000000000000000090
:105020000000000000000000000000000000000080
:105030000000000000000000000000000000000070
:1050400000000000000000000000000050000020F0
:105050004300504F534958002E00002020202020AC
:105060002020202028282828282020202020202018
:105070002020202020202020202020881010101008
:10508000101010101010101010101004040404045C
:105090000404040404101010101010104141414188
:1050A0004141010101010101010101010101010170
:1050B0000101010101011010101010104242424282
:1050C0004242020202020202020202020202020240
:1050D0000202020202021010101020000000000064
:1050E00000000000000000000000000000000000C0
:1050F00000000000000000000000000000000000B0
:10510000000000000000000000000000000000009F
:10511000000000000000000000000000000000008F
:10512000000000000000000000000000000000007F
:10513000000000000000000000000000000000006F
:10514000000000000000000000000000000000005F
:105150000000000000000000000000232D302B2084
:1051600000686C4C00656667454647003031323355
:1051700034353637383941424344454600303132C0
:0E518000333435363738396162636465660052
:1051900078563412000000000102030401020304E7
:1051A00006070809000000000000000001020304D7
:1051B000060708090095BA0A611E00083D1D00088F
:1051C00000000000000000000000000000000000DF
:1051D000000000000000000000000000C8FFFFFF0A
:1051E00000000000EC4F00080C5000082C50000894
:1051F00000000000000000000000000000000000AF
:10520000000000000000000000000000000000009E
:10521000000000000000000000000000000000008E
:10522000000000000000000000000000000000007E
:10523000000000000000000000000000000000006E
:1052400050000020430000000000000000000000AB
:10525000000000000000000000000000000000004E
:1052600000000000430000000000000000000000FB
:10527000000000000000000000000000000000002E
:1052800000000000430000000000000000000000DB
:10529000000000000000000000000000000000000E
:1052A00000000000430000000000000000000000BB
:1052B00000000000000000000000000000000000EE
:1052C000000000004300000000000000000000009B
:1052D00000000000000000000000000000000000CE
:1052E000000000004300000000000000000000007B
:1052F00000000000000000000000000000000000AE
:10530000000000004300000000000000000000005A
:10531000000000000000000000000000000000008D
:1053200000000000293900082935000800000000AD
:105330005A50000858500008605100086051000899
:105340006051000860510008605100086051000879
:10535000605100086051000860510008FFFFFFFF26
:10536000FFFFFFFFFFFFFFFFFFFF000001004153B2
:105370004349490000000000000000000000000058
:105380000000000000000000000000000000415389
:105390004349490000000000000000000000000038
:1053A00000000000000000000000000000000000FD
:0453B0003254769865
:040000050800018965
:00000001FF
