:020000040800F2
:10000000005000202902000865C7000871C70008D9
:1000100079C7000881C7000889C7000800000000F0
:1000200000000000000000000000000091C7000870
:100030009DC7000800000000A9C70008F997000844
:10004000E1020008E1020008E10200085DB00008DA
:10005000E1020008E102000831B00008E1020008F6
:10006000E1020008E1020008E1020008E1020008E4
:10007000E1020008E1020008E1020008E1020008D4
:10008000E1020008E1020008E1020008E1020008C4
:10009000E1020008E1020008E1020008E1020008B4
:1000A000E102000815A50008E1020008E1020008CD
:1000B000E1020008E1020008E1020008E102000894
:1000C000E1020008E1020008E1020008E102000884
:1000D000E102000855A30008B5A3000815A4000814
:1000E000E102000861B10008E10200080000000020
:1000F0000000000000000000000000000000000000
:1001000000000000000000005FF808F180B58EB02C
:1001100000AF01F065FB394B7B63394B3B61394BD9
:10012000FB603B69BB6007E0BB681A1DBA607A6B75
:10013000111D796312681A60FA68BB689A42F3D895
:10014000314B3B63314BBB613B6B7B6104E07B69B3
:100150001A1D7A6100221A60BA697B699A42F6D840
:1001600001F04CFB3A463B1D1146184601F026FBB8
:10017000274A284BD31A9B103B620023FB6107E000
:10018000244AFB6952F823309847FB690133FB612D
:100190003A6AFB699A42F3DC1F4A204BD31A9B1040
:1001A0003B620023FB6107E01C4AFB6952F82330E5
:1001B0009847FB690133FB613A6AFB699A42F3DCB9
:1001C0007B683A681146184609F030FCF862144A18
:1001D000144BD31A9B10BB62BB6A7B6208E07B6A3C
:1001E000013B104A52F8233098477B6A013B7B62FF
:1001F0007B6A002BF3DCF86A01F09CFA4CDF000804
:10020000000000200002002000020020A8130020AF
:10021000100300081003000814030008100300086E
:1002200018030008140300082948004700BF00BF56
:1002300080B400AFFEE700BF1EF0040F0CBFEFF369
:100240000880EFF309807146224A104700BF00BFC3
:1002500080B483B000AF78603960FEE780B400AF4F
:10026000FEE700BF1EF0040F0CBFEFF30880EFF3B2
:1002700009807146184A104700BF00BF80B483B0A0
:1002800000AF78603960FEE71EF0040F0CBFEFF39B
:100290000880EFF309807146104A104700BF00BF85
:1002A00080B483B000AF78603960FEE780B400AFFF
:1002B000FEE700BF80B400AFFEE700BF80B400AF30
:1002C000FEE700BF80B400AF00BFBD4680BC7047F2
:1002D0000D010008510200087D020008A10200087B
:0802E00080B400AFFEE700BF8F
:1002E8004CDF000800000020000200204CDF00085E
:1002F800000000000000000000020020A8130020F9
:10030800000000000000000055B3000865B30008B5
:1003180080B483B000AF7860054A7B6843F0BF6360
:1003280043F40033D36000BF0C37BD4680BC704730
:1003380000ED00E080B487B000AF786000237B61F7
:1003480000233B610F23FB607B68DB78002B3AD0EE
:10035800274BDB68DB4303F4E0631B0A7B617B69A3
:10036800C3F104033B61FA687B6922FA03F3FB607B
:100378007B685B781A463B6902FA03F37B617B680A
:100388009B781A46FB6813407A6913437B617B6943
:100398001B017B61174A7B681B787969C9B21344D2
:1003A8000A4683F80023134A7B681B785B09DBB293
:1003B80018467B681B7803F01F03012101FA03F339
:1003C80042F820300FE00B497B681B785B09DBB2F1
:1003D80018467B681B7803F01F0301229A4000F13E
:1003E800200341F8232000BF1C37BD4680BC70475E
:1003F80000ED00E000E100E080B483B000AF786079
:10040800396007493B6823F0604323F07F037A682B
:1004180013438B6000BF0C37BD4680BC704700BFDC
:1004280000ED00E080B485B000AF7860396000234B
:10043800FB600023FB727B685B68FB60FB6823F44E
:10044800702323F48073FB603B681A683B681B7950
:100458001B021343FA681343FB607B68FA685A600F
:100468007B689B68FB60FA68164B1340FB603B682F
:10047800DA683B689B681A433B685B795B00134307
:10048800FA681343FB607B68FA689A607B68DB6AEA
:10049800FB60FB6823F47003FB603B681B7C013B3B
:1004A800DAB2FB7A1343FB72FB7A1B05FA68134333
:1004B800FB607B68FA68DA6200BF1437BD4680BC0F
:1004C800704700BFFDF7F1FF80B483B000AF7860DC
:1004D8007B6800221A607B6800221A717B68002200
:1004E8005A717B6800229A607B680022DA607B6818
:1004F80001221A7400BF0C37BD4680BC704700BF8C
:1005080080B483B000AF78600B46FB70FB78002B9B
:1005180006D07B689B6843F001027B689A6005E01F
:100528007B689B6823F001027B689A6000BF0C37E8
:10053800BD4680BC704700BF80B483B000AF786010
:100548007B689B6843F008027B689A6000BF0C37A1
:10055800BD4680BC704700BF80B485B000AF7860EE
:100568000023FB737B689B6803F00803002B02D011
:100578000123FB7301E00023FB73FB7B1846143750
:10058800BD4680BC704700BF80B483B000AF7860C0
:100598007B689B6843F004027B689A6000BF0C3755
:1005A800BD4680BC704700BF80B485B000AF78609E
:1005B8000023FB737B689B6803F00403002B02D0C5
:1005C8000123FB7301E00023FB73FB7B1846143700
:1005D800BD4680BC704700BF80B483B000AF786070
:1005E8000B46FB70FB78002B06D07B689B6843F4B6
:1005F800A0027B689A6005E07B689B6823F4A002F0
:100608007B689A6000BF0C37BD4680BC704700BF4E
:1006180080B485B000AF7860084611461A46034694
:10062800FB700B46BB7013467B700023FB600023F6
:10063800BB60FB78092B23D97B68DB68FB60FB7800
:10064800A3F10A0213465B001344072202FA03F3DC
:10065800BB60BB68DB43FA681340FB607978FB78C2
:10066800A3F10A0213465B00134401FA03F3BB60CB
:10067800FA68BB681343FB607B68FA68DA601EE0BF
:100688007B681B69FB60FA7813465B0013440722FA
:1006980002FA03F3BB60BB68DB43FA681340FB60F4
:1006A8007978FA7813465B00134401FA03F3BB60C8
:1006B800FA68BB681343FB607B68FA681A61BB7809
:1006C800062B21D87B685B6BFB60BB785A1E1346F0
:1006D8009B0013441F2202FA03F3BB60BB68DB4391
:1006E800FA681340FB60F978BB785A1E13469B00E2
:1006F800134401FA03F3BB60FA68BB681343FB6059
:100708007B68FA685A6347E0BB780C2B21D87B6872
:100718001B6BFB60BB78DA1F13469B0013441F2238
:1007280002FA03F3BB60BB68DB43FA681340FB6063
:10073800F978BB78DA1F13469B00134401FA03F3D8
:10074800BB60FA68BB681343FB607B68FA681A638E
:1007580022E07B68DB6AFB60BB78A3F10D021346DD
:100768009B0013441F2202FA03F3BB60BB68DB4300
:10077800FA681340FB60F978BB78A3F10D021346C1
:100788009B00134401FA03F3BB60FA68BB68134388
:10079800FB607B68FA68DA6200BF1437BD4680BC2C
:1007A800704700BF80B500AF012000F0D9FB0020E2
:1007B80000F0D6FB00BF80BD80B485B000AF034613
:1007C8000A46FB801346BB800023FB60074BFB6097
:1007D800FA88FB681344FB60FB681A46BB88136001
:1007E80000BF1437BD4680BC704700BF006C004096
:1007F80080B485B000AF0346FB800023FB60074B45
:10080800FB60FA88FB681344FB60FB681B889BB29B
:1008180018461437BD4680BC704700BF006C0040C6
:1008280080B485B000AF78600023FB60344BFB6078
:100838007B689B79002B4FD03149314B1A687B6814
:100848001B68DB4313400B602D492D4B5A687B68AE
:100858001B68DB4313404B607B681B791A46FB68B7
:100868001344FB60FB68FA6811687A6812680A43E7
:100878001A602349224B9A687B681B68DB43134044
:100888008B601F491E4BDA687B681B68DB4313408B
:10089800CB607B685B79102B0ED11949184B9A688D
:1008A8007B681B6813438B601549154BDA687B68B6
:1008B8001B681343CB601DE0114BFB607B685B79C1
:1008C8001A46FB681344FB60FB68FA6811687A688B
:1008D80012680A431A600DE07B681B791A46FB68A8
:1008E8001344FB60FB68FA6811687A681268D2439F
:1008F8000A401A6000BF1437BD4680BC704700BF6D
:100908000004014080B485B000AF78600023FB7319
:100918000023BB600C4B1A687B681340BB600A4B12
:100928005A697B681340002B05D0BB68002B02D0A6
:100938000123FB7301E00023FB73FB7B184614378C
:10094800BD4680BC704700BF0004014080B483B03E
:1009580000AF7860034A7B68536100BF0C37BD461F
:1009680080BC70470004014080B400AF044B054AC6
:100978005A60034B044A5A6000BFBD4680BC7047AA
:100988000020024023016745AB89EFCD80B584B0D4
:1009980000AF78600423FB734FF4302000F08EF82A
:1009A8000346FB73FB7B042B1BD1104A0F4B1B69BF
:1009B80043F0020313610D4A7B6853610B4A0B4BEA
:1009C8001B6943F0400313614FF4302000F076F8C0
:1009D8000346FB730549054B1A6941F6FD7313403D
:1009E8000B61FB7B18461037BD4680BD00200240D6
:1009F80080B584B000AF78600B467B800423FB731E
:100A08004FF4005000F05AF80346FB73FB7B042BAD
:100A180015D10D4A0C4B1B6943F0010313617B6828
:100A28007A881A804FF4005000F048F80346FB73A8
:100A38000549054B1A6941F6FE7313400B61FB7BB0
:100A480018461037BD4680BD0020024080B483B0F0
:100A580000AF7860034A7B68D36000BF0C37BD469F
:100A680080BC70470020024080B483B000AF0423EC
:100A7800FB71114BDB6803F00103002B02D001234B
:100A8800FB7113E00C4BDB6803F00403002B02D06E
:100A98000223FB710AE0084BDB6803F01003002B0C
:100AA80002D00323FB7101E00423FB71FB79184694
:100AB8000C37BD4680BC70470020024080B584B02A
:100AC80000AF78600423FB73FFF7CEFF0346FB7388
:100AD80006E0FFF7C9FF0346FB737B68013B7B60B9
:100AE800FB7B012B02D17B68002BF2D17B68002BAA
:100AF80001D10523FB73FB7B18461037BD4680BD2B
:100B080080B489B000AF786039600023FB610023AE
:100B18003B610023BB610023FB6000237B61002352
:100B2800BB603B68DB7803F00F03FB613B68DB7855
:100B380003F01003002B05D03B689B781A46FB692D
:100B48001343FB613B681B88DBB2002B44D07B68F6
:100B58001B687B610023BB6138E00122BB6902FA94
:100B680003F3FB603B681B881A46FB6813403B6134
:100B78003A69FB689A4226D1BB699B00FB600F2249
:100B8800FB6802FA03F3BB60BB68DB437A69134076
:100B98007B61FA69FB6802FA03F37A6913437B61A4
:100BA8003B68DB78282B05D10122BB699A407B681A
:100BB8005A6108E03B68DB78482B04D10122BB6905
:100BC8009A407B681A61BB690133BB61BB69072B1B
:100BD800C3D97B687A691A603B681B88FF2B46D9A2
:100BE8007B685B687B610023BB613AE0BB690833C3
:100BF800012202FA03F3FB603B681B881A46FB6874
:100C080013403B613A69FB689A4227D1BB699B0054
:100C1800FB600F22FB6802FA03F3BB60BB68DB438F
:100C28007A6913407B61FA69FB6802FA03F37A690F
:100C380013437B613B68DB78282B05D1BB690833FC
:100C480001229A407B685A613B68DB78482B05D1C2
:100C5800BB69083301229A407B681A61BB6901337A
:100C6800BB61BB69072BC1D97B687A695A6000BF31
:100C78002437BD4680BC704780B485B000AF78602B
:100C88000B467B800023FB737B689A687B88134044
:100C9800002B02D00123FB7301E00023FB73FB7BD5
:100CA80018461437BD4680BC704700BF80B483B077
:100CB80000AF0346FB71044AFB79136000BF0C3791
:100CC800BD4680BC704700BF20000E4280B485B08E
:100CD80000AF78600023FB60094B5B68FB60FB6832
:100CE80023F44043FB60FA687B681343FB60044AC3
:100CF800FB68536000BF1437BD4680BC704700BF17
:100D08000010024080B483B000AF0346FB710C4B67
:100D180000221A700A4B00221A70FB79012B02D0AC
:100D2800042B04D007E0064B01221A7003E0044BA1
:100D380005221A7000BF00BF0C37BD4680BC704743
:100D48002010024080B483B000AF78600549054B9D
:100D58001A6A7B6813430B6200BF0C37BD4680BC20
:100D6800704700BF0010024080B483B000AF034654
:100D7800FB71044AFB79136000BF0C37BD4680BC89
:100D8800704700BF3C04424280B487B000AF78602F
:100D980000237B6100233B610023FB600023BB60D1
:100DA8004C4B5B6803F00C037B617B69042B07D019
:100DB800082B09D0002B33D17B68474A1A6033E0EF
:100DC8007B68454A1A602FE0424B5B6803F4701356
:100DD8003B61404B5B6803F48033FB603B699B0CD1
:100DE80002333B61FB68002B06D13B693B4A02FB9F
:100DF80003F27B681A6017E0364B5B6803F4003334
:100E0800002B06D03B69354A02FB03F27B681A6067
:100E18000AE03B69304A02FB03F27B681A6003E090
:100E28007B682D4A1A6000BF2A4B5B6803F0F00309
:100E38007B617B691B097B61294A7B6913441B78A9
:100E4800DBB2BB607B681A68BB68DA407B685A60B3
:100E5800204B5B6803F4E0637B617B691B0A7B6161
:100E68001F4A7B6913441B78DBB2BB607B685A68F6
:100E7800BB68DA407B689A60164B5B6803F4605382
:100E88007B617B69DB0A7B61154A7B6913441B78AC
:100E9800DBB2BB607B685A68BB68DA407B68DA60A3
:100EA8000C4B5B6803F440437B617B699B0B7B6164
:100EB8000C4A7B6913441B78DBB2BB607B68DA6839
:100EC800BB68B2FBF3F27B681A6100BF1C37BD46F2
:100ED80080BC70470010024000127A0000093D00F3
:100EE800000000201000002080B483B000AF7860BC
:100EF8000B46FB70FB78002B06D00949084B9A6912
:100F08007B6813438B6106E00549054B9A697B684A
:100F1800DB4313408B6100BF0C37BD4680BC704774
:100F28000010024080B483B000AF78600B46FB70BD
:100F3800FB78002B06D00949084BDA697B68134314
:100F4800CB6106E00549054BDA697B68DB43134052
:100F5800CB6100BF0C37BD4680BC70470010024013
:100F680080B483B000AF0346FB71044AFB79136079
:100F780000BF0C37BD4680BC704700BF40044242EA
:100F880080B487B000AF0346FB710023FB600023E9
:100F98007B610023FB74FB795B09DBB2FB60FB68B8
:100FA800012B03D1124B1B687B6109E0FB68022B04
:100FB80003D10F4B1B6A7B6102E00D4B5B6A7B61BF
:100FC800FB7903F01F03FB607A69FB6822FA03F3DD
:100FD80003F00103002B02D00123FB7401E000237E
:100FE800FB74FB7C18461C37BD4680BC704700BFAD
:100FF8000010024080B483B000AF03460A46FB806D
:1010080013467B717B79002B08D00C490B4B1B884E
:101018009AB2FB8813439BB20B8009E00749074B40
:101028001B889AB2FB88DB439BB213409BB20B80B0
:1010380000BF0C37BD4680BC704700BF0028004089
:1010480080B400AF054A054B9B889BB243F0100360
:101058009BB2938000BFBD4680BC7047002800400B
:1010680080B400AF054A054B9B889BB223F0100360
:101078009BB2938000BFBD4680BC704700280040EB
:1010880080B483B000AF0023FB80074B9B8BFB80B1
:10109800054B1B8B9BB21A04FB88134318460C376D
:1010A800BD4680BC704700BF0028004080B582B0B4
:1010B80000AF7860FFF7C4FF00F046F8084A7B6885
:1010C8001B0C9BB21383064B7A6892B29A83FFF784
:1010D800C7FF00F039F800BF0837BD4680BD00BF24
:1010E8000028004080B582B000AF7860FFF7A8FF05
:1010F800084A7B681B0C9BB203F00F039BB2138159
:10110800044B7A6892B29A81FFF7AAFF00BF0837AA
:10111800BD4680BD0028004080B582B000AF786031
:10112800FFF78EFF074A7B681B0C9BB21384054BA5
:101138007A6892B29A84FFF793FF00BF0837BD46DA
:1011480080BD00BF0028004080B400AF00BF054B41
:101158009B889BB203F02003002BF8D000BFBD464C
:1011680080BC70470028004080B400AF094A094B92
:101178009B889BB223F008039BB2938000BF054B6A
:101188009B889BB203F00803002BF8D000BFBD4634
:1011980080BC70470028004080B485B000AF03468B
:1011A800FB800023FB73094B9B889AB2FB88134092
:1011B8009BB2002B02D00123FB7301E00023FB73D9
:1011C800FB7B18461437BD4680BC7047002800409A
:1011D80080B483B000AF0346FB800749064B9B8869
:1011E8009AB2FB88DB439BB213409BB28B8000BF53
:1011F8000C37BD4680BC70470028004080B485B0DD
:1012080000AF0346FB800023FB730F4B9B889BB208
:10121800DAB2FB88DBB21340FB730B4B1B889AB224
:10122800FB8813409BB2002B05D0FB7B002B02D020
:101238000123FB7301E00023FB73FB7B1846143783
:10124800BD4680BC704700BF0028004080B483B012
:1012580000AF0346FB800749064B9B889AB2FB8880
:10126800DB439BB213409BB28B8000BF0C37BD465B
:1012780080BC70470028004080B485B000AF78601B
:1012880039600023FB817B681B88FB817B682E4AC1
:10129800934213D07B682D4A93420FD07B68B3F1F9
:1012A800804F0BD07B682A4A934207D07B68294A33
:1012B800934203D07B68284A934208D1FB8923F0E4
:1012C8007003FB813B685A88FB891343FB817B6869
:1012D800224A93420CD07B68214A934208D0FB896A
:1012E80023F44073FB813B68DA88FB891343FB8155
:1012F8007B68FA891A803B689A887B689A853B687C
:101308001A887B681A857B680F4A93420FD07B68DE
:101318000E4A93420BD07B68124A934207D07B68EF
:10132800114A934203D07B68104A934204D13B6828
:101338001B7A9AB27B681A867B6801229A8200BF60
:101348001437BD4680BC7047002C01400034014072
:101358000004004000080040000C0040001000405D
:101368000014004000400140004401400048014092
:1013780080B483B000AF78600B46FB70FB78002B1D
:1013880008D07B681B889BB243F001039AB27B6844
:101398001A8007E07B681B889BB223F001039AB28E
:1013A8007B681A8000BF0C37BD4680BC704700BF01
:1013B80080B483B000AF78600B467B8013467B70A7
:1013C8007B78002B08D07B689B899AB27B88134373
:1013D8009AB27B689A8109E07B689B899AB27B887C
:1013E800DB439BB213409AB27B689A8100BF0C37EB
:1013F800BD4680BC704700BF80B485B000AF786040
:101408000B467B800023FB730023BB8100237B8179
:101418007B681B8A9AB27B881340BB817B689B8957
:101428009AB27B8813407B81BB89002B05D07B89CE
:10143800002B02D00123FB7301E00023FB73FB7B2D
:1014480018461437BD4680BC704700BF80B483B0CF
:1014580000AF78600B467B807B88DB439AB27B6861
:101468001A8200BF0C37BD4680BC704780B58CB06F
:1014780000AF786039600023FB620023BB62002361
:101488007B6200233B620023FB617B68FB617B6816
:101498001B8A9BB2FB62FA6A4CF6FF731340FB622D
:1014A8003B68DB881A46FB6A1343FB62FB6A9AB205
:1014B8007B681A827B689B899BB2FB62FA6A4EF64C
:1014C800F3131340FB623B689A883B681B891343FC
:1014D8009AB23B685B8913439BB21A46FB6A134373
:1014E800FB62FB6A9AB27B689A817B689B8A9BB293
:1014F800FB62FA6A4FF6FF431340FB623B689B8925
:101508001A46FB6A1343FB62FB6A9AB27B689A82AB
:1015180007F108031846FFF737FCFB692E4A934288
:1015280002D17B69BB6201E03B69BB627B689B8936
:101538009BB21BB2002B0CDABA6A13469B00134409
:101548009A001A443B681B685B00B2FBF3F37B62AA
:101558000BE0BA6A13469B0013449A001A443B688E
:101568001B689B00B2FBF3F37B627B6A1B4AA2FBFE
:1015780003235B091B01FB62FB6A1B09642202FB54
:1015880003F37A6AD31A3B627B689B899BB21BB2CE
:10159800002B0CDA3B6ADB003233104AA2FB032330
:1015A8005B0903F00703FA6A1343FB620BE03B6A2B
:1015B8001B013233094AA2FB03235B0903F00F0323
:1015C800FA6A1343FB62FB6A9AB27B681A8100BF0E
:1015D8003037BD4680BD00BF003801401F85EB5144
:1015E80080B483B000AF78600B46FB70FB78002BAB
:1015F80008D07B689B899BB243F400539AB27B68FE
:101608009A8107E07B689B899BB223F400539AB2C6
:101618007B689A8100BF0C37BD4680BC704700BF0D
:1016280080B487B000AF78600B467B8013467B7030
:1016380000233B610023FB600023BB6000237B6128
:101648007B687B617B88DBB25B09DBB23B617B88B3
:1016580003F01F03FB600122FB6802FA03F3BB607F
:101668003B69012B03D17B690C337B6109E03B6942
:10167800022B03D17B6910337B6102E07B69143351
:101688007B617B78002B06D07B697A691168BA6820
:101698000A431A6006E07B697A691168BA68D2431E
:1016A8000A401A6000BF1C37BD4680BC704700BFA7
:1016B80080B483B000AF78600B467B807B88C3F32F
:1016C80008039AB27B689A8000BF0C37BD4680BC7D
:1016D800704700BF80B483B000AF78607B689B8898
:1016E8009BB2C3F308039BB218460C37BD4680BCB7
:1016F800704700BF80B485B000AF78600B467B8030
:101708000023FB737B681B889AB27B8813409BB2CB
:10171800002B02D00123FB7301E00023FB73FB7B4A
:1017280018461437BD4680BC704700BF80B582B0EC
:1017380000AF786000F078F880B582B000AF024B57
:101748007B600120FFF7F2FF30D2000880B584B03B
:1017580000AF7860144B1B68002B02D1124B134A60
:101768001A60114B1B68FB607B68033323F003038B
:101778007B600D4B1A687B6813440D4A934207D966
:101788000BF036F802460C2313604FF0FF3306E0E7
:10179800054B1A687B681344034A1360FB681846B4
:1017A8001037BD4680BD00BF00020020A8130020EE
:1017B800004C002080B483B000AF786039607B684B
:1017C80001221A603B68034A1A6000BF0C37BD4605
:1017D80080BC70471400002080B500AF00F028F8E6
:1017E800024B034A9A6000BF80BD00BF00ED00E0D5
:1017F8000000000880B500AF00F04EF800BF80BDC3
:1018080080B400AFBFF34F8F0549054BDB6803F485
:10181800E062044B1343CB60BFF34F8F00BFFDE77B
:1018280000ED00E00400FA0580B500AFFFF7E8FF1F
:1018380080B500AF154A154B1B6843F001031360D0
:101848001249124B5A68124B13404B600F4A0F4B08
:101858001B6823F0847323F4803313600B4A0B4B0B
:101868001B6823F480231360084A084B5B6823F441
:10187800FE035360054B4FF41F029A6000F078F89E
:10188800044B4FF000629A6000BF80BD0010024018
:101898000000FFF800ED00E080B485B000AF002341
:1018A800FB600023BB6000237B602C4B5B6803F06C
:1018B8000C03FB60FB68042B07D0082B09D0002B16
:1018C80033D1274B274A1A6033E0254B254A1A6043
:1018D8002FE0224B5B6803F47013BB601F4B5B68FF
:1018E80003F480337B60BB689B0C0233BB607B686E
:1018F800002B06D1BB681C4A02FB03F3184A13608D
:1019080017E0164B5B6803F40033002B06D0BB6866
:10191800154A02FB03F3124A13600AE0BB68114A36
:1019280002FB03F30E4A136003E00D4B0D4A1A60E5
:1019380000BF0A4B5B6803F0F0031B090B4AD35C3A
:10194800DBB2FB60064B1A68FB6822FA03F3044A11
:10195800136000BF1437BD4680BC704700100240BA
:101968001C00002000127A0000093D002000002021
:1019780080B500AF00F002F800BF80BD80B483B02E
:1019880000AF00237B6000233B603A4A394B1B6859
:1019980043F480331360374B1B6803F400333B6018
:1019A8007B6801337B603B68002B03D17B68B3F510
:1019B800A06FF0D12F4B1B6803F40033002B02D02B
:1019C80001233B6001E000233B603B68012B4BD1C6
:1019D800294A294B1B6843F010031360264A264BFB
:1019E8001B6823F003031360234A234B1B6843F04F
:1019F800020313601F4A1F4B5B6853601D4A1D4B4F
:101A08005B6853601B4A1B4B5B6843F480635360FD
:101A1800184A184B5B6823F47C135360154A154B1E
:101A28005B6843F4E8135360124A124B1B6843F097
:101A38008073136000BF0F4B1B6803F00073002B0B
:101A4800F9D00C4A0B4B5B6823F003035360094A37
:101A5800084B5B6843F00203536000BF054B5B68AB
:101A680003F00C03082BF9D100BF0C37BD4680BC2E
:101A7800704700BF001002400020024080B588B0C7
:101A880000AF78600B46FB7001210120FFF72CFAAC
:101A98007B68314A93420CD0304A93420FD0304A87
:101AA800934200D011E001214FF40070FFF71CFAB7
:101AB8000BE001214FF48060FFF716FA05E00121E1
:101AC8004FF40040FFF710FA00BF4FF40040FFF753
:101AD800FDF807F10C031846FEF7F6FC01237B74AA
:101AE80001233B774FF460237B6107F10C03194610
:101AF8007868FEF797FCF978062301227868FEF7E4
:101B080087FD01217868FEF7FBFC7868FEF714FD75
:101B18007868FEF721FD0346002B14BF012300233C
:101B2800DBB2002B00D0F3E77868FEF72DFD78686C
:101B3800FEF73AFD0346002B14BF01230023DBB256
:101B4800002B00D0F3E701217868FEF745FD00BFC0
:101B58002037BD4680BD00BF00280140003C014041
:101B68000024014080B483B000AF78600A4A7B68E3
:101B78001A607B6800221A717B6800229A717B6860
:101B880000225A717B680022DA717B6818460C378C
:101B9800BD4680BC704700BF50D2000880B582B0F7
:101BA80000AF7860064A7B681A600023002B02D0D9
:101BB80078680AF0FBFD7B6818460837BD4680BD8B
:101BC80050D2000880B582B000AF78607868FFF71F
:101BD800E5FF78680AF0EAFD7B6818460837BD46D5
:101BE80080BD00BF80B582B000AF78600B46FB7047
:101BF8007B6800221A71FB781946FC2006F022F94E
:101C08000A2007F0C3FD7B681B7918460837BD46D4
:101C180080BD00BF80B582B000AF786002217868CF
:101C2800FFF7E0FF034618460837BD4680BD00BFF2
:101C380080B582B000AF786003217868FFF7D2FFE3
:101C4800034618460837BD4680BD00BF80B58AB038
:101C580000AFF8607B600B46FB721346BB7207F15E
:101C680014031422002118460AF0E3FD07F11403B7
:101C78000233796818460AF0C3FE97F90B303B75B2
:101C880097F90A307B7507F11403023318460AF0F6
:101C9800BFFE0346DBB20233DBB207F114020421B4
:101CA800FC2006F021F90A2007F070FDF86801F021
:101CB80089F90346FC2B14BF01230023DBB2002B58
:101CC80002D0FB6801221A71FB681B791846283775
:101CD800BD4680BDF0B5B9B018AF786007F10C0308
:101CE8002322002118460AF0A4FD786801F04EF975
:101CF8000346002B14BF01230023DBB2002B01F0A5
:101D08001B81786801F05EF903460A3B082B01F253
:101D1800028101A252F823F0951D0008B1210008A4
:101D280099290008B1240008152C0008572A000832
:101D3800092B00081F2F0008451D0008786801F0CE
:101D480025F90346002B14BF01230023DBB2002B27
:101D580001F0E3800023FB67FB6F092B0EDC78683A
:101D680001F030F90346194607F10C02FB6F1344E2
:101D78000A461A70FB6F0133FB67EDE707F10C03A6
:101D88001946BF480AF03CFE01F0C7B8786801F070
:101D9800FDF80346002B14BF01230023DBB2002B00
:101DA80001F0BD80786801F00DF90346193B152B49
:101DB80000F2D68101A252F823F000BF1D1E0008D0
:101DC800371E0008511E00086B1E0008851E0008FB
:101DD800F71E0008BD1E00086921000869210008D7
:101DE800311F0008691F0008A31F0008DD1F000835
:101DF800172000084D20000891200008C92000087D
:101E080001210008152100082921000843210008A4
:101E18005D2100089B4801F087FA03463B7307F1F0
:101E28000C0301221946786801F09AF8BAE195483E
:101E380001F086FA03463B7307F10C0301221946A9
:101E4800786801F08DF8ADE18E4801F091FA03460B
:101E58003B7307F10C0301221946786801F080F8FA
:101E6800A0E1884801F078FA03463B7307F10C03B8
:101E780001221946786801F073F893E1786801F057
:101E880085F80346002B14BF01230023DBB2002B87
:101E980000F06981786801F095F803461946794899
:101EA80001F0FAF9F863FB6B14221946786801F01F
:101EB80057F858E1786801F069F80346002B14BF19
:101EC80001230023DBB2002B00F05081786801F079
:101ED80079F8034619466B4801F0DEF9F863FB6BA5
:101EE80016330A221946786801F03AF83EE1786814
:101EF80001F04CF80346002B14BF01230023DBB28A
:101F0800002B00F03681786801F05CF8034619462A
:101F18005C4801F0C1F9F863FB6B153301221946DF
:101F2800786801F01DF824E1786801F02FF803467D
:101F3800002B14BF01230023DBB2002B00F01C810F
:101F4800786801F03FF8034619464E4801F0B6F9A3
:101F5800B863BB6B14221946786801F001F80BE1ED
:101F6800786801F013F80346002B14BF01230023FF
:101F7800DBB2002B00F00381786801F023F80346F8
:101F88001946404801F09AF9B863BB6B1533012232
:101F98001946786800F0E4FFF1E0786800F0F6FF91
:101FA8000346002B14BF01230023DBB2002B00F0F3
:101FB800E980786801F006F803461946314801F0CF
:101FC8007DF9B863BB6B173301221946786800F0B6
:101FD800C7FFD7E0786800F0D9FF0346002B14BF8D
:101FE80001230023DBB2002B00F0CF80786800F0DB
:101FF800E9FF03461946234801F060F9B863BB6B53
:10200800163301221946786800F0AAFFBDE0786807
:1020180000F0BCFF0346002B14BF01230023DBB2F2
:10202800002B00F0B580786800F0CCFF0346194615
:10203800144801F067F978630A22796B786800F030
:102048008FFFA5E0786800F0A1FF0346002B14BFBE
:1020580001230023DBB2002B00F09D80786800F09C
:10206800B1FF03461946074801F03AF938633B6B5C
:10207800013301221946786800F072FF8BE000BF37
:102088001712002034110020786800F07FFF034603
:10209800002B14BF01230023DBB2002B7ED078680D
:1020A80000F090FF03461946B44801F019F9386367
:1020B8003B6B023301221946786800F051FF6DE04E
:1020C800786800F063FF0346002B14BF0123002348
:1020D800DBB2002B65D0786800F074FF0346194620
:1020E800A64801F0FDF838633B6B03330822194614
:1020F800786800F035FF54E0A04801F06DF8786387
:102108001422796B786800F02BFF4BE09B4801F0B4
:102118006FF878631422796B786800F021FF41E04A
:10212800964801F04DF803463B7307F10C03012272
:102138001946786800F014FF34E0904801F034F84C
:1021480003463B7307F10C0301221946786800F037
:1021580007FF27E005228A49786800F001FF21E09F
:1021680000BF00F0DCBE00BF00F0D9BE00BF00F029
:10217800D6BE00BF00F0D3BE00BF00F0D0BE00BF87
:1021880000F0CDBE00BF00F0CABE00BF00F0C7BE61
:1021980000BF00F0C4BE00BF00F0C1BE00BF00F029
:1021A800BEBE00BF00F0BBBE786800F0EFFE03467D
:1021B800002B14BF01230023DBB2002B00F0B186F3
:1021C800786800F0FFFE0346202B03D0212B00F097
:1021D800DB8067E10023BB67BB6F0E2B0EDC7868E2
:1021E80000F0F0FE0346194607F10C02BB6F1344DA
:1021F8000A461A70BB6F0133BB67EDE707F10C02A3
:1022080007F10C0319465F480AF08AFA786800F06B
:10221800D9FE034687F82D30002387F82E30002397
:102228007B67564801F080F803461A467B6F9A424E
:10223800CCBF01230023DBB2002B00F02F817B6F82
:10224800DBB219464D4801F027F8F86300233B67D5
:102258003B6F1F2B19DCFA6B3B6F1344203393F948
:102268000030194607F10C023B6F13441B78994262
:102278000AD13B6F1F2B03D17B6FDBB287F82E305F
:102288003B6F01333B67E3E700BF97F82E30002B25
:1022980059D007F10C03223301221946786800F05F
:1022A8005FFEFB6B15221946786800F059FE97F817
:1022B8002D30012B21D10023FB66FA6BFB6E1344F2
:1022C800163393F90030002B55D0FA6BFB6E13448C
:1022D800163393F900302C2B0BD0FA6BFB6E13449A
:1022E800163393F90030303B244A1344012283F813
:1022F800CE20FB6E0133FB66DFE797F82D30002B0D
:1023080039D10023BB66FA6BBB6E1344163393F9BD
:102318000030002B2FD0FA6BBB6E1344163393F9A1
:1023280000302C2B0BD0FA6BBB6E1344163393F989
:102338000030303B114A1344002283F8CE20BB6E94
:102348000133BB66DFE70D4800F0EEFF03465A1E77
:102358007B6F9A420CBF01230023DBB2002B06D00F
:1023680007F10C0301221946786800F0F9FD7B6F2C
:1023780001337B6755E700BF90E000BF34110020B0
:10238800021200200812002000237B667B6E042BBB
:102398000EDC786800F016FE0346194607F10C02B9
:1023A8007B6E13440A461A707B6E01337B66EDE739
:1023B80007F10C0207F10C031946A0480AF0B0F91E
:1023C800786800F0FFFD034687F82D30002387F872
:1023D8002E3000233B669A4800F0A6FF03461A46B3
:1023E8003B6E9A42CCBF01230023DBB2002B58D0AE
:1023F8003B6EDBB21946924800F04EFFF8630023AB
:10240800FB65FB6D1F2B19DCFA6BFB6D1344433323
:1024180093F90030194607F10C02FB6D13441B7841
:1024280099420AD1FB6D1F2B03D13B6EDBB287F8B3
:102438002E30FB6D0133FB65E3E700BF97F82E30C4
:10244800002B13D0FB6B5B7D87F82D3007F10C0355
:10245800213302221946786800F082FDFB6B1522B1
:102468001946786800F07CFD00BF1AE0744800F057
:102478005BFF03465A1E3B6E9A420CBF01230023A2
:10248800DBB2002B06D007F10C030122194678684D
:1024980000F066FD3B6E01333B669CE700BF00F031
:1024A80040BD00BF00F03DBD786800F06FFD0346F9
:1024B800002B14BF01230023DBB2002B00F033856F
:1024C8000023BB65BB6D222B0EDC786800F07AFD1B
:1024D8000346194607F10C02BB6D13440A461A70ED
:1024E800BB6D0133BB65EDE797F82D301D3B102B15
:1024F80000F2408201A252F823F000BF49250008EB
:1025080007260008A725000851260008CD26000840
:1025180049270008A7270008E32700087D290008A5
:102528001F280008632800089F280008F5280008CD
:10253800512900085F2900086D290008752900083D
:10254800404B1B68002B14D166200AF031F9034672
:102558001A463C4B1A603B4B1C6897F82E301946BC
:10256800374800F099FE03466622194620460AF0CD
:1025780055F900237B657B6D132B00F3FD81314BEF
:102588001A6807F10C017B6D0B441B7859B27B6DFF
:1025980013440A461A707B6D01337B65EBE7294BC0
:1025A8001B68002B14D166200AF002F903461A466C
:1025B800244B1A60234B1C6897F82E301946204884
:1025C80000F06AFE03466622194620460AF026F9FC
:1025D80000233B653B6D092B00F3D081194B1A682A
:1025E80007F10C013B6D0B441B7859B23B6D13444A
:1025F80016330A461A703B6D01333B65EAE7114B07
:102608001B68002B14D166200AF0D2F803461A463C
:102618000C4B1A600B4B1C6897F82E30194608486B
:1026280000F03AFE03466622194620460AF0F6F8FC
:10263800044B1B683A7B5A75A9E100BF08120020B9
:102648003411002028120020A24B1B68002B14D143
:1026580066200AF0ADF803461A469E4B1A609D4B59
:102668001C6897F82E3019469B4800F015FE034663
:102678006622194620460AF0D1F8002387F82D3043
:10268800002387F82E3007F10C0207F10C031946D6
:1026980092480AF045F80023FB64FB6C1F2B00F3FB
:1026A8006F818C4B1A6807F10C01FB6C0B441B788B
:1026B80059B2FB6C134420330A461A70FB6C013381
:1026C800FB64EAE7834B1B68002B14D166200AF0F1
:1026D8006FF803461A467F4B1A607E4B1C6897F8C2
:1026E8002E3019467C4800F0D7FD0346662219466D
:1026F80020460AF093F8002387F82D30002387F846
:102708002E3007F10C0207F10C03194673480AF042
:1027180007F80023BB64BB6C1F2B00F333816D4BA0
:102728001A6807F10C01BB6C0B441B7859B2BB6CDF
:10273800134443330A461A70BB6C0133BB64EAE79F
:10274800674B1B68002B14D118200AF031F8034698
:102758001A46634B1A60624B1C6897F82E3019466C
:102768005D4800F0ABFD03461822194620460AF0E2
:1027780055F800237B647B6C132B00F30581584BC1
:102788001A6807F10C017B6C0B441B7859B27B6CFF
:1027980013440A461A707B6C01337B64EBE7504B99
:1027A8001B68002B14D118200AF002F803461A46B9
:1027B8004B4B1A604A4B1C6897F82E30194646480E
:1027C80000F07CFD03461822194620460AF026F838
:1027D800434B1B683A7B5A75D9E0414B1B68002B69
:1027E80014D1182009F0E4FF03461A463C4B1A603E
:1027F8003B4B1C6897F82E301946374800F05EFDB1
:1028080003461822194620460AF008F8344B1B687C
:102818003A7BDA75BBE0334B1B68002B14D10B20D5
:1028280009F0D7FF03461A462E4B1A602D4B1B683A
:102838000B220021184609F0FCFF2A4B1B680A33BB
:1028480097F82E2052B21A70264B1B6807F10C011C
:102858000922184609F0E2FF99E0234B1B68002B78
:1028680014D10B2009F0A4FF03461A461E4B1A6028
:102878001D4B1C6897F82E301946174800F030FD9C
:1028880003460B221946204609F0C8FF164B1B6861
:102898003A7B5A707BE0144B1B68002B14D10B2039
:1028A80009F086FF03461A460F4B1A600E4B1C6848
:1028B80097F82E301946084800F012FD03460B22FF
:1028C8001946204609F0AAFF074B1B683A7B9A7005
:1028D8005DE000BF281200203411002008120020FB
:1028E8002C1200203412002030120020A64B1B6846
:1028F800002B14D10B2009F05BFF03461A46A24BAC
:102908001A60A14B1C6897F82E3019469F4800F0B2
:10291800E7FC03460B221946204609F07FFF0023F7
:102928003B643B6C072B31DC974B1A6807F10C01B1
:102938003B6C0B4419783B6C134403330A461A70FA
:102948003B6C01333B64ECE707F10C0319469048F4
:102958000AF056F81BE007F10C0319468C480AF0F8
:102968004FF814E03A7B8B4B1A7010E03A7B8A4B95
:102978001A700CE000BFD6E200BFD4E200BFD2E27A
:1029880000BFD0E200BFCEE200BFCCE200BFCAE287
:10299800786800F0FBFA0346002B14BF01230023DC
:1029A800DBB2002B00F0C182786800F00BFB034615
:1029B800153B032B41D801A252F823F0D529000872
:1029C800ED2900082B2A0008052A0008734B1B680C
:1029D800002B34D1662009F0EBFE03461A466F4BF4
:1029E8001A602CE06E4B1B68002B2AD1182009F0C6
:1029F800DFFE03461A466A4B1A6022E0694B1B68E1
:102A0800002B20D10B2009F0E4FE03461A46654B43
:102A18001A60644B1B680B220021184609F009FF55
:102A280011E0594B1B68002B0FD10B2009F0C0FE99
:102A380003461A46544B1A6007E000BF75E200BF10
:102A480073E200BF71E200BF6FE200BF6DE2786819
:102A580000F09CFA0346002B14BF01230023DBB2CD
:102A6800002B00F06482786800F0ACFA0346153B4E
:102A7800032B3BD801A252F823F000BF952A000887
:102A8800AD2A0008DD2A0008C52A0008434B1B6848
:102A9800002B2DD1786800F095FA03461A46424B70
:102AA8001A7025E03E4B1B68002B23D1786800F094
:102AB80089FA03461A463C4B5A701BE0394B1B688F
:102AC800002B19D1786800F07DFA03461A46364B78
:102AD8009A7011E02C4B1B68002B0FD1786800F01E
:102AE80071FA03461A46304BDA7007E000BF1EE25F
:102AF80000BF1CE200BF1AE200BF18E200BF16E2E6
:102B0800294B1B78002B03D0274B00221A700BE0AF
:102B1800224B1B68002B07D0204B1B68184609F076
:102B280045FE1E4B00221A601F4B5B78002B03D01A
:102B38001D4B00225A700BE0194B1B68002B07D065
:102B4800174B1B68184609F031FE154B00221A6016
:102B5800154BDB78002B03D0134B0022DA700BE007
:102B6800094B1B68002B07D0074B1B68184609F058
:102B78001DFE054B00221A600B4B9B78002B15D0CD
:102B8800094B00229A701DE03012002034110020F9
:102B9800381200206412002065120020281200203C
:102BA8002C1200203412002060120020A64B1B6853
:102BB800002B07D0A44B1B68184609F0F7FDA24B61
:102BC80000221A60A14B93F90030002B04D0132285
:102BD80000219E4809F02DFE9D4B93F90030002BF3
:102BE80004D0142200219A4809F023FE994B1B783F
:102BF800022B02D0974B00221A70974B1B78002BA0
:102C080000F09781944B00221A7092E1934B1B7845
:102C1800002B06D0914B1B781946914802F076FCA0
:102C280045E0904B1B68002B41D08E4B1B681B7DE9
:102C3800002B19D18B4B1B68012217921A680026AA
:102C480016465A68002515469A68002414466846B0
:102C58000C335A22194609F0E1FD31462A4623462B
:102C68007F4801F0F5FB1AE07E4B1B687D4A12682D
:102C7800127D17921A68002616465A6800251546CE
:102C88009A680024144668460C335A22194609F0FB
:102C9800C5FD31462A462346714801F0CBFF714BEA
:102CA8001B68184609F082FD6E4B00221A606B4BB8
:102CB8005B78002B06D0694B5B781946684802F0B0
:102CC800F9FC47E0684B1B68002B43D0664B1B6838
:102CD8001B7D002B1AD1644B1B68012203921A68D2
:102CE8004FF0000E96465A68002616469A68002548
:102CF80015466C460C33186859689A6807C47146BB
:102D080032462B46564801F02BFD1BE0564B1B68FC
:102D1800554A1268127D03921A684FF0000E9646C3
:102D28005A68002616469A68002515466C460C33E4
:102D3800186859689A6807C4714632462B4648484D
:102D480002F010F9484B1B68184609F02FFD464B56
:102D580000221A60414BDB78002B06D03F4BDB7812
:102D680019463F4802F078FD4FE0404B1B68002BA6
:102D78004BD03E4B1B681B781946394800F0B0FA17
:102D88000346002B0CBF01230023DBB2002B19D014
:102D9800364B1B68012200921A68002414465A68B0
:102DA800002010461A7A597A09020A439B7A1B04B2
:102DB8001A43002362F3170321460246284801F00C
:102DC800BDFD1AE0294B1B68284A12681278009248
:102DD8001A68002414465A68002010461A7A597A4C
:102DE80009020A439B7A1B041A43002362F3170360
:102DF800214602461A4802F0DFF91C4B1B681846A8
:102E080009F0D4FC194B00221A60144B9B78002B54
:102E180006D0124B9B781946114802F081FD43E019
:102E2800094B1B68002B3FD0074B1B680A3393F9EB
:102E38000030002B1ED1044B196801230C4A0848A6
:102E480001F070FE28E000BF341200203812002084
:102E58004C1200206512002064120020601200202D
:102E680034110020281200202C12002030120020DB
:102E780044D20008344B1C68334B1B680A3393F95F
:102E88000030DBB21946314800F03CFA03461A46D6
:102E980021462E4802F070FA2B4B1B68184609F0A1
:102EA80085FC294B00221A60294B93F90030002B2E
:102EB80008D02749254800F0A7F913220021244803
:102EC80009F0B7FC234B93F90030002B08D02149B7
:102ED8001E4800F0A9F9142200211E4809F0A9FC97
:102EE8001D4B1B78022B08D01B4B1B781946174823
:102EF80000F0AAF9184B00221A70184B1B78002B07
:102F080019D0164B1B781946104800F0ABF9134B33
:102F180000221A700FE000BF0EE000BF0CE000BFF7
:102F28000AE000BF08E000BF06E000BF04E000BF01
:102F380002E000BF00E000BF7B680022DA710023D6
:102F480018468437BD46F0BD3412002034110020E5
:102F5800381200204C120020651200206412002054
:102F680080B584B000AFF860B9601346FB71FB7997
:102F7800BA680721FC2004F0B7FF0A2006F006FC17
:102F8800FB681B7918461037BD4680BD80B483B0F6
:102F980000AF7860094B1A68094B1B689A4214BF46
:102FA80001230023DBB2002B01D0012300E0002322
:102FB80018460C37BD4680BC704700BF6C02002025
:102FC8007002002080B584B000AF78600023FB73E6
:102FD8007868FFF7DBFF0346002B14BF01230023AB
:102FE800DBB2002B16D00E4B1B680E4AD35C5BB2CB
:102FF800FB730B4B1B680133094A1360084B1B68B2
:10300800632BCCBF01230023DBB2002B02D0044B7F
:1030180000221A60FB7B18461037BD4680BD00BFF2
:103028006C0200200802002080B483B000AF7860F2
:103038003960184B1B680133164A1360154B1B681F
:10304800632BCCBF01230023DBB2002B02D0114B32
:1030580000221A600F4B1A680F4B1B689A420CBF6C
:1030680001230023DBB2002B06D00A4B1B68013B6F
:10307800084A1360012307E0064B1B683A68127878
:1030880051B2064AD154002318460C37BD4680BCBD
:10309800704700BF700200206C0200200802002068
:1030A80090B583B000AF7860294A7B681A607B6866
:1030B800002283F8CC207B68002283F8CD207B682F
:1030C800CE3305220021184609F0B3FB7B680122A4
:1030D8001A717B6801225A717B6803229A717B6896
:1030E800073313220021184609F0A3FB7B681A3323
:1030F80014220021184609F09CFB7B680733154908
:103108001A460B4603CB106051607B681A33124A8B
:103118001C46134607CB20606160A2601B88A38110
:103128007B680E4A1A637B68002283F834207B6828
:10313800002283F860207B68002283F88C207B685B
:10314800002283F8B8207B6818460C37BD4690BD2E
:10315800C4D5000858D2000860D2000870D2000810
:1031680080B582B000AF7860064A7B681A60002399
:10317800002B02D0786809F019FB7B6818460837DD
:10318800BD4680BDC4D5000880B582B000AF786068
:103198007868FFF7E5FF786809F008FB7B68184650
:1031A8000837BD4680BD00BF80B483B000AF7860EB
:1031B8007B685B7918460C37BD4680BC704700BFFA
:1031C80080B483B000AF78607B689B7918460C3771
:1031D800BD4680BC704700BF80B483B000AF786044
:1031E8007B68073318460C37BD4680BC704700BF64
:1031F80080B483B000AF78607B681A3318460C3708
:10320800BD4680BC704700BF80B582B000AF786013
:1032180039607B68073313223968184609F0FEFACB
:1032280000BF0837BD4680BD80B582B000AF78606A
:1032380039607B681A3314223968184609F0EEFAA7
:1032480000BF0837BD4680BD80B483B000AF78604A
:103258000B46FB707B68FA785A7100BF0C37BD4685
:1032680080BC704780B483B000AF78600B46FB70B9
:103278007B68FA789A7100BF0C37BD4680BC7047EE
:1032880080B483B000AF78607B681B6B18460C373E
:10329800BD4680BC704700BF80B483B000AF786083
:1032A8000B46FB70FB787A6818339B0013445B6805
:1032B80018460C37BD4680BC704700BF80B483B049
:1032C80000AF78600B46FB70FB787A6822339B006E
:1032D80013449B6818460C37BD4680BC704700BF36
:1032E80080B483B000AF78600B46FB70FB787A68D7
:1032F8002E339B0013445B6818460C37BD4680BCD0
:10330800704700BF80B483B000AF78600B46FB7095
:10331800FB787A680C339B0013449B6818460C377B
:10332800BD4680BC704700BF80B483B000AF7860F2
:103338007B6893F8603018460C37BD4680BC7047F0
:1033480080B483B000AF78607B6893F88C301846FF
:103358000C37BD4680BC704780B483B000AF78603E
:103368007B6893F8B83018460C37BD4680BC704768
:1033780080B483B000AF78607B6893F83430184627
:103388000C37BD4680BC704790B593B000AF7860ED
:103398007B68002283F8CC2000237B8307F1080395
:1033A80000221A601A717868FFF76AFF0146012344
:1033B800A84AA94804F064FB78617B69002B0CBF1C
:1033C80001230023DBB2002B01D00123FAE1002303
:1033D8007A69A249A04804F01DFC0346A7F84630C4
:1033E800B7F84630002B0CBF01230023DBB2002BBB
:1033F80001D00223E6E1B7F846307B8300233B6126
:10340800B7F84630002B00F0D681B7F846307B83FA
:103418007B6893F860303B61662009F0C9F9034680
:1034280019467A683B6918339B0013445960002396
:103438003B643B6C132B0DDC7A683B6918339B00AB
:1034480013445A683B6C134400221A703B6C0133D6
:103458003B64EEE70023FB63FB6B092B0EDC7A6809
:103468003B6918339B0013445A68FB6B13441633AB
:1034780000221A70FB6B0133FB63EDE70023BB638B
:10348800BB6B222B0EDC7A683B6918339B00134414
:103498005A68BB6B1344433300221A70BB6B013369
:1034A800BB63EDE700237B637B6B222B0EDC7A6822
:1034B8003B6918339B0013445A687B6B13442033D1
:1034C80000221A707B6B01337B63EDE7B7F8463057
:1034D8000133A7F8463000233B633B6B132B2CDCEE
:1034E800B7F846203B6B13441A467B69134493F99B
:1034F80000303B2B13D07A683B6918339B00134488
:103508005A68B7F846103B6B0B4419467B690B4465
:1035180093F900103B6B13440A461A7009E03B6BA1
:103528009AB2B7F8463013449BB20133A7F8463035
:1035380003E03B6B01333B63CFE70023FB62FB6A8D
:10354800042B40DCB7F84620FB6A13441A467B6913
:10355800134493F900303B2B0FD0B7F84620FB6A91
:1035680013441A467B69134493F9001007F10802C3
:10357800FB6A13440A461A7021E0FB6A9AB2B7F84C
:10358800463013449BB20133A7F846307A683B694A
:1035980018339B0013445C6807F10803184609F0C8
:1035A80023F90346DBB2237500233B7200237B72A9
:1035B8000023BB720023FB7200233B7303E0FB6A0A
:1035C8000133FB62BBE70023BB62BB6A042B47DC09
:1035D800B7F84620BB6A13441A467B69134493F92B
:1035E80000303B2B0FD0B7F84620BB6A13441A466D
:1035F8007B69134493F9001007F10802BB6A13446E
:103608000A461A7021E0BB6A9AB2B7F846301344EA
:103618009BB20133A7F846307A683B6918339B00A0
:1036280013445C6807F10803184609F0DDF80346FF
:10363800DBB2637500233B7200237B720023BB72ED
:103648000023FB7200233B730AE0BB6A0133BB62B1
:10365800BBE700BF8CD20008081100209CD20008EC
:1036680000237B627B6A092B2DDCB7F846207B6A36
:1036780013441A467B69134493F900303B2B14D04A
:103688007A683B6918339B0013445A68B7F84610A8
:103698007B6A0B4419467B690B4493F900107B6ADB
:1036A800134416330A461A7009E07B6A9AB2B7F8CF
:1036B800463013449BB20133A7F8463003E07B6AD7
:1036C80001337B62CEE700233B623B6A222B2DDC71
:1036D800B7F846203B6A13441A467B69134493F9AA
:1036E80000303B2B14D07A683B6918339B00134495
:1036F8005A68B7F846103B6A0B4419467B690B4475
:1037080093F900103B6A134443330A461A7009E0E0
:103718003B6A9AB2B7F8463013449BB20133A7F814
:10372800463003E03B6A01333B62CEE70023FB618E
:10373800FB69222B2DDCB7F84620FB6913441A4697
:103748007B69134493F900303B2B14D07A683B69AA
:1037580018339B0013445A68B7F84610FB690B44AA
:1037680019467B690B4493F90010FB691344203315
:103778000A461A7009E0FB699AB2B7F84630134452
:103788009BB20133A7F8463003E0FB690133FB61C4
:10379800CEE77B6893F860300133DAB27B6883F850
:1037A80060207B8B7A690949094804F033FA03469B
:1037B800A7F8463024E60121054804F045F87B685F
:1037C80093F8603018464C37BD4690BD9CD200082F
:1037D8000811002080B588B000AF78607B680022AF
:1037E80083F8CC2000237B827868FFF749FD0146E7
:1037F8000123484A484804F043F9F860FB68002B65
:103808000CBF01230023DBB2002B01D001237CE095
:103818000023FA684149404804F0FCF90346FB8359
:10382800FB8B002B0CBF01230023DBB2002B01D044
:1038380002236AE0FB8B7B820023BB60FB8B002B9F
:103848005CD0FB8B7B827B6893F83430BB600A20AA
:1038580008F0BFFF034619467A68BB680C339B0023
:10386800134499600023BB61BB69092B0DDC7A689E
:10387800BB680C339B0013449A68BB69134400224D
:103888001A70BB690133BB61EEE7FB8B0133FB8325
:1038980000237B617B69092B1FDCFA8B7B6913444E
:1038A8001A46FB68134493F900303B2B14D07A680E
:1038B800BB680C339B0013449A687B691344F98BEB
:1038C8007A690A441146FA680A4492F900201A7083
:1038D8007B6901337B61DDE700BF7B6893F8343097
:1038E8000133DAB27B6883F834207B8AFA680B49A3
:1038F800094804F08FF90346FB839FE70121064836
:1039080003F0A2FF7B6893F8343018462037BD4691
:1039180080BD00BFA0D20008081100209CD200087A
:1039280090B58FB000AF78607B68002283F8CC2018
:1039380000237B8307F1080300221A601A71786854
:10394800FFF79EFC01460123A14AA24804F098F81B
:1039580078617B69002B0CBF01230023DBB2002BAD
:1039680001D0012394E100237A699B49994804F026
:1039780051F90346FB86FB8E002B0CBF0123002365
:10398800DBB2002B01D0022382E1FB8E7B83002374
:103998003B61FB8E002B00F07481FB8E7B837B6880
:1039A80093F88C303B61182008F002FF0346194653
:1039B8007A683B6922339B001344996000233B6378
:1039C8003B6B132B0DDC7A683B6922339B00134455
:1039D8009A683B6B134400221A703B6B01333B63BC
:1039E800EEE7FB8E0133FB860023FB62FB6A132B99
:1039F80028DCFA8EFB6A13441A467B69134493F950
:103A080000303B2B12D07A683B6922339B00134469
:103A18009A68F98EFB6A0B4419467B690B4493F943
:103A28000010FB6A13440A461A7007E0FB6A9AB250
:103A3800FB8E13449BB20133FB8603E0FB6A013320
:103A4800FB62D3E70023BB62BB6A042B3CDCFA8E23
:103A5800BB6A13441A467B69134493F900303B2B25
:103A68000ED0FA8EBB6A13441A467B69134493F945
:103A7800001007F10802BB6A13440A461A701FE0D7
:103A8800BB6A9AB2FB8E13449BB20133FB867A68F9
:103A98003B6922339B0013449C6807F108031846CE
:103AA80008F0A2FE0346DBB2237500233B72002315
:103AB8007B720023BB720023FB7200233B7303E07D
:103AC800BB6A0133BB62BFE700237B627B6A042BBE
:103AD8003CDCFA8E7B6A13441A467B69134493F9DB
:103AE80000303B2B0ED0FA8E7B6A13441A467B6952
:103AF800134493F9001007F108027B6A13440A463D
:103B08001A701FE07B6A9AB2FB8E13449BB2013392
:103B1800FB867A683B6922339B0013449C6807F153
:103B28000803184608F060FE0346DBB263750023FD
:103B38003B7200237B720023BB720023FB720023BD
:103B48003B7303E07B6A01337B62BFE700233B6280
:103B58003B6A042B42DCFA8E3B6A13441A467B69A3
:103B6800134493F900303B2B0ED0FA8E3B6A134472
:103B78001A467B69134493F9001007F108023B6A5F
:103B880013440A461A701FE03B6A9AB2FB8E13442C
:103B98009BB20133FB867A683B6922339B0013444E
:103BA8009C6807F10803184608F01EFE0346DBB2BE
:103BB800A37500233B7200237B720023BB72002392
:103BC800FB7200233B7309E03B6A01333B62BFE7AA
:103BD800B0D20008081100209CD200080023FB6125
:103BE800FB69022B3CDCFA8EFB6913441A467B699D
:103BF800134493F900303B2B0ED0FA8EFB69134423
:103C08001A467B69134493F9001007F10802FB690F
:103C180013440A461A701FE0FB699AB2FB8E1344DC
:103C28009BB20133FB867A683B6922339B001344BD
:103C38009C6807F10803184608F0D6FD0346DBB276
:103C4800E37500233B7200237B720023BB720023C1
:103C5800FB7200233B7303E0FB690133FB61BFE7A1
:103C68007B6893F88C300133DAB27B6883F88C2058
:103C78007B8B7A690849094803F0CCFF0346FB8629
:103C880087E60121054803F0DFFD7B6893F88C3057
:103C980018463C37BD4690BD9CD20008081100204C
:103CA80090B593B000AF78607B68002283F8CC2091
:103CB80000237B8307F1080300221A601A717868D1
:103CC800FFF7DEFA01460123BD4ABE4803F0D8FEDD
:103CD80078617B69002B0CBF01230023DBB2002B2A
:103CE80001D001230FE300237A69B749B54803F0EF
:103CF80091FF0346A7F84630B7F84630002B0CBFB3
:103D080001230023DBB2002B01D00223FBE2B7F82A
:103D180046307B8300233B61B7F84630002B00F028
:103D2800EB82B7F846307B837B6893F8B8303B6109
:103D38000B2008F03DFD034619467A683B692E338F
:103D48009B0013445960B7F846300133A7F8463052
:103D580000233B643B6C042B40DCB7F846203B6CEB
:103D680013441A467B69134493F900303B2B0FD058
:103D7800B7F846203B6C13441A467B69134493F901
:103D8800001007F108023B6C13440A461A7021E040
:103D98003B6C9AB2B7F8463013449BB20133A7F88C
:103DA80046307A683B692E339B0013445C6807F100
:103DB8000803184608F018FD0346DBB223700023F9
:103DC8003B7200237B720023BB720023FB7200232B
:103DD8003B7303E03B6C01333B64BBE70023FB63AD
:103DE800FB6B042B40DCB7F84620FB6B13441A46E8
:103DF8007B69134493F900303B2B0FD0B7F846206A
:103E0800FB6B13441A467B69134493F9001007F1BE
:103E18000802FB6B13440A461A7021E0FB6B9AB246
:103E2800B7F8463013449BB20133A7F846307A6896
:103E38003B692E339B0013445C6807F1080318465E
:103E480008F0D2FC0346DBB2637000233B72002308
:103E58007B720023BB720023FB7200233B7303E0D9
:103E6800FB6B0133FB63BBE70023BB63BB6B042B1A
:103E780040DCB7F84620BB6B13441A467B691344F1
:103E880093F900303B2B0FD0B7F84620BB6B134497
:103E98001A467B69134493F9001007F10802BB6BBB
:103EA80013440A461A7021E0BB6B9AB2B7F8463041
:103EB80013449BB20133A7F846307A683B692E3326
:103EC8009B0013445C6807F10803184608F08CFC53
:103ED8000346DBB2E37000233B7200237B720023AE
:103EE800BB720023FB7200233B7303E0BB6B0133FF
:103EF800BB63BBE700237B637B6B042B40DCB7F819
:103F080046207B6B13441A467B69134493F90030AF
:103F18003B2B0FD0B7F846207B6B13441A467B69BE
:103F2800134493F9001007F108027B6B13440A4607
:103F38001A7021E07B6B9AB2B7F8463013449BB2F3
:103F48000133A7F846307A683B692E339B00134447
:103F58005C6807F10803184608F046FC0346DBB224
:103F6800237100233B7200237B720023BB72002362
:103F7800FB7200233B7303E07B6B01337B63BBE77E
:103F880000233B633B6B042B46DCB7F846203B6BB6
:103F980013441A467B69134493F900303B2B15D020
:103FA800B7F846203B6B13441A467B69134493F9D0
:103FB800001007F108023B6B13440A461A7027E009
:103FC800C0D20008081100209CD200083B6B9AB2AE
:103FD800B7F8463013449BB20133A7F846307A68E5
:103FE8003B692E339B0013445C6807F108031846AD
:103FF80008F0FAFB0346DBB2637100233B7200232F
:104008007B720023BB720023FB7200233B7303E027
:104018003B6B01333B63B5E70023FB62FB6A042B70
:1040280040DCB7F84620FB6A13441A467B69134400
:1040380093F900303B2B0FD0B7F84620FB6A1344A6
:104048001A467B69134493F9001007F10802FB6ACA
:1040580013440A461A7021E0FB6A9AB2B7F8463050
:1040680013449BB20133A7F846307A683B692E3374
:104078009B0013445C6807F10803184608F0B4FB7A
:104088000346DBB2A37100233B7200237B7200233B
:10409800BB720023FB7200233B7303E0FB6A01330E
:1040A800FB62BBE70023BB62BB6A042B40DCB7F8AA
:1040B8004620BB6A13441A467B69134493F90030BF
:1040C8003B2B0FD0B7F84620BB6A13441A467B69CE
:1040D800134493F9001007F10802BB6A13440A4617
:1040E8001A7021E0BB6A9AB2B7F8463013449BB203
:1040F8000133A7F846307A683B692E339B00134496
:104108005C6807F10803184608F06EFB0346DBB24B
:10411800E37100233B7200237B720023BB720023F0
:10412800FB7200233B7303E0BB6A0133BB62BBE74E
:1041380000237B627B6A042B40DCB7F846207B6A4D
:1041480013441A467B69134493F900303B2B0FD074
:10415800B7F846207B6A13441A467B69134493F9DF
:10416800001007F108027B6A13440A461A7021E01E
:104178007B6A9AB2B7F8463013449BB20133A7F86A
:1041880046307A683B692E339B0013445C6807F11C
:104198000803184608F028FB0346DBB22372002305
:1041A8003B7200237B720023BB720023FB72002347
:1041B8003B7303E07B6A01337B62BBE700233B620E
:1041C8003B6A042B40DCB7F846203B6A13441A4686
:1041D8007B69134493F900303B2B0FD0B7F8462086
:1041E8003B6A13441A467B69134493F9001007F19C
:1041F80008023B6A13440A461A7021E03B6A9AB2E5
:10420800B7F8463013449BB20133A7F846307A68B2
:104218003B692E339B0013445C6807F1080318467A
:1042280008F0E2FA0346DBB2637200233B72002314
:104238007B720023BB720023FB7200233B7303E0F5
:104248003B6A01333B62BBE70023FB61FB69042B3C
:1042580040DCB7F84620FB6913441A467B691344CF
:1042680093F900303B2B0FD0B7F84620FB69134475
:104278001A467B69134493F9001007F10802FB6999
:1042880013440A461A7021E0FB699AB2B7F846301F
:1042980013449BB20133A7F846307A683B692E3342
:1042A8009B0013445C6807F10803184608F09CFA61
:1042B8000346DBB2A37200233B7200237B72002308
:1042C800BB720023FB7200233B7303E0FB690133DD
:1042D800FB61BBE77B6893F8B8300133DAB27B68DF
:1042E80083F8B8207B8B7A6909490A4803F092FC65
:1042F8000346A7F846300FE50121064803F0A4FA63
:104308007B6893F8B83018464C37BD4690BD00BF5F
:104318009CD200080811002080B586B000AF7860F4
:104328007B68002283F8CC2000237B617B69012B0A
:104338001ADC7868FFF728F803461A467B6883F882
:10434800CC207B6893F8CC30012B14BF01230023C9
:10435800DBB2002B07D14FF4FA7005F017FA7B692E
:1043680001337B61E2E700BF4FF4967005F00EFA67
:1043780000233B613B69012B1ADC7868FFF7D0FA10
:1043880003461A467B6883F8CC207B6893F8CC30C8
:10439800012B14BF01230023DBB2002B07D14FF4FC
:1043A800FA7005F0F3F93B6901333B61E2E700BFBE
:1043B8004FF4967005F0EAF90023FB60FB68012BC7
:1043C8001ADC7868FFF706FA03461A467B6883F812
:1043D800CC207B6893F8CC30012B14BF0123002339
:1043E800DBB2002B07D14FF4FA7005F0CFF9FB6868
:1043F8000133FB60E2E700BF4FF4967005F0C6F9A1
:104408000023BB60BB68012B1ADC7868FFF748FC07
:1044180003461A467B6883F8CC207B6893F8CC3037
:10442800012B14BF01230023DBB2002B07D14FF46B
:10443800FA7005F0ABF9BB680133BB60E2E700BF77
:104448007B6893F8CC3018461837BD4680BD00BF4E
:1044580084B02DE9F041C4B016AF786007F1D400FC
:1044680080E80E007B68002283F8CC200023C7F880
:10447800B430D7F8B430952B0CDC07F10C02D7F820
:10448800B430134400221A70D7F8B4300133C7F897
:10449800B430EEE77B6893F860301C46662008F07D
:1044A80087F9034619467A6804F118039B001344F8
:1044B80059607B6893F860307A6818339B0013441E
:1044C8005B68433323220021184608F0B2F97B6861
:1044D80093F860307A6818339B0013445B68203384
:1044E80023220021184608F0A4F97B6893F860306D
:1044F8007A6818339B0013445B6816330A2200213C
:10450800184608F096F97B6893F860307A68183393
:104518009B0013445B6814220021184608F089F9AF
:104528007B6893F860300133DBB287F8E83000230A
:10453800C7F8B030D7F8B030132B22DC07F1D4021B
:10454800D7F8B030134493F90030002B19D07B68AA
:1045580093F860307A6818339B0013445A6807F15F
:10456800D401D7F8B0300B4493F90010D7F8B03025
:1045780013440A461A70D7F8B0300133C7F8B03080
:10458800D8E77B6893F860307A6818339B00134447
:104598005B6897F8E8201A757B6893F860307A684A
:1045A80018339B0013445B6897F8E9205A75002379
:1045B800C7F8AC30D7F8AC30092B23DC07F1EA0296
:1045C800D7F8AC30134493F90030002B1AD07B682D
:1045D80093F860307A6818339B0013445A6807F1DF
:1045E800EA01D7F8AC300B4493F90010D7F8AC3097
:1045F800134416330A461A70D7F8AC300133C7F89B
:10460800AC30D7E70023C7F8A830D7F8A830222B5A
:1046180023DC07F21712D7F8A830134493F90030B7
:10462800002B1AD07B6893F860307A6818339B00A7
:1046380013445A6807F21711D7F8A8300B4493F9B6
:104648000010D7F8A830134443330A461A70D7F835
:10465800A8300133C7F8A830D7E70023C7F8A4303B
:10466800D7F8A430222B23DC07F1F402D7F8A430C2
:10467800134493F90030002B1AD07B6893F860300C
:104688007A6818339B0013445A6807F1F401D7F885
:10469800A4300B4493F90010D7F8A4301344203306
:1046A8000A461A70D7F8A4300133C7F8A430D7E700
:1046B8007B6893F860300133DAB27B6883F8602056
:1046C80097F83C31002B21D07B6893F86030013B90
:1046D8007A6818339B0013445B681A684FF0000827
:1046E80090465A68002616469A6800251546DA68E4
:1046F80000241446684610335622194608F08EF8EE
:10470800404631462A46234601F010FE97F8E93024
:104718001C467B681B7997F8E820114607F1D402FC
:1047280007F10C000491039307F1D403203302939B
:1047380007F1D4034333019307F1D40316330093ED
:104748002346064908F038F97B6893F8CC301846B8
:10475800B837BD46BDE8F04104B07047D0D2000874
:1047680084B0F0B5AFB004AF786007F1C40080E85A
:104778000E007B68002283F8CC200023C7F8A43001
:10478800D7F8A430952B0CDC07F10802D7F8A43031
:10479800134400221A70D7F8A4300133C7F8A430A4
:1047A800EEE77B6893F88C301C46182008F000F878
:1047B800034619467A6804F122039B001344996062
:1047C8007B6893F88C307A6822339B0013449B688B
:1047D80014220021184608F02CF87B6893F88C30D6
:1047E8000133DBB287F8D8300023C7F8A030D7F8F8
:1047F800A030132B22DC07F1C402D7F8A0301344F1
:1048080093F90030002B19D07B6893F88C307A68C4
:1048180022339B0013449A6807F1C401D7F8A030EB
:104828000B4493F90010D7F8A03013440A461A70C5
:10483800D7F8A0300133C7F8A030D8E77B6893F8E1
:104848008C307A6822339B0013449B6897F8D820F1
:104858001A757B6893F88C307A6822339B0013446E
:104868009B6897F8D9205A757B6893F88C307A68DA
:1048780022339B0013449B6897F8DA209A757B686B
:1048880093F88C307A6822339B0013449B6897F81E
:10489800DB20DA757B6893F88C300133DAB27B68F9
:1048A80083F88C2097F8DC30002B20D07B6893F8B5
:1048B8008C30013B7A6822339B0013449B681A684A
:1048C8004FF0000E96465A68002616469A6800254C
:1048D8001546DA68002414466A4610331868596881
:1048E80003C2704631462A46234601F0BDFD97F8BB
:1048F800D8301E4697F8D930194697F8DA301C4652
:104908007B681B7997F8DB20154607F1C40207F18D
:10491800080003950293019400913346064908F074
:104928004BF87B6893F8CC301846AC37BD46BDE8E9
:10493800F04004B0704700BF20D30008F0B5BBB00A
:104948000AAFF86107F1100080E80E00FB69002249
:1049580083F8CC200023C7F8BC30D7F8BC30952B9F
:104968000CDC07F12402D7F8BC30134400221A707B
:10497800D7F8BC300133C7F8BC30EEE73B7C5C1E8F
:104988000B2007F015FF03461946FA6904F12E03B8
:104998009B00134459603B7C013BFA692E339B0012
:1049A80013445B68033308220021184607F041FFCF
:1049B8003B7C013BFA692E339B0013445B683A7CCD
:1049C8001A703B7C013BFA692E339B0013445B68E9
:1049D8007A7C5A703B7C013BFA692E339B00134466
:1049E8005B6800229A703B7C013BFA692E339B007E
:1049F80013445B68FA7CDA703B7C013BFA692E331E
:104A08009B0013445B683A7D1A713B7C013BFA6951
:104A18002E339B0013445B687A7D5A713B7C013BC3
:104A2800FA692E339B0013445B68BA7D9A713B7C0C
:104A3800013BFA692E339B0013445B68FA7DDA71F7
:104A48003B7C013BFA692E339B0013445B683A7E3A
:104A58001A723B7C013BFA692E339B0013445B6856
:104A68007A7E5A723B7C013BFA692E339B001344D1
:104A78005B68BA7E9A72FB6993F8B8300133DAB290
:104A8800FB6983F8B82097F8D830002B18D03B7C06
:104A9800013BFA692E339B0013445B681A68104681
:104AA8005A6814461A7A597A09020A439B7A1B04EF
:104AB8001A43002362F3170321461A4601F02EFD1C
:104AC8003B7C9E46FB691B799C467B7CFB60FA7CA1
:104AD800397D787D0446B87D0546F87D0646387EE2
:104AE800B860787E7860B87E034607F124000893A2
:104AF8007B680793BB680693059604950394029117
:104B08000192FB68009363467246054907F054FF1B
:104B1800FB6993F8CC301846C437BD46F0BD00BFDA
:104B280064D3000890B5AFB002AFF860B9607A609E
:104B3800FB70FB68002283F8CC200023C7F8AC3058
:104B4800D7F8AC30952B0CDC07F11002D7F8AC3055
:104B5800134400221A70D7F8AC300133C7F8AC30D0
:104B6800EEE7FB6893F834301C460A2007F031FE64
:104B780003461946FA6804F10C039B001344996034
:104B8800FB6893F83430FA680C339B0013449B6835
:104B98000A220021184607F04CFE0023C7F8A83067
:104BA800D7F8A830092B17DCFB6893F83430FA687B
:104BB8000C339B0013449A68D7F8A8301344D7F8ED
:104BC800A820B9680A4492F900201A70D7F8A830CA
:104BD8000133C7F8A830E3E7FB6893F834300133B2
:104BE800DAB2FB6883F83420FB78002B0FD0FB681F
:104BF80093F834301846FB6893F83430013BFA6870
:104C08000C339B0013449B68194601F0CBFCFB68EE
:104C18001B7907F1100000937B68BA68044907F014
:104C2800CBFEFB6893F8CC301846B437BD4690BD30
:104C3800C8D3000884B02DE9F041C4B016AF78603D
:104C480007F1D40080E80E007B68002283F8CC20AE
:104C58000023C7F8B430D7F8B430952B0CDC07F133
:104C68000C02D7F8B430134400221A70D7F8B430C5
:104C78000133C7F8B430EEE797F83C31013B87F8C9
:104C88003C310023C7F8B030D7F8B030132B21DC03
:104C980007F1D402D7F8B030134493F90030002B51
:104CA80018D097F83C317A6818339B0013445A6837
:104CB80007F1D401D7F8B0300B4493F90010D7F8B6
:104CC800B03013440A461A70D7F8B0300133C7F829
:104CD800B030D9E797F83C317A6818339B00134411
:104CE8005B6897F83C210132D2B21A7597F83C31CB
:104CF8007A6818339B0013445B6897F8E9205A7563
:104D08000023C7F8AC30D7F8AC30092B22DC07F108
:104D1800EA02D7F8AC30134493F90030002B19D0CD
:104D280097F83C317A6818339B0013445A6807F1A6
:104D3800EA01D7F8AC300B4493F90010D7F8AC303F
:104D4800134416330A461A70D7F8AC300133C7F843
:104D5800AC30D8E70023C7F8A830D7F8A830222B02
:104D680022DC07F21712D7F8A830134493F9003061
:104D7800002B19D097F83C317A6818339B001344FC
:104D88005A6807F21711D7F8A8300B4493F90010A6
:104D9800D7F8A830134443330A461A70D7F8A83016
:104DA8000133C7F8A830D8E70023C7F8A430D7F8EC
:104DB800A430222B22DC07F1F402D7F8A4301344E4
:104DC80093F90030002B19D097F83C317A681833E2
:104DD8009B0013445A6807F1F401D7F8A4300B4438
:104DE80093F90010D7F8A430134420330A461A70F8
:104DF800D7F8A4300133C7F8A430D8E797F83C3186
:104E08007A6818339B0013445B681A684FF00008EF
:104E180090465A68002616469A6800251546DA68AC
:104E280000241446684610335622194607F0F6FC4B
:104E3800404631462A46234601F078FA97F8E93089
:104E48001C467B681B79194697F83C3107F1D40258
:104E580007F10C000493039107F1D4032033029364
:104E680007F1D4034333019307F1D40316330093B6
:104E78002346104907F0A0FD7868FEF701FA0146BD
:104E880007F10C0200230C4802F0FAFD0346002B40
:104E98000CBF01230023DBB2002B01D0012302E069
:104EA8007B6893F8CC301846B837BD46BDE8F0416A
:104EB80004B07047F4D300080811002080B5ACB0E6
:104EC80002AF78600B46FB701346BB707B6800220C
:104ED80083F8CC200023C7F8A430D7F8A430952B4A
:104EE8000CDC07F10C02D7F8A430134400221A7026
:104EF800D7F8A4300133C7F8A430EEE7FB787A6816
:104F080022339B0013449B68BA789A75FB785A1C25
:104F1800B9787B681B7907F10C0000930B460F49A1
:104F280007F04AFD7868FEF7ABF9014607F10C0275
:104F380000230B4802F0A4FD0346002B0CBF0123FD
:104F48000023DBB2002B01D0012302E07B6893F839
:104F5800CC301846A837BD4680BD00BF44D40008F1
:104F68000811002084B0F0B5AFB004AF786007F145
:104F7800C40080E80E007B68002283F8CC20002360
:104F8800C7F8A430D7F8A430952B0CDC07F1080239
:104F9800D7F8A430134400221A70D7F8A43001338C
:104FA800C7F8A430EEE797F8DC30013B87F8DC302F
:104FB8000023C7F8A030D7F8A030132B21DC07F165
:104FC800C402D7F8A030134493F90030002B18D04E
:104FD80097F8DC307A6822339B0013449A6807F10B
:104FE800C401D7F8A0300B4493F90010D7F8A030CB
:104FF80013440A461A70D7F8A0300133C7F8A03016
:10500800D9E797F8DC307A6822339B0013449B6811
:1050180097F8DC200132D2B21A7597F8DC307A683A
:1050280022339B0013449B6897F8D9205A7597F848
:10503800DC307A6822339B0013449B6897F8DA20A7
:105048009A7597F8DC307A6822339B0013449B6882
:1050580097F8DB20DA7597F8DC307A6822339B0002
:1050680013449B681A684FF0000E96465A6800264B
:1050780016469A6800251546DA68002414466A46DA
:1050880010331868596803C2704631462A462346C9
:1050980001F0EAF997F8D8301E4697F8D930194642
:1050A80097F8DA301C467B681B7997F8DB201546A1
:1050B80007F1C40207F108000395029301940091D7
:1050C8003346104907F078FC7868FEF7D9F80146AE
:1050D80007F1080200230C4802F0D2FC0346002B1B
:1050E8000CBF01230023DBB2002B01D0012302E017
:1050F8007B6893F8CC301846AC37BD46BDE8F04025
:1051080004B070476CD400080811002080B5ACB01A
:1051180002AF78600B46FB701346BB707B680022B9
:1051280083F8CC200023C7F8A430D7F8A430952BF7
:105138000CDC07F10C02D7F8A430134400221A70D3
:10514800D7F8A4300133C7F8A430EEE7FB78013B69
:10515800FB70FB787A682E339B0013445B68BA783F
:105168009A70FB785A1CB9787B681B7907F10C0098
:1051780000930B460E4907F01FFC7868FEF780F88D
:10518800014607F10C0200230A4802F079FC0346A5
:10519800002B0CBF01230023DBB2002B01D001231D
:1051A80002E07B6893F8CC301846A837BD4680BD2E
:1051B800B0D4000808110020F0B5BBB00AAFF86100
:1051C80007F1100080E80E00FB69002283F8CC206C
:1051D8000023C7F8BC30D7F8BC30952B0CDC07F19E
:1051E8002402D7F8BC30134400221A70D7F8BC3018
:1051F8000133C7F8BC30EEE797F8D830013B87F8A1
:10520800D83097F8D830FA692E339B0013445B687E
:105218003A7C1A7097F8D830FA692E339B001344F9
:105228005B687A7C5A7097F8D830FA692E339B00FD
:1052380013445B68FA7CDA7097F8D830FA692E3331
:105248009B0013445B683A7D1A7197F8D830FA6965
:105258002E339B0013445B687A7D5A7197F8D830D7
:10526800FA692E339B0013445B68BA7D9A7197F8EC
:10527800D830FA692E339B0013445B68FA7DDA71E3
:1052880097F8D830FA692E339B0013445B683A7E4E
:105298001A7297F8D830FA692E339B0013445B686A
:1052A8007A7E5A7297F8D830FA692E339B001344E5
:1052B8005B68BA7E9A7297F8D830FA692E339B00E9
:1052C80013445B681A6810465A6814461A7A597A61
:1052D80009020A439B7A1B041A43002362F317034B
:1052E80021461A4601F01AF93B7C9E46FB691B7958
:1052F8009C467B7CFB60FA7C397D787D0446B87DD2
:105308000546F87D0646387EB860787E7860B87EB7
:10531800034607F1240008937B680793BB6806934C
:1053280005960495039402910192FB6800936346E5
:1053380072460F4907F040FBF869FDF7A1FF0146E7
:1053480007F1240200230B4802F09AFB0346002BC6
:105358000CBF01230023DBB2002B01D0012302E0A4
:10536800FB6993F8CC301846C437BD46F0BD00BF82
:10537800D8D400080811002080B5B0B002AFF8609A
:10538800B9607A60FB68002283F8CC200023C7F854
:10539800B4300023C7F8B030D7F8B030952B0CDC08
:1053A80007F11002D7F8B030134400221A70D7F86A
:1053B800B0300133C7F8B030EEE70023C7F8B43097
:1053C800FB6893F834301A46D7F8B4309A4245DD72
:1053D8000023C7F8AC30FA68D7F8B4300C339B0018
:1053E80013449A68D7F8AC30134493F90030002B73
:1053F80028D0FA68D7F8B4300C339B0013449A6865
:10540800D7F8AC30134493F90020D7F8AC3079685A
:105418000B4493F900309A4213D1D7F8AC300133DA
:105428007A68134493F90030002B04D1FB680922F1
:1054380083F8CC2006E0D7F8AC300133C7F8AC309D
:10544800C9E700BFFB6893F8CC30092B05D0D7F823
:10545800B4300133C7F8B430B2E700BFFB6893F843
:10546800CC30092B46D1FB68002283F8CC200023DE
:10547800C7F8A830D7F8A830092B16DCFA68D7F88F
:10548800B4300C339B0013449A68D7F8A8301344FF
:10549800D7F8A820B9680A4492F900201A70D7F8FA
:1054A800A8300133C7F8A830E4E7D7F8B43001339F
:1054B800B968184601F076F8FB681B7907F1100007
:1054C80000937B68BA680F4907F076FAF868FDF729
:1054D800D7FE014607F1100200230B4802F0D0FA6C
:1054E8000346002B0CBF01230023DBB2002B01D0A5
:1054F800012302E0FB6893F8CC301846B837BD4664
:1055080080BD00BF3CD50008081100202DE9F041FE
:10551800C0B016AF78600B46FB707B68002283F83A
:10552800CC200023C7F8A430D7F8A430952B0CDC86
:1055380007F10802D7F8A430134400221A70D7F8EC
:10554800A4300133C7F8A430EEE77B6893F86030E5
:10555800012B6FD9FB78013B7A6818339B00134401
:105568005B68184607F052F9FB78184601F040F8D6
:10557800FB78013BC7F8A0307B6893F860305A1E6F
:10558800D7F8A0309A424ADDD7F8A03001337A68BC
:1055980018339B0013445A687968D7F8A030183339
:1055A8009B000B445A607A68D7F8A03018339B00E8
:1055B80013445B681B7D184601F01AF87A68D7F81F
:1055C800A03018339B0013445B681A7D013AD2B2AD
:1055D8001A757A68D7F8A03018339B0013445B68B3
:1055E8001A684FF0000890465A68002616469A68CE
:1055F80000251546DA6800241446684610335622FA
:10560800194607F00BF9404631462A46234600F072
:105618008DFED7F8A0300133C7F8A030ACE77B681F
:1056280093F86030013B7A6818339B0013440022DA
:105638005A600FE07B6893F86030012B0AD17B68D1
:105648005B6E184607F0E2F8012000F0D1FF7B6896
:1056580000225A667B6893F86030013BDAB27B68B7
:1056680083F86020FA7807F108031049184607F014
:10567800A3F97868FDF704FE014607F10802002344
:105688000B4802F0FDF90346002B0CBF0123002351
:10569800DBB2002B01D0012302E07B6893F8CC3009
:1056A8001846A837BD46BDE8F08100BF68D5000898
:1056B80008110020F0B5ADB002AF78600B46FB7062
:1056C8007B68002283F8CC200023C7F8A430D7F8E1
:1056D800A430952B0CDC07F10802D7F8A43013444A
:1056E80000221A70D7F8A4300133C7F8A430EEE7C7
:1056F8007B6893F88C30012B6ED9FB78013B7A6874
:1057080022339B0013449B68184607F07FF8FB7808
:10571800184600F08BFFFB78013BC7F8A0307B6888
:1057280093F88C305A1ED7F8A0309A4249DDD7F842
:10573800A03001337A6822339B0013449A68796851
:10574800D7F8A03022339B000B449A607A68D7F8C8
:10575800A03022339B0013449B681B7D184600F041
:1057680065FF7A68D7F8A03022339B0013449B6802
:105778001A7D013AD2B21A757A68D7F8A030223366
:105788009B0013449B681A684FF0000E96465A68AF
:10579800002616469A6800251546DA68002414463D
:1057A8006A4610331868596803C2704631462A465B
:1057B800234600F059FED7F8A0300133C7F8A030CF
:1057C800ADE77B6893F88C30013B7A6822339B0005
:1057D800134400229A6011E07B6893F88C30012B07
:1057E8000CD17B68D3F89030184607F00FF80120E9
:1057F80000F01CFF7B680022C3F890207B6893F8B8
:105808008C30013BDAB27B6883F88C20FA7807F198
:1058180008030F49184607F0CFF87868FDF730FD00
:10582800014607F1080200230A4802F029F9034655
:10583800002B0CBF01230023DBB2002B01D0012376
:1058480002E07B6893F8CC301846AC37BD46F0BD13
:105858007CD500080811002080B5AAB000AF786098
:105868000B46FB707B68002283F8CC200023C7F826
:10587800A430D7F8A430952B0CDC07F10C02D7F82C
:10588800A430134400221A70D7F8A4300133C7F8A3
:10589800A430EEE7FB78013B7A682E339B00134473
:1058A8005B68002B0DD0FB78013B7A682E339B0098
:1058B80013445B68184606F0A9FFFB78184600F009
:1058C800D3FE7B6893F8B830013BDAB27B6883F883
:1058D800B820FA7807F10C030F49184607F06CF85E
:1058E8007868FDF7CDFC014607F10C0200230B4850
:1058F80002F0C6F80346002B0CBF01230023DBB2DD
:10590800002B01D0012302E07B6893F8CC301846C5
:10591800A837BD4680BD00BF90D5000808110020FB
:1059280080B5ACB000AF78600B46FB700023C7F8B9
:10593800A4307B68002283F8CC200023C7F8AC3061
:10594800D7F8AC30952B0CDC07F10C02D7F8AC304B
:10595800134400221A70D7F8AC300133C7F8AC30C2
:10596800EEE7FB78013BFB70FB7819467868FDF79A
:10597800C9FCC7F8A400D7F8A430002B00F0898030
:105988007B68002283F8CC207B6893F83430012BA5
:105998004BD9FB787A680C339B0013449B681846F4
:1059A80006F034FFFB780133184600F07BFEFB78E5
:1059B800C7F8A8307B6893F834305A1ED7F8A83057
:1059C8009A4227DDD7F8A83001337A680C339B0058
:1059D80013449A687968D7F8A8300C339B000B44B5
:1059E8009A60D7F8A8300233184600F05BFED7F863
:1059F800A830581C7A68D7F8A8300C339B00134499
:105A08009B68194600F0CEFDD7F8A8300133C7F8D7
:105A1800A830CFE77B6893F83430013B7A680C33C1
:105A28009B00134400229A600FE07B6893F834309F
:105A3800012B0AD17B689B6B184606F0E7FE012014
:105A480000F030FE7B6800229A637B6893F834305C
:105A5800013BDAB27B6883F8342007F10C03D7F8EE
:105A6800A4200F49184606F0A7FF7868FDF708FC40
:105A7800014607F10C0200230A4802F001F8034628
:105A8800002B0CBF01230023DBB2002B01D0012324
:105A980002E07B6893F8CC301846B037BD4680BD2D
:105AA800A4D500080811002080B500AFFAF75CFF04
:105AB8003420FAF7CBFF40F2FF73184680BD00BFD1
:105AC80090B5D3B018AF002387F8B330002387F818
