:020000040800F2
:1000000000A0002099020008490800084D080008D7
:1000100051080008550800085908000800000000B1
:100020000000000000000000000000005D08000863
:100030006108000800000000650800087507000856
:10004000C5020008C5020008C5020008C502000874
:10005000C5020008C5020008C5020008C502000864
:10006000C5020008C5020008C5020008C502000854
:10007000C5020008C5020008C5020008C502000844
:10008000C5020008C5020008C5020008C502000834
:10009000C5020008C5020008C5020008C502000824
:1000A000C5020008C5020008C5020008C502000814
:1000B000C5020008C5020008C5020008C502000804
:1000C000C5020008C5020008C5020008C5020008F4
:1000D000C5020008C5020008C5020008C5020008E4
:1000E000C5020008C5020008C5020008C5020008D4
:1000F000C5020008C5020008C5020008C5020008C4
:10010000000000000000000000000000C502000820
:10011000C5020008C5020008C5020008C5020008A3
:10012000C5020008C5020008C5020008C502000893
:10013000C5020008C5020008000000000000000021
:10014000C5020008C5020008C50200080000000042
:10015000000000000000000000000000000000009F
:100160000000000000000000C5020008C5020008F1
:10017000C5020008000000000000000000000000B0
:1001800000000000C502000800B583B000F0E4F9EB
:10019000304B314A1360314A1360314B31490022F0
:1001A00001E01A6004338B42FBD32B4B1B6813B95D
:1001B0002A4B1B6803B1FEE7264B2B4A13602B4AE0
:1001C00013602B4B2B4A2C4803E011681960043351
:1001D00004328342F9D3244B1A68284B9A4204D143
:1001E000224B1A681B689A4200D0FEE700F0B8F96B
:1001F00001A8694600F050F9214B224EF61AB610BC
:1002000000241D4603E055F8243098470134A642E7
:10021000F9DC1D4B1D4EF61AB61000241D4603E0F6
:1002200055F8243098470134A642F9DC019800992A
:1002300000F0C4FA0546164B164CE41AA4101E46EC
:1002400003E0013C56F824309847002CF9DC28469E
:1002500000F0F4F8BABADECAA80000204401002079
:10026000A80000204801002000000020A400002079
:1002700000000020B0120008A800002078563412B8
:10028000C8020008C8020008C8020008C802000826
:10029000C8020008C802000808B5FFF775FF00BFD4
:1002A000FEE700BFFEE700BFFEE700BFFEE700BFBE
:1002B000FEE700BFFEE700BFFEE700BFFEE700BFAE
:0802C000FEE700BFFEE700BFEE
:1002C8002DE9F84305460E46B0F1904F16D0444B41
:1002D800984213D003F5806398420FD003F58063EA
:1002E80098420BD003F58063984207D003F58063EA
:1002F800984203D03B48B92100F0D2F833681BB9C3
:100308003848BA2100F0CCF83379032B03D93548A3
:10031800BB2100F0C5F8F379022B03D93148BC2181
:1003280000F0BEF8002401274FF00308DFF8B4906E
:1003380051E007FA04F332681A409A424AD13379F5
:10034800013BDBB2012B2BD87379013BDBB2022BCB
:1003580003D94846CC2100F0A3F8AA68630008FA3C
:1003680003F122EA0102AA60AA68717901FA03F38B
:100378001343AB60B379012B03D94846D32100F06E
:100388008FF8AA8892B2A3B207FA03F122EA01020F
:10039800AA80AA88B17901FA03F313439BB2AB8010
:1003A8002A68630008FA03F122EA01022A60296830
:1003B80032799A400A432A60E968A2B2520008FAE0
:1003C80002F221EA0202EA60EA68F17901FA03F32B
:1003D8001343EB6001340F2CABD9BDE8F88300BFA1
:1003E800000400483411000838B504460D460E4B89
:1003F800034003B920B90D4840F25C5100F050F8B1
:10040800012D04D9094840F25D5100F049F825B1A1
:10041800074B5A6914435C6138BD054B5A6922EA97
:1004280004045C6138BD00BFA8FF81CE68110008D4
:1004380000100240FEE700BF08B5034800F056F878
:100448000120FFF7F7FF00BF9811000808B50D4B12
:100458001B6813B90C4A0B4B1A600A4B1B68033014
:1004680020F003001844094A904206D900F03AFAED
:100478000C2303604FF0FF3008BD024A1060184695
:1004880008BD00BFAC00002048010020009C0020EF
:1004980001230360014B0B60704700BF040000207C
:1004A80008B503460A460348194600F005F8FFF761
:1004B800C3FF00BFEC1100080FB400B583B004AB54
:1004C80053F8042B01930848802100F043FA011ED9
:1004D80003DD054800F038F80146084603B05DF82A
:1004E80004EB04B0704700BFB400002010B5044608
:1004F80000F0FEF90146204600F026F802480121E6
:1005080000F022F810BD00BF1812000810B4002433
:100518004FF0604212E0D2F8803E13F0010F04D091
:10052800D2F8003E13F0010F01D1204609E013680C
:10053800002BFCD003781370013401308C42EAD3CD
:1005480008465DF8044B704708B5FFF7DFFF08BDA4
:1005580008B500F05FF808BD08B500F08DF808BDD3
:1005680082B000230193009303F1804303F5043321
:100578001A6842F480321A601A46136803F400338A
:100588000093019B01330193009B1BB9019BB3F5B9
:10059800A06FF2D11D4B1B6813F4003F02D001235A
:1005A800009301E000230093009B012B2CD1122221
:1005B800174B1A60A3F580535A685A605A685A60F4
:1005C8005A6842F480625A605A6822F47C125A606F
:1005D8005A6842F4E8125A601A6842F080721A6047
:1005E8001A46136813F0007FFBD0084B5A6822F0B4
:1005F80003025A605A6842F002025A601A46536867
:1006080003F00C03082BFAD102B070470010024027
:100618000020024008B5144B1A6842F001021A6023
:100628005968124A0A405A601A6822F0847222F401
:1006380080321A601A6822F480221A605A6822F4FA
:10064800FE025A60DA6A22F00F02DA62196B084A6F
:100658000A401A6300229A60FFF782FF4FF0006297
:10066800044B9A6008BD00BF001002400CC07FF820
:10067800CCFC00FF00ED00E01D4B5B6803F00C03B1
:10068800042B06D0082B08D01BBB1A4A1A4B1A6039
:1006980022E01A4A184B1A601EE0154B59685A682E
:1006A800C1F38343023312F4803F05D1144A02FB9D
:1006B80003F3114A13600FE00D4AD26A02F00F02E9
:1006C80001320E49B1FBF2F203FB02F30A4A13604E
:1006D80002E0084A084B1A60054B5B68C3F3031332
:1006E800084AD15CC9B2044B1A68CA401A607047FC
:1006F8000010024000127A001C00002000A24A04E8
:1007080000093D000C00002008B5002000F0A8F802
:10071800012000F0A5F8022000F0A2F8032000F064
:100728009FF8042000F09CF8052000F099F80620B6
:1007380000F096F8072000F093F8012000F0B6F8D2
:10074800002000F0B3F8022000F0B0F8032000F019
:10075800ADF8062000F0AAF8042000F0A7F805205C
:1007680000F0A4F8072000F0A1F808BD034B1B68AF
:100778001BB1024B1A68013A1A6070473401002015
:1007880082B00190019B4FF47A7202FB03F2044B92
:100798001A601A461368002BFCD102B0704700BFDC
:1007A8003401002008B54FF47A7303FB00F0FFF71B
:1007B800E7FF08BD70B5204B47225A60F0211F4A59
:1007C80082F8231000229A6007221A60FFF79CFF24
:1007D800012400260325204600F074F82046FFF780
:1007E800E1FF304600F06EF82046FFF7DBFF2846B1
:1007F80000F068F82046FFF7D5FF042000F062F803
:100808002046FFF7CFFF072000F05CF82046FFF7EF
:10081800C9FF052000F056F82046FFF7C3FF062061
:1008280000F050F82046FFF7BDFF022000F04AF81C
:100838002046FFF7B7FFCEE710E000E000ED00E04C
:10084800704700BFFEE700BFFEE700BFFEE700BF3E
:10085800FEE700BF704700BF704700BF704700BF8A
:1008680010B582B004460E4B53F820000121FFF763
:10087800BBFD0C4B33F81430009301238DF8043082
:1008880000228DF806208DF8073003238DF80530F7
:10089800054B53F824006946FFF712FD02B010BD5E
:1008A800481200086812000820000020034B53F883
:1008B8002030034A32F810201A85704720000020A3
:1008C80068120008054B53F820309A8A92B20449FE
:1008D80031F810104A409A82704700BF200000206B
:1008E80068120008014B1868704700BFA00000207C
:1008F800034613F8012B002AFBD1181A0138704758
:1009080030B5141E9BB0054604DA8B2303604FF004
:10091800FF301CE04FF4027200910491ADF80C20F6
:1009280014BF04F1FF3121464FF6FF720291059181
:10093800ADF80E2069461A461E9B00F077F8431C56
:10094800BCBF8B232B6014B1009B00221A701BB014
:1009580030BD000073B50093054B06460D4614469E
:10096800186831462A462346FFF7CAFF02B070BD11
:10097800A00000202DE9F0478D68AB4281460C4667
:1009880092461F4643D38B8913F4906F3DD0266857
:100998000969C1EB06086669022206EB460696FB62
:1009A800F2F608F101023A44964238BF16465B0552
:1009B8000FD5314600F026FB054698B1216942461D
:1009C80000F0B7FAA38923F4906343F08003A3816E
:1009D80013E0324600F06AFB054670B948462169C3
:1009E80000F0CCFA0C23C9F80030A38943F0400387
:1009F800A3814FF0FF30BDE8F0872561666145446B
:100A0800C8EB06062560A6603D46AF4200D23D46CB
:100A18002A462068514600F095FAA3685B1BA3603C
:100A280023681D4425600020BDE8F0872DE9F043C8
:100A38009DB0074603938B891C060D4616460CD5B8
:100A48000B6953B9402100F0DDFA2860286110B91C
:100A58000C233B60C8E040236B61002309932023EB
:100A68008DF8293030238DF82A3033461C4613F888
:100A7800012B1AB9B4EB06090FD002E0252AF5D1EB
:100A8800F8E73846294632464B46FFF773FF0130F0
:100A980000F0A580099B4B4409932378002B00F0B4
:100AA8009E8000234FF0FF3204930793059206932C
:100AB8008DF853301A9304F101094C464D4E2178B4
:100AC8003046052200F026FA09F10109049B28B1F5
:100AD800861B0120B04003430493EEE7D90644BFC8
:100AE80020228DF853201A0744BF2B228DF853205B
:100AF80022782A2A02D0079B21460EE0039A111D6C
:100B080012680391002A01DB079204E0524243F085
:100B180002030792049301340AE00C46013122785B
:100B2800303A092A03D80A2000FB0323F5E7079384
:100B380023782E2B1AD163782A2B0AD1039B1A1DEE
:100B48001B680392002B04F10204B8BF4FF0FF3377
:100B58000BE0611C00230C4601312278303A092A47
:100B680003D80A2000FB0323F5E70593224E2178DA
:100B78003046032200F0CEF930B1861B049B40209A
:100B8800B04003430493013421781C488DF82810A1
:100B98000622661C00F0BEF988B1194B33B9039BD5
:100BA800073323F007030833039314E003AB0093E0
:100BB800384604A92A46134BAFF3008007E003AB7D
:100BC8000093384604A92A460E4B00F08FF8B0F17E
:100BD800FF3F804603D0099B4344099345E7AB890F
:100BE8005B0601D4099801E04FF0FF301DB0BDE865
:100BF800F08300BF7A1200088012000884120008EF
:100C0800000000007D0900082DE9F84315461F463D
:100C18008A680B69DDF820809A42A8BF13462B60CA
:100C280091F8432006460C460AB101332B6023682D
:100C3800990602D52B6802332B60236813F0060946
:100C48001DD094F843302268003318BF0123920660
:100C58001FD5E1185A1C302081F84300224494F82B
:100C6800451082F84310023313E03046394604F148
:100C780019020123C047013007D009F10109E268D0
:100C88002B68D31A9945F0DBDBE74FF0FF30BDE85E
:100C9800F8833046394604F14302C0470130F4D0A6
:100CA80023682A68E16803F00603042B08BFC2EB37
:100CB80001052369A2680CBF25EAE57500259A425B
:100CC800C4BFC3EB0203ED184FF00009A9450ADAC7
:100CD8003046394604F11A020123C0470130D4D006
:100CE80009F10109F2E70020BDE8F8832DE9FF4783
:100CF8000E7E0C9D6E2E80460C4691469A4601F15A
:100D0800430000F0A58011D8632E22D009D8002E08
:100D180000F0AF80582E40F0BF8081F845607B4AD4
:100D28004FE0642E1ED0692E1CD0B5E0732E00F063
:100D3800A48009D86F2E2BD0702E40F0AD800B68A0
:100D480043F020030B6038E0752E21D0782E34D084
:100D5800A2E02B681A1D1B682A6001F1420781F87E
:100D680042309DE022682B6812F0800F03D01A1DD4
:100D78002A601D6805E05106F9D51A1D2A60B3F9E5
:100D88000050002D39DA2D236D4284F8433034E0C9
:100D980022682B6812F0800F03D01A1D2A601D6884
:100DA80004E05206F9D51A1D2A601D88237E574A89
:100DB8006F2B14BF0A2308231BE07823544A84F8B6
:100DC80045302368296813F0800F01F104062E606E
:100DD80001D00D6802E05F06FBD50D88DE0744BF31
:100DE80043F0200323601DB9236823F02003236008
:100DF8001023002184F8431001E0444A0A2366685E
:100E0800A660002E03DB216821F00401216005B9EA
:100E18006EB104F14201B5FBF3F603FB16550F461C
:100E2800555D01F801593546002EF4D100E007461A
:100E3800082B0AD12368DD0707D5626823699A421F
:100E480003DC302307F8013C013FC01B20612CE084
:100E580009682B68626911F0800F04D0191D296098
:100E68001B681A6005E04906F8D5191D29601B683A
:100E78001A8000232361074617E02B681A1D2A6091
:100E88001F683846FFF734FD63682061984288BFC1
:100E980023612369636005E004F1420784F8426036
:100EA80001232361002384F84330CDF800A0404695
:100EB800214603AA4B46FFF7A7FE013002D14FF0A7
:100EC800FF301FE0404649463A462369D047013083
:100ED800F5D023689B0705D4E068039B9842B8BF08
:100EE80018460FE00025E268039BD31A9D42F3DA07
:100EF8004046494604F119020123D0470130DED0AB
:100F08000135F0E704B0BDE8F08700BF8B12000898
:100F18009C12000810B5C9B202449042034606D09C
:100F28001C788C4200F10100F7D1184610BD002052
:100F380010BD10B50023934203D0CC5CC4540133D8
:100F4800F9E710BD814270B501D300230EE08C187B
:100F5800A042FAD28518134613F1FF3305D3514244
:100F680066182944F65CCE54F6E770BD934203D068
:100F7800CC5CC4540133F9E770BD000030B50029DA
:100F88003CD051F8042C0B1F1D49002AB8BF9B18F0
:100F98000A680C4612B95A600B6030BD93420DD2F4
:100FA80019685818904203D15A5811444268196078
:100FB8005A60236030BD994203D80A465168002917
:100FC800F9D1146815199D420AD11B682344D01819
:100FD8008842136012D10868034413604B680CE020
:100FE80002D90C23036030BD18681C188C4203D149
:100FF8000C684968204418605960536030BD00BFD0
:101008003C01002070B5CD1C25F0030508350C2DDA
:1010180038BF0C25002D06463FDB8D423DD3214BC2
:101028001C6818462146A1B10B685B1B0ED40B2B1C
:1010380003D90B60CC18CD501FE08C4202D16268F6
:1010480002601AE04B6863600C4616E00C4649687B
:10105800E9E7154C23681BB9304600F04DF82060CD
:101068002946304600F048F8431C014615D0C41CF8
:1010780024F0030484420AD1256004F10B00231DE7
:1010880020F00700C31A0BD05A42E25070BD304618
:10109800611A00F031F80130EED10C2333600020E2
:1010A80070BD00BF3C01002038010020F8B506469D
:1010B80014460D4621B91146BDE8F840FFF7A2BF16
:1010C8001AB9FFF75BFF2046F8BD00F025F8A042EB
:1010D8000ED230462146FFF795FF074650B1294604
:1010E8002246FFF726FF30462946FFF747FF01E073
:1010F8002846F8BD3846F8BD38B5064C00230546E5
:1011080008462360FFF7A2F9431C02D1236803B104
:101118002B6038BD4001002051F8040C002802DA89
:1011280004390B5818440438704700002E2E2F73CA
:10113800797374656D2F7372632F73746D333266B0
:10114800332D7374647065726970682F73746D33AE
:1011580032663330785F6770696F2E630000000075
:101168002E2E2F73797374656D2F7372632F7374BA
:101178006D333266332D7374647065726970682FCD
:1011880073746D3332663330785F7263632E630035
:1011980061626F727428292C2065786974696E679A
:1011A8002E2E2E002C2066756E6374696F6E3A20A1
:1011B80000000000617373657274696F6E202225E8
:1011C8007322206661696C65643A2066696C6520E3
:1011D800222573222C206C696E65202564257325D1
:1011E800730A00006173736572745F706172616D78
:1011F8002829206661696C65643A2066696C6520F7
:10120800222573222C206C696E652025640A000053
:101218000A0000006D61696E28617267633D25648C
:101228002C20617267763D5B000000002C200000D6
:1012380022257322000000005D293B0A00000000FF
:101248000000200000002000000020000000200016
:101258000000200000002000000020000000200006
:101268000002000100040080000800400010002077
:101278004300232D302B2000686C4C0065666745C1
:1012880046470030313233343536373839414243F6
:1012980044454600303132333435363738396162A7
:0512A8006364656600AF
:1012B00078563412B000002000000000000000004A
:1012C00000000000010203040607080900A24A0406
:1012D00000100048001000480010004800100048AE
:1012E000001000480010004800100048001000489E
:1012F00000000000000000000000000000000000EE
:1013000000000000000000000000000000000000DD
:10131000781200080000000000000000000000003B
:1013200000000000000000000000000000000000BD
:1013300000000000000000000000000000000000AD
:10134000000000000000000000000000000000009D
:081350004000002032547698A1
:040000050800018965
:00000001FF
