:020000040800F2
:1000000000000220B9020008BD270008BF27000831
:10001000C1270008C3270008C5270008000000000A
:10002000000000000000000000000000C7270008DA
:10003000C927000800000000CB2700083D20000869
:10004000E5030008E5030008E5030008E5030008F0
:10005000E5030008E5030008F1260008E5030008B1
:10006000E5030008E5030008E5030008E5030008D0
:10007000E5030008E5030008E5030008E5030008C0
:10008000E5030008E5030008E5030008E5030008B0
:10009000E5030008E5030008E5030008E5030008A0
:1000A000E5030008E5030008E5030008E503000890
:1000B000E5030008E5030008E5030008E503000880
:1000C000E5030008E5030008E5030008E503000870
:1000D000E5030008E5030008E5030008E503000860
:1000E000E5030008E5030008E5030008E503000850
:1000F000E5030008E5030008E5030008E503000840
:10010000E5030008E50300088D260008E503000864
:10011000E5030008E5030008E5030008E50300081F
:10012000FD210008E5030008E5030008E5030008D9
:10013000E5030008E5030008E5030008E5030008FF
:10014000E5030008E5030008E5030008E5030008EF
:10015000E5030008E5030008E5030008E5030008DF
:10016000E5030008E5030008E5030008E5030008CF
:10017000E5030008E5030008E503000800000000AF
:10018000E5030008E503000800B583B001F09CF822
:10019000384B394A1360394A1360394900E0214627
:1001A000384B99420BD20A684B6801F10C048868FD
:1001B0009842F4D952F8041B43F8041BF8E72E4B7D
:1001C0001A68314B9A4200D0FEE72C4B1A682F4B2D
:1001D0009A42F9D1274B2E4A13602E4A13602E4AB9
:1001E00005E0002043F8040B9A42FAD80A462B4B4C
:1001F0009A4204D2114651F8083B5268F4E7244B66
:100200001B6813B9234B1B6803B1FEE701F068F8C4
:10021000694601A800F066FE214C224BE41AA410A6
:10022000002504E01F4B53F8253098470135AC42B8
:10023000F8DC1D4C1D4BE41AA410002504E01B4BF8
:1002400053F8253098470135AC42F8DC0099019805
:1002500002F0E0F80546164C164BE41AA41004E030
:10026000013C144B53F824309847002CF8DC284606
:1002700000F0D4FDBABADECA000000200405002058
:10028000E8030008000400087856341232547698C7
:1002900008050020401D002000040008100400088C
:1002A00010040008100400082804000810040008C6
:1002B0002C0400082804000808B5FFF765FF00BEFD
:1002C000FEE71EF0040F0CBFEFF30880EFF3098088
:1002D0007146414A10472DE9F04182B004468846F4
:1002E000124B5E6B9F6B9D6A1B6B13F0020F03D06A
:1002F0000E4BDB6A002B0CDB0D4800F087FFCDF8BE
:1003000000803B4632462946204600F0EDFF00BE05
:10031000FEE74BF6AB6101F061F80028ECD0034B2F
:100320004FF00042DA6202B0BDE8F08100ED00E07B
:10033000E448020800BEFEE71EF0040F0CBFEFF316
:100340000880EFF309807146244A10472DE9F041F7
:1003500082B004468846084B5E6B9F6B9D6A0748D7
:1003600000F054FFCDF800803B4632462946204637
:1003700000F0BAFF00BEFEE700ED00E0F44802081E
:100380001EF0040F0CBFEFF30880EFF309807146F5
:10039000134A10472DE9F04182B004468846084BC5
:1003A0005E6B9F6B9D6A074800F030FFCDF80080C0
:1003B0003B4632462946204600F096FF00BEFEE747
:1003C00000ED00E00049020800BEFEE700BEFEE7C7
:1003D00000BEFEE770470000D70200084D0300088A
:0803E0009503000800BEFEE7D2
:1003E800108D02080000002008050020108D02086A
:1003F800000000100000001008050020441D002027
:100408000000001000000010A127000829A400081F
:10041800A51101085D35010845590108357C010819
:04042800AF270008F2
:10043000C378FBB1154BDB68DB43C3F30222C2F187
:100440000401C9B20F23134142788A40D2B28178A5
:100450000B4013431B01DBB202780D490A4482F8BA
:100460000033037803F01F005B090122824041F84A
:1004700023207047037803F01F015B0901228A40A3
:100480002033034941F82320704700BF00ED00E00E
:1004900000E100E010B4426822F0407222F4807261
:1004A0000C790B6843EA04231343436083680B4AC7
:1004B0001A400B69CC6823438C6823434C7943EA88
:1004C000440313438360C36A23F470030A7D013A33
:1004D000D2B243EA0253C36210BC7047FDF7FFC0BB
:1004E00010B407494B68074A1A400368446823431D
:1004F00084682343C068034313434B6010BC7047B8
:1005000000230140E030FCFF21B1836843F0010388
:1005100083607047836823F001038360704770B481
:1005200009291CD9C568A1F10A0404EB4404072673
:10053000A64025EA060503FA04F42C43C460062A03
:1005400019D8436B013A02EB82021F24944023EA3C
:10055000040301FA02F21A43426370BC7047056952
:1005600001EB41040726A64025EA060503FA04F438
:1005700025430561E3E70C2A0CD8036B073A02EB2D
:1005800082021F24944023EA040301FA02F21A4370
:100590000263E2E7C36A0D3A02EB82021F24944031
:1005A00023EA040391400B43C362D6E7836843F018
:1005B00080438360704721B1836843F48073836014
:1005C0007047836823F480738360704721B1836828
:1005D00043F4007383607047836823F4007383607F
:1005E0007047000010B40368134A1A400B68CC68C7
:1005F00023434C6923438C692343CC6923430C6A0E
:1006000023434C6A23438C6A23434C6B23438C6BF8
:10061000234313430360426922F00702CB6A0C6B49
:100620002343134343610B6943604B6883608B68CA
:10063000C36010BC704700BF3F801CF021B103684D
:1006400043F0010303607047036823F00103036074
:10065000704711F0800F04D062B1436943F080030A
:100660004361802911D052B1036801F01E01194382
:1006700001607047436923F080034361F1E7036839
:1006800001F01E0123EA01010160704710B4144B10
:10069000984217D8134C21F0F02323F0C3139BB1D9
:1006A000CA0A02F01E0302681A4011F0005F0FD060
:1006B000636823F0F02323F0821319420AD062B951
:1006C000002008E0084CE6E7426902F08002ECE70F
:1006D0002368EEE7002010BC70470120FBE700BF55
:1006E0000F64024000600240006402400A4B9842DE
:1006F0000AD8A3F20F4311F0005F07D021F0F021D8
:1007000021F08211D9607047044BF4E721F0F02109
:1007100021F08211996070470F640240006402402A
:100720008379002B35D010B41F4B1A68016822EA78
:1007300001021A605A68016822EA01025A600279CD
:1007400002F1804202F59E32116804682143116073
:100750009A68016822EA01029A60DA68016822EA6E
:100760000102DA604379102B09D003F1804303F5CD
:100770009E331A6801680A431A6010BC70470A4B1E
:100780009A6801680A439A60DA6801680A43DA6085
:10079000F3E7037903F1804303F59E331A68016898
:1007A00022EA01021A607047003C0140034B5B697A
:1007B000034201D00120704700207047003C0140F7
:1007C000014B5861704700BF003C014000230F2BD4
:1007D00040D8F0B425E084682240826082684C7979
:1007E000AC402243826044689FB20126BE4024EAA6
:1007F0000604446044688A79BA4092B22243426057
:10080000C2689CB266000324B44022EA0402C260BB
:10081000C268CC7904FA05F51543C56001330F2B86
:1008200016D801229A400C68A243F7D104685D00F3
:100830000322AA40D2431440046004680E79AE40FB
:10084000344304600C79013CE4B2012CD8D8C2E7EF
:10085000F0BC70477047018370474183704730B4E4
:1008600001F007039B009A40C908083150F8214065
:100870000F2505FA03F324EA030440F8214050F859
:100880002130134340F8213030BC7047024B002226
:100890001A701870704700BF0238024021B1054A33
:1008A000136B034313637047024A136B23EA00037D
:1008B000136370470038024021B1054A136C0343AB
:1008C00013647047024A136C23EA000313647047F1
:1008D0000038024021B1054A536C0343536470470A
:1008E000024A536C23EA0003536470470038024005
:1008F0004309012B0CD0022B0DD0094B5B6F00F08C
:100900001F0023FA00F010F0010F07D001207047FC
:10091000034B1B68F3E7024B1B6FF0E700207047A7
:100920000038024000B583B0002301933120FFF767
:10093000DFFF019B01330193019BB3F5A04F01D071
:100940000028F3D03120FFF7D3FF18B1012003B006
:100950005DF804FB0020FAE730B401F003039B00CC
:100960000F2404FA03F58908074A023152F821409E
:1009700024EA050442F8214052F8214098402043DF
:1009800042F8210030BC70470038014030B4048C7C
:10099000A4B224F00104A4B20484058BADB2048C8B
:1009A000A4B225F0F3051B019BB21A43154324F0B2
:1009B0000A040C4344F001040583048430BC7047EE
:1009C00030B4048CA4B224F01004A4B20484058BC7
:1009D000048CA4B2090189B225F440752D052D0DB2
:1009E0001B039BB22B43120292B21A4324F0A004C1
:1009F0000C4344F010040283048430BC70470000B0
:100A000003889BB21B4A904212D002F5806290424A
:100A10000ED0B0F1804F0BD0A2F58032904207D0BB
:100A200002F58062904203D002F58062904203D1C9
:100A300023F070034A8813430F4A904208D002F50E
:100A40008062904204D023F440739BB20A8913431E
:100A500003804B68C3620B880385064B984203D022
:100A600003F58063984201D18B7A03860123838248
:100A7000704700BF00000140001000404162704715
:100A8000406A704721B1038843F001030380704737
:100A900003889BB223F001039BB2038070470000E0
:100AA00030B4038C9BB223F001039BB20384038C0C
:100AB0009BB28588ADB2028B92B222F073020C8891
:100AC000224323F002038C891C434B8823430E4CA2
:100AD000A04203D004F58064A0420DD123F00803A6
:100AE000CC89234323F004038C88234325F44075E9
:100AF0000C8A25434C8A2543858002838A68426399
:100B0000038430BC704700BF0000014030B4038C48
:100B10009BB223F010039BB20384038C9BB28588A5
:100B2000ADB2048BA4B224F4E6440A88120292B255
:100B3000144323F020038A89120192B21A434B888E
:100B40001B019BB21343124A904203D002F580620C
:100B5000904215D123F08003CA89120192B2134347
:100B600023F040028B881B019BB2134325F44065A0
:100B70000A8A920092B215434A8A920092B21543B1
:100B8000858004838A688263038430BC704700BF19
:100B90000000014030B4038C9BB223F480739BB2FD
:100BA0000384038C9BB28588ADB2848BA4B224F0FD
:100BB00073040A88144323F400738A89120292B2E0
:100BC0001A434B881B029BB21343124A904203D034
:100BD00002F58062904215D123F40063CA891202A3
:100BE00092B2134323F480628B881B029BB213439F
:100BF00025F440550A8A120192B215434A8A12011D
:100C000092B21543858084838A68C263038430BCB2
:100C1000704700BF0000014030B4038C9BB223F446
:100C200080539BB20384038C9BB28588ADB2828BC8
:100C300092B222F4E6440A88120292B2224323F4CA
:100C400000538C892403A4B21C434B881B039BB222
:100C500023430A4CA04203D004F58064A04205D18E
:100C600025F480450C8AA401A4B2254385808283A3
:100C70008A680264038430BC704700BF00000140F2
:100C80004163704781637047C16370470164704777
:100C9000038B9BB223F00803194301837047038B36
:100CA0009BB223F40063090289B20B4303837047AC
:100CB000838B9BB223F00803194381837047838B96
:100CC0009BB223F40063090289B20B43838370470C
:100CD0001AB18389194381817047838923EA01010D
:100CE00081817047028A83890B40114202D01BB96F
:100CF000002070470020704701207047C94389B227
:100D00000182704703899BB223F07003194301816C
:100D1000704738B504460D461146602D0BD00122B0
:100D2000FFF734FE29462046FFF7ECFF238943F006
:100D30000703238138BD0122FFF742FEF2E70000DE
:100D400008B5024800F07CFA00F002F89C4702085F
:100D500008B5034800F074FA012000F05FF800BF06
:100D6000B047020808B503460C4A12685AB10B4A4C
:100D70001068033323F003030344094A934206D85F
:100D8000064A136008BD054A06491160EFE71BF0EB
:100D900065FC0C2303604FF0FF30F3E70C050020E7
:100DA00000FC0120441D002030B5132400252046FE
:100DB0002946ABBE0446204630BD38B504461BF07C
:100DC0004DFC0546FFF7F0FF2860204638BDB0F126
:100DD000FF3F00D0704708B5FFF7EFFF08BD0000E8
:100DE00010B504460B4B186808B1836B5BB1132C2C
:100DF0000CD8094B53F83430B3F1FF3F08D0064804
:100E000000EBC40010BD1BF05BFDF0E70020F9E72C
:100E10000020F7E7CC0200209C05002000B530B987
:100E2000044D182420462946ABBE0446FEE7024D79
:100E3000F7E700BF26000200230002002DE9F04181
:100E400084B0234F019703260396002302930124C5
:100E500001AD20462946ABBE80461E4BC3F800803C
:100E6000019703960423029320462946ABBE804691
:100E7000194BC3F80080019703960823029320467C
:100E80002946ABBE0446154B1C60B4F1FF3F01D0B0
:100E900000230AE0104B1A68104B1A60F8E7104A5A
:100EA0004FF0FF3142F833100133132BF7DD0C4BB9
:100EB000084A12681A6000225A6007490968996056
:100EC000DA600649096819615A6104B0BDE8F08129
:100ED000C4470208940500209805002090050020D2
:100EE0009C050020F0B583B007460E46294B0093C1
:100EF0004F23019315256C4628462146ABBE054677
:100F0000B5BBAC46234B002283F84F20009A2C46F9
:100F10002846294607E001321C461F4B43F8212092
:100F200001310120013292F90030FBB160B91B4D53
:100F30005D57002DF6DB092BF4D0082916DC222B97
:100F4000E9D0272BE9D1E6E734B19C42EAD100236E
:100F5000137064466046E5E7104D5D57002D01DBD8
:100F6000092BDFD1002313702046DBE739B900E0FD
:100F70000021084B00221A70074A13600131064B0A
:100F8000002243F8212039603360FFF757FF03B098
:100F9000F0BD00BF1805002068050020697E02082A
:100FA00030B585B0019002910392062401AD204630
:100FB0002946ABBE04462046FFF709FF05B030BD09
:100FC00070B50E461546FFF70BFF68B104462A467A
:100FD00031460068FFF7E4FFB0F1FF3F03D0281A65
:100FE00063680344636070BD1BF038FB0923036032
:100FF0004FF0FF30F7E7F0B583B00C461546FFF72A
:10100000EFFEC0B10646022D1CD8012D21D0022DC5
:1010100033D03368009301940A256F462846394639
:10102000ABBE05462846FFF7D2FE002835DB7460CC
:10103000204603B0F0BD1BF011FB092303604FF005
:10104000FF30F6E71BF00AFB162303604FF0FF307A
:10105000EFE74368E418DCD51BF000FB16230360C0
:101060007368002B01DD002C02DC4FF0FF30E0E75D
:101070001BF0F4FA8B230360F7E7036800930C2559
:101080006F4628463946ABBE05462846FFF79FFE09
:10109000B0F1FF3FCDD00444BBE74FF0FF30C8E7CD
:1010A00008B5FFF7A8FF08BD30B585B001900291E3
:1010B0000392052401AD20462946ABBE04462046D6
:1010C000FFF785FE05B030BD70B50E461446FFF73C
:1010D00087FE70B10546224631460068FFF7E4FFFF
:1010E000021E11DBA01A6B6803446B60944207D0A8
:1010F00070BD1BF0B3FA092303604FF0FF30F7E730
:101100000020FFF75AFEF3E74FF0FF30F0E730B56D
:1011100083B00190022401AD20462946ABBE0446AF
:101120002046FFF754FE03B030BD000038B504463A
:10113000FFF756FE90B10546013C012C04D80D4B3B
:101140009A681B699A4210D02868FFF7E0FF0346AF
:1011500010B94FF0FF322A60184638BD1BF07EFAF6
:10116000092303604FF0FF33F6E74FF0FF330360CE
:101170000023F1E79C05002070B50C46FFF730FE18
:10118000A8B10646636843F4005363604FF480637C
:1011900063640C2528463146ABBE05462846FFF75A
:1011A00016FEB0F1FF3F01D02061002070BD1BF0A2
:1011B00055FA092303604FF0FF30F7E738B50546CD
:1011C0000C465822002120461CF0A0F82146284653
:1011D000FFF7D2FF38BD38B5FFF702FE80B10546F4
:1011E000092420462946ABBE04462046012C06D0E1
:1011F0001BF034FA0446FFF7D7FD2060002038BD0D
:101200001BF02CFA092303600020F8E70FB400B5A7
:1012100083B004AB53F8042B0193802107481EF0E0
:1012200051FC002804DC03B05DF804EB04B0704707
:101230000146024800F044F8F5E700BF3C060020F4
:1012400010B504461DF016FA0146204600F038F8A5
:101250000121024800F034F810BD00BF9049020897
:101260002DE9F04385B004460F46435633BB0425B1
:1012700028462146ABBE0446384605B0BDE8F0839B
:1012800004AA1344002203F8102C4FF00408E94686
:1012900040464946ABBE8046761B002EECD0354614
:1012A000102E28BF10250023AB42E9D214F9011BF0
:1012B00004AA1A4402F8101C0133F5E70E46ECE7C5
:1012C00008B5FFF7CDFF08BD08B500F069F9024A7F
:1012D000024B9A6008BD00BF0000000800ED00E06E
:1012E00008B500F07FF908BDF8B504460D4617466D
:1012F0001E462748FFF78AFF21682648FFF786FF2A
:1013000061682548FFF782FFA1682448FFF77EFF48
:10131000E1682348FFF77AFF21692248FFF776FF4B
:1013200061692148FFF772FFA1692048FFF76EFF4E
:10133000E1691F48FFF76AFF1E48FFF767FF29466C
:101340001D48FFF763FF1D4CE16A1D48FFF75EFF74
:10135000216B1C48FFF75AFFE16B1B48FFF756FF54
:1013600015F0800F0AD115F4004F0CD11748FFF784
:101370004DFF06991648FFF749FFF8BD3946154855
:10138000FFF744FFEFE731461348FFF73FFFEDE774
:10139000C8470208D8470208E8470208F847020889
:1013A0000848020818480208284802083848020875
:1013B00048480208584802086448020800ED00E066
:1013C000744802088448020894480208C448020885
:1013D000CC480208A4480208B448020838B583691A
:1013E0001B888B4201D0002038BD04460368456845
:1013F000013B302B69D8DFE803F046211C1C5E302E
:10140000332D19196819191919193619246819274A
:10141000683968686868686868686868686868687B
:101420006868686868686868681919004FF0FF3371
:101430000360A3690233A3610120D5E700230360A1
:10144000F7E700230360F4E700232B606B60AB60D9
:10145000EB60EEE700230360EBE7AB680360E8E7CF
:1014600000230360E5E700230360E2E7BFF34F8F4B
:101470001749CA6802F4E062164B1343CB60BFF30E
:101480004F8F00BFFDE7144928681CF082F940B96E
:101490006B6813B901232360CBE7042B05D0082B1D
:1014A00006D04FF0FF332360C3E702232360C0E779
:1014B00003232360BDE72B68023B012B02D9AB68F5
:1014C0000360B6E700230360B3E700208CE700BFAA
:1014D00000ED00E00400FA05C447020882B00023D2
:1014E000019300932A4A136843F480331360284B16
:1014F0001B6803F400330093019B01330193009BAD
:101500001BB9019BB3F5A04FF1D1214B1B6813F41C
:10151000003F06D001230093009B012B04D002B0B2
:10152000704700230093F7E7194B1A6C42F0805282
:101530001A6418490A6842F440420A609A689A603C
:101540009A6842F400429A609A6842F4A0529A6003
:10155000114A5A601A6842F080721A600C4B1B687C
:1015600013F0007FFAD00D4B40F205621A60A3F52C
:1015700080639A6822F003029A609A6842F002023D
:101580009A60034B9B6803F00C03082BF9D1C6E764
:10159000003802400070004008544007003C024000
:1015A00008B50D4B1A6842F001021A6000219960DB
:1015B0001A6822F0847222F480321A60074A5A6054
:1015C0001A6822F480221A60D960FFF787FF044B63
:1015D0004FF000629A6008BD0038024010300024CD
:1015E00000ED00E0224B9B6803F00C03042B15D0A8
:1015F000082B17D01BB11F4B1F4A1A6002E01D4B6E
:101600001D4A1A601A4B9B68C3F303131B4AD35C31
:10161000DAB218490B68D3400B607047154B184A73
:101620001A60EFE7124B5A685B6803F03F0312F44D
:10163000800F13D0124AB2FBF3F20D4B5B68C3F379
:10164000881303FB02F30A4A5268C2F301420132D3
:101650005200B3FBF2F3074A1360D3E7064AB2FB2A
:10166000F3F2034B5B68C3F3881303FB02F3EAE76F
:1016700000380240180000200024F4000800002078
:1016800000127A0000B583B03E23009303238DF847
:10169000053001218DF8041000238DF80630082054
:1016A000FFF7FCF869460348FFF790F803B05DF8D0
:1016B00004FB00BF000C024008B520B9102104480B
:1016C000FFF7CBF808BD10210148FFF7C4F8F9E790
:1016D000000C024008B520B920210448FFF7BDF8EE
:1016E00008BD20210148FFF7B6F8F9E7000C0240D9
:1016F00008B520B908210448FFF7AFF808BD082154
:101700000148FFF7A8F8F9E7000C024008B520B936
:1017100004210448FFF7A1F808BD04210148FFF7A0
:101720009AF8F9E7000C024008B520B902210448F4
:10173000FFF793F808BD02210148FFF78CF8F9E79D
:10174000000C024038B505460C460020FFF7B4FFF8
:1017500024B90020FFF7CCFF002411E00120FFF79F
:10176000C7FFF9E705F08000FFF7D0FF6D00EDB28D
:101770000020FFF7D9FF0120FFF7D6FF0134E4B2C4
:10178000072CEFD90120FFF797FF38BD38B5203877
:10179000C5B20024052C0BD805EB45035A00054BB8
:1017A00013440121185DFFF7CDFF0134E4B2F1E7E6
:1017B00038BD00BF1C00002010B5044694F900009D
:1017C00020B1C0B2FFF7E2FF0134F7E710BD38B532
:1017D000002501E00135EDB2052D09D80024532C78
:1017E000F8D801210020FFF7ADFF0134E4B2F6E79D
:1017F00038BD10B500EB40004300DCB241F04000C2
:101800000021FFF79FFF002144F08000FFF79AFFBF
:1018100010BD08B5FFF736FF0020FFF75BFF012082
:10182000FFF766FF0120FFF771FF0120FFF77CFF44
:101830000120FFF741FF0A2000F0F6FB0120FFF72F
:1018400049FF00212120FFF77DFF0021BB20FFF78A
:1018500079FF00211420FFF775FF00210620FFF714
:1018600071FF00212020FFF76DFFFFF7B0FF00217F
:101870000C20FFF767FF08BD704710B5044600F065
:10188000A5FF204610BD0000024A026081710022BF
:1018900082807047184902080079704770B5054684
:1018A0000C1E40F381808480FF2C09D04FF42F76EA
:1018B000AB79013B032B22D8DFE803F006223E5A26
:1018C000002484802646F3E720461AF0B9FA4B49F3
:1018D0001AF0BEFB0446C6F57A701AF0B1FA21463A
:1018E0001AF002FB044630461AF0AAFA21461AF012
:1018F000F3F91AF0BFFC81B24148FFF7C1F970BD9E
:1019000020461AF09DFA3D491AF0A2FB0446C6F59E
:101910007A701AF095FA21461AF0E6FA0446304633
:101920001AF08EFA21461AF0D7F91AF0A3FC81B208
:101930003348FFF7A7F9E2E720461AF081FA2F496A
:101940001AF086FB0446C6F57A701AF079FA214639
:101950001AF0CAFA044630461AF072FA21461AF012
:10196000BBF91AF087FC81B22548FFF78DF9C6E76D
:1019700020461AF065FA21491AF06AFB0446C6F5BA
:101980007A701AF05DFA21461AF0AEFA0446304633
:101990001AF056FA21461AF09FF91AF06BFC81B240
:1019A0001748FFF773F9AAE720461AF005FE1AF068
:1019B00047FA12491AF04CFB12491AF095FA1AF03C
:1019C00059FC81B2C1F52F7189B2AC80AB79013B72
:1019D000032B94D8DFE803F002060A0E0848FFF74D
:1019E0004FF98CE70648FFF74DF988E70448FFF701
:1019F0004BF984E70248FFF749F980E70000C84245
:101A00000008004000002F4470B58AB00446012150
:101A10000820FEF743FF64B9012C10D8022C14D81B
:101A2000032C18D8631E032B1ED8DFE803F01A56C8
:101A30005A5E02220C214648FEF711FFECE7022213
:101A40000D214348FEF70BFFE8E702220E21404834
:101A5000FEF705FFE4E702220F213D48FEF7FFFEF7
:101A6000E0E74FF48053089300258DF826508DF859
:101A7000275002268DF8246003238DF8253008A90D
:101A80003348FEF7A3FE01210420FEF715FF54237F
:101A9000ADF81430ADF8165040F2E7330693ADF8C8
:101AA0001C508DF81E502B4D05A92846FEF7A8FFA7
:101AB00001212846FEF7E6FF7023ADF80030012330
:101AC000ADF80230ADF80C609CB9012C1CD8022C8A
:101AD00026D8032C30D80AB070BD4FF44053089379
:101AE000C2E74FF4E0430893BEE74FF47043089316
:101AF000BAE70023029369462846FEF7D1FF082182
:101B00002846FFF7C5F8E0E700230293114D694628
:101B10002846FEF7FBFF08212846FFF7C0F8D6E766
:101B2000002302930B4D69462846FFF733F808213E
:101B30002846FFF7BDF8CCE700230293054C694621
:101B40002046FFF769F808212046FFF7B8F8C2E7FA
:101B5000000C02400008004070B514461D4618B144
:101B6000012800F0828070BD0529FCD8DFE801F073
:101B700003131C35255905211046FFF78FFE1E2142
:101B80002846FFF78BFE142000F04EFA0A21284663
:101B9000FFF784FEE7E7FF211046FFF77FFE0521F0
:101BA0002846FFF77BFEDEE7FF211046FFF776FEB3
:101BB00005212846FFF772FED5E7FF211046FFF703
:101BC0006DFE64212846FFF769FE322000F02CFAF2
:101BD00028212846FFF762FEC5E71046FFF75CFEA6
:101BE00006460E2804D92846FFF756FE552808D980
:101BF0000A212046FFF752FE28212846FFF74EFE15
:101C0000B1E7B1B20F3909B22046FFF747FE2846C7
:101C1000FFF742FE81B20F3109B22846FFF73EFEC0
:101C2000A1E71046FFF738FE0646222804D92846C9
:101C3000FFF732FE412808D91E212046FFF72EFE6D
:101C400064212846FFF72AFE8DE7B1B2233909B295
:101C50002046FFF723FE2846FFF71EFE81B2233100
:101C600009B22846FFF71AFE7DE705293FF67BAF4C
:101C7000DFE801F003131C35255905212846FFF73D
:101C80000DFE1E212046FFF709FE142000F0CCF9BE
:101C90000A212046FFF702FE65E7FF212846FFF7ED
:101CA000FDFD05212046FFF7F9FD5CE7FF212846F1
:101CB000FFF7F4FD05212046FFF7F0FD53E7FF2174
:101CC0002846FFF7EBFD64212046FFF7E7FD3220B1
:101CD00000F0AAF928212046FFF7E0FD43E7284657
:101CE000FFF7DAFD06460E2804D92046FFF7D4FD9B
:101CF000552808D90A212846FFF7D0FD282120467B
:101D0000FFF7CCFD2FE7B1B20F3909B22846FFF734
:101D1000C5FD2046FFF7C0FD81B20F3109B2204654
:101D2000FFF7BCFD1FE72846FFF7B6FD0646222851
:101D300004D92046FFF7B0FD412808D91E212846C6
:101D4000FFF7ACFD64212046FFF7A8FD0BE7B1B219
:101D5000233909B22846FFF7A1FD2046FFF79CFD75
:101D600081B2233109B22046FFF798FDFBE641F22C
:101D7000707303FB00F00023834201D20133FBE7C1
:101D80007047704710B5044600F020FD204610BD96
:101D900070B404460E4605460B4945F8041B0B4932
:101DA00003C985E80300A681E2812382BDF80C30D7
:101DB0006382049B63619DF814302376069BE36184
:101DC000204670BC704700BF304902082049020815
:101DD00010B582B00446C3691B889BB2ADF80630CB
:101DE000BDF80600A389C01A00B21AF0E5FBE3694A
:101DF000227E33F81200A389C01A1AF0DDFBA388F3
:101E000098422ADBE269217E32F811309BB2A08928
:101E1000834201D9012021E032F81100E389C01A80
:101E20001AF0CAFBE38898421ADBE369227E33F892
:101E30001200238AC01A1AF0BFFB2389984211DBD3
:101E4000E369227E33F81200638AC01A1AF0B4FBE9
:101E50006389984208DB002000E0012002B010BD39
:101E60000220FBE70320F9E70420F7E70000000069
:101E700070B582B00446C3691B889BB2ADF80630CA
:101E8000BDF80600A389C01A00B21AF095FB257EA2
:101E9000022D3CD0032D00F0818015B1002002B04E
:101EA00070BDE26932F815309BB240F6F1018B4209
:101EB00001D90020F3E732F81550ADB2908819F03F
:101EC000E1FB55A3D3E9002319F046FC19F0DEFE2F
:101ED00080B2281A1AF070FB192801DC0020DEE716
:101EE000E369227E33F81240A4B2D88819F0CAFB05
:101EF0004BA3D3E9002319F02FFC19F0C7FE80B2E1
:101F0000201A1AF059FB19287DDC0020C7E7E66982
:101F100036F8150019F0B6FB3FA3D3E9002319F0FA
:101F20001BFC19F0B3FE80B240F62313984201D98E
:101F30000020B4E736F8150019F0A4FB36A3D3E966
:101F4000002319F009FC19F0A1FE80B23388C01AF1
:101F50001AF032FB192801DC0020A0E7E569237E96
:101F600035F8130019F08EFB2BA3D3E9002319F0E9
:101F7000F3FB19F08BFE84B2E88819F083FB28A3E9
:101F8000D3E9002319F0E8FB19F080FE80B2201A93
:101F90001AF012FB192838DC002080E7E66936F8D1
:101FA000150019F06FFB1EA3D3E9002319F0D4FB31
:101FB00019F06CFE85B2B08819F064FB16A3D3E962
:101FC000002319F0C9FB19F061FE80B2281A1AF03B
:101FD000F3FA192801DC002061E7E569237E35F872
:101FE000130019F04FFB0EA3D3E9002319F0B4FB43
:101FF00019F04CFE80B22B88C01A1AF0DDFA1928AD
:1020000005DC00204BE7022049E7022047E70220D9
:1020100045E700BFAFF30080A245B6F3FDD4F03F23
:10202000BC7493180456EE3F034B1860024B1B68B8
:10203000002BFBD1704700BFBC0600200C4B1B6877
:102040001BB10B4A1368013B13600A4B1B6823B199
:10205000084A1368013B13607047074B1B782BB18C
:10206000064B01221A70044B00221A70704700BF01
:10207000BC060020C4060020C0060020C1060020C7
:102080002DE9F0439DB001214FF48000FEF706FCDE
:1020900001210220FEF702FC01210420FEF7FEFBD5
:1020A00001214FF48070FEF715FC01210846FEF770
:1020B00003FC36231A934FF003088DF86C8000243C
:1020C0008DF86F401AA94748FEF780FB4FF00209D0
:1020D000CDF868901AA94448FEF778FB16944FF49F
:1020E000403317931894199416A8FEF7F9F9109431
:1020F00001258DF844508DF845504FF080531293D0
:102100004FF0C0631393149405278DF85470374E25
:1021100010A93046FEF7BEF907232A4609213046AA
:10212000FEF7FDF907234A460B213046FEF7F7F983
:10213000072342460C213046FEF7F1F9072304221B
:102140000E213046FEF7EBF907233A460F213046C1
:10215000FEF7E5F929463046FEF738FA29463046BB
:10216000FEF729FA29463046FEF7CEF90194204BB6
:102170000393204B02930494059706944FF48063D5
:1021800007934FF4006308934FF4005309934FF4FF
:1021900080730A934FF400330B930C940D950E94B7
:1021A0000F94154F01A93846FEF71CFA2A4618214C
:1021B0003846FEF74EFA29463846FEF73FFA3046D3
:1021C000FEF7F4F938238DF800308DF801408DF8D2
:1021D00002408DF803506846FEF72AF91DB0BDE8AD
:1021E000F08300BF000802400004024000200140CC
:1021F000C80600204C2001401064024008B50A497E
:102200000A48FEF743FA28B909490848FEF73EFA9A
:1022100028B908BD04490548FEF768FAF4E70449FF
:102220000248FEF763FAF4E7104000101064024021
:1022300020800010F0B587B001210846FEF72EFB84
:1022400001210846FEF738FB4FF4004304930226B1
:102250008DF8146003238DF8153000248DF8164096
:1022600001258DF81750134F04A93846FEF7AEFA32
:102270002A460F213846FEF7F2FA4FF6FF73029313
:10228000ADF80440ADF80C40ADF8064001A94FF0A0
:102290008040FEF7B5FB0F23324650214FF08040BF
:1022A000FEF737FD29464FF08040FEF7EBFB07B005
:1022B000F0BD00BF00000240F0B587B0012104204E
:1022C000FEF7ECFA01210220FEF7F6FA4023049310
:1022D00002258DF8145003238DF8153000248DF855
:1022E000164001268DF81760114F04A93846FEF7F5
:1022F0006DFA2A4606213846FEF7B1FA4FF6FF730B
:102300000293ADF80440ADF80C40ADF80640094C1E
:1023100001A92046FEF774FB0F232A4650212046D0
:10232000FEF7F7FC31462046FEF7ACFB07B0F0BDE8
:10233000000802400004004030B585B001210820AB
:10234000FEF7BAFA42F20F73ADF8043040F24733A9
:1023500002930024ADF80C40ADF806400E4D01A9E3
:102360002846FEF74DFB012211462846FEF7B0FC39
:1023700001212846FEF786FB32238DF800308DF8C8
:1023800001408DF8024001238DF803306846FEF7C6
:102390004FF805B030BD00BF000C004030B587B02D
:1023A00001210846FEF77AFA01214FF48040FEF73A
:1023B00091FA00248DF814408DF8164001250495FB
:1023C00002238DF8173003238DF8153004A9104827
:1023D000FEF7FCF921462046FEF7BEFA02958DF87D
:1023E0000E508DF80C4010238DF80D3002A8FEF72A
:1023F00097F906238DF804308DF805408DF80640D6
:102400008DF8075001A8FEF713F807B030BD00BFE4
:10241000000002402DE9F043ADB00120FEF736FA8E
:10242000FEF780FA0028FBD08A48FEF7EFFE8A4BC1
:102430001B688A4AA2FB03239B09013BB3F1807FFF
:1024400009D2874A5360874BF02183F82310002379
:102450009360072313600026834B1E700127834B74
:102460001F708348FEF7D2FEFFF70AFEFFF7D1F98F
:10247000FFF7E0FEFFF720FFFFF75EFFFFF78EFF9D
:102480000220FFF7C1FA7B4D039502967A4C019426
:102490004FF4FF63009340F6FC0340F6D40240F68D
:1024A000DE5124A8FFF774FC0395029701944FF4C2
:1024B000EB63009340F6FC0340F6D40240F68861DB
:1024C0001CA8FFF765FC039502230293019440F2D8
:1024D0007673009340F6D40340F6340240F61A6156
:1024E00014A8FFF755FC039503230293019440F6CB
:1024F0005203009340F688134FF40C6240F6EC61EF
:102500000CA8FFF745FC039504230293019440F2C5
:102510002443009340F20A5340F2AA5240F6DE519F
:1025200004A8FFF735FC14A8FFF7A2FC24A8FFF7C6
:102530009FFC0CA8FFF79CFCB14642E0022C51D056
:1025400002284FD0B9F1020F0FD803214B48FFF7F3
:10255000A5F90A214A48FFF7A1F906E0022843D06D
:10256000022D41D0B9F1020F55D9424841888288E5
:102570000388C5880089434C019000952046FEF7EA
:1025800045FE4FF47A70FFF74FFD1CA8FFF720FCC3
:10259000054614A8FFF71CFC064624A8FFF718FC04
:1025A00007460CA8FFF714FC804604A8FFF710FCB0
:1025B0000190CDF800803B46324629462046FEF782
:1025C00025FE314B1B78002BCFD014A8FFF750FC11
:1025D000044624A8FFF74CFC05460CA8FFF748FC6E
:1025E000022DABD0022CB9D0022C01D002281BD076
:1025F000022CBAD00228B8D0022DB6D0B9F1010F02
:1026000020D0B9F1020FB0D11D4B1C4A022101208C
:10261000FFF7A2FAA9E71A4B184A01210020FFF799
:102620009BFA4FF00109A0E7022DE1D0B9F1020FAA
:102630009BD8134B114A01210846FFF78DFA4FF042
:10264000020992E70E4B0D4A02210020FFF784FA9F
:10265000D7E700BF4049020818000020D34D6210A0
:1026600010E000E000ED00E0C1060020C006002000
:1026700058490208C806002000200140D406002066
:10268000DC06002064490208E406002010B50121A0
:102690001348FEF727FB00B910BD01211048FEF7D3
:1026A0002DFB4FF08040FEF7EBF9C0EB001043002C
:1026B0009BB20C4A13800C4C2046FEF7E1F9C0EBAC
:1026C000001043009BB2094A138000214FF0804064
:1026D000FEF7D4F900212046FEF7D0F9DCE700BF71
:1026E000000C0040E606002000040040E806002040
:1026F00008B50120FEF75AF800B908BD4FF47A700A
:10270000FFF735FB05210020FFF773F80A48FFF7B4
:1027100053F841F28830FFF72AFB05210748FFF7FD
:10272000BDF828210648FFF7B9F80120054B1870BD
:10273000FEF746F8E1E700BF38490208D40600205A
:10274000DC060020E406002038B504460D460128CA
:1027500005D01CB94FF6FF739D4210D038BD4FF61F
:10276000FF739942F5D10B4800F042F802210A4864
:10277000FFF78AF801210948FFF786F8E9E70748DB
:10278000FFF77AF80448FFF777F8024800F0BCF842
:10279000E4E700BFEC060020D4060020DC060020A1
:1027A00008B54FF6FF710120FFF7CEFF08BD08B551
:1027B0004FF6FF710020FFF7C7FF08BD7047FEE727
:1027C000FEE7FEE7FEE77047704770471AF0D6BC99
:1027D00010B5041E08BF012420461AF0C7FC30B90A
:1027E00000F09EFF08B9FEF7B3FA8047F4E710BD8A
:1027F0002DE9F843334D2B685A1C07462A60002BFD
:102800005CD1314C314B3248DFF8F080DFF8F0908A
:10281000304E01221A702368996800F0C9FA2368C3
:102820002D48596800F0C4FA23682C48D96800F094
:10283000BFFA2749404600F037FB2749484600F0D9
:10284000F1F82649304600F02FFB2449244800F0D7
:102850002BFB3369C6F8748043F40053336123685B
:1028600020489968C9F8788000F0B2FA23681E48B9
:1028700059681E4EDFF88C8000F0AAFA23681C48C5
:10288000D9681C4C00F0A4FA1649304600F062FBEF
:102890001549404600F010F91549204600F05AFB52
:1028A0001349154800F056FB2369C8F8786043F4D3
:1028B000005323612B68666701332B603846BDE8FF
:1028C000F88300BF580C0020CC02002044020020F6
:1028D0004007002070080020F006002018070020A4
:1028E000FC080020B807002068070020C80B002063
:1028F00090070020A80A0020380B0020880900203B
:10290000E0070020140A00200D4A1368591E022B0C
:1029100010B50446116011D10A4800F0F7FA0A48D0
:1029200000F0F4FA094800F0F1FA094800F044FB1D
:10293000084800F041FB084800F03EFB204610BD6F
:10294000580C00208809002070080020FC08002096
:10295000C80B0020A80A0020380B002010B5064B39
:10296000036014338360002304464360083000F0A2
:1029700037FD204610BD00BFA8490208D0F800C0AE
:10298000ACF10C0CDCF800C06044E7E710B5064B76
:10299000036014338360002304464360083000F072
:1029A00029FD204610BD00BFD8490208D0F800C05C
:1029B000ACF10C0CDCF800C06044E7E710B504464D
:1029C000FFF7CCFF2046FFF701FF204610BDD0F8EF
:1029D00000C0ACF10C0CDCF800C06044EEE710B5B0
:1029E0000446FFF7D3FF2046FFF7F0FE204610BD58
:1029F000D0F800C0ACF10C0CDCF800C06044EEE78D
:102A00000B6810B503600446486853F80C1C60500E
:102A10000021616053F80C0C1146204400F04CFD7D
:102A2000204610BD70B500F10805044628460E4644
:102A300000F012FD054B23601433A36000232846E9
:102A40006360314600F038FD204670BDA849020899
:102A500010B5044681B91368236079B9526853F8F8
:102A60000C3CE250002363608B0703D504F108009F
:102A700000F0B6FC204610BD024BEDE7024A0823E9
:102A8000EFE700BFA8490208BC4902080A46002136
:102A9000FFF7DEBF0B6810B503600446486853F8C3
:102AA0000C1C60500021616053F80C0C114620444E
:102AB00000F061FD204610BD70B500F10805044628
:102AC00028460E4600F024FD054B23601433A36016
:102AD000002328466360314600F04DFD204670BD5E
:102AE000D849020810B5044681B91368236079B942
:102AF000526853F80C3CE250002363608B0703D507
:102B000004F1080000F076FC204610BD024BEDE712
:102B1000024A0823EFE700BFD8490208EC4902083F
:102B20000A460021FFF7DEBF03689B68184782B0A2
:102B300037B506AD85E80C000A9A0B6801920022B1
:102B400000921D69DDE906230446A847204603B02C
:102B5000BDE8304002B0704782B037B506AD85E8B9
:102B60000C000A9A0B680192002200921D69DDE9AF
:102B700006230446A847204603B0BDE8304002B013
:102B80007047000010B5034B0360044600F004FBDF
:102B9000204610BD984A020810B5034B0360044656
:102BA00000F0EEFA204610BD584A020810B504465F
:102BB000FFF7F2FF2046FFF709FE204610BD10B5D3
:102BC0000446FFF7DFFF2046FFF700FE204610BD5A
:102BD00010B50446006A1AF053F9606210BD10B5D2
:102BE0000446006A1AF04CF9216ABDE810401CF056
:102BF000D1BE4A1C10B50446084602D1606A431C87
:102C000002D0216A1CF0C6FE4FF0FF33636210BD94
:102C1000006A19F0EBBD006A19F0E8BD08B50B4673
:102C20005A1C016A04D01846BDE808401AF066BC78
:102C3000084619F0DBFD003018BF0120404208BDF6
:102C4000F8B50D461146069A4FF0FF364FF0FF37A4
:102C500000230446C0E90067C0E902331AB1012A23
:102C60000CBF01220222286A19F02AFF28B9286A1B
:102C700019F0E2FFC117C4E900012046F8BDF8B51C
:102C80000D461146069A4FF0FF364FF0FF370023EE
:102C90000446C0E90067C0E902331AB1012A0CBF3B
:102CA00001220222286A19F00BFF28B9286A19F0BC
:102CB000C3FFC117C4E900012046F8BD10B50446A2
:102CC000006A1AF021F9606210BDF8B505460E469B
:102CD00017460024BC4208D0286A1AF015F9431C94
:102CE00003D046F824000134F4E73CB104F18043FA
:102CF000013B56F823306B622046F8BD4FF0FF339E
:102D0000F9E710B50446006A1AF0FEF8216ABDE83A
:102D100010401CF083BE4A1C10B50446084602D180
:102D2000606A431C02D0216A1CF078FE4FF0FF332A
:102D3000636210BD08B50B465A1C016A04D01846E0
:102D4000BDE808401AF0E2BB084619F04FFD00301C
:102D500018BF0120404208BDF8B505460E4617468B
:102D60000024BC4208D0296A56F824001AF0CEFB91
:102D7000013001D00134F4E72046F8BD10B40C4610
:102D8000036A0121204610BC1AF06CB838B50C4615
:102D9000036A05460121204619F084FE0028CABFB7
:102DA00024184FF0FF3314F8013C6B6238BD00006B
:102DB00038B504460D4600F0D3FA044B23604FF0BB
:102DC000FF3325626362204638BD00BF584A0208BF
:102DD00038B504460D4600F0F1FA044B23604FF07D
:102DE000FF3325626362204638BD00BF984A02085F
:102DF00010B5054B03601433044640F8043F00F05F
:102E0000EFFA204610BD00BF684B0208D0F800C0A2
:102E1000ACF10C0CDCF800C06044E9E710B5054BE0
:102E200003601433044640F8043F00F0E3FA204600
:102E300010BD00BF984B0208D0F800C0ACF10C0CDC
:102E4000DCF800C06044E9E710B50446FFF7D0FFA6
:102E50002046FFF7BBFC204610BDD0F800C0ACF107
:102E60000C0CDCF800C06044EEE710B50446FFF738
:102E7000D5FF2046FFF7AAFC204610BDD0F800C0C1
:102E8000ACF10C0CDCF800C06044EEE70B6810B548
:102E90000446036053F80C0C496821502044114645
:102EA00000F00AFB204610BD70B5051D04462846FB
:102EB0000E4600F0D1FA054B2360143328466360B8
:102EC000314600F0F9FA204670BD00BF684B020899
:102ED00010B5044669B91368236061B9526853F8A4
:102EE0000C3CE2508B0702D5201D00F079FA2046F9
:102EF00010BD024BF0E7024A0423F2E7684B0208D8
:102F00007C4B02080A460021FFF7E2BF036853F832
:102F10000C3C034410B50446986F50B100F004FA1D
:102F2000013006D1236853F80C0C0121204400F035
:102F30008DFA204610BD0B6810B50446036053F8A7
:102F40000C0C496821502044114600F014FB204627
:102F500010BD000070B5051D044628460E4600F061
:102F6000D7FA054B2360143328466360314600F0DE
:102F700002FB204670BD00BF984B020810B5044606
:102F800069B91368236061B9526853F80C3CE25088
:102F90008B0702D5201D00F02DFA204610BD024BF4
:102FA000F0E7024A0423F2E7984B0208AC4B020810
:102FB0000A460021FFF7E2BF036853F80C3C0344C4
:102FC00010B50446D86F50B100F0DCF9013006D1DD
:102FD000236853F80C0C0121204400F093FA20469A
:102FE00010BD00000F4B10B500F124010360002359
:102FF0000446C0E90133C0E90333C0E90533C0E941
:1030000007330A466430C2E9003308329042FAD1ED
:103010000823C4E9193104F16C0001F05BFA204681
:1030200010BD00BF2C4C020870B5846905460E46E1
:1030300034B1D4E901322946304698472468F7E78D
:1030400070BD38B50446806940B1C3685A1EC2607D
:1030500023B90568FFF7BAFB2846F5E70023A3610B
:1030600038BD00000C4B10B5002104460360FFF78B
:10307000DBFF2046FFF7E5FFA06E04F12403984232
:1030800004D008B100F0A0FE0023A36604F16C0098
:1030900001F0AEFA204610BD2C4C020810B50446D3
:1030A000FFF7E0FF2046FFF791FB204610BD704779
:1030B000704730B500224FF0FF344FF0FF35C0E9C4
:1030C0000045C0E9022230BD82B08DE80C004FF00F
:1030D000FF334FF0FF32C0E900230023C0E9023381
:1030E00002B0704700207047002070474FF0FF305B
:1030F0007047036810B55B6A04469847431C1EBFBF
:10310000A36813F8010BA36010BD4FF0FF307047A8
:103110004FF0FF3070477047704730B500224FF0D6
:10312000FF344FF0FF35C0E90045C0E9022230BD51
:1031300082B08DE80C004FF0FF334FF0FF32C0E952
:1031400000230023C0E9023302B07047002070471B
:10315000002070474FF0FF307047036810B55B6A7E
:1031600004469847431C1EBFA36853F8040BA36092
:1031700010BD4FF0FF3070474FF0FF307047000038
:1031800010B5044B044640F81C3B01F031FA2046D0
:1031900010BD00BF3C4C020810B5044B044640F87B
:1031A0001C3B01F025FA204610BD00BF7C4C0208F4
:1031B00010B50446FFF7E4FF2046FFF707FB204663
:1031C00010BD10B50446FFF7E7FF2046FFF7FEFAF3
:1031D000204610BD2DE9F04106460D4690460024DC
:1031E00044451DDAD6E905073B1A0FD0A8EB0407C2
:1031F0009F42A8BF1F463A4629461AF05FF87369F6
:103200003C443D44A0451F447761E9DD336829789B
:103210005B6B30469847013002D001340135DFE75F
:103220002046BDE8F0812DE9F04107460E46904664
:103230000025454520DAD7E90504844212D0241A36
:10324000A410A8EB05039C42A8BF1C4622463146A9
:103250001DF0D5FB7B692544A4002644A8451C44E9
:103260007C61E6DD3B6831685B6B3846984701302E
:1032700002D001350436DCE72846BDE8F0812DE9AF
:10328000F04107460C469046002646451DDAD7E930
:1032900002156B1A0FD0A8EB06059D42A8BF1D466C
:1032A0002A4620461AF00AF8BB682E442C44B04542
:1032B0001D44BD60E9DD3B6838469B6A9847431C66
:1032C00003D004F8010B0136DFE73046BDE8F0819A
:1032D0002DE9F04107460D4690460026464520DA86
:1032E000D7E902148C4212D0641AA410A8EB06038A
:1032F0009C42A8BF1C46224628461DF080FBBB68A6
:103300002644A4002544B0451C44BC60E6DD3B686F
:1033100038469B6A9847431C03D045F8040B013696
:10332000DCE73046BDE8F08103689B691847D0E9C7
:1033300002318B42024602D303689B6A184713F896
:10334000010B93607047D0E902218A4202D30368DF
:103350005B6A18471078704703681B6B18470000BA
:1033600010B5074B036000230446C0E90133C0E9F0
:103370000333C0E905331C3001F0ACF8204610BD22
:103380003C4C020803689B691847D0E902318B4224
:10339000024602D303689B6A184753F8040B9360F4
:1033A0007047D0E902218A4202D303685B6A18475A
:1033B0001068704703681B6B1847000010B5074B77
:1033C000036000230446C0E90133C0E90333C0E9C8
:1033D00005331C3001F07EF8204610BD7C4C0208FD
:1033E00010B5034B03600446FFF73CFE204610BDBA
:1033F000204D020810B5034B03600446FFF732FE70
:10340000204610BD304D020810B50446FFF7E8FF16
:103410002046FFF7DBF9204610BD10B50446FFF744
:10342000E9FF2046FFF7D2F9204610BD08B5836FAB
:103430000BB941F0010103694161194202D0024810
:1034400000F0AFF808BD00BF384D020808B5436969
:103450001943FFF7EBFF08BD10B50446FFF7C2FDA7
:10346000054B236000232367A4F87430C4E91E339E
:10347000C4E92033204610BD204D020838B504466B
:1034800008460D4609F002FA10B1284608F094FFEC
:10349000E067284609F018FA10B1284609F044F808
:1034A000C4F88000284609F02DFA10B1284609F02A
:1034B00059F8C4F8840038BD38B504460D4600F00C
:1034C00085FC04F16C012046FFF7D8FFA567B5FA2B
:1034D00085F500236D092367A4F8743023616561C5
:1034E00038BD000008B5C36F0BB941F00101036995
:1034F0004161194202D0024800F053F808BD00BFF4
:10350000384D020808B543691943FFF7EBFF08BDC2
:1035100010B50446FFF766FD064B23600023C4E99F
:103520001C3384F87830C4E91F33C4E921332046C2
:1035300010BD00BF304D020838B5044608460D46A0
:1035400002F0B0F910B1284602F0DAF8C4F88000B1
:10355000284602F0C5F910B1284602F00DF9C4F86A
:103560008400284602F0DAF910B1284602F022F968
:10357000C4F8880038BD38B504460D4600F026FC76
:1035800004F16C012046FFF7D7FFE567B5FA85F532
:1035900000236D09636784F87830236723616561D0
:1035A00038BD08B5FDF7D4FB08B5FDF7D1FB08B56C
:1035B000FDF7CEFB08B5FDF7CBFB08B5FDF7C8FB63
:1035C0000FB480B582B000AF07F1100454F8045B6B
:1035D00028461BF04FF800F2072323F00703ADEB5A
:1035E000030D00F5007123462A4668467C6000F012
:1035F00055F8FDF7ADFB08B5FDF7AAFB80B59CB00B
:10360000064600AF0C46A41B69220E49381D19F06E
:1036100055FE04F1700323F00703ADEB030D6D4677
:103620006822391D284619F049FE2246314605F127
:1036300068002C4419F042FE002384F868302846C4
:10364000FFF7B8FFA84D02082DE9F04100AF84B0A4
:103650006D4605F10C04DFF8408023464FF00A0C5C
:10366000B2FBFCF60CFB162E092A18F80EE003F844
:1036700001ED0CD8E41A8C420BD8C4F10C0122469F
:10368000294419F01BFE2046BD46BDE8F0813246B4
:10369000E6E74FF0FF34F6E77D78020801392DE9BF
:1036A000F0410746154600EB010804462A7892B31C
:1036B00044452AD2252A07D16A78732A09D07A2A62
:1036C00012D0252A00D1013515F8012B04F8012B61
:1036D000ECE753F8042B013A12F8011FC9B1444535
:1036E00013D004F8011BF7E7AA78752AECD11E461F
:1036F000A8EB040156F8042B2046FFF7A5FF00288D
:1037000003DD044403353346D0E721463846FFF74E
:1037100075FF0235CAE72270E01BBDE8F0810000AA
:10372000024B1868BFF35B8F704700BF5C0C002032
:103730000368DB0706D4437803B1FFDE012343703F
:1037400018467047002070470123036070470B46FE
:103750000146184618F074BF10B5034B03600446C9
:1037600000F0E0FA204610BD504E020810B50446A5
:10377000FFF7F2FF2046182100F017FA204610BD8F
:103780002DE9F74FDDF830904A4504460F461646BE
:10379000984624D0E56804EBC50455B3E3689A075E
:1037A00024D513F0010A4FEA232203D0FB1C1DD0BD
:1037B00033689A58A0680368CDF80090D3F820B019
:1037C000324443463946D84703280FD9BAF1000F8F
:1037D00002D040F00100C0B203B0BDE8F08F19463E
:1037E00000F06AFA0028D5D00620F5E7013D083C34
:1037F000D3E70120F0E7F0B40E1E049C06DB90191D
:10380000844214BF01200620F0BC7047023604D069
:103810000468246AA446F0BC60470120F4E72DE95F
:10382000F04F91B0CDE905231D9C1C9AA3688846F2
:10383000D90644BF8368A3601A9B9342814607D18F
:103840001B9900F039FA18B1059B63710026F5E069
:103850000699484600F030FA8246C0B11A9B2360B0
:10386000B8F1000F059B23710BDB1A9B98441C9B3E
:1038700043450CBF4FF006084FF0010884F806805E
:10388000E4E718F1020FE1D10123A371DEE7B8F1FB
:10389000000FA9BF1C9BCDF81CA0A3EB0803079346
:1038A00000260223CDE9096301230893059B43F019
:1038B00001030B93D9F80CB009EBCB030493BBF1D4
:1038C000000F00F0D58000230D93ADF838308DF84F
:1038D0003A30049BA568DB680F95DA0743BF1A9856
:1038E0000B9A0068059A4FEA232148BF41581A985D
:1038F0000144079838B18842089F2CBF002001205E
:10390000B84200F0B1809B0707D418F1020F02D132
:10391000AF0700F0AB8002F0FD02049B98680DAD8C
:10392000036803951C9D02951B9DCDE9001541463A
:10393000DD69069BA84763799DF839209DF83A50C8
:103940000D991343062D637101D0022D06D19DF808
:10395000383021602371A57182466EE02268A6B9D5
:10396000AAB99DF838202160227121B11BB1D9F884
:103970000830DD07F0D56379042BEDD0049B083BBC
:103980000BF1FF3B0493064699E7002A37D091429A
:1039900006D123799DF83820134323713046EAE796
:1039A00009B90028FAD0032BA77904D9D80729D55B
:1039B000A368990726D57FB9032D05D9EB0741D513
:1039C000D9F808309F073DD51C9B009341461B9BAF
:1039D0000698FFF710FF0746D5B9032F05D9F8075A
:1039E00032D5D9F8083099072ED51C9B00930D9A33
:1039F0001B9B06984146FFF7FEFE054608E000299E
:103A0000D1D1CBE7002F08BF0127002D08BF01252A
:103A100085EA0703DBB2032B18D9032D81BF0D9B69
:103A200023602F469DF8383086BF23710020304632
:103A3000BA07A77101D4FB079DD45646304611B092
:103A4000BDE8F08F0127E3E70125E1E73D40EDB256
:103A50000023032D236004D90223A3714FF0010A30
:103A6000EBE70120A07186E701230993304685E743
:103A7000099B002BE2D00A9BCDF820B0012BDDD0B2
:103A800001230A9316E72DE9F04F89B0074602910A
:103A900092461C4600F077F9054600285AD1D4F822
:103AA0000880D7F80C9018F0100F18BFD7F80880CE
:103AB00008F0010307EBC9064FF0000B0393B9F1BF
:103AC000000F6DD0F268CDF810B002F00103009342
:103AD00002F0020301930199039B8DF814B00B438C
:103AE000CDE9068B03D109F1FF39083EE7E7BAF1CA
:103AF000000F33D0009B121213B1DAF800309A583D
:103B00005244B068029903689D6904ABA847054612
:103B10000028E8D0079B082B03D1009B0BB1B368AA
:103B200007939DF81430032B05D9019A1AB923F095
:103B300002038DF81430E168C1B904AB0FCB84E8FF
:103B40000F002379032B05D99A0709D5BB6813F019
:103B5000010FC8D1284609B0BDE8F08F5246D0E722
:103B6000DB07F7D5BB6813F0020FF2E72368049A6E
:103B7000934204D00023236002232371EAE72BB190
:103B800023799DF8142013432371ACE70798082884
:103B9000F2D00829F0D000F08FF80028F0D1EBE740
:103BA0002579003518BF0125D4E7FEF70FBEFEF7D3
:103BB0000FBE000010B5034B0360044600F0B2F8DE
:103BC000204610BDB04E020810B50446FFF7F2FFC4
:103BD00020460C21FFF7E9FF204610BD2DE9F041FA
:103BE000069E96420746884615461C460AD0B86887
:103BF000036806961E6A2A4623464146B446BDE837
:103C0000F0416047194600F057F80028EFD0062031
:103C1000BDE8F0812DE9F14F0E461946834617465F
:103C20009946DDE90A4ADDE90C8500F045F890B1D6
:103C3000002E2C602F7109DB3444A0450CBF0624F4
:103C40000124AC71002001B0BDE8F08F0236F9D13B
:103C50000123AB71F6E7444506D15146584600F0C2
:103C60002BF808B16F71EDE7DBF808000368CDE9C8
:103C70000C85CDE90A4ADC693A464B463146A446F2
:103C800001B0BDE8F04F60472DE9F04104460D4614
:103C900016461F4600F077F848B9A06803689C698B
:103CA00032463B462946A446BDE8F0416047BDE8A0
:103CB000F081704700207047814208B50ED04068FF
:103CC00003782A2B0CD049680B782A2B08BF0131C6
:103CD00019F05FFDB0FA80F0400908BD0120FCE753
:103CE0000020FAE77FB500241023CDE902340368F1
:103CF000009415469E698DF804406B461268B047E3
:103D00009DF8043003F00603062B03BF009B2B60D5
:103D10000120204604B070BD0098904214BF0120DD
:103D20000620704710B5034B03600446FFF7C1FF40
:103D3000204610BD244F020810B50446FFF7F2FFDD
:103D400020460821FFF731FF204610BD2DE9F04144
:103D50009846DDE90834069E9E420746154607D17F
:103D60000799FFF7A9FF18B165710020BDE8F08140
:103D700041463846FFF7A0FF0028F6D00123266011
:103D80002571A371F1E738B515461C46FFF794FF7E
:103D900020B10823E36006232560237138BD2DE997
:103DA000F04105460C4616461F46FFF785FF48B909
:103DB000032F07D823683246294620465B69BDE8B1
:103DC000F0411847BDE8F081FEF700BD13B50622AB
:103DD0000023C0E9012341F20203C360044601A8A5
:103DE00000F078FB01A904F16C0000F008FC01A8C8
:103DF00000F0FEFB02B010BD10B5074C2378BFF3F6
:103E00005B8FDB0706D42046FFF792FC10B12046FB
:103E1000FFF79AFC014810BD600C0020C41A002076
:103E20002DE9F04FC94A01602E230746836087B011
:103E300011460020013B42F8040BFBD17960C449D4
:103E40002E220846013A41F8043BFBD1C14BF860F1
:103E500006241946013C43F8042BFBD1BE4D3961C1
:103E60000D6000F079FB03882B8022460123214658
:103E7000BA48DFF8E4B3BA4EDFF8E0A3DFF8E09326
:103E8000B84D14F0BDF9B54AB749384600F0D2FB39
:103E90000121B64800F01AFE3846B44AB44900F091
:103EA000C9FBB44AB44B13604FF00108C2F8048058
:103EB000C2E902441474C2E90544C2E90744948487
:103EC00082F86440AB49AD48424612F02BF83846C0
:103ED000AA4AAB4900F0AEFBAA4AAB4BC2F8048039
:103EE00013603846A94900F0A5FBA94AA94B136005
:103EF000C2F804803846A84900F09CFB4146A74818
:103F000012F0ECF83846A54AA54900F093FBA54B02
:103F1000A54A1C82C3E90028C3E902449C74C3E992
:103F20000544C3E90744C3E90944C3E90B445C639E
:103F300083F84340194642469C4811F0FFFE38463C
:103F40009A4A9B4900F076FB9A4A9B48ABF810408E
:103F5000CBE9002859464246CBE902448BF812408F
:103F6000CBE90544CBE90744CBE90944CBE90B4451
:103F7000CBF834408BF8434011F022FF38468E4A8C
:103F80008E4900F057FB8E4A8E49C2F804801160BA
:103F900038468D4900F04EFB8C4A8D49C2F80480AA
:103FA000116038468B4900F045FB8B4A3260314640
:103FB00042468A48C6F80480C6E90244C6E9044479
:103FC000C6E90644C6E90844C6E90A44C6E90C4401
:103FD000C6E90E44C6E91044C6E91244C6E91444D1
:103FE000C6E91644C6E91844C6E91A44C6E91C44A1
:103FF000C6E91E44C6E92044C6E92244C6E9244471
:10400000C6E92644C6E92844C6E92A44C6E92C4440
:10401000C6E92E44C6F8C04086F8C44008F072F8DD
:1040200038466E4A6E4900F005FB6E4A6E49C2F88A
:104030000480116038466D4900F0FCFA6C4A6D4905
:10404000C2F80480116038466B4900F0F3FA41462B
:104050006A4812F021F8694A6949384600F0EAFADC
:104060004146684807F03AFA664A6749384600F020
:10407000E1FA4146654800F039FD3846634A644933
:1040800000F0D8FA634B644AC3F804801A60C3E9AD
:1040900002441C74C3E90544C3E90744C3E9094465
:1040A00083F82441194642465C480DF0DBFB384654
:1040B0005A4A5B4900F0BEFA5A4A5B49C2F804808A
:1040C00011603846594900F0B5FA594A5949C2F8C1
:1040D000048011603846584900F0ACFA4146574810
:1040E0000DF09CFC3846554A554900F0A3FA554A54
:1040F000CAF800205146424653488AF81040CAE99F
:104100000244CAE90544CAE90744CAE90944CAE9BC
:104110000B44CAE90D44CAF83C408AF86C40CAF81E
:1041200004800DF0ADFA3846474A484900F082FA5B
:10413000474AC9F8002049464246464889F8104097
:10414000C9E90244C9E905448CE000BFEC1900202C
:1041500004190020EC180020E0110020EC110020D0
:10416000E80E0020B00F0020541B0020BC190020D6
:10417000DC1A0020580D0020CC5B0208840C0020C3
:10418000E81C0020A41A0020045A0208541C002035
:10419000B41A0020405A0208501C0020D4190020F4
:1041A000DC1C002078100020AC5B0208280D0020E9
:1041B000F81C0020BC5B0208340D0020F41C002019
:1041C000CC0C0020946C0208F01C0020DC0C0020B9
:1041D000AC6C0208EC1C0020705A0208EC0C0020A9
:1041E0004C1C00209C0C0020C46C0208E41C002025
:1041F000AC0C0020705B0208481C0020640C0020FE
:10420000E01C00200C140020581B0020C8190020BE
:10421000E01A0020C00D0020A0530208900C0020DE
:10422000981C0020AC1A0020D85102082C1B00203A
:10423000BC1A002014520208281B0020E01900209C
:104240008C1C002080530208400D0020A81C002078
:10425000905302084C0D0020BC10002000110020DB
:1042600070110020C9E90744C9E90944C9E90B44B0
:10427000C9E90D44C9F83C4089F86C40C9F804808C
:104280000DF040FA3846644A644900F0D3F9644AB4
:104290006449C2F8048011603846634900F0CAF9E5
:1042A000624A6349C2F8048011603846614900F0EF
:1042B000C1F9614A2A60C5E90244C5E90444C5E977
:1042C0000644C5E90844C5E90A44C5E90C44C5E902
:1042D0000E44C5E91044C5E91244C5E91444C5E9D2
:1042E0001644C5E91844C5E91A44C5E91C44C5E9A2
:1042F0001E4442462946C5F804805048C5E920447A
:10430000C5E92244C5E92444C5E92644C5E9284451
:10431000C5E92A44C5E92C44C5E92E44C5F8C04086
:1043200085F8C44001F092F83846444A444900F008
:1043300081F9444A4449C2F804801160384643492F
:1043400000F078F9424A4349C2F8048011603846C7
:10435000414900F06FF9414640480DF03DFB3846B9
:104360003E4A3F4900F066F93E4A3F49C2F80480A0
:10437000116038463D4900F05DF93D4A3D49C2F8BB
:104380000480116038463C4900F054F93B4B3C4AEC
:104390000092CDE9013B3B4BCDF81490694638467D
:1043A000CDE9033A07F0AEF83748FC6800F036F97B
:1043B000334A44F820203548FC6800F02FF92F4B91
:1043C00044F820303248FC6800F028F944F820B066
:1043D0003048FC6800F022F944F820602E48FC6860
:1043E00000F01CF9274B44F820302C48FC6800F002
:1043F00015F944F820A00948FC6800F00FF944F8CA
:1044000020900F48FC6800F009F944F82050384625
:1044100007B0BDE8F08F00BF4C0D0020A41C0020A9
:10442000D40C002038600208A01C0020E40C0020FE
:10443000506002089C1C002044520208000D00201D
:10444000241B0020A40C002068600208941C00209B
:10445000B40C002044530208201B0020740C0020E0
:10446000901C0020BC0C002070700208001D002071
:10447000C40C002044700208FC1C002078100020AE
:10448000580D0020C00D0020E81C0020F81C002062
:10449000F41C00204C1C0020981C0020A81C0020AC
:1044A00010B5054C02212046FFF7BAFC034B1C60F7
:1044B000034B1C6010BD00BF140D0020CC1A00205F
:1044C000D81A0020024B1B680BB9FFF7E9BF7047F1
:1044D000CC1A002038B500230B4D03600446FFF7CB
:1044E000F1FF2B68094A23601268934204D11A68CD
:1044F00001321A60204638BDFFF77EFC2B681A682F
:1045000001321A602360F5E7D81A0020CC1A002087
:1045100070474268511E012A416002D103685B68FE
:10452000184770470B6803601A6801321A607047B9
:1045300000220249024800F065BA00BFD04F0208CD
:10454000D41A002010B5034C22680AB9FFF7F0FF17
:10455000206810BDD41A002000487047D04F0208D0
:1045600038B5436804465BB10025D4E90132AA425C
:1045700006D953F8250008B1FFF7CBFF0135F4E762
:10458000606808B1FFF720FCE3685BB10025D4E95F
:104590000223AA4206D953F8250008B1FFF7B9FF54
:1045A0000135F4E7E06808B1FFF70EFC23691BB999
:1045B000206958B9204638BD00252369585908B1EB
:1045C000FFF702FC0435182DF7D1F1E7FFF7FCFBEC
:1045D000F0E703685A1E012B10B50446026006D1AD
:1045E000FFF7BEFF2046BDE81040FEF7EFB810BD54
:1045F00010B504460068FFF7ECFF204610BD0A68BE
:1046000038B513680D460133044613600068FFF7A0
:10461000E0FF2B682360204638BD0000036823B903
:10462000034A136801331360036000680138704760
:10463000D01A00202DE9F84F04461646002A00F053
:104640009F800846FFF7EAFFA368013B98420546B2
:1046500045D94C4BD4F80480071D9F4294BF4FEAC4
:10466000870B4FF0FF3B5846FFF7A1FAA16882463F
:104670000023994206D100229F420AD94AF82320FA
:104680000133F9E7626852F823204AF82320013306
:10469000EFE75846D4F80C90FFF789FAA168002399
:1046A000994206D100229F420AD940F823200133C3
:1046B000F9E7E26852F8232040F823200133EFE7BE
:1046C000C4E901A7E060B8F1000F02D04046FFF74F
:1046D0007BFBB9F1000F02D04846FFF775FB73680A
:1046E00067680133736057F825300BB326490868B3
:1046F000D0B1FFF793FF85422CD14868D4F80480ED
:10470000FFF78CFF58F8203081466BB1496830467E
:1047100010F012FA436801338246436058F82900CA
:10472000FFF7F7FE48F829A057F82500FFF7F1FE3C
:1047300047F8256000252E46A368AB4220D9E368E0
:1047400053F8250020B1FFF7E4FEE36843F8256045
:104750000135F1E74868FFF761FF85420ED108682F
:10476000D4F80480FFF75AFF58F820308146002B18
:10477000DAD00968304614F09DFCCBE70831B6E783
:10478000BDE8F88FFEFFFF1F484F02082DE9F041FA
:10479000214E3378BFF35B8FDB0707460C46154687
:1047A00006D43046FEF7C4FF10B13046FEF7CCFF0A
:1047B0001A490868F0B1FFF731FFA84248680DD1E7
:1047C000FFF72CFF0346F96851F82520AAB104B37E
:1047D000236820465B68BDE8F0411847FFF71EFFDD
:1047E000A84205D10868FFF719FF2B460546EAE7FE
:1047F0000831DEE74FF0FF33E5E76268501C606088
:10480000581C18BF023241F825401CBF626041F8B5
:104810002340BDE8F08100BFC81A0020484F0208BD
:104820002DE9F7430C46002180460846164618F04D
:104830002BFC814619F01EFF471C3846FFF7B7F9DD
:104840003A464946054618F039FD1649002018F049
:104850001BFC01A940461AF03BFD019B206043452B
:10486000074601D01B786BB100232360042333601B
:104870002946002018F008FC2846FFF7A5FA03B0E7
:10488000BDE8F0834FF0FF4117F0C2FC40B9064984
:10489000384617F0BDFC0028EAD06FF40003E4E7C7
:1048A000024BE2E723500208000080FFFFFF7F7FFA
:1048B0002DE9F7430C46002107460846164618F036
:1048C000E3FB814619F0D6FE00F101084046FFF7F0
:1048D0006EF942464946054618F0F0FC1B49002097
:1048E00018F0D2FB01A938461AF0E6FC019B80467D
:1048F0008946BB42C4E900894FF0000201D01B7811
:1049000073B10023C4E90023042333602946002047
:1049100018F0BAFB2846FFF757FA03B0BDE8F0835A
:104920000B4B17F081F960B900220A4B404649460B
:1049300017F07AF90028E9D04FF0FF326FF48013B6
:10494000E0E74FF0FF32044BDCE700BF23500208E2
:104950000000F07F0000F0FFFFFFEF7F2DE9F8433C
:104960000C46002180460846164618F08DFB81460D
:1049700019F080FE471C3846FFF719F93A464946B8
:10498000054618F09BFC1A49002018F07DFB2246D2
:104990001849404618F08EFE013001280ED800223A
:1049A0000023C4E90023042333602946002018F0C3
:1049B0006BFB2846BDE8F843FFF706BAD4E9008947
:1049C00000220D4B4046494617F02EF960B90022EF
:1049D0000A4B4046494617F027F90028E5D04FF02A
:1049E000FF326FF48013DCE74FF0FF32044BD8E75F
:1049F000235002081F5002080000F07F0000F0FF63
:104A0000FFFFEF7F08B500220B46026004491846FD
:104A100018F0BFFE10B10348FEF7EDFD08BD00BF62
:104A200023500208EE4F0208002303607047009BEA
:104A30001A60039B019A1A6003207047009B0320B1
:104A40001A60704701207047012070470099981A3A
:104A5000884228BF084670470020704710B5064BB3
:104A6000044640F8083BFFF7DFFF044B2360204675
:104A7000FFF74EFD204610BD80500208145B02086F
:104A800010B50446FFF7EAFF2046FDF79FFE2046DB
:104A900010BD000010B5064B044640F8083BFFF778
:104AA000C3FF044B23602046FFF732FD204610BDB4
:104AB000AC500208E852020810B50446FFF7EAFFBE
:104AC0002046FDF783FE204610BD0000003110B5E2
:104AD00018BF0121044B416003600446FFF732FD1B
:104AE000A060204610BD00BF80500208003110B504
:104AF00018BF0121044B416003600446FFF722FD0B
:104B0000A060204610BD00BFAC5002088368586901
:104B100070478368986970478368586B70478368EB
:104B20009B6B0020DAB262F30700C3F3072262F343
:104B30000F20C3F3074262F317401B0E82B063F3EA
:104B40001F6002B070478368DB6B0020DAB262F34B
:104B50000700C3F3072262F30F20C3F3074262F397
:104B600017401B0E82B063F31F6002B0704783686A
:104B7000586970478368986970478368586B7047B5
:104B800083689B6B0020DAB262F30700C3F307224D
:104B900062F30F20C3F3074262F317401B0E82B08B
:104BA00063F31F6002B070478368DB6B0020DAB2EA
:104BB00062F30700C3F3072262F30F20C3F3074237
:104BC00062F317401B0E82B063F31F6002B07047A0
:104BD0008368586A70478368986A704700207047F6
:104BE0000020704770470020914204D251F8043BE6
:104BF00003EB7060F8E7704710B50D4B036090F859
:104C00006C3004467BB1806808B1FFF7DDF8E069DD
:104C100008B1FFF7D9F8606A08B1FFF7D5F8E06A84
:104C200008B1FFF7D1F82046FFF772FC204610BD0F
:104C30008053020810B50D4B036090F86C300446A9
:104C40007BB1806808B1FFF7BFF8E06908B1FFF7F2
:104C5000BBF8606A08B1FFF7B7F8E06A08B1FFF780
:104C6000B3F82046FFF754FC204610BD90530208CD
:104C700010B5034B03600446FFF74AFC204610BD05
:104C80001453020810B5034B03600446FFF740FCC1
:104C9000204610BD2C5302080B4B10B5036090F852
:104CA000243104465BB1806808B1FFF78DF8606974
:104CB00008B1FFF789F8E06908B1FFF785F82046E9
:104CC000FFF726FC204610BDA053020810B5034B89
:104CD00003600446FFF71CFC204610BDD8510208B3
:104CE00010B5034B03600446FFF712FC204610BDCD
:104CF0001452020810B5034B03600446FFF708FC8A
:104D0000204610BD4452020810B5034B0360044610
:104D1000FFF7FEFB204610BD4453020810B5034BBD
:104D200003600446FFF7F4FB204610BD5853020809
:104D300010B50446FFF760FF2046FDF747FD20460B
:104D400010BD10B50446FFF775FF2046FDF73EFD88
:104D5000204610BD10B50446FFF78AFF2046FDF738
:104D600035FD204610BD10B50446FFF78BFF2046E9
:104D7000FDF72CFD204610BD10B50446FFF78CFF53
:104D80002046FDF723FD204610BD10B50446FFF771
:104D90009DFF2046FDF71AFD204610BD10B50446C4
:104DA000FFF79EFF2046FDF711FD204610BD10B510
:104DB0000446FFF79FFF2046FDF708FD204610BD83
:104DC00010B50446FFF7A0FF2046FDF7FFFC204684
:104DD00010BD10B50446FFF7A1FF2046FDF7F6FC15
:104DE000204610BD13B58B6801AA9968044606F0E9
:104DF000CDFA204602B010BD13B58B6801AA9968A0
:104E0000044606F0C3FA204602B010BD13B58B6805
:104E100001AA9968044606F0B9FA204602B010BD0E
:104E200013B58B6801AAD96904460EF039FF2046F4
:104E300002B010BD13B58B6801AA596A04460EF082
:104E40002FFF204602B010BD13B58B6801AAD96AA6
:104E500004460EF025FF204602B010BD13B58B6846
:104E600001AAD96904460EF01BFF204602B010BD0E
:104E700013B58B6801AA596A04460EF011FF20464B
:104E800002B010BD13B58B6801AAD96A04460EF0B2
:104E900007FF204602B010BD13B58B6801AA5969FF
:104EA00004460EF0FDFE204602B010BD13B58B681F
:104EB00001AAD96904460EF0F3FE204602B010BDE7
:104EC00010B5054B044640F8083BFFF7ADFD204602
:104ED000FFF71EFB204610BDCC52020810B5044659
:104EE000FFF7EEFF2046FDF771FC204610BD0000E5
:104EF00010B5054B044640F8083BFFF795FD2046EA
:104F0000FFF706FB204610BD5851020810B50446B5
:104F1000FFF7EEFF2046FDF759FC204610BD0000CC
:104F200038B50D4B036005690446FFF715FB854254
:104F300003D015B12846FEF747FFA06810B10368FB
:104F40005B68984704F10C00FFF76EFD2046FFF701
:104F5000DFFA204638BD00BF5452020810B504469F
:104F6000FFF7DEFF2046FDF731FC204610BD2DE99E
:104F7000F04385B01C46814603AB02A80EF0A6FEA6
:104F800001AB21460C9A03A80EF0A0FE029D039CE3
:104F900055F80C3C54F80C7C05EB830804EB8707B0
:104FA00022462946484615F005FD064678B92846AA
:104FB0001BF0A4FB05EB800520461BF09FFBA845DA
:104FC00004EB80040DD13E1B18BF4FF0FF3603A841
:104FD0000EF000FC02A80EF0FDFB304605B0BDE867
:104FE000F083A74202D004350434D9E70126EEE766
:104FF0002DE9F34715461C46284B036022466B46B5
:105000000746894601A829460EF060FE019EDFF89A
:1050100090A056F80C3C641B06EB8308204B6410F0
:105020009C4294BFA0004FF0FF30FEF7C0FD054644
:10503000234632462946484615F0C7FC844211D81B
:10504000441C2846FEF7C0FE544594BFA0004FF014
:10505000FF30FEF7ACFD2346054601463246484682
:1050600015F0B3FC0246294638460EF035FD3046B1
:105070001BF044FB06EB8006B04505D00021384606
:1050800004360EF0B2FDD3E72846FEF79DFE01A8D8
:105090000EF0A0FB384602B0BDE8F087B81C002037
:1050A000FEFFFF1F0A2807D82F2917D93030814269
:1050B00014D2A1F130007047A1F1300009280FD9B6
:1050C000A1F16103052B02D8A1F157007047A1F1AE
:1050D0004103052B02D8A1F1370070474FF0FF3094
:1050E0007047000008B42DE9F7410F460420002165
:1050F000904617F0C9FF1649054618F04AFB28B339
:10510000284619F0B7FA461C3046FEF750FD2946EE
:105110003246044618F0D2F80D49042017F0B4FFC7
:105120000AAB099A0193414638461AF0CBFC054672
:1051300034B12146042017F0A7FF2046FEF744FEB5
:10514000284603B0BDE8F04101B070470446E7E7E8
:105150002350020813460A4611B119681BF040BCDF
:10516000084670470AB11BF04ABC704713460A460E
:1051700011B119461BF049BC7047000000310B4AC1
:10518000026018BF012100224160C0E902220274BE
:10519000C0E90522C0E90722C0E90922C0E90B22C3
:1051A000C0E90D22C26380F86C207047805302086A
:1051B00000310B4A026018BF012100224160C0E9A2
:1051C00002220274C0E90522C0E90722C0E90922CF
:1051D000C0E90B22C0E90D22C26380F86C20704741
:1051E0009053020810B5003218BF01224260054BEF
:1051F0000360002204468160114614F063FE2046DD
:1052000010BD00BF9852020803689B6818470368E6
:10521000DB68184710B50B6804461B6998472046A1
:1052200010BD10B50B6804465B699847204610BD59
:1052300010B50B6804469B699847204610BD10B511
:105240000B680446DB699847204610BD03681B6A5B
:10525000184703685B6A82B002B0184703689B6A0C
:1052600082B002B01847000010B5003218BF01220A
:105270004260054B0360002204468160114614F031
:10528000CFFD204610BD00BF6452020803689B6832
:1052900018470368DB68184710B50B6804461B699C
:1052A0009847204610BD10B50B6804465B699847C7
:1052B000204610BD10B50B6804469B6998472046F0
:1052C00010BD10B50B680446DB699847204610BD39
:1052D00003681B6A184703685B6A82B002B018470C
:1052E00003689B6A82B002B01847F0B589B006AC7B
:1052F00084E80C00139A0B680592129A0492119A92
:1053000003929DF8402002920EAA05460E4692E8AE
:1053100003008DE8030028469F68314694E80C009E
:10532000B847284609B0F0BDF0B589B006AC84E8AE
:105330000C00139A0B680592129A0492119A039228
:105340009DF8402002920EAA05460E4692E8030000
:105350008DE803002846DF68314694E80C00B84722
:10536000284609B0F0BD70B588B006AC84E80C00E2
:10537000DDE91023CDE904230E9B02930D9B0193DD
:105380000E689DF830300093B66894E80C0005462E
:10539000B047284608B070BD70B586B004AC84E84C
:1053A0000C000D9A03920C9A02920B9A01920B68D0
:1053B0009DF828200092DE6894E80C000546B0476E
:1053C000284606B070BD00000031094A026018BFCF
:1053D000012100224160C0E902220274C0E90522D5
:1053E000C0E90722C0E9092280F82421704700BFE4
:1053F000A053020810B5003218BF0122044B4260CE
:10540000044603608160002114F0F8FF204610BDBF
:10541000B451020803689B6818470368DB681847A3
:1054200010B50B6804461B699847204610BD10B59F
:105430000B6804465B699847204610BD10B50B68A1
:1054400004469B699847204610BD0000003218BFF3
:105450000122074B10B54260036081600446FFF7EC
:105460007BF800212061204615F088F9204610BD08
:105470005452020883689A680A60DB684B60704780
:1054800083681A690A605B694B60704783689A6930
:105490000A60DB694B6070478368DA6A0A601A6BDE
:1054A0004A605A6B8A609A6BCA60DA6B0A611A6C3E
:1054B0004A615B6C8B61704783689A6C0A60DA6C36
:1054C0004A601A6D8A605A6DCA609A6D0A61DA6D17
:1054D0004A611B6E8B61704783685A6E0A609A6ED0
:1054E0004A60DA6E8A601A6FCA605A6F0A619A6FF0
:1054F0004A61DA6F8A61D3F88020CA61D3F88420C8
:105500000A62D3F888204A62D3F88C208A62D3F8E2
:105510009030CB6270478368D3F894200A60D3F848
:1055200098204A60D3F89C208A60D3F8A020CA60F3
:10553000D3F8A4200A61D3F8A8204A61D3F8AC209C
:105540008A61D3F8B020CA61D3F8B4200A62D3F8D4
:10555000B8204A62D3F8BC208A62D3F8C030CB624C
:10556000704703689B681847F0B589B006AC84E8BB
:105570000C00129A0B680492119A0392109A0292EC
:105580000EAA05460E4692E803008DE80300284661
:10559000DF68314694E80C00B847284609B0F0BDF2
:1055A000F0B589B006AC84E80C00129A0B6804923E
:1055B000119A0392109A02920EAA05460E4692E89C
:1055C00003008DE8030028461F69314694E80C006B
:1055D000B847284609B0F0BDF0B589B006AC84E8FC
:1055E0000C00129A0B680492119A0392109A02927C
:1055F0000EAA05460E4692E803008DE803002846F1
:105600005F69314694E80C00B847284609B0F0BD00
:10561000F0B589B006AC84E80C00129A0B680492CD
:10562000119A0392109A02920EAA05460E4692E82B
:1056300003008DE8030028469F69314694E80C007A
:10564000B847284609B0F0BDF0B589B006AC84E88B
:105650000C00129A0B680492119A0392109A02920B
:105660000EAA05460E4692E803008DE80300284680
:10567000DF69314694E80C00B847284609B0F0BD10
:10568000003110B518BF0121044B4160036004468E
:10569000FEF758FFA060204610BD00BFCC520208A4
:1056A00003689B68184773B5079E01960D68069EB0
:1056B0000096ED680446A847204602B070BD036816
:1056C0001B691847003110B518BF0121044B416018
:1056D00003600446FEF736FFA060204610BD00BF01
:1056E0005851020810B40468A468A44610BC60476E
:1056F00038B50D680446ED68A847204638BD00005F
:1057000010B504460A48FEF789FF2368D3E9012350
:10571000834202D952F8200008B9FDF748FF002360
:10572000044A054914F0C4F908B914F01DFA10BD73
:10573000581B002028590208D44F020810B504460F
:105740000A48FEF76BFF2368D3E90123834202D99D
:1057500052F8200008B9FDF72AFF0023044A054942
:1057600014F0A6F908B914F0FFF910BD301B0020A1
:10577000C8540208D44F020810B504460A48FEF780
:105780004DFF2368D3E90123834202D952F8200058
:1057900008B9FDF70CFF0023044A054914F088F905
:1057A00008B914F0E1F910BD281B00209C54020830
:1057B000D44F020810B504460A48FEF72FFF2368AD
:1057C000D3E90123834202D952F8200008B9FDF73A
:1057D000EEFE0023044A054914F06AF908B914F0F2
:1057E000C3F910BD2C1B002090540208D44F0208AE
:1057F00010B504460A48FEF711FF2368D3E90123D8
:10580000834202D952F8200008B9FDF7D0FE0023E8
:10581000044A054914F04CF908B914F0A5F910BD73
:105820003C1B0020E8530208D44F020810B5044680
:105830000A48FEF7F3FE2368D3E90123834202D925
:1058400052F8200008B9FDF7B2FE0023044A0549CA
:1058500014F02EF908B914F087F910BD401B002090
:10586000C8530208D44F020810B504460A48FEF790
:10587000D5FE2368D3E90123834202D952F82000E0
:1058800008B9FDF794FE0023044A054914F010F905
:1058900008B914F069F910BD241B0020085402084F
:1058A000D44F020810B504460A48FEF7B7FE236835
:1058B0009A6882420CD95B6853F8200038B1002303
:1058C000054A064914F0F4F8003018BF012010BD55
:1058D0000020FCE7581B002028590208D44F02087A
:1058E00010B504460A48FEF799FE23689A6882427A
:1058F0000CD95B6853F8200038B10023054A0649EB
:1059000014F0D6F8003018BF012010BD0020FCE7CD
:10591000281B00209C540208D44F020810B50446EE
:105920000A48FEF77BFE23689A6882420CD95B68BE
:1059300053F8200038B10023054A064914F0B8F89E
:10594000003018BF012010BD0020FCE72C1B0020F8
:1059500090540208D44F02082DE9F043DDE90774A2
:105960000026B446013B12F80CE0A4EB0708BEEB9E
:10597000A80F02EB0C0504DA4FFA8EF9B9F1000F0B
:1059800009DCA0F1040C3B46A3420CD053F8047B85
:105990004CF8047FF8E76345A4EB8E048CBF0CF150
:1059A000010C0136DFE7404416F1FF360FD30160EA
:1059B0002B789B00074604EB030E744502D1043399
:1059C0001844F1E754F804CB47F804CFF5E79542C3
:1059D00010D0016015F8013D9B00064604EB030C56
:1059E000644502D104331844F1E754F8047B46F8C7
:1059F000047FF5E7BDE8F083F7B5DDE908740846F4
:105A00001946DDE90A36C7B1FD1AAD1003EB850C66
:105A1000CDE9003C134602462046FFF79DFF041BDC
:105A2000A4103FB132683946521BFFF79BFB336825
:105A30005D1B2C44346003B0F0BD3568E6E773B5F8
:105A4000099DDDE907401E462B6800EB8303CDE985
:105A50000003134620460A463146FFF77DFF001B30
:105A60008010286002B070BD70B59DF8104074B110
:105A700003460A26B1FBF6F506FB15140434092982
:105A800052F8244043F8044D0FD92946F2E703F0B9
:105A90004A04402C0CD1034601F007040434C90821
:105AA00052F8244043F8044DF6D1C01A801070BD5E
:105AB00013F4804F14BF14250425034601F00F048E
:105AC0002C44090952F8244043F8044DF6D1ECE780
:105AD0002DE9F04114469DF820201D460746DDE9DA
