:020000040800F2
:1000000000000220B1010008E50B0008E90B000820
:10001000ED0B0008F10B0008F50B000800000000D4
:10002000000000000000000000000000F90B0008C4
:10003000FD0B000800000000010C0008050C000882
:100040004102000841020008410200084102000884
:100050004102000841020008410200084102000874
:100060004102000841020008410200084102000864
:100070004102000841020008410200084102000854
:100080004102000841020008410200084102000844
:100090004102000841020008410200084102000834
:1000A0004102000841020008410200084102000824
:1000B0004102000841020008410200084102000814
:1000C0004102000841020008410200084102000804
:1000D00041020008410200084102000841020008F4
:1000E000150A000841020008410200084102000808
:1000F00041020008410200084102000841020008D4
:1001000041020008410200084102000841020008C3
:1001100041020008410200084102000841020008B3
:1001200041020008410200084102000841020008A3
:100130004102000841020008410200084102000893
:100140004102000841020008410200084102000883
:100150004102000841020008410200084102000873
:100160004102000841020008410200084102000863
:100170004102000841020008410200084102000853
:10018000410200084102000808B5064B064A07482C
:1001900003E011681960043304328342F9D301F09B
:1001A00023FA08BD000000208898090828000020D4
:1001B00070B51B4B1B4A002101E0196004339342C8
:1001C000FBD3194B194DED1AAD1000241E4603E068
:1001D00056F8243098470134A542F9D8144B154DF0
:1001E000ED1AAD1000241E4603E056F8243098475F
:1001F0000134A542F9D801F0F7F900F06FFB06468B
:100200000D4B0E4CE41AA4101D4603E0013C55F8BA
:1002100024309847002CF9D1304601F081F900BF15
:10022000280000208C000020680200086C020008F2
:100230006C0200086C0200086C0200086C020008E6
:10024000FEE700BFFEE700BFFEE700BFFEE700BF1E
:10025000FEE700BFFEE700BFFEE700BFFEE700BF0E
:08026000FEE700BFFEE700BF4E
:040268008901000800
:10027000014B1860704700BF28000020014B188018
:1002800059807047FEFF016010B503460C464E20B2
:100290001946FFF7F3FF4F202146FFF7EFFF10BD90
:1002A0002222014B1A807047FEFF0160014B5880EB
:1002B000704700BFFEFF016010B582B00446002108
:1002C00001910846FFF7E0FF4FF496330193FFF7E3
:1002D000E7FF02E02046FFF7E9FF019B5A1E01926B
:1002E000002BF7D102B010BD10B51446FFF7CCFFBC
:1002F000FFF7D6FF2046FFF7D9FF10BD2DE9F84FD5
:1003000005460E46BDF828905B1A121A83EAE37080
:10031000A0EBE37082EAE271A1EBE271884204DCB7
:1003200011461A460B46002100E00121002B04DA99
:100330005F1E5B424FF0FF3A02E05F1C4FF0010A84
:1003400023B14FEA024898FBF3F801E04FF00008B0
:1003500069B90024A3461AE005EB2B40311980B29D
:1003600089B24A46FFF7C0FFC344544401E0002469
:10037000A346BC42F0D1BDE8F88F281906EB2B410B
:1003800080B289B24A46FFF7AFFFC3445444BC422F
:10039000F3D1BDE8F88F00BF2DE9F04182B00446EB
:1003A000884615461F46BDF8206008E000962046A6
:1003B000414622463B46FFF7A1FF0134A4B2AC42BE
:1003C000F4D302B0BDE8F0812DE9F04F83B082464E
:1003D0008B469146019300251D4EDFF8788030E072
:1003E00039F81520A8FB0301C908C90007FA01F173
:1003F000204621410A4201D10C2B07D9024112F0BB
:10040000010F05D10C2B05D8002304E0012302E0E5
:10041000002300E001233BB9C4EB0B010139504636
:1004200089B2019AFFF760FF013401E000248027C0
:1004300033689B88A342D3D80AF1010A1FFA8AFACB
:1004400001353368DB88AB42F0D803B0BDE8F08FEC
:1004500028000020ABAAAAAA38B5203AD2B2054C8F
:1004600024682568E48804FB02F205EB4202FFF7EA
:10047000ABFF38BD280000202DE9F04180460C4636
:1004800015461F460D4E09E0404621463B46FFF704
:10049000E3FF33689B88E41AA4B201352A78601C14
:1004A00031688B8880B2111C18BF01219842B8BFF7
:1004B00000210029E8D1BDE8F08100BF280000201C
:1004C0002DE9F84F83468A4691461F460A9D4FF014
:1004D000000816E00BEB080080B25146FFF7D4FE8F
:1004E000FFF7DEFE002406E0AE1C2888FFF7DEFEE4
:1004F0000134A4B23546BC42F6D308F101081FFA14
:1005000088F8C845E6D3BDE8F88F00BFF0B583B0E2
:100510000025009501951C20012101F061FB4FF49D
:100520000053009301278DF8047002268DF80560B2
:100530004548694601F010FA4CF6B37300938DF804
:1005400004608DF805508DF806508DF807503F4C2B
:100550002046694601F000FA204629460C2201F0A7
:1005600053FA204639460C2201F04EFA2046042167
:100570000C2201F049FA204605210C2201F044FA30
:10058000204607210C2201F03FFA204608210C22C8
:1005900001F03AFA204609210C2201F035FA2046F2
:1005A0000A210C2201F030FA20460B210C2201F026
:1005B0002BFA20460E210C2201F026FA20460F21AC
:1005C0000C2201F021FA4FF6807300938DF804603D
:1005D0008DF805508DF806508DF8075004F58064AD
:1005E0002046694601F0B8F9204607210C2201F0A7
:1005F0000BFA204608210C2201F006FA20460921B8
:100600000C2201F001FA20460A210C2201F0FCF92B
:1006100020460B210C2201F0F7F920460C210A4656
:1006200001F0F2F920460D210C2201F0EDF92046EF
:100630000E210C2201F0E8F920460F210C2201F0D6
:10064000E3F903B0F0BD00BF00080240000C024017
:1006500010B596B000240F94109411941294139432
:1006600014941594684621463C2201F0DBFF0120DA
:10067000014601F0C3FA0F940A23119313941594C1
:100680000094019402941023039304940694079415
:1006900008944FF4805309930A940B940C940FAB75
:1006A0000D930E930594684601F0DAF82046012177
:1006B00001F03CF916B010BD00B585B0684601F0F8
:1006C00033FA0B4A019BA2FB03139B09013BB3F1D5
:1006D000807F09D2074A5360F021074B83F823102B
:1006E000002393600723136005B05DF804FB00BF8F
:1006F000D34D621010E000E000ED00E082B0019008
:10070000019A044B1A601A461368002BFCD102B000
:10071000704700BF2C00002010B51C4C20464FF441
:10072000005101F06BF91E20FFF7E8FF20464FF45F
:10073000005101F061F90A20FFF7E0FF07202121B5
:10074000FFF79CFD00200121FFF798FD07202321E2
:10075000FFF794FD10200021FFF790FD1E20FFF70A
:10076000CDFF07203321FFF789FD112046F2180144
:10077000FFF784FD02204FF4C061FFF77FFD0120E9
:1007800042F63F31FFF77AFD10BD00BF000802407E
:10079000034B1B681BB1024B1A68013A1A60704781
:1007A0002C00002041F2707303FB00F0002300E0F6
:1007B00001338342FCD3704770B586B004460D46C2
:1007C00002238DF8143001238DF816308DF8173080
:1007D00003238DF815302D4B984204D003F5806328
:1007E00098421CD037E04FF40010012101F014FAB8
:1007F0000220012101F0F4F906A9C02341F8083DC7
:10080000234E304601F0A8F830460621042201F0BC
:10081000FBF830460721042201F0F6F81BE04FF404
:100820008000012101F0F8F90220012101F0D8F93E
:1008300006A94FF4406341F8083D154E304601F0DB
:100840008BF830460A21042201F0DEF830460B21F5
:10085000042201F0D9F80F4B00930023ADF80430C7
:100860004BF6FF72ADF80620ADF80830ADF80A502F
:100870004FF48043ADF80C302046012101F046F9D9
:100880002046694601F0D8F806B070BD005400401B
:1008900000040240A086010070B40123164601E066
:1008A00002FB03F3B1FBF3F435469442F8D2002483
:1008B0000EE0B1FBF3F203FB1211B3FBF5F3092ACF
:1008C00002D93732025501E0303202550134E4B228
:1008D000002BEED1035570BC704700BF2DE9F043EB
:1008E00087B0FFF7E9FEFFF711FEFFF7B1FEFFF754
:1008F00013FF00F007F900F087FC3F4C2046012170
:1009000000F03EFB2046022100F03AFB3B4B1A88E8
:100910003B4B5A630020FFF7CFFC3A484FF480610D
:10092000FFF74AFF40F6B830FFF7E8FE00238DF8E6
:1009300010308DF811308DF812308DF813308DF89D
:1009400014308DF808308DF809308DF80A308DF8A4
:100950000B308DF80C302C48FFF78AFC2B4C264EC0
:10096000DFF8AC906420FFF7C9FE2368052BF9D1AE
:100970003046012100F0ACF980463046022100F0FB
:10098000A7F90746CDF80090002040F23F11F02271
:100990004FF4A073FFF794FD002500952B2040F243
:1009A00027113D221923FFF7F7FC04A841460A222C
:1009B000FFF772FF2B2040F2271104AA4FF6FF73B6
:1009C000FFF75AFD0095412040F2271155221923C7
:1009D000FFF7E2FC02A839460A22FFF75DFF41203B
:1009E00040F2271102AA4FF6FF73FFF745FD4FF4BF
:1009F0007A70FFF783FEB5E7002001400800002071
:100A00000008004000540040000000200C000020BE
:100A10008838000800B585B04FF4805000F010FF12
:100A2000002861D003A80DF10E0100F039FDBDF8DA
:100A30000C30A02B08D92E4A1268042A04DC2C4B57
:100A40001A6801321A6013E0A02B03D90122284B47
:100A50001A600DE09F2B08D8254B1B68012B04DD85
:100A6000234B1A68013A1A6002E00522204B1A60F3
:100A70001F4B1B68013B032B2ED8DFE803F0020D50
:100A800018231C4B0093002040F23F11F0224FF43A
:100A9000A073FFF715FD1FE0174B0093002040F2F5
:100AA0003F11F0224FF4A073FFF70AFD14E0134B3F
:100AB0000093002040F23F11F0224FF4A073FFF7A3
:100AC000FFFC09E00E4B0093002040F23F11F022A2
:100AD0004FF4A073FFF7F4FC4FF4FA70FFF762FED7
:100AE0004FF4805000F0B6FE05B05DF804FB00BF87
:100AF0000C000020883800088890020888E8040864
:100B0000884007082DE9F0418AB00420012101F056
:100B100083F80820012101F063F84FF48053089313
:100B20004FF002088DF8248003278DF825700025EA
:100B30008DF8265001248DF82740264E304608A90E
:100B400000F00AFF30460C21424600F05DFF4FF4F2
:100B5000005308938DF824408DF825708DF82650A9
:100B60008DF82740304608A900F0F6FE1A4B1A68A7
:100B70001A4BA3FB02131B0E013B9BB2184A1380B6
:100B800040F299220692ADF81430ADF81C50ADF841
:100B90001650A6F50136304605A901F0B7F86023D6
:100BA000ADF80030ADF802400295ADF80C5030467B
:100BB000694601F005F93046082101F039F930465F
:100BC000214601F0E1F83046214601F0EBF80AB089
:100BD000BDE8F081000C02401400002029D94266D3
:100BE00030000020704700BFFEE700BFFEE700BFF7
:100BF000FEE700BFFEE700BF704700BF704700BFC1
:100C0000704700BF08B5FFF7C3FD074A1378013BE3
:100C1000DBB213703BB9C822034B1A7003484FF480
:100C2000005100F0EDFE08BD10000020000C024055
:100C300010B58AB0044600238DF815300893079349
:100C4000069301228DF824208DF8143003F180439F
:100C500003F59033984208D103F58C335A6C42F473
:100C600080725A640023049315E0164B984207D112
:100C7000154B5A6C42F400725A64002304930AE044
:100C8000124B984207D103F58B335A6C42F48062C1
:100C90005A64002304930023029300934FF480339B
:100CA00001934FF440730393684600F021FD204602
:100CB00004A900F0F5FCA36843F00103A3600AB0A7
:100CC00010BD00BF00210140003802400022014059
:100CD00010B504460122134600F020FDA36843F03E
:100CE0008043A36040F6FF7302E05A1E3BB11346F7
:100CF000226812F0020FF8D0E06C80B210BD002024
:100D000010BD00BF00B583B00223009301230193FF
:100D10000322002300F0FAF903B05DF804FB00BFE2
:100D200008B502480121FFF7EDFF08BD00000240B1
:100D300008B502480221FFF7E5FF08BD00000240A8
:100D400008B502480421FFF7DDFF08BD000002409E
:100D500008B502480821FFF7D5FF08BD0000024092
:100D600010B50446094B984203D003F580739842AE
:100D700003D107481021FFF7C5FF064B9C4203D162
:100D800005484021FFF7BEFF10BD00BF0020014015
:100D900000000240002201400014024010B5044649
:100DA000094B984203D003F58073984203D107485A
:100DB0002021FFF7A7FF064B9C4203D10548802165
:100DC000FFF7A0FF10BD00BF00200140000002405F
:100DD000002201400014024010B50446094B98421D
:100DE00003D003F58073984203D107484021FFF7F1
:100DF00089FF064B9C4204D105484FF48071FFF7F0
:100E000081FF10BD0020014000000240002201408F
:100E10000014024010B50446094B984203D003F574
:100E20008073984203D107488021FFF76BFF064B80
:100E30009C4204D105484FF40071FFF763FF10BDD9
:100E40000020014000000240002201400014024046
:100E500010B50446094B984203D003F580739842BD
:100E600003D107480121FFF74DFF064B9C4204D1F7
:100E700005484FF48061FFF745FF10BD0020014099
:100E800000040240002201400014024010B5044654
:100E9000094B984203D003F58073984203D1074869
:100EA0000221FFF72FFF064B9C4203D10548082182
:100EB000FFF728FF10BD00BF0020014000040240E2
:100EC000002201400014024008B502480121FFF74A
:100ED00019FF08BD0008024008B502480221FFF7CB
:100EE00011FF08BD0008024008B502480421FFF7C1
:100EF00009FF08BD0008024008B502480821FFF7B5
:100F000001FF08BD0008024010B50446094B984295
:100F100003D003F58073984203D107481021FFF7EF
:100F2000F1FE064B9C4203D105481021FFF7EAFE73
:100F300010BD00BF00200140000802400022014017
:100F40000014024008B50A4B984203D003F58073A1
:100F5000984204D107482021FFF7D4FE08BD064B74
:100F6000984203D105482021FFF7CCFE08BD00BF01
:100F7000002001400008024000220140001402400D
:100F800010B5044611B9FFF7CBFE49E0012902D1A3
:100F9000FFF7CEFE44E0022902D1FFF7D1FE3FE089
:100FA000032902D1FFF7D4FE3AE0042902D1FFF76A
:100FB000D7FE35E0052902D1FFF7F0FE30E0062923
:100FC00002D1FFF709FF2BE0072902D1FFF722FF2B
:100FD00026E0082902D1FFF73BFF21E0092902D1D1
:100FE000FFF754FF1CE00A2902D1FFF76DFF17E05D
:100FF0000B2902D1FFF770FF12E00C2902D1FFF795
:1010000073FF0DE00D2902D1FFF776FF08E00E29EE
:1010100002D1FFF779FF03E00F2901D1FFF792FF1B
:101020002046FFF705FE10BD00F13F4000F57E00B1
:10103000C0F38F20704700BF38B5054C256BFFF714
:10104000F3FF012303FA00F00543256338BD00BF19
:10105000003802402DE9F04F85B00446884691469D
:1010600002939DF838A09DF83C100391FFF7DCFF38
:10107000C0B2002309F1FF32D2B201923FE048FA38
:1010800003F212F0010F38D0012202FA03F7DFF861
:1010900078C03CF810203A432CF81020D4F80CB05B
:1010A0005A00032101FA02F5ED430BEA050B0AFA97
:1010B00002FC4BEA0C0CC4F80CC0D4F800B00BEAEC
:1010C000050B09FA02FC4BEA0C0CC4F800C00199AC
:1010D000012912D8D4F804C0BFB22CEA0707DDF802
:1010E00008C00CFA03F6B6B237436760A66835400D
:1010F000039901FA02F22A43A2600133DBB20F2BFB
:10110000BDD905B0BDE8F08F34000020F0B583B044
:10111000044616461D460F4669B1FFF78DFF9DF840
:10112000203000939DF82430019320463946324602
:101130002B46FFF78FFF03B0F0BD00BF70B506462A
:101140000C4D02242846214600F0BEFD0028F9D0AF
:101150000848314600F0B6FD064D012428462146D8
:1011600000F0B2FD0028F9D0024800F0A7FDC0B29F
:1011700070BD00BF0038004038B50D4C20464FF41C
:10118000006100F03BFCD020FFF7D8FF0020FFF704
:10119000D5FF000285B20020FFF7D0FF284485B2BA
:1011A00020464FF4006100F027FC280938BD00BF3D
:1011B0000004024038B50D4C20464FF4006100F0A9
:1011C0001DFC9020FFF7BAFF0020FFF7B7FF0002D9
:1011D00085B20020FFF7B2FF284485B220464FF4C5
:1011E000006100F009FC280938BD00BF000402407E
:1011F00010B5FFF7DFFF034CA080FFF7BDFFE080D5
:10120000012010BD680000202DE9F04782B04FF4A6
:101210008040012100F00EFD4FF48040012100F0DC
:10122000FBFC0220012100F0DBFC454D28460D218E
:10123000052200F0E9FB28460E21052200F0E4FB20
:1012400028460F21052200F0DFFB4FF002088DF841
:1012500004808DF8058000268DF806608DF80780E3
:1012600002AF4FF4005347F8083D2846694600F0A6
:1012700073FB4FF4004300932846694600F06CFB73
:101280004FF48049CDF800902846694600F064FB91
:101290004FF4006ACDF800A001248DF804408DF8C9
:1012A000066003238DF805308DF80740284669460F
:1012B00000F052FB2846514600F09EFB21490E806B
:1012C0004FF482724A808E80A1F806800C814FF420
:1012D00000724A8130228A81CE8107220A82DFF899
:1012E0007080404600F0B4FC4046214600F0D8FC37
:1012F0004846214600F09EFC8DF804608DF807609A
:101300004FF48058CDF800802846694600F024FB51
:1013100020460C2100F0E0FC0B48C0F8008006716C
:1013200008234371847100F043FA084828230370AE
:1013300044708470C47000F079F902B0BDE8F087A1
:1013400000040240540000208400002050000020CF
:10135000003800402DE9F0438BB04C484FF48051E9
:1013600000F042FB0546002840F08A80FFF740FF6E
:101370000024474E0DE0FFF73BFF50B1B2880AA8AA
:1013800000EB440323F8282CF28823F8142C0134B2
:10139000E4B2092CEFD90A2C6ED11CE00AAD05EBA2
:1013A000430232F8285C5E1C0DF1280909EB460265
:1013B00032F8282C954208D909EB460626F8285C15
:1013C00009EB400020F8282C41460133DBB209E04C
:1013D0003946634606E000210B46013C4FF0010808
:1013E0000F468C4618462246A342D7DB0029EFD190
:1013F0000C4600234FF001089C4619E00AAE06EBAC
:10140000430535F8146C5F1C0DF1280935F8125CA2
:10141000AE4208D909EB470727F8146C09EB4000E6
:1014200020F8145C44460133DBB201E00C4663460D
:1014300018469A42E2DC002CF8D1BDF80610BDF83F
:1014400008301944BDF80A301944124B83FB0101DE
:101450000F4A9180BDF81A00BDF81C100844BDF871
:101460001E10014483FB0143C3F5FF630733D380A0
:101470000125094B1D7004E00022074B1A7000E0A3
:10148000002528460BB0BDE8F08300BF00040240F1
:1014900068000020565555554C0000200000000003
:1014A000F8B507460E46FFF755FF1B4CA088673876
:1014B00000F018FE14A3D3E9002300F0A3FF01F00D
:1014C00089F885B22580E088683800F00BFE10A30B
:1014D000D3E9002300F096FF01F07CF880B2608031
:1014E000F02D01D9F0212180B0F5A07F03D94FF470
:1014F000A072094B5A80084B1A883A805B88338067
:10150000F8BD00BFAFF30080CDCCCCCCCCCC1E401E
:101510003D0AD7A3703D164068000020AFF300805D
:10152000FEE700BF82B00023019300932A4B1A68A4
:1015300042F480321A601A46136803F400330093B1
:10154000019B01330193009B1BB9019BB3F5A04F95
:10155000F2D1214B1B6813F4003F02D0012300930A
:1015600001E000230093009B012B32D11A4B1A6C2F
:1015700042F080521A64194A116841F440411160E6
:101580009A689A609A6842F400429A609A6842F4B3
:10159000A0529A60124A5A601A6842F080721A6029
:1015A0001A46136813F0007FFBD040F205620D4B22
:1015B0001A60A3F580639A6822F003029A609A6821
:1015C00042F002029A601A46936803F00C03082B5B
:1015D000FAD102B0704700BF0038024000700040EE
:1015E00019544007003C024008B50D4B1A6842F000
:1015F00001021A60002199601A6822F0847222F4B4
:1016000080321A60074A5A601A6822F480221A60EF
:10161000D960FFF787FF4FF00062034B9A6008BD67
:10162000003802401030002400ED00E010B4C37810
:101630001BB3194BDB68DB43C3F30223C3F1040282
:10164000D2B20F2141FA03F3417801FA02F2D2B289
:10165000847803EA040111430901C9B202780F4BEF
:101660001A4482F800130278510902F01F02012087
:1016700000FA02F243F821200AE00378590903F046
:101680001F03012202FA03F32031044A42F82130F9
:101690005DF8044B704700BF00ED00E000E100E0A2
:1016A00010B4436823F0407323F480730C790A6804
:1016B00042EA04221343436082680C4B13400C69D6
:1016C000CA6814438A6822434C7942EA44021343AD
:1016D0008360C26A22F470020B7D013BDBB242EAF6
:1016E0000353C3625DF8044B704700BFFDF7FFC0B2
:1016F00010B4084A5168084B0B40046841680C4319
:1017000081682143C06801430B4353605DF8044B7B
:10171000704700BF00230140E030FCFF70B409298E
:101720000ED9C668A1F10A0404EB44040725A540BC
:1017300026EA050503FA04F445EA0403C3600BE056
:10174000066901EB41040725A54026EA050503FAD1
:1017500004F445EA04030361062A0CD8446B013AF9
:1017600002EB82021F23934024EA0303914043EAE1
:10177000010242631AE00C2A0CD8046B073A02EB10
:1017800082021F23934024EA0303914043EA0102AB
:1017900002630BE0C46A0D3A02EB82021F239340FE
:1017A00024EA0303914043EA0102C26270BC70471D
:1017B00010B48379002B33D0204B1968026821EADA
:1017C00002021A605968026821EA02025A6002792C
:1017D00002F1804202F59E321468016821431160D3
:1017E0009968026821EA02029A60D968026821EACF
:1017F0000202DA604379102B09D1104B9968026814
:101800000A439A60D96802680A43DA6012E003F179
:10181000804303F59E33196802680A431A6009E0A1
:10182000037903F1804303F59E331A68016822EAC5
:1018300001021A605DF8044B704700BF003C014094
:10184000034B5B69034201D00120704700207047C1
:10185000003C0140014B5861704700BF003C014013
:1018600010B40368416882681143C2681143026979
:1018700011434269114382691143C2691143026AEB
:101880001143426A1143826A1143C26A1143026BD7
:101890000A434FF0204141F823208368082B07D1E9
:1018A00002680B4651F8221041F0400143F8221023
:1018B00003685C1C436B1A68596842EA01119A6814
:1018C00041EA0221DA6841EA02411A6941EA025119
:1018D0005A6941EA02629B691A434FF0204141F87C
:1018E0002420C36AB3F5804F14D10468836B1A684F
:1018F000596842EA01119A6841EA02211A6941EAEB
:1019000002515A6941EA02629B691A43064B43F845
:10191000242005E002686FF07041034B43F8221069
:101920005DF8044B704700BF040100A041B14FF0C7
:10193000204353F8202042F0010243F82020704752
:101940004FF0204252F82010024B0B4042F820305A
:10195000704700BFFEFF0F00F0B4002301250326EF
:101960003EE005FA03F20C681440944237D1076850
:101970005A0006FA02F4E44327400760D0F800C09A
:101980000F7997404CEA070707600F79013FFFB2D4
:10199000012F16D887683C40846087684C79944052
:1019A0003C43846047689CB205FA04FC27EA0C07B4
:1019B0004760476891F806C00CFA04F4A4B23C43AF
:1019C0004460C7689CB2640006FA04F427EA040481
:1019D000C460C468CF7907FA02F22243C2600133BF
:1019E0000F2BBED9F0BC704703690B4201D0012018
:1019F00070470020704700BF0183704741837047E4
:101A0000436959404161704730B401F007039B00BE
:101A10009A40C908083150F821400F2505FA03F310
:101A200024EA030340F8213050F821301A4340F8EB
:101A3000212030BC704700BF70B584B004460D460D
:101A4000868826F03F063604360C684600F06CF8AF
:101A5000029A2B49A1FB0201890C88B20643A68099
:101A6000238823F001031B041B0C23802B68254EC5
:101A7000B34209D85B00B2FBF3F292B2032A00D85A
:101A800004220130208424E0EE884BF6FF70864269
:101A900005D103EB4303B2FBF3F292B208E003EB90
:101AA000830303EB8303B2FBF3F292B242F480426E
:101AB000C2F30B030BB942F0010242F400424FF4AF
:101AC000967301FB03F1104B83FB01018911013176
:101AD0002184A28323889BB243F0010323802288C0
:101AE00092B222F4816222F00202A9886B890B4330
:101AF00013432380AA892B891343238104B070BD2B
:101B000083DE1B43A0860100D34D621029B10388F8
:101B10009BB243F0010303807047038823F0010365
:101B20001B041B0C0380704710B4294B9B6803F007
:101B30000C03042B05D0082B06D053BB254B0360A8
:101B400029E0254B036026E0214B5A685B6803F0CF
:101B50003F0312F4800F09D01F4AB2FBF3F31C4A73
:101B60005268C2F3881202FB03F308E0194AB2FB81
:101B7000F3F3174A5268C2F3881202FB03F3144AC4
:101B80005268C2F3014201325200B3FBF2F3036028
:101B900001E0104B03600E498B68C3F303130F4A37
:101BA000D35CDBB2046824FA03F343608C68C4F3AB
:101BB0008224145DE4B223FA04F484608968C1F3DA
:101BC0004231525CD2B2D340C3605DF8044B7047DF
:101BD000003802400024F40000127A0018000020AF
:101BE00021B1054B1A6B104318637047024B1A6BF7
:101BF00022EA0000186370470038024021B1054B0B
:101C00009A6B104398637047024B9A6B22EA00006C
:101C1000986370470038024021B1054B1A6C10439D
:101C200018647047024B1A6C22EA0000186470476F
:101C30000038024021B1054B5A6C1043586470477C
:101C4000024B5A6C22EA0000586470470038024088
:101C50002DE9F003028802F44152B1F800904B885C
:101C6000B1F80480B1F806C00F894E898D89CC89FE
:101C700049EA030348EA03034CEA03033B433343C3
:101C80002B43234313430380838B23F400631B0400
:101C90001B0C83830B8A0382BDE8F003704700BFEF
:101CA00029B103889BB243F0400303807047038847
:101CB00023F040031B041B0C03807047808980B213
:101CC000704700BF818170470389194201D001200C
:101CD00070470020704700BF30B401F0030292004B
:101CE0000F2494408908084B023153F8215025EA0B
:101CF000040443F8214053F821409040044343F842
:101D0000214030BC704700BF0038014003889BB2BF
:101D10001B4A904212D002F5806290420ED0B0F180
:101D2000804F0BD0A2F58032904207D002F580623E
:101D3000904203D002F58062904203D123F07003F9
:101D40004A8813430F4A904208D002F580629042BD
:101D500004D023F440739BB20A89134303804B6879
:101D6000C3620B880385064B984203D003F580635A
:101D7000984201D18B7A038601238382704700BF8A
:101D8000000001400010004029B103889BB243F0DD
:101D9000800303807047038823F080031B041B0C1F
:101DA0000380704729B103889BB243F0010303808D
:101DB0007047038823F001031B041B0C038070474A
:101DC00030B4038C23F001031B041B0C0384038C2D
:101DD0008488A4B2028B22F073021204120C0D88C4
:101DE0002A4323F002031B041B0C8D892B434D88CF
:101DF0002B430E4DA84203D005F58065A8420DD1B6
:101E000023F00803CD892B4323F004038D882B4353
:101E100024F440740D8A2C434D8A2C438480028321
:101E20008A684263038430BC704700BF00000140F1
:101E3000038B23F008031B041B0C19430183704719
:101E400081F0004102E000BF83F0004330B54FEA6B
:101E500041044FEA430594EA050F08BF90EA020FD8
:101E60001FBF54EA000C55EA020C7FEA645C7FEA6B
:101E7000655C00F0E2804FEA5454D4EB5555B8BF8E
:101E80006D420CDD2C4480EA020281EA030382EAFF
:101E9000000083EA010180EA020281EA0303362D91
:101EA00088BF30BD11F0004F4FEA01314FF4801C64
:101EB0004CEA113102D0404261EB410113F0004F76
:101EC0004FEA03334CEA133302D0524263EB43032D
:101ED00094EA050F00F0A780A4F10104D5F1200ECB
:101EE0000DDB02FA0EFC22FA05F2801841F1000126
:101EF00003FA0EF2801843FA05F359410EE0A5F1FA
:101F000020050EF1200E012A03FA0EFC28BF4CF02A
:101F1000020C43FA05F3C01851EBE37101F00045E0
:101F200007D54FF0000EDCF1000C7EEB00006EEBED
:101F30000101B1F5801F1BD3B1F5001F0CD3490877
:101F40005FEA30004FEA3C0C04F101044FEA4452CE
:101F500012F5800F80F09A80BCF1004F08BF5FEA55
:101F6000500C50F1000041EB045141EA050130BD35
:101F70005FEA4C0C404141EB010111F4801FA4F1D8
:101F80000104E9D191F0000F04BF01460020B1FA2D
:101F900081F308BF2033A3F10B03B3F120020CDA65
:101FA0000C3208DD02F1140CC2F10C0201FA0CF043
:101FB00021FA02F10CE002F11402D8BFC2F1200CA8
:101FC00001FA02F120FA0CFCDCBF41EA0C0190405E
:101FD000E41AA2BF01EB0451294330BD6FEA0404A7
:101FE0001F3C1CDA0C340EDC04F11404C4F1200292
:101FF00020FA04F001FA02F340EA030021FA04F3A4
:1020000045EA030130BDC4F10C04C4F1200220FAFA
:1020100002F001FA04F340EA0300294630BD21FA38
:1020200004F0294630BD94F0000F83F4801306BFFE
:1020300081F480110134013D4EE77FEA645C18BFF2
:102040007FEA655C29D094EA050F08BF90EA020F89
:1020500005D054EA000C04BF1946104630BD91EA81
:10206000030F1EBF0021002030BD5FEA545C05D184
:102070004000494128BF41F0004130BD14F58004C3
:102080003CBF01F5801130BD01F0004545F0FE4137
:1020900041F470014FF0000030BD7FEA645C1ABF6C
:1020A000194610467FEA655C1CBF0B46024650EAA3
:1020B000013406BF52EA033591EA030F41F40021CF
:1020C00030BD00BF90F0000F04BF0021704730B555
:1020D0004FF4806404F132044FF000054FF000012A
:1020E00050E700BF90F0000F04BF0021704730B5EB
:1020F0004FF4806404F1320410F0004548BF4042C0
:102100004FF000013EE700BF42004FEAE2014FEA14
:1021100031014FEA02701FBF12F07F4393F07F4FEF
:1021200081F06051704792F0000F14BF93F07F4F21
:10213000704730B54FF4607401F0004521F0004164
:1021400020E700BF50EA010208BF704730B54FF0EA
:1021500000050AE050EA010208BF704730B511F0EF
:10216000004502D5404261EB41014FF4806404F127
:1021700032045FEA915C3FF4DCAE4FF003025FEAA9
:10218000DC0C18BF03325FEADC0C18BF033202EB31
:10219000DC02C2F1200300FA03FC20FA02F001FA8B
:1021A00003FE40EA0E0021FA02F11444C1E600BF2A
:1021B00070B54FF0FF0C4CF4E06C1CEA11541DBFDD
:1021C0001CEA135594EA0C0F95EA0C0F00F0DEF8A8
:1021D0002C4481EA030621EA4C5123EA4C5350EA8D
:1021E000013518BF52EA033541F4801143F48013DE
:1021F00038D0A0FB02CE4FF00005E1FB02E506F06F
:102200000042E0FB03E54FF00006E1FB03569CF0C3
:10221000000F18BF4EF0010EA4F1FF04B6F5007FC9
:1022200064F5407404D25FEA4E0E6D4146EB06063B
:1022300042EAC62141EA55514FEAC52040EA5E50C4
:102240004FEACE2EB4F1FD0C88BFBCF5E06F1ED86E
:10225000BEF1004F08BF5FEA500E50F1000041EBA5
:10226000045170BD06F0004646EA010140EA020052
:1022700081EA0301B4EB5C04C2BFD4EB0C0541EA74
:10228000045170BD41F480114FF0000E013C00F389
:10229000AB8014F1360FDEBF002001F0004170BDAD
:1022A000C4F10004203C35DA0C341BDC04F11404C6
:1022B000C4F1200500FA05F320FA04F001FA05F252
:1022C00040EA020001F0004221F0004110EBD3701F
:1022D00021FA04F642EB06015EEA430E08BF20EA4B
:1022E000D37070BDC4F10C04C4F1200500FA04F3EE
:1022F00020FA05F001FA04F240EA020001F0004180
:1023000010EBD37041F100015EEA430E08BF20EAF2
:10231000D37070BDC4F1200500FA05F24EEA020E3A
:1023200020FA04F301FA05F243EA020321FA04F069
:1023300001F0004121FA04F220EA020000EBD37020
:102340005EEA430E08BF20EAD37070BD94F0000F20
:102350000FD101F00046400041EB010111F4801F54
:1023600008BF013CF7D041EA060195F0000F18BF05
:10237000704703F00046520043EB030313F4801F41
:1023800008BF013DF7D043EA0603704794EA0C0FFB
:102390000CEA135518BF95EA0C0F0CD050EA410611
:1023A00018BF52EA4306D1D181EA030101F000418E
:1023B0004FF0000070BD50EA410606BF10461946B6
:1023C00052EA430619D094EA0C0F02D150EA0136C2
:1023D00013D195EA0C0F05D152EA03361CBF104603
:1023E00019460AD181EA030101F0004141F0FE41A2
:1023F00041F470014FF0000070BD41F0FE4141F426
:10240000780170BD70B54FF0FF0C4CF4E06C1CEA25
:1024100011541DBF1CEA135594EA0C0F95EA0C0FDA
:1024200000F0A7F8A4EB050481EA030E52EA033595
:102430004FEA013100F088804FEA03334FF08055B6
:1024400045EA131343EA12634FEA022245EA1115E3
:1024500045EA10654FEA00260EF000419D4208BF94
:10246000964244F1FD0404F5407402D25B084FEA41
:102470003202B61A65EB03055B084FEA32024FF4ED
:1024800080104FF4002CB6EB020E75EB030E22BF4A
:10249000B61A754640EA0C005B084FEA3202B6EB0A
:1024A000020E75EB030E22BFB61A754640EA5C00B9
:1024B0005B084FEA3202B6EB020E75EB030E22BF49
:1024C000B61A754640EA9C005B084FEA3202B6EB4A
:1024D000020E75EB030E22BFB61A754640EADC0009
:1024E00055EA060E18D04FEA051545EA16754FEA6B
:1024F00006164FEAC30343EA52734FEAC2025FEA89
:102500001C1CC0D111F4801F0BD141EA00014FF017
:1025100000004FF0004CB6E711F4801F04BF0143E8
:102520000020B4F1FD0C88BFBCF5E06F3FF6AFAE04
:10253000B5EB030C04BFB6EB020C5FEA500C50F194
:10254000000041EB045170BD0EF0004E4EEA113117
:1025500014EB5C04C2BFD4EB0C0541EA045170BD1E
:1025600041F480114FF0000E013C90E645EA060E62
:102570008DE60CEA135594EA0C0F08BF95EA0C0F90
:102580003FF43BAF94EA0C0F0AD150EA01347FF4D8
:1025900034AF95EA0C0F7FF425AF104619462CE7AF
:1025A00095EA0C0F06D152EA03353FF4FDAE104612
:1025B000194622E750EA410618BF52EA43067FF463
:1025C000C5AE50EA41047FF40DAF52EA43057FF4F3
:1025D000EBAE12E74FEA410212F5001215D211D507
:1025E0006FF47873B3EB625212D94FEAC12343F010
:1025F000004343EA505311F0004F23FA02F018BF92
:10260000404270474FF00000704750EA013005D15A
:1026100011F0004008BF6FF0004070474FF000001D
:10262000704700BFF0B4840743D0541E002A3ED048
:10263000CDB2034603E0621E002C38D0144603F8E6
:10264000015B9A07F7D1032C2AD9CDB245EA0525BB
:102650000F2C45EA054515D9A4F110073F0903F1F0
:10266000100606EB07161A46156055609560D56092
:102670001032B242F8D104F00F040137032C03EBFF
:1026800007130DD91E462246043A032A46F8045B76
:10269000FAD8221F22F003020432134404F0030488
:1026A0002CB1C9B21C4403F8011BA342FBD1F0BCFE
:1026B000704714460346C6E7000000000000000013
:1026C000000000000000000000000000000000000A
:1026D00000000000000000000000000000000000FA
:1026E0000000000000000000000080018001800167
:1026F00080018001800180018001800180018001D2
:1027000080018001000000008001800100000000C5
:10271000000000000000000000000000CC00CC0021
:10272000CC00CC00CC00CC00000000000000000079
:102730000000000000000000000000000000000099
:102740000000000000000000000000000000000089
:1027500000000000600C600C600C30063006FE1FAC
:10276000FE1F300638071803FE1FFE1F180318034C
:102770008C018C018C01000000008000E003F80F48
:102780009C0E8C1C8C188C009800F801E007800EC1
:10279000801C8C188C189C18B80CF00FE00380007B
:1027A00080000000000000000000000000000E1883
:1027B0001B0C110C11061106110311039B018E0154
:1027C000C038C06C60446044304430441844186CD5
:1027D0000C380000000000000000E001F0033807A2
:1027E000180618063003F001F000F8009C310E3393
:1027F000061E061C061C063FFC73F02100000000AC
:102800000000000000000000000000000C000C00B0
:102810000C000C000C000C00000000000000000088
:1028200000000000000000000000000000000000A8
:102830000000000000000000000000020003800112
:10284000C000C00060006000300030003000300088
:10285000300030003000300060006000C000C00078
:102860008001000300020000000020006000C000A2
:102870008001800100030003000600060006000638
:102880000006000600060006000300038001800128
:10289000C0006000200000000000000000000000F8
:1028A00000000000C000C000D806F807E0013003B7
:1028B00038070000000000000000000000000000D9
:1028C0000000000000000000000000000000000008
:1028D0000000000080018001800180018001FC3F38
:1028E000FC3F800180018001800180010000000028
:1028F00000000000000000000000000000000000D8
:1029000000000000000000000000000000000000C7
:1029100000000000000000000000800180010001B4
:102920000001800000000000000000000000000026
:102930000000000000000000000000000000000097
:10294000E007E007000000000000000000000000B9
:102950000000000000000000000000000000000077
:102960000000000000000000000000000000000067
:1029700000000000000000000000C000C0000000D7
:1029800000000000000000000000000C000C000629
:10299000000600060003000300038003800180019D
:1029A0008001C000C000C0006000600000000000A6
:1029B00000000000000000000000E003F007380EF7
:1029C000180C0C180C180C180C180C180C180C18E7
:1029D0000C180C18180C380EF007E003000000006B
:1029E0000000000000000000000000018001C001A4
:1029F000F00198018801800180018001800180013F
:102A000080018001800180018001800100000000C0
:102A100000000000000000000000E003F80F180CA8
:102A20000C180C1800180018000C00060003800198
:102A3000C000600030001800FC1FFC1F00000000F8
:102A400000000000000000000000E001F807180E80
:102A50000C0C0C0C000C0006C003C007000C001886
:102A600000180C180C18180CF807E0030000000000
:102A700000000000000000000000000C000E000F2D
:102A8000000F800DC00C600C600C300C180C0C0C8E
:102A9000FC3FFC3F000C000C000C000C0000000090
:102AA00000000000000000000000F80FF80F180000
:102AB00018000C00EC03FC071C0E001C001800188A
:102AC00000180C181C0C180EF807E003000000009A
:102AD00000000000000000000000C007F00F381CDC
:102AE000181818000C00CC03EC0F3C0E1C1C0C1822
:102AF0000C180C18181C380EF007E003000000003A
:102B000000000000000000000000FC1FFC1F000C83
:102B100000060006000380038001C001C000E00041
:102B200060006000700030003000300000000000E5
:102B300000000000000000000000E003F007380E75
:102B4000180C180C180C3806F007F007180C0C18A5
:102B50000C180C180C18380CF80FE00300000000DB
:102B600000000000000000000000E003F007380E45
:102B70001C0C0C180C180C181C1C381EF81BE01927
:102B80000018000C000C1C0EF807F00100000000FB
:102B90000000000000000000000000000000000035
:102BA0000000000080018001000000000000000023
:102BB0000000000000000000800180010000000013
:102BC0000000000000000000000000000000000005
:102BD00000000000800180010000000000000000F3
:102BE00000000000000000008001800100010001E1
:102BF0008000000000000000000000000000000055
:102C000000000000000000000010001C800FE00326
:102C1000F8001800F800E003800F001C001000000E
:102C200000000000000000000000000000000000A4
:102C30000000000000000000F81F0000000000007D
:102C4000F81F00000000000000000000000000006D
:102C50000000000000000000000000000000000074
:102C6000000000000000000008003800F001C0076C
:102C7000001F0018001FC007F00138000800000006
:102C800000000000000000000000E003F80F180C36
:102C90000C180C180018000C000600038001C0007E
:102CA000C000C00000000000C000C0000000000024
:102CB000000000000000000000000000E0071818FD
:102CC0000420C229224A1144094409440944092222
:102CD0001113E20C024004201818E0070000000065
:102CE0000000000000000000000080038003C00618
:102CF000C006C006600C600C301830183018F83F61
:102D0000F83F1C700C600C6006C006C0000000009C
:102D100000000000000000000000FC03FC0F0C0C91
:102D20000C180C180C180C0CFC07FC0F0C180C30B1
:102D30000C300C300C300C18FC1FFC07000000009D
:102D400000000000000000000000C007F01F38383D
:102D50001C300C7006600600060006000600060027
:102D6000060006600C701C30F01FE0070000000039
:102D700000000000000000000000FE03FE0F060E31
:102D800006180618063006300630063006300630C3
:102D9000063006180618060EFE0FFE03000000009F
:102DA00000000000000000000000FC3FFC3F0C00A1
:102DB0000C000C000C000C00FC1FFC1F0C000C0095
:102DC0000C000C000C000C00FC3FFC3F000000005D
:102DD00000000000000000000000F83FF83F18006D
:102DE0001800180018001800F81FF81F1800180025
:102DF0001800180018001800180018000000000043
:102E000000000000000000000000E00FF83F3C78E8
:102E10000E6006E007C00300030003FE03FE03C0CC
:102E200007C006C00EC03CF0F83FE00F00000000F5
:102E3000000000000000000000000C300C300C30DE
:102E40000C300C300C300C30FC3FFC3F0C300C30A4
:102E50000C300C300C300C300C300C30000000000A
:102E600000000000000000000000800180018001DF
:102E7000800180018001800180018001800180014A
:102E8000800180018001800180018001000000003C
:102E90000000000000000000000000060006000620
:102EA00000060006000600060006000600060006F2
:102EB0000006180618063807F003E00100000000BD
:102EC0000000000000000000000006300618060C9C
:102ED000060606038601C60066007600DE008E0147
:102EE00006030606060C0618063006600000000001
:102EF000000000000000000000001800180018008A
:102F00001800180018001800180018001800180001
:102F10001800180018001800F81FF81F0000000023
:102F2000000000000000000000000EE01EF01EF097
:102F30001EF036D836D836D836D866CC66CC66CCB5
:102F4000C6C6C6C6C6C6C6C686C386C300000000BF
:102F5000000000000000000000000C301C303C307D
:102F60003C306C306C30CC30CC308C310C330C338A
:102F70000C360C360C3C0C3C0C380C3000000000BD
:102F800000000000000000000000E007F81F1C38EF
:102F90000E70066003C003C003C003C003C003C0BB
:102FA00003C006600E701C38F81FE0070000000028
:102FB00000000000000000000000FC0FFC1F0C38A7
:102FC0000C300C300C300C300C18FC1FFC070C00C3
:102FD0000C000C000C000C000C000C0000000000A9
:102FE00000000000000000000000E007F81F1C388F
:102FF0000E70066003E003C003C003C003C003C03B
:1030000007E006630E3F1C3CF83FE0F700C00000FD
:1030100000000000000000000000FE0FFE1F063848
:103020000630063006300638FE1FFE070603060689
:10303000060C061806180630063006600000000070
:1030400000000000000000000000E003F80F1C0C6E
:103050000C180C180C001C00F803E00F001E0038C0
:10306000063006300E301C1CF80FE0070000000090
:1030700000000000000000000000FE7FFE7F8001D5
:103080008001800180018001800180018001800138
:10309000800180018001800180018001000000002A
:1030A000000000000000000000000C300C300C306C
:1030B0000C300C300C300C300C300C300C300C3030
:1030C0000C300C300C301818F81FE007000000001E
:1030D0000000000000000000000003600630063021
:1030E00006300C180C180C18180C180C380E30067A
:1030F0003006700760036003C001C00100000000DB
:10310000000000000000000000000360C361C36114
:10311000C3616633663366336633663366336C1B6E
:103120006C1B6C1B2C1A3C1E380E380E0000000065
:10313000000000000000000000000FE00C701830DC
:103140003018700C600EC00780038003C003E006D7
:10315000700C301C18180C300E6007E000000000E6
:103160000000000000000000000003C006600C30FA
:103170001C383818300C6006E007C003800180015D
:103180008001800180018001800180010000000039
:1031900000000000000000000000FC7FFC7F0060D9
:1031A00000300018000C000600038001C000600021
:1031B000300018000C000600FE7FFE7F00000000BB
:1031C00000000000000000000000E003E0036000D9
:1031D00060006000600060006000600060006000EF
:1031E00060006000600060006000600060006000DF
:1031F0006000E003E00300000000300030006000E9
:1032000060006000C000C000C000C00180018001FB
:103210008001000300030003000600060000000018
:1032200000000000000000000000E003E0030003D5
:103230000003000300030003000300030003000376
:103240000003000300030003000300030003000366
:103250000003E003E003000000000000C001C00123
:1032600060036003600330063006180C180C000081
:10327000000000000000000000000000000000004E
:10328000000000000000000000000000000000003E
:10329000000000000000000000000000000000002E
:1032A00000000000000000000000FFFFFFFF000022
:1032B000000000000000000000000C000C000C00EA
:1032C0000C000C000C0000000000000000000000DA
:1032D00000000000000000000000000000000000EE
:1032E00000000000000000000000000000000000DE
:1032F00000000000F003F8071C0C0C0C000FF00F8E
:10330000F80C0C0C0C0C1C0FF80FF018000000004F
:103310000000000000000000000018001800180065
:1033200018001800D803F80F380C181818181818B7
:10333000181818181818380CF80FD80300000000D7
:10334000000000000000000000000000000000007D
:1033500000000000C003F007300E180C1800180021
:1033600018001800180C300EF007C0030000000011
:103370000000000000000000000000180018001805
:1033800000180018C01BF01F301C18181818181847
:10339000181818181818301CF01FC01B0000000067
:1033A000000000000000000000000000000000001D
:1033B00000000000C003F00F300C1818F81FF81FB1
:1033C000180018003818301CF00FC007000000006B
:1033D00000000000000000000000800FC00FC000CF
:1033E000C000C000F007F007C000C000C000C0006F
:1033F000C000C000C000C000C000C000000000004D
:1034000000000000000000000000000000000000BC
:1034100000000000E00DF80F180E0C0C0C0C0C0C4A
:103420000C0C0C0C0C0C180EF80FE00D000C0C0C16
:103430001C06F807F0010000000018001800180032
:1034400018001800D807F80F381C18181818181882
:10345000181818181818181818181818000000004C
:1034600000000000000000000000C000C0000000DC
:1034700000000000C000C000C000C000C000C000CC
:10348000C000C000C000C000C000C00000000000BC
:1034900000000000000000000000C000C0000000AC
:1034A00000000000C000C000C000C000C000C0009C
:1034B000C000C000C000C000C000C000C000C0000C
:1034C000C000F8007800000000000C000C000C00A8
:1034D0000C000C000C0C0C060C038C01CC006C00D6
:1034E000FC009C018C030C030C060C0C000000007B
:1034F00000000000000000000000C000C000C0008C
:10350000C000C000C000C000C000C000C000C000BB
:10351000C000C000C000C000C000C000000000002B
:10352000000000000000000000000000000000009B
:10353000000000007C3CFF7EC7E383C183C183C1E0
:1035400083C183C183C183C183C183C100000000E3
:10355000000000000000000000000000000000006B
:10356000000000009807F80F381C181818181818D1
:10357000181818181818181818181818000000002B
:10358000000000000000000000000000000000003B
:1035900000000000C003F00F300C1818181818189D
:1035A000181818181818300CF00FC003000000008D
:1035B000000000000000000000000000000000000B
:1035C00000000000D803F80F380C18181818181845
:1035D000181818181818380CF80FD8031800180005
:1035E0001800180018000000000000000000000093
:1035F00000000000C01BF01F301C18181818181805
:10360000181818181818301CF01FC01B00180018C4
:103610000018001800180000000000000000000062
:1036200000000000B007F0037000300030003000F0
:10363000300030003000300030003000000000006A
:10364000000000000000000000000000000000007A
:1036500000000000E003F003380E180C3800F003FF
:10366000C007000C180C380EF007E0030000000043
:103670000000000000000000000000008000C0000A
:10368000C000C000F007F007C000C000C000C000CC
:10369000C000C000C000C000C007800700000000DC
:1036A000000000000000000000000000000000001A
:1036B00000000000181818181818181818181818EA
:1036C000181818181818381CF01FE019000000000E
:1036D00000000000000000000000000000000000EA
:1036E000000000000C18180C180C180C30063006DE
:1036F0003006600360036003C001C00100000000E9
:1037000000000000000000000000000000000000B9
:1037100000000000C141C141C3616363636363632F
:103720003636363636361C1C1C1C1C1C00000000AD
:103730000000000000000000000000000000000089
:10374000000000001C38381C300C60066003600369
:10375000600360036006300C381C1C380000000059
:103760000000000000000000000000000000000059
:10377000000000001830301830187018600C600C11
:10378000E00CC006C0068003800380038001800136
:10379000C001F00070000000000000000000000008
:1037A00000000000FC1FFC1F000C0006000380014D
:1037B000C000600030001800FC1FFC1F000000006B
:1037C0000000000000000000000000038001C000B5
:1037D000C000C000C000C000C00060006000300039
:1037E00060004000C000C000C000C000C000C000B9
:1037F00080010003000000000000800180018001C2
:1038000080018001800180018001800180018001B0
:1038100080018001800180018001800180018001A0
:10382000800180018001000000006000C000C00134
:1038300080018001800180018001000300030006F7
:10384000000300018001800180018001800180016E
:10385000C000600000000000000000000000000048
:103860000000000000000000F010F81F080F00002A
:103870000000000000000000000000000000000048
:103880000000000000000000090009000900090014
:1038900009000900090009000900090009000900E0
:1038A00009000900090009000900090009000900D0
:1038B00009000900090009000900090009000900C0
:1038C00009000900090009000900090009000900B0
:1038D00009000900090009000900090009000900A0
:1038E000090009000A000A000A000A000A000A008A
:1038F0000A000A000A000A000A000A000A000A0078
:103900000A000A000A000A000A000A000A000A0067
:103910000A000A000A000A000A000A000A000A0057
:103920000A000A000A000A000A000A000A000A0047
:103930000A000A000A000A000A000A000A000A0037
:103940000A000A000A000A000A000A000A000A0027
:103950000A000A000A000A000A000A000A000A0017
:103960000A000A000A000A000B000B000B000B0003
:103970000B000B000B000B000B000B000B000B00EF
:103980000B000B000B000B000B000B000B000B00DF
:103990000B000B000B000B000B000B000B000B00CF
:1039A0000B000B000B000B000B000B000B000B00BF
:1039B0000B000B000B000B000B000B000B000B00AF
:1039C0000B000B000B000B000B000B000B000B009F
:1039D0000B000B000B000B000B000B000B000B008F
:1039E0000B000B000C000C000C000C000C000C0079
:1039F0000C000C000C000C000C000C000C000C0067
:103A00000C000C000C000C000D000D000D000D0052
:103A10000D000D000D000D000D000D000D000E003D
:103A20000E000E000E000F000F000F00100810080F
:103A30001000100010000F000E002E002F000E00CE
:103A40000F002F080E000E000E000E000E000D00DD
:103A50000D000D000D000D000C000C000D000D0000
:103A60000D000C000D000C000C000C000C000C00F4
:103A70000C000C000C000C000C000C000C000C00E6
:103A80000C000C000C000C000B000B000B000B00DA
:103A90000B000B000B000B000B000B000B000B00CE
:103AA0000B000B000B000B000B000B000B000B00BE
:103AB0000B000B000B000B000B000B000B000B00AE
:103AC0000B000B000B000B000A000A000A000A00A2
:103AD0000A000A000A000A000A000A000A000A0096
:103AE0000A000A000A000A000A000A000A000A0086
:103AF0000A000A000A000A000A000A000A000A0076
:103B00000A000A000A000A00090009000900090069
:103B1000090009000900090009000900090009005D
:103B2000090009000900090009000900090009004D
:103B3000090009000900090009000900090009003D
:103B4000090009000900090009000900090009002D
:103B5000090009000900090009000900090009001D
:103B6000090009000A000A000A000A000A000A0007
:103B70000A000A000A000A000A000A000A000A00F5
:103B80000A000A000A000A000A000A000A000A00E5
:103B90000A000A000A000A000A000A000A000A00D5
:103BA0000A000A000A000A000A000A000A000A00C5
:103BB0000A000A000A000A000A000A000A000A00B5
:103BC0000A000A000A000A000A000A000A000A00A5
:103BD0000A000A000A000A000A000A000A000A0095
:103BE0000A000A000A000A000B000B000B000B0081
:103BF0000B000B000B000B000B000B000B000B006D
:103C00000B000B000B000B000B000B000B000B005C
:103C10000B000B000B000B000B000B000B000B004C
:103C20000B000B000B000B000B000B000B000B003C
:103C30000B000B000B000B000B000B000B000B002C
:103C40000B000B000B000B000B000B000B000B001C
:103C50000B000B000B000B000B000B000B000B000C
:103C60000B000B000C000C000C000C000C000C00F6
:103C70000C000C000C000C000C000C000C000C00E4
:103C80000C000C000C000C000D000D000D000D00D0
:103C90000D000D000D000D000D000D000D000E00BB
:103CA0000E000E000E000F000F0030080F000F0076
:103CB000100010000F000F002F000E000F002F004B
:103CC0000F000E000E000E000E000E000E000E0083
:103CD0000D000D000D000D000D000D000D000D007C
:103CE0000D000C000D000D000C000C000C000C0071
:103CF0000C000C000C000C000C000C000C000C0064
:103D00000C000C000C000C000B000B000B000B0057
:103D10000B000B000B000B000B000B000B000B004B
:103D20000B000B000B000B000B000B000B000B003B
:103D30000B000B000B000B000B000B000B000B002B
:103D40000B000B000B000B000A000A000A000A001F
:103D50000A000A000A000A000A000A000A000A0013
:103D60000A000A000A000A000A000A000A000A0003
:103D70000A000A000A000A000A000A000A000A00F3
:103D80000A000A000A000A000900090009000900E7
:103D900009000900090009000900090009000900DB
:103DA00009000900090009000900090009000900CB
:103DB00009000900090009000900090009000900BB
:103DC00009000900090009000900090009000900AB
:103DD000090009000900090009000900090009009B
:103DE0000A000A000A000A000A000A000A000A0083
:103DF0000A000A000A000A000A000A000A000A0073
:103E00000A000A000A000A000A000A000A000A0062
:103E10000A000A000A000A000A000A000A000A0052
:103E20000A000A000A000A000A000A000A000A0042
:103E30000A000A000A000A000A000A000A000A0032
:103E40000A000A000A000A000A000A000A000A0022
:103E50000A000A000A000A000A000A000A000A0012
:103E60000A000A000B000B000B000B000B000B00FC
:103E70000B000B000B000B000B000B000B000B00EA
:103E80000B000B000B000B000B000B000B000B00DA
:103E90000B000B000B000B000B000B000B000B00CA
:103EA0000B000B000B000B000B000B000B000B00BA
:103EB0000B000B000B000B000B000B000B000B00AA
:103EC0000B000B000B000B000B000B000B000B009A
:103ED0000B000B000B000B000B000B000B000B008A
:103EE0000C000C000C000C000C000C000C000C0072
:103EF0000C000C000C000C000C000C000C000C0062
:103F00000C000C000C000C000D000D000D000D004D
:103F10000D000D000D000D000D000D000E000E0037
:103F20000E000E000F000F004F002F002F0050005A
:103F30007100100030002F000F000F000F000F0065
:103F40000F000F002E080D000E000E000E000E00D8
:103F50000D000D000E000D000D000D000D000D00F8
:103F60000D000D000D000D000C000C000C000C00ED
:103F70000C000C000C000C000C000C000C000C00E1
:103F80000C000C000C000C000B000B000B000B00D5
:103F90000B000B000B000B000B000B000B000B00C9
:103FA0000B000B000B000B000B000B000B000B00B9
:103FB0000B000B000B000B000B000B000B000B00A9
:103FC0000B000B000B000B000A000A000A000A009D
:103FD0000A000A000A000A000A000A000A000A0091
:103FE0000A000A000A000A000A000A000A000A0081
:103FF0000A000A000A000A000A000A000A000A0071
:104000000A000A000A000A00090009000900090064
:104010000900090009000900090009000900090058
:104020000900090009000900090009000900090048
:104030000900090009000900090009000900090038
:104040000900090009000900090009000900090028
:104050000900090009000900090009000900090018
:104060000A000A000A000A000A000A000A000A0000
:104070000A000A000A000A000A000A000A000A00F0
:104080000A000A000A000A000A000A000A000A00E0
:104090000A000A000A000A000A000A000A000A00D0
:1040A0000A000A000A000A000A000A000A000A00C0
:1040B0000A000A000A000A000A000A000A000A00B0
:1040C0000A000A000A000A000A000A000A000A00A0
:1040D0000A000A000A000A000A000A000A000A0090
:1040E0000A000A000B000B000B000B000B000B007A
:1040F0000B000B000B000B000B000B000B000B0068
:104100000B000B000B000B000B000B000B000B0057
:104110000B000B000B000B000B000B000B000B0047
:104120000B000B000B000B000B000B000B000B0037
:104130000B000B000B000B000B000B000B000B0027
:104140000B000B000B000B000B000B000B000B0017
:104150000B000B000B000B000B000B000B000B0007
:104160000C000C000C000C000C000C000C000C00EF
:104170000C000C000C000C000C000C000C000C00DF
:104180000C000C000C000C000D000D000D000D00CB
:104190000D000D000D000D000D000E000E000E00B4
:1041A0000E000F000F000F009000B521162AD52138
:1041B00050009200910071003000500030000F005C
:1041C0000F000F000E000E000E000E000E000E007D
:1041D0000D000D000E000E000D000D000D000D0075
:1041E0000D000D000D000D000C000C000C000C006B
:1041F0000C000C000C000C000C000C000C000C005F
:104200000C000C000C000C000C000B000B000B0051
:104210000B000B000B000B000B000B000B000B0046
:104220000B000B000B000B000B000B000B000B0036
:104230000B000B000B000B000B000B000B000B0026
:104240000B000B000B000B000A000A000A000A001A
:104250000A000A000A000A000A000A000A000A000E
:104260000A000A000A000A000A000A000A000A00FE
:104270000A000A000A000A000A000A000A000A00EE
:104280000A000A000A000A000900090009000900E2
:1042900009000900090009000900090009000900D6
:1042A00009000900090009000900090009000900C6
:1042B00009000900090009000900090009000900B6
:1042C00009000900090009000900090009000900A6
:1042D0000900090009000900090009000A000A0094
:1042E0000A000A000A000A000A000A000A000A007E
:1042F0000A000A000A000A000A000A000A000A006E
:104300000A000A000A000A000A000A000A000A005D
:104310000A000A000A000A000A000A000A000A004D
:104320000A000A000A000A000A000A000A000A003D
:104330000A000A000A000A000A000A000A000A002D
:104340000A000A000A000A000A000A000A000A001D
:104350000A000A000A000A000A000A000B000B000B
:104360000B000B000B000B000B000B000B000B00F5
:104370000B000B000B000B000B000B000B000B00E5
:104380000B000B000B000B000B000B000B000B00D5
:104390000B000B000B000B000B000B000B000B00C5
:1043A0000B000B000B000B000B000B000B000B00B5
:1043B0000B000B000B000B000B000B000B000B00A5
:1043C0000B000B000B000B000C000C000C000C0091
:1043D0000B000B000B000B000B000B000C000C0083
:1043E0000C000C000C000C000C000C000C000C006D
:1043F0000C000C000C000C000C000C000C000C005D
:104400000C000C000D000D000D000D000D000D0046
:104410000D000D000D000D000E000E000E000E0030
:104420000E000F000F002F00B1009411B93AFA3AB4
:104430003301D200F2001301172AD20831003000F4
:104440000F000F000E002F000F000E000F000E00D7
:104450000E000E000E000E000E000D000E000E00ED
:104460000D000D000D000D000D000D000D000C00E5
:104470000C000C000C000C000C000C000C000C00DC
:104480000C000C000C000C000C000C000C000C00CC
:104490000B000B000B000B000B000B000B000B00C4
:1044A0000B000B000B000B000B000B000B000B00B4
:1044B0000B000B000B000B000B000B000B000B00A4
:1044C0000B000B000B000B000A000A000A000A0098
:1044D0000A000A000A000A000A000A000A000A008C
:1044E0000A000A000A000A000A000A000A000A007C
:1044F0000A000A000A000A000A000A000A000A006C
:104500000A000A000A000A0009000900090009005F
:104510000900090009000900090009000900090053
:104520000900090009000900090009000900090043
:104530000900090009000900090009000900090033
:104540000900090009000900090009000900090023
:104550000900090009000900090009000A000A0011
:104560000A000A000A000A000A000A000A000A00FB
:104570000A000A000A000A000A000A000A000A00EB
:104580000A000A000A000A000A000A000A000A00DB
:104590000A000A000A000A000A000A000A000A00CB
:1045A0000A000A000A000A000A000A000A000A00BB
:1045B0000A000A000A000A000A000A000A000A00AB
:1045C0000A000A000A000A000A000A000A000A009B
:1045D0000A000A000A000A000A000A000B000B0089
:1045E0000B000B000B000B000B000B000B000B0073
:1045F0000B000B000B000B000B000B000B000B0063
:104600000B000B000B000B000B000B000B000B0052
:104610000B000B000B000B000B000B000B000B0042
:104620000B000B000B000B000B000B000B000B0032
:104630000B000B000B000B000B000B000B000B0022
:104640000B000B000B000B000C000C000C000C000E
:104650000B000B000B000B000B000B000C000C0000
:104660000C000C000C000C000C000C000C000C00EA
:104670000C000C000C000C000C000C000C000C00DA
:104680000C000C000D000D000D000D000D000D00C4
:104690000D000D000D000D000E000E000E000E00AE
:1046A0000F000F000F002F007000B100D2005C431C
:1046B000DD53982A33011B3BFA3AF30051005100B5
:1046C00010000F000F000F000F000F000F000F0071
:1046D0000E000E000E000E000E000E000E000E006A
:1046E0000D000D000D000D000D000D000D000D0062
:1046F0000D000C000C000C000C000C000C000C0059
:104700000C000C000C000C000C000C000C000C0049
:104710000B000B000B000B000B000B000B000B0041
:104720000B000B000B000B000B000B000B000B0031
:104730000B000B000B000B000B000B000B000B0021
:104740000B000B000B000B000B000A000A000A0014
:104750000A000A000A000A000A000A000A000A0009
:104760000A000A000A000A000A000A000A000A00F9
:104770000A000A000A000A000A000A000A000A00E9
:104780000A000A000A000A000900090009000900DD
:1047900009000900090009000900090009000900D1
:1047A00009000900090009000900090009000900C1
:1047B00009000900090009000900090009000900B1
:1047C00009000900090009000900090009000900A1
:1047D00009000900090009000A000A000A000A008D
:1047E0000A000A000A000A000A000A000A000A0079
:1047F0000A000A000A000A000A000A000A000A0069
:104800000A000A000A000A000A000A000A000A0058
:104810000A000A000A000A000A000A000A000A0048
:104820000A000A000A000A000A000A000A000A0038
:104830000A000A000A000A000A000A000A000A0028
:104840000A000A000A000A000A000A000A000A0018
:104850000A000A000B000B000B000B000B000B0002
:104860000B000B000B000B000B000B000B000B00F0
:104870000B000B000B000B000B000B000B000B00E0
:104880000B000B000B000B000B000B000B000B00D0
:104890000B000B000B000B000B000B000B000B00C0
:1048A0000B000B000B000B000B000B000B000B00B0
:1048B0000B000B000B000B000B000B000B000B00A0
:1048C0000B000B000B000B000C000C000C000C008C
:1048D0000C000C000C000C000C000C000C000C0078
:1048E0000C000C000C000C000C000C000C000C0068
:1048F0000C000C000C000C000C000C000D000D0056
:104900000D000D000D000D000D000D000D000D003F
:104910000D000D000E000E000E000E000E000E0029
:104920000F000F000F0030007000F308B3005509AE
:10493000982A9B43DC4B9B439409B100B200920838
:104940003100300030000F000F000F000F000F008B
:104950000F000F000F000E000E000E000E000E00E4
:104960000E000D000D000D000D000D000D000D00DE
:104970000D000C000C000C000C000C000C000C00D6
:104980000C000C000C000C000C000C000C000C00C7
:104990000C000C000B000B000B000B000B000B00BD
:1049A0000B000B000B000B000B000B000B000B00AF
:1049B0000B000B000B000B000B000B000B000B009F
:1049C0000B000B000B000B000B000B000B000B008F
:1049D0000B000B000A000A000A000A000A000A0085
:1049E0000A000A000A000A000A000A000A000A0077
:1049F0000A000A000A000A000A000A000A000A0067
:104A00000A000A000A000A0009000900090009005A
:104A1000090009000900090009000900090009004E
:104A2000090009000900090009000900090009003E
:104A3000090009000900090009000900090009002E
:104A4000090009000900090009000900090009001E
:104A500009000900090009000A000A000A000A000A
:104A60000A000A000A000A000A000A000A000A00F6
:104A70000A000A000A000A000A000A000A000A00E6
:104A80000A000A000A000A000A000A000A000A00D6
:104A90000A000A000A000A000A000A000A000A00C6
:104AA0000A000A000A000A000A000A000A000A00B6
:104AB0000A000A000A000A000A000A000A000A00A6
:104AC0000A000A000A000A000A000A000A000A0096
:104AD0000A000A000B000B000B000B000B000B0080
:104AE0000B000B000B000B000B000B000B000B006E
:104AF0000B000B000B000B000B000B000B000B005E
:104B00000B000B000B000B000B000B000B000B004D
:104B10000B000B000B000B000B000B000B000B003D
:104B20000B000B000B000B000B000B000B000B002D
:104B30000B000B000B000B000B000B000B000B001D
:104B40000B000B000B000B000C000C000C000C0009
:104B50000C000C000C000C000C000C000C000C00F5
:104B60000C000C000C000C000C000C000C000C00E5
:104B70000C000C000C000C000C000C000D000D00D3
:104B80000D000D000D000D000D000D000D000D00BD
:104B90000D000E000E000E000E000E000E000F00A5
:104BA0000F000F001000300071007100D3003409B5
:104BB000D100B7225D5C551A32013301B200710099
:104BC00072005100100010000F000F000F000F00C6
:104BD0000F000F000F000F000F000F000E000E005F
:104BE0000E000D000D000D000D000D000D000D005C
:104BF0000D000D000D000C000C000C000C000C0052
:104C00000C000C000C000C000C000C000C000C0044
:104C10000C000C000B000B000B000B000B000B003A
:104C20000B000B000B000B000B000B000B000B002C
:104C30000B000B000B000B000B000B000B000B001C
:104C40000B000B000B000B000B000B000B000B000C
:104C50000B000B000A000A000A000A000A000A0002
:104C60000A000A000A000A000A000A000A000A00F4
:104C70000A000A000A000A000A000A000A000A00E4
:104C80000A000A000A000A000900090009000900D8
:104C900009000900090009000900090009000900CC
:104CA00009000900090009000900090009000900BC
:104CB00009000900090009000900090009000900AC
:104CC000090009000900090009000900090009009C
:104CD00009000900090009000A000A000A000A0088
:104CE0000A000A000A000A000A000A000A000A0074
:104CF0000A000A000A000A000A000A000A000A0064
:104D00000A000A000A000A000A000A000A000A0053
:104D10000A000A000A000A000A000A000A000A0043
:104D20000A000A000A000A000A000A000A000A0033
:104D30000A000A000A000A000A000A000A000A0023
:104D40000A000A000A000A000B000B000B000B000F
:104D50000B000B000B000B000B000B000B000B00FB
:104D60000B000B000B000B000B000B000B000B00EB
:104D70000B000B000B000B000B000B000B000B00DB
:104D80000B000B000B000B000B000B000B000B00CB
:104D90000B000B000B000B000B000B000B000B00BB
:104DA0000B000B000B000B000B000B000B000B00AB
:104DB0000B000B000B000B000B000B000B000B009B
:104DC0000B000B000B000B000C000C000C000C0087
:104DD0000C000C000C000C000C000C000C000C0073
:104DE0000C000C000C000C000C000C000C000C0063
:104DF0000C000C000D000D000D000D000D000D004D
:104E00000D000D000D000D000D000D000D000D003A
:104E10000E000E000E000E000E000E000E000F0021
:104E20000F000F003000300071007100B200340933
:104E3000330115127D5C183332015409F200B200BF
:104E4000710072005000300030000F000F00300081
:104E50000F000F000F000F000F000F000E000E00DC
:104E60000E002E000D002D000D000D000D000D0098
:104E70000D000D000D000C000D000D000C000C00CD
:104E80000C000C000C000C000C000C000C000C00C2
:104E90000C000C000C000C000B000B000B000B00B6
:104EA0000B000B000B000B000B000B000B000B00AA
:104EB0000B000B000B000B000B000B000B000B009A
:104EC0000B000B000B000B000B000B000B000B008A
:104ED0000B000B000A000A000A000A000A000A0080
:104EE0000A000A000A000A000A000A000A000A0072
:104EF0000A000A000A000A000A000A000A000A0062
:104F00000A000A000A000A00090009000900090055
:104F10000900090009000900090009000900090049
:104F20000900090009000900090009000900090039
:104F30000900090009000900090009000900090029
:104F40000900090009000900090009000900090019
:104F500009000900090009000A000A000A000A0005
:104F60000A000A000A000A000A000A000A000A00F1
:104F70000A000A000A000A000A000A000A000A00E1
:104F80000A000A000A000A000A000A000A000A00D1
:104F90000A000A000A000A000A000A000A000A00C1
:104FA0000A000A000A000A000A000A000A000A00B1
:104FB0000A000A000A000A000A000A000A000A00A1
:104FC0000A000A000A000A000B000B000B000B008D
:104FD0000B000B000B000B000B000B000B000B0079
:104FE0000B000B000B000B000B000B000B000B0069
:104FF0000B000B000B000B000B000B000B000B0059
:105000000B000B000B000B000B000B000B000B0048
:105010000B000B000B000B000B000B000B000B0038
:105020000B000B000B000B000B000B000B000B0028
:105030000B000B000B000B000B000B000B000B0018
:105040000B000B000B000B000C000C000C000C0004
:105050000C000C000C000C000C000C000C000C00F0
:105060000C000C000C000C000C000C000C000C00E0
:105070000C000C000D000D000D000D000D000D00CA
:105080000D000D000D000D000D000D000D000E00B7
:105090000E000E000E000E000E000E000F000F009E
:1050A0000F000F001000500071089108B200D200EC
:1050B0005401361A7D5C383352017309F200F3084B
:1050C000D2087100510071001000510030000F0033
:1050D000300030000F002F000F000F002F080F00CE
:1050E0000E000E002E000D000D000D000D000D0035
:1050F0000D000D000D000D000C000C000C000C004C
:105100000C000C000C000C000C000C000C000C003F
:105110000C000C000C000C000B000B000B000B0033
:105120000B000B000B000B000B000B000B000B0027
:105130000B000B000B000B000B000B000B000B0017
:105140000B000B000B000B000B000B000B000B0007
:105150000B000B000A000A000A000A000A000A00FD
:105160000A000A000A000A000A000A000A000A00EF
:105170000A000A000A000A000A000A000A000A00DF
:105180000A000A000A000A000900090009000900D3
:1051900009000900090009000900090009000900C7
:1051A00009000900090009000900090009000900B7
:1051B00009000900090009000900090009000900A7
:1051C0000900090009000900090009000900090097
:1051D000090009000A000A000A000A000A000A0081
:1051E0000A000A000A000A000A000A000A000A006F
:1051F0000A000A000A000A000A000A000A000A005F
:105200000A000A000A000A000A000A000A000A004E
:105210000A000A000A000A000A000A000A000A003E
:105220000A000A000A000A000A000A000A000A002E
:105230000A000A000A000A000B000B000A000A001C
:105240000A000A000A000A000B000B000B000B000A
:105250000B000B000B000B000B000B000B000B00F6
:105260000B000B000B000B000B000B000B000B00E6
:105270000B000B000B000B000B000B000B000B00D6
:105280000B000B000B000B000B000B000B000B00C6
:105290000B000B000B000B000B000B000B000B00B6
:1052A0000B000B000B000B000B000B000B000B00A6
:1052B0000B000B000B000B000B000B000B000B0096
:1052C0000B000B000B000B000C000C000C000C0082
:1052D0000C000C000C000C000C000C000C000C006E
:1052E0000C000C000C000C000C000C000C000C005E
:1052F0000D000D000D000D000D000D000D000D0046
:105300000D000D000D000D000D000D000D000E0034
:105310000E000E000E000E000F000F000F000F0019
:105320000F000F00300050005100B200B200F30037
:1053300033015A3BFE64D943B522383B772AD20069
:10534000D200B20092007100920871005100710009
:10535000510050003000500050000F000F000F00AF
:105360000F000E000E000E000E000D000D000D00CF
:105370000D000D000D000D000C000C000C000C00C9
:105380000C000C000C000C000C000C000C000C00BD
:105390000C000C000C000C000C000C000B000B00AF
:1053A0000B000B000B000B000B000B000B000B00A5
:1053B0000B000B000B000B000B000B000B000B0095
:1053C0000B000B000B000B000B000B000B000B0085
:1053D0000B000B000A000A000A000A000A000A007B
:1053E0000A000A000A000A000A000A000A000A006D
:1053F0000A000A000A000A000A000A000A000A005D
:105400000A000A000A000A00090009000900090050
:105410000900090009000900090009000900090044
:105420000900090009000900090009000900090034
:105430000900090009000900090009000900090024
:105440000900090009000900090009000900090014
:10545000090009000A000A000A000A000A000A00FE
:105460000A000A000A000A000A000A000A000A00EC
:105470000A000A000A000A000A000A000A000A00DC
:105480000A000A000A000A000A000A000A000A00CC
:105490000A000A000A000A000A000A000A000A00BC
:1054A0000A000A000A000A000A000A000A000A00AC
:1054B0000A000A000A000A000B000B000A000A009A
:1054C0000A000A000A000A000B000B000B000B0088
:1054D0000B000B000B000B000B000B000B000B0074
:1054E0000B000B000B000B000B000B000B000B0064
:1054F0000B000B000B000B000B000B000B000B0054
:105500000B000B000B000B000B000B000B000B0043
:105510000B000B000B000B000B000B000B000B0033
:105520000B000B000B000B000B000B000B000B0023
:105530000B000B000B000B000B000B000B000B0013
:105540000B000B000B000C000C000C000C000C00FE
:105550000C000C000C000C000C000C000C000C00EB
:105560000C000C000C000C000C000C000C000C00DB
:105570000D000D000D000D000D000D000D000D00C3
:105580000D000D000D000D000D000D000E000E00B1
:105590000E000E000E000E000F000F000F000F0097
:1055A0000F0010003000500091009100B200F30095
:1055B000740993091A54DF85DE85FC6C7622330169
:1055C0003309B200B200B2007200720092007100A2
:1055D0007100B200D2089100300030002F000F009F
:1055E0000F000F000E000E000E000E000E000D004A
:1055F0000D000D000D000D000D000C000C000C0046
:105600000C000C000C000C000C000C000C000C003A
:105610000C000C000C000C000C000C000B000B002C
:105620000B000B000B000B000B000B000B000B0022
:105630000B000B000B000B000B000B000B000B0012
:105640000B000B000B000B000B000B000B000B0002
:105650000B000B000A000A000A000A000A000A00F8
:105660000A000A000A000A000A000A000A000A00EA
:105670000A000A000A000A000A000A000A000A00DA
:105680000A000A000A000A000900090009000900CE
:1056900009000900090009000900090009000900C2
:1056A00009000900090009000900090009000900B2
:1056B00009000900090009000900090009000900A2
:1056C0000900090009000900090009000900090092
:1056D0000A000A000A000A000A000A000A000A007A
:1056E0000A000A000A000A000A000A000A000A006A
:1056F0000A000A000A000A000A000A000A000A005A
:105700000A000A000A000A000A000A000A000A0049
:105710000A000A000A000A000A000A000A000A0039
:105720000A000A000A000A000A000A000A000A0029
:105730000A000A000B000B000B000B000B000B0013
:105740000A000A000A000A000B000B000B000B0005
:105750000B000B000B000B000B000B000B000B00F1
:105760000B000B000B000B000B000B000B000B00E1
:105770000B000B000B000B000B000B000B000B00D1
:105780000B000B000B000B000B000B000B000B00C1
:105790000B000B000B000B000B000B000B000B00B1
:1057A0000B000B000B000B000B000B000B000B00A1
:1057B0000B000B000B000B000C000C000C000C008D
:1057C0000C000C000C000C000C000C000C000C0079
:1057D0000C000C000C000C000C000C000C000C0069
:1057E0000C000C000D000D000C000C000C000C0057
:1057F0000D000D000D000D000D000D000D000D0041
:105800000D000D000D000D000E000E000E000E002C
:105810000E000E000E000E000F000F000F000F0014
:105820000F0030003000510070009100B300D30031
:1058300094117109395CBC853554F96C910973096F
:1058400054091301D200F300B300B200B200D20039
:10585000D200710074115732F31050002F002F0046
:105860000F000F000F000E000E000E000E000D00C6
:105870000D000D000D000D000D000D000C000C00C2
:105880000C000C000C000C000C000C000C000C00B8
:105890000C000C000C000C000C000C000C000C00A8
:1058A0000B000B000B000B000B000B000B000B00A0
:1058B0000B000B000B000B000B000B000B000B0090
:1058C0000B000B000B000B000B000B000B000B0080
:1058D0000B000B000A000A000A000A000A000A0076
:1058E0000A000A000B000A000A000A000A000A0067
:1058F0000A000A000A000A000A000A000A000A0058
:105900000A000A000A000A0009000900090009004B
:10591000090009000900090009000900090009003F
:10592000090009000900090009000900090009002F
:10593000090009000900090009000900090009001F
:10594000090009000900090009000900090009000F
:105950000A000A000A000A000A000A000A000A00F7
:105960000A000A000A000A000A000A000A000A00E7
:105970000A000A000A000A000A000A000A000A00D7
:105980000A000A000A000A000A000A000A000A00C7
:105990000A000A000A000A000A000A000A000A00B7
:1059A0000A000A000A000A000A000A000A000A00A7
:1059B0000A000A000B000B000B000B000B000B0091
:1059C0000A000A000A000A000B000B000B000B0083
:1059D0000B000B000B000B000B000B000B000B006F
:1059E0000B000B000B000B000B000B000B000B005F
:1059F0000B000B000B000B000B000B000B000B004F
:105A00000B000B000B000B000B000B000B000B003E
:105A10000B000B000B000B000B000B000B000B002E
:105A20000B000B000B000B000B000B000B000B001E
:105A30000B000B000B000B000C000C000C000C000A
:105A40000C000C000C000C000C000C000C000C00F6
:105A50000C000C000C000C000C000C000C000C00E6
:105A60000C000C000D000D000C000C000C000C00D4
:105A70000D000D000D000D000D000D000D000D00BE
:105A80000D000D000D000D000E000E000E000E00AA
:105A90000E000E000F000F000F000F000F000F0090
:105AA0001000300030005100910071009200140984
:105AB00012015943FC749C7DDC85BC851A54FC534F
:105AC000161A13011301F300D300F300130113019D
:105AD000F300D20098323B4BF20850002F002F0009
