:020000040800F2
:100000000050002085020008594F0008654F000885
:100010006D4F0008754F00087D4F0008000000007C
:10002000000000000000000000000000854F0008F4
:10003000914F0008000000009D4F0008D92A0008D9
:10004000090400080904000809040008090400085C
:10005000090400080904000809040008090400084C
:10006000090400080904000809040008090400083C
:10007000090400080904000809040008090400082C
:10008000090400080904000809040008090400081C
:100090001D390008090400080904000809040008C3
:1000A00009040008090400080904000809040008FC
:1000B00009040008090400080904000809040008EC
:1000C00009040008090400080904000809040008DC
:1000D000090400080904000809040008D9360008CA
:1000E00009040008090400080904000800000000D1
:1000F0000000000000000000000000000000000000
:1001000000000000000000005FF808F180B58EB02C
:1001100000AF02F03BF8494B494A1A60494B484A44
:100120001A60494BFB62494BBB62494B7B62BB6A1D
:100130003B6207E03B6A1A1D3A62FA6A111DF962D6
:1001400012681A607A6A3B6A9A42F3D83B4B1B6882
:10015000404A934204D13B4B1B683F4A934200D034
:10016000FEE73E4B364A1A603D4B354A1A603D4B1E
:100170007B633D4BFB617B6BBB6104E0BB691A1D7C
:10018000BA6100221A60FA69BB699A42F6D8334B09
:100190001B68002B03D1324B1B68002B00D0FEE7FD
:1001A00002F002F83A463B1D1146184601F032FFB4
:1001B0002E4A2F4BD31A9B10FB600023BB6007E035
:1001C0002B4ABB6852F823309847BB680133BB60A9
:1001D000FA68BB689A42F3DC264A274BD31A9B1075
:1001E000FB600023BB6007E0234ABB6852F8233062
:1001F0009847BB680133BB60FA68BB689A42F3DC7E
:100200007B683A681146184602F010FD38631B4AB5
:100210001B4BD31A9B107B617B693B6108E03B69F8
:10022000013B174A52F8233098473B69013B3B6139
:100230003B69002BF3DC386B01F0A8FE00000020C6
:10024000BABADECA9800002014610008000000203D
:100250009C00002078563412325476989C0000207E
:100260002C0600209C0000203006002038040008E6
:10027000380400084C040008380400085004000842
:100280004C04000880B500AFFFF740FF80B400AF1A
:1002900000BEFEE71EF0040F0CBFEFF30880EFF383
:1002A00009807146554A104700BF00BF80B588B02D
:1002B00002AF78603960184B5B6B7B61164B9B6BB0
:1002C0003B61154B9B6AFB60134B1B6B03F00203F6
:1002D000002B10D0104BDB6A002B0CDA4BF6AB6115
:1002E000786801F0FDFF0346002B04D00A4B4FF065
:1002F0000042DA620CE0094801F0ACFE3B68009372
:100300003B697A69F968786801F054FF00BEFEE73E
:100310001837BD4680BD00BF00ED00E0485E000814
:1003200080B400AF00BEFEE71EF0040F0CBFEFF379
:100330000880EFF309807146314A104700BF00BFC3
:1003400080B588B002AF786039600B4B5B6B7B6126
:10035000094B9B6B3B61084B9B6AFB60074801F0B4
:1003600079FE3B6800933B697A69F968786801F027
:1003700021FF00BEFEE700BF00ED00E0585E000870
:100380001EF0040F0CBFEFF30880EFF309807146F5
:100390001C4A104700BF00BF80B588B002AF78602C
:1003A00039600B4B5B6B7B61094B9B6B3B61084B73
:1003B0009B6AFB60074801F04DFE3B6800933B6978
:1003C0007A69F968786801F0F5FE00BEFEE700BFC3
:1003D00000ED00E0645E000880B400AF00BEFEE700
:1003E00080B400AF00BEFEE780B400AF00BEFEE701
:1003F00080B400AF00BFBD4680BC7047AD020008AE
:10040000410300089903000880B400AF00BEFEE776
:1004100014610008000000209C0000201461000806
:1004200000000000000000009C00002030060020BA
:100430000000000000000000394F0008ED4F0008E8
:10044000B150000835510008F9510008494F000823
:1004500080B586B000AF786000237B6100233B61EC
:100460000F23FB607B68DB78002B07D07B68DB7891
:10047000012B03D07521334801F0DEFD7B685B78EA
:100480000F2B03D976212F4801F0D6FD7B689B788E
:100490000F2B03D977212B4801F0CEFD7B68DB7849
:1004A000002B3AD0284BDB68DB4303F4E0631B0AE4
:1004B0007B617B69C3F104033B61FA687B6922FAC3
:1004C00003F3FB607B685B781A463B6902FA03F32F
:1004D0007B617B689B781A46FB6813407A691343FB
:1004E0007B617B691B017B61184A7B681B7879699A
:1004F000C9B213440A4683F80023144A7B681B7868
:100500005B09DBB218467B681B7803F01F030121EF
:1005100001FA03F342F820300FE00C497B681B78A6
:100520005B09DBB218467B681B7803F01F030122CE
:100530009A4000F1200341F8232000BF1837BD4640
:1005400080BD00BF885B000800ED00E000E100E036
:1005500080B582B000AF78607B68144A934207D0C0
:100560007B68134A934203D07D21124801F064FD59
:100570007B680E4A93420AD101214FF0007001F0CE
:1005800009F900214FF0007001F004F909E00121A0
:100590004FF0806001F0FEF800214FF0806001F024
:1005A000F9F800BF0837BD4680BD00BF00640040B9
:1005B00000680040B05B000880B584B000AF786090
:1005C00039600023FB730023BB607B688D4A934234
:1005D00007D07B688C4A934203D09F218B4801F05F
:1005E0002BFD3B689B79002B07D03B689B79012B47
:1005F00003D0A021854801F01FFD3B68DB79002B6B
:1006000007D03B68DB79012B03D0A1217F4801F0A3
:1006100013FD3B681B7A002B07D03B681B7A012B2C
:1006200003D0A221794801F007FD3B685B7A002BDB
:1006300007D03B685B7A012B03D0A321734801F0FC
:10064000FBFC3B689B7A002B07D03B689B7A012B15
:1006500003D0A4216D4801F0EFFC3B68DB7A002B4E
:1006600007D03B68DB7A012B03D0A521674801F056
:10067000E3FC3B689B78002B0FD03B689B78012BF9
:100680000BD03B689B78022B07D03B689B78032BF1
:1006900003D0A6215D4801F0CFFC3B68DB78002B3E
:1006A0000FD03B68DB78012B0BD03B68DB78022B4B
:1006B00007D03B68DB78032B03D0A721534801F018
:1006C000BBFC3B681B790F2B03D9A8214F4801F0D5
:1006D000B3FC3B685B79072B03D9A9214B4801F098
:1006E000ABFC3B681B88002B04D03B681B88B3F530
:1006F000806F03D9AA21454801F09EFC7B681B68E6
:1007000023F002027B681A607B681B6843F00102D9
:100710007B681A6002E0BB680133BB607B685B6882
:1007200003F00103002B04D1BB684FF6FF72934224
:10073000F1D17B685B6803F00103002B02D1002339
:10074000FB73A2E03B689B79012B06D17B681B6899
:1007500043F080027B681A6005E07B681B6823F029
:1007600080027B681A603B68DB79012B06D17B68CD
:100770001B6843F040027B681A6005E07B681B68D9
:1007800023F040027B681A603B681B7A012B06D17C
:100790007B681B6843F020027B681A6005E07B6879
:1007A0001B6823F020027B681A603B685B7A012B90
:1007B00006D17B681B6843F010027B681A6005E075
:1007C0007B681B6823F010027B681A603B689B7A89
:1007D000012B06D17B681B6843F008027B681A6016
:1007E00005E07B681B6823F008027B681A603B68A1
:1007F000DB7A012B0CD17B681B6843F004027B6819
:100800001A600BE00064004000680040B05B000824
:100810007B681B6823F004027B681A603B689B7846
:100820009A073B68DB781B061A433B681B791B045D
:100830001A433B685B791B051A433B681B88013BE5
:100840001A437B68DA617B681B6823F001027B68CE
:100850001A600023BB6002E0BB680133BB607B68A9
:100860005B6803F00103002B04D0BB684FF6FF72F6
:100870009342F1D17B685B6803F00103002B02D047
:100880000023FB7301E00123FB73FB7B1846103749
:10089000BD4680BD80B584B000AF78600023FB60AA
:1008A0007B689B7A0D2B04D94FF49471734801F047
:1008B000C3FB7B68DB7A002B08D07B68DB7A012BDB
:1008C00004D040F229116D4801F0B6FB7B681B7B18
:1008D000002B08D07B681B7B012B04D04FF4957153
:1008E000664801F0A9FB7B681B89002B08D07B6858
:1008F0001B89012B04D040F22B11604801F09CFBB6
:100900007B685B7B002B08D07B685B7B012B04D072
:100910004FF49671594801F08FFB7B689B7A1A4619
:1009200001239340FB60564A554BD3F8003243F005
:100930000103C2F800325249514BD3F81C22FB6824
:10094000DB431340C1F81C327B681B7B002B25D195
:100950004B494B4BD3F80C22FB68DB431340C1F8E7
:100960000C3247497B689B7A18467B68DB881B04FE
:100970007A6852881A4300F1480341F8332040490D
:100980007B689B7A18467B689B881B047A68128870
:100990001A4300F14803DB000B445A607B681B7B61
:1009A000012B24D13649364BD3F80C22FB68134374
:1009B000C1F80C3232497B689B7A18467B681B88E9
:1009C0001B047A6852881A4300F1480341F8332027
:1009D0002B497B689B7A18467B689B881B047A6846
:1009E000D2881A4300F14803DB000B445A607B684D
:1009F000DB7A002B09D12249214BD3F80422FB6872
:100A0000DB431340C1F8043207E01D491C4BD3F807
:100A10000422FB681343C1F804327B681B89002B56
:100A200008D11749164BD3F81422FB68DB43134057
:100A3000C1F814327B681B89012B07D11049104B78
:100A4000D3F81422FB681343C1F814327B685B7B34
:100A5000012B07D10A490A4BD3F81C22FB68134328
:100A6000C1F81C32064A064BD3F8003223F00103CA
:100A7000C2F8003200BF1037BD4680BDB05B000831
:100A80000064004080B483B000AF78607B680022CF
:100A90009A717B680022DA717B6800221A727B6887
:100AA00000225A727B6800229A727B680022DA72F6
:100AB0007B6800229A707B680022DA707B680322D0
:100AC0001A717B6802225A717B6801221A8000BF6A
:100AD0000C37BD4680BC704780B584B000AF7860ED
:100AE00039600023FB737B68824A934208D07B689D
:100AF000814A934204D040F20721804801F09CFAD9
:100B00003B681B7A002B08D03B681B7A042B04D06F
:100B10004FF40271794801F08FFA3B685B7A002B41
:100B200008D03B685B7A022B04D040F2092173485D
:100B300001F082FA3B689B7A082B04D940F20A2123
:100B40006E4801F079FA7B689B6803F08063002BA4
:100B500002D00023FB7313E07B689B6803F0006303
:100B6000002B02D00123FB730AE07B689B6803F033
:100B70008053002B02D00223FB7301E00423FB739C
:100B8000FB7B042B00F0B080FB7BFA7B796818328A
:100B900012010A44126802F00102796818331B013D
:100BA0000B441A603B681B7A002B1DD13B681B6805
:100BB000B3F5006F04D34FF40971504801F03CFACB
:100BC000FB7BFA7B7968183212010A4411683A6893
:100BD000126852053868407A02430A43796818332C
:100BE0001B010B441A601FE03B685B68B3F1005FB8
:100BF00004D340F22A21414801F01EFAFB7BFA7B24
:100C00007968183212010A4411683A685268D200B1
:100C10003868007A02433868407A02430A437968A8
:100C200018331B010B441A603B689B7A03F00F03D7
:100C3000DAB23B689A72FB7BFA7B79681832120150
:100C40000A440432126822F00F02796818331B013B
:100C50000B4404331A60FB7BFA7B7968183212016B
:100C60000A44043212683968897A0A437968183369
:100C70001B010B4404331A60FB7B3A68927B11061C
:100C80003A68527B120411433A68127B12020A43FB
:100C90003968C97A0A4379681B010B4403F5C473A8
:100CA0001A60FB7B3A68927C11063A68527C120407
:100CB00011433A68127C12020A433968C97B0A431D
:100CC00079681B010B4403F5C6731A60FB7BFA7B42
:100CD0007968183212010A44126842F001027968F8
:100CE00018331B010B441A60FB7B18461037BD46B6
:100CF00080BD00BF0064004000680040B05B000899
:100D000080B584B000AFF8600B467A60FB72FB6878
:100D1000634A934208D0FB68624A934204D040F28F
:100D2000A721614801F088F9FB7A002B07D0FB7AF4
:100D3000012B04D04FF42A715B4801F07DF9FB7A56
:100D4000FA681B331B0113441B68DBB203F0040376
:100D5000DAB27B681A727B681B7A002B09D1FB7AA6
:100D6000FA681B331B0113441B685A0D7B681A6019
:100D700008E0FB7AFA681B331B0113441B68DA088E
:100D80007B685A60FB7AFA681B331B0113441B68AB
:100D9000DBB203F00203DAB27B685A72FB7AFA68BC
:100DA0001B331B01134404331B68DBB203F00F0336
:100DB000DAB27B689A72FB7AFA681B331B01134420
:100DC00004331B681B0ADAB27B68DA74FB7AFA68B0
:100DD0001B01134403F5DC731B68DAB27B68DA721B
:100DE000FB7AFA681B01134403F5DC731B681B0ACA
:100DF000DAB27B681A73FB7AFA681B01134403F5B5
:100E0000DC731B681B0CDAB27B685A73FB7AFA68D6
:100E10001B01134403F5DC731B681B0EDAB27B68FD
:100E20009A73FB7AFA681B01134403F5DE731B689F
:100E3000DAB27B68DA73FB7AFA681B01134403F5B4
:100E4000DE731B681B0ADAB27B681A74FB7AFA68D5
:100E50001B01134403F5DE731B681B0CDAB27B68BD
:100E60005A74FB7AFA681B01134403F5DE731B689E
:100E70001B0EDAB27B689A74FB7A002B06D1FB68F2
:100E8000DB6843F02002FB68DA6005E0FB681B6961
:100E900043F02002FB681A6100BF1037BD4680BDD9
:100EA0000064004000680040B05B000880B584B07A
:100EB00000AFF860B9601346FB71FB68304A93429B
:100EC00008D0FB682F4A934204D04FF47E712E481D
:100ED00001F0B2F8BB68012B32D0BB68022B2FD0D7
:100EE000BB68042B2CD0BB68082B29D0BB68102B07
:100EF00026D0BB68202B23D0BB68402B20D0BB68FA
:100F0000B3F5807F1CD0BB68B3F5007F18D0BB68F9
:100F1000B3F5806F14D0BB68B3F5006F10D0BB6819
:100F2000B3F5004F0CD0BB68B3F5803F08D0BB6869
:100F3000B3F5003F04D040F2F931134801F07CF8DA
:100F4000FB79002B07D0FB79012B04D040F2FA315A
:100F50000D4801F071F8FB79002B06D0FB685A6947
:100F6000BB681A43FB685A6106E0FB685A69BB68B4
:100F7000DB431A40FB685A6100BF1037BD4680BD95
:100F80000064004000680040B05B000880B588B095
:100F900000AF786039600023FB6100233B610023D0
:100FA000BB610023FB6000237B610023BB607B6887
:100FB000824A93421BD07B68814A934217D07B6858
:100FC000804A934213D07B687F4A93420FD07B685C
:100FD0007E4A93420BD07B687D4A934207D07B6860
:100FE0007C4A934203D0B2217B4801F025F83B684C
:100FF000DB78002B1FD03B68DB78042B1BD03B68D1
:10100000DB78282B17D03B68DB78482B13D03B6864
:10101000DB78142B0FD03B68DB78102B0BD03B68B0
:10102000DB781C2B07D03B68DB78182B03D0B3216F
:10103000694801F001F83B681B88002B03D1B421FB
:10104000654800F0F9FF3B68DB7803F00F03FB61B4
:101050003B68DB7803F01003002B15D03B689B78CE
:10106000012B0BD03B689B78022B07D03B689B7809
:10107000032B03D0BB21584800F0DEFF3B689B7870
:101080001A46FB691343FB613B681B88DBB2002BEC
:1010900044D07B681B687B610023BB6138E0012280
:1010A000BB6902FA03F3FB603B681B881A46FB68C6
:1010B00013403B613A69FB689A4226D1BB699B00A9
:1010C000FB600F22FB6802FA03F3BB60BB68DB43E3
:1010D0007A6913407B61FA69FB6802FA03F37A6963
:1010E00013437B613B68DB78282B05D10122BB6968
:1010F0009A407B685A6108E03B68DB78482B04D152
:101100000122BB699A407B681A61BB690133BB61EC
:10111000BB69072BC3D97B687A691A603B681B8857
:10112000FF2B46D97B685B687B610023BB613AE09B
:10113000BB690833012202FA03F3FB603B681B889A
:101140001A46FB6813403B613A69FB689A4227D113
:10115000BB699B00FB600F22FB6802FA03F3BB60D4
:10116000BB68DB437A6913407B61FA69FB6802FA6A
:1011700003F37A6913437B613B68DB78282B05D145
:10118000BB69083301229A407B685A613B68DB786F
:10119000482B05D1BB69083301229A407B681A614C
:1011A000BB690133BB61BB69072BC1D97B687A6915
:1011B0005A6000BF2037BD4680BD00BF0008014017
:1011C000000C0140001001400014014000180140D3
:1011D000001C014000200140E05B000880B586B0A3
:1011E00000AF78600B46FB7000233B610023FB607F
:1011F00000237B610023BB607B68012B00F0BA8079
:101200007B68022B00F0B6807B68042B00F0B28074
:101210007B68082B00F0AE807B688B4A934200F01D
:10122000A9807B68894A934200F0A4807B68884A41
:10123000934200F09F807B68864A934200F09A8038
:101240007B68854A934200F095807B68834A93428D
:1012500000F090807B68824A934200F08B807B682C
:10126000804A934200F086807B687F4A934200F078
:1012700081807B68B3F5805F7CD07B68B3F5EA1F23
:1012800078D07B68B3F5EB1F74D07B68B3F5004F63
:1012900070D07B68754A93426CD07B68744A9342E5
:1012A00068D07B68734A934264D07B68724A9342E9
:1012B00060D07B68714A93425CD07B68B3F1201F99
:1012C00058D07B686E4A934254D07B686D4A9342F3
:1012D00050D07B686C4A93424CD07B686B4A9342F7
:1012E00048D07B686A4A934244D07B68694A9342FB
:1012F00040D07B68B3F5011F3CD07B68664A9342BF
:1013000038D07B68654A934234D07B68644A934204
:1013100030D07B68634A93422CD07B68624A934208
:1013200028D07B68614A934224D07B68604A93420C
:1013300020D07B685F4A93421CD07B685E4A934210
:1013400018D07B685D4A934214D07B685C4A934214
:1013500010D07B685B4A93420CD07B685A4A934218
:1013600008D07B68594A934204D040F22A21584859
:1013700000F062FEFB78002B07D0FB78012B04D035
:1013800040F22B21524800F057FE7B68002B03DA15
:10139000504BDB697B6102E04E4B5B687B617B6895
:1013A0001B0C03F00F03BB607B689BB23B617B6847
:1013B00003F44013B3F5401F0AD17B6923F0706337
:1013C0007B61444A434B5B6823F07063536021E0C8
:1013D0007B6803F48013002B0ED00322BB6802FA53
:1013E00003F3FB60FB68DB437A6913407B617B6935
:1013F00043F070637B610DE07B685B0D1B013A6914
:1014000002FA03F3DB437A6913407B617B6943F0A3
:1014100070637B61FB78002B08D07B685B0D1B0140
:101420003A6902FA03F37A6913437B617B68002B04
:1014300003DA284A7B69D36102E0264A7B6953605C
:1014400000BF1837BD4680BD1000140030001400E6
:1014500040001600C000160000011800000218002D
:101460000003180000081A00000C1A0001002000F8
:1014700002002000040020000800200010002000CE
:101480004000200000013000000230000004300065
:1014900000112000002020000100008002000080D8
:1014A0000400008008000080100000802000008000
:1014B0004000008080000080000100800002008069
:1014C00000040080000800800010008000200080E0
:1014D000E05B00080000014080B487B000AF786096
:1014E00000237B6100233B610023FB600023BB6082
:1014F0004C4B5B6803F00C037B617B69042B07D0CA
:10150000082B09D0002B33D17B68474A1A6033E09F
:101510007B68454A1A602FE0424B5B6803F4701306
:101520003B61404B5B6803F48033FB603B699B0C81
:1015300002333B61FB68002B06D13B693B4A02FB4F
:1015400003F27B681A6017E0364B5B6803F40033E4
:10155000002B06D03B69354A02FB03F27B681A6018
:101560000AE03B69304A02FB03F27B681A6003E041
:101570007B682D4A1A6000BF2A4B5B6803F0F003BA
:101580007B617B691B097B61294A7B6913441B785A
:10159000DBB2BB607B681A68BB68DA407B685A6064
:1015A000204B5B6803F4E0637B617B691B0A7B6112
:1015B0001F4A7B6913441B78DBB2BB607B685A68A7
:1015C000BB68DA407B689A60164B5B6803F4605333
:1015D0007B617B69DB0A7B61154A7B6913441B785D
:1015E000DBB2BB607B685A68BB68DA407B68DA6054
:1015F0000C4B5B6803F440437B617B699B0B7B6115
:101600000C4A7B6913441B78DBB2BB607B68DA68E9
:10161000BB68B2FBF3F27B681A6100BF1C37BD46A2
:1016200080BC70470010024000127A0000093D00A3
:10163000040000201400002080B582B000AF786064
:101640000B46FB707A68164B1340002B02D17B6867
:10165000002B04D140F24A41124800F0EDFCFB7827
:10166000002B07D0FB78012B04D040F24B410D48F2
:1016700000F0E2FCFB78002B06D00B490A4B9A697C
:101680007B6813438B6106E00749074B9A697B68C7
:10169000DB4313408B6100BF0837BD4680BD00BFF0
:1016A0000200C0FF145C00080010024080B582B048
:1016B00000AF78600B46FB707A68164B1340002B26
:1016C00002D17B68002B04D140F26941124800F03E
:1016D000B3FCFB78002B07D0FB78012B04D040F241
:1016E0006A410D4800F0A8FCFB78002B06D00B499E
:1016F0000A4BDA697B681343CB6106E00749074B65
:10170000DA697B68DB431340CB6100BF0837BD4615
:1017100080BD00BF00360181145C0008001002404B
:1017200080B582B000AF78600B46FB707A68164BCC
:101730001340002B02D17B68002B04D140F2A4415E
:10174000124800F079FCFB78002B07D0FB78012BC6
:1017500004D040F2A5410D4800F06EFCFB78002B50
:1017600006D00B490A4BDA687B681343CB6006E06E
:101770000749074BDA687B68DB431340CB6000BF47
:101780000837BD4680BD00BF0200C0FF145C0008E2
:101790000010024080B582B000AF78600B46FB704D
:1017A0007A68164B1340002B02D17B68002B04D1C2
:1017B00040F2C341124800F03FFCFB78002B07D0F9
:1017C000FB78012B04D040F2C4410D4800F034FCFA
:1017D000FB78002B06D00B490A4B1A697B68134330
:1017E0000B6106E00749074B1A697B68DB4313402E
:1017F0000B6100BF0837BD4680BD00BF00360181C8
:10180000145C00080010024080B582B000AF786020
:101810007B68324A934213D07B68314A93420FD09F
:101820007B68304A93420BD07B682F4A934207D0A3
:101830007B682E4A934203D085212D4800F0FCFBA3
:101840007B68264A93420AD101214FF48040FFF77A
:1018500067FF00214FF48040FFF762FF3AE07B68AA
:101860001F4A93420AD101214FF40030FFF792FF43
:1018700000214FF40030FFF78DFF2BE07B68194A01
:1018800093420AD101214FF48020FFF783FF00210A
:101890004FF48020FFF77EFF1CE07B68124A9342E2
:1018A0000AD101214FF40020FFF774FF00214FF40B
:1018B0000020FFF76FFF0DE07B680C4A934209D1CF
:1018C00001214FF48010FFF765FF00214FF48010D5
:1018D000FFF760FF00BF0837BD4680BD00380140FC
:1018E0000044004000480040004C004000500040D0
:1018F000445C000880B58CB000AF7860396000238C
:10190000FB620023BB6200237B6200233B62002357
:10191000FB617B689D4A934213D07B689C4A93424B
:101920000FD07B689B4A93420BD07B689A4A9342C4
:1019300007D07B68994A934203D0B821984800F0B9
:101940007BFB3B681B68002B04D03B681B68954AF7
:10195000934203D9B921924800F06EFB3B689B8803
:10196000002B08D03B689B88B3F5805F03D0BA2179
:101970008B4800F061FB3B68DB88002B12D03B6892
:10198000DB88B3F5805F0DD03B68DB88B3F5005F83
:1019900008D03B68DB88B3F5405F03D0BB218048AB
:1019A00000F04AFB3B681B89002B0DD03B681B896C
:1019B000B3F5806F08D03B681B89B3F5C06F03D0C7
:1019C000BC21774800F038FB3B685B891A464FF62C
:1019D000F3731340002B03D13B685B89002B03D1C9
:1019E000BD216F4800F028FB3B689B89002B12D07B
:1019F0003B689B89B3F5807F0DD03B689B89B3F52D
:101A0000007F08D03B689B89B3F5407F03D0BE219F
:101A1000634800F011FB3B689B89002B0FD07B686B
:101A20005A4A93420BD07B68594A934207D07B684D
:101A3000584A934203D0C221594800F0FDFA7B680E
:101A4000FB617B681B8A9BB2FB62FA6A4CF6FF73F0
:101A50001340FB623B68DB881A46FB6A1343FB6258
:101A6000FB6A9AB27B681A827B689B899BB2FB6295
:101A7000FA6A4EF6F3131340FB623B689A883B68A0
:101A80001B8913439AB23B685B8913439BB21A4686
:101A9000FB6A1343FB62FB6A9AB27B689A817B689C
:101AA0009B8A9BB2FB62FA6A4FF6FF431340FB62CC
:101AB0003B689B891A46FB6A1343FB62FB6A9AB236
:101AC0007B689A8207F108031846FFF705FDFB695A
:101AD0002E4A934202D17B69BB6201E03B69BB6243
:101AE0007B689B899BB21BB2002B0CDABA6A134647
:101AF0009B0013449A001A443B681B685B00B2FBCE
:101B0000F3F37B620BE0BA6A13469B0013449A001E
:101B10001A443B681B689B00B2FBF3F37B627B6A51
:101B2000214AA2FB03235B091B01FB62FB6A1B0921
:101B3000642202FB03F37A6AD31A3B627B689B89B7
:101B40009BB21BB2002B0CDA3B6ADB003233164A25
:101B5000A2FB03235B0903F00703FA6A1343FB624A
:101B60000BE03B6A1B0132330F4AA2FB03235B09E4
:101B700003F00F03FA6A1343FB62FB6A9AB27B68B5
:101B80001A8100BF3037BD4680BD00BF003801401C
:101B90000044004000480040004C0040005000401D
:101BA000445C000820AA44001F85EB5180B582B038
:101BB00000AF78600B46FB707B681D4A934214D0DF
:101BC0007B681C4A934210D07B681B4A93420CD01E
:101BD0007B681A4A934208D07B68194A934204D022
:101BE0004FF4B171174800F027FAFB78002B07D0AB
:101BF000FB78012B04D040F26311124800F01CFA6C
:101C0000FB78002B08D07B689B899BB243F4005380
:101C10009AB27B689A8107E07B689B899BB223F428
:101C200000539AB27B689A8100BF0837BD4680BDD9
:101C3000003801400044004000480040004C004093
:101C400000500040445C000880B586B000AF78606A
:101C50000B467B8013467B7000233B610023FB60B7
:101C60000023BB6000237B617B684C4A934214D005
:101C70007B684B4A934210D07B684A4A93420CD00F
:101C80007B68494A934208D07B68484A934204D013
:101C900040F28911464800F0CFF97B88282B25D0E7
:101CA0007B8840F22772934220D07B8840F22662E4
:101CB00093421BD07B8840F22552934216D07B88FA
:101CC00040F22442934211D07B8840F64602934270
:101CD0000CD07B8840F66A12934207D07B88602B39
:101CE00004D04FF4C571324800F0A6F97B78002B80
:101CF00007D07B78012B04D040F28B112C4800F0E8
:101D00009BF97B8840F66A12934210D17B68234A84
:101D100093420CD07B68224A934208D07B68214AC8
:101D2000934204D040F28F11214800F085F97B687E
:101D30007B617B88DBB25B09DBB23B617B8803F0B4
:101D40001F03FB600122FB6802FA03F3BB603B69DF
:101D5000012B03D17B690C337B6109E03B69022BCA
:101D600003D17B6910337B6102E07B6914337B61B3
:101D70007B78002B06D07B697A691168BA680A43C0
:101D80001A6006E07B697A691168BA68D2430A4032
:101D90001A6000BF1837BD4680BD00BF0038014043
:101DA0000044004000480040004C0040005000400B
:101DB000445C000880B582B000AF78600B467B8041
:101DC0007B68154A934214D07B68144A934210D022
:101DD0007B68134A93420CD07B68124A934208D026
:101DE0007B68114A934204D040F25F210F4800F013
:101DF00023F97B88B3F5007F04D34FF418710B48A7
:101E000000F01AF97B88C3F308039AB27B689A80C2
:101E100000BF0837BD4680BD003801400044004087
:101E200000480040004C004000500040445C000866
:101E300080B582B000AF78607B68114A934214D0BD
:101E40007B68104A934210D07B680F4A93420CD0B3
:101E50007B680E4A934208D07B680D4A934204D0B7
:101E60004FF41C710B4800F0E7F87B689B889BB22D
:101E7000C3F308039BB218460837BD4680BD00BFB8
:101E8000003801400044004000480040004C004041
:101E900000500040445C000880B584B000AF78601A
:101EA0000B467B800023FB737B68324A934214D03D
:101EB0007B68314A934210D07B68304A93420CD001
:101EC0007B682F4A934208D07B682E4A934204D005
:101ED00040F286312C4800F0AFF87B88012B21D0EE
:101EE0007B88802B1ED07B88402B1BD07B88202BAF
:101EF00018D07B88102B15D07B88B3F5807F11D04C
:101F00007B88B3F5007F0DD07B88082B0AD07B88B7
:101F1000042B07D07B88022B04D040F287311A486B
:101F200000F08AF87B88B3F5007F10D17B68114AF6
:101F300093420CD07B68104A934208D07B680F4ACA
:101F4000934204D040F28B310F4800F075F87B6863
:101F50001B889AB27B8813409BB2002B02D00123CE
:101F6000FB7301E00023FB73FB7B18461037BD4673
:101F700080BD00BF003801400044004000480040E0
:101F8000004C004000500040445C000880B483B026
:101F900000AF7860FEE700BF80B500AF024800F0F8
:101FA0007BF80120FFF7F2FF785C000880B584B071
:101FB00000AF7860144B1B68002B02D1124B134A00
:101FC0001A60114B1B68FB607B68033323F003032B
:101FD0007B600D4B1A687B6813440D4A934207D906
:101FE00003F04CF902460C2313604FF0FF3306E078
:101FF000054B1A687B681344034A1360FB68184654
:102000001037BD4680BD00BFA00000203006002074
:10201000004C002080B483B000AF786039607B68EA
:1020200001221A603B68034A1A6000BF0C37BD46A4
:1020300080BC70471800002080B582B000AF786087
:1020400039603A687968024800F004F8FFF7A4FFA5
:10205000D05C00080FB480B582B000AF07F1140364
:102060003B603B683A6980210A4803F063FA786074
:102070007B68002B05DD7B681946064800F024F8D4
:1020800078607B6818460837BD46BDE8804004B0DC
:10209000704700BFA800002080B582B000AF786014
:1020A000786803F013FA03461946786800F00CF8D4
:1020B0000121044800F008F8034618460837BD46D9
:1020C00080BD00BFFC5C000880B582B000AF7860C6
:1020D00039603968786800F005F803461846083713
:1020E000BD4680BDB0B590B000AF786039607A6809
:1020F0003B68134493F90030002B0BD10423FB629F
:102100007B68BB62FC6ABD6A20462946ABBE0446BA
:102110007C6236E03B68FB6330E0FB6B102B28BF32
:1021200010233B630023BB630EE07B6893F9001030
:1021300007F10C02BB6B13440A461A70BB6B0133E8
:10214000BB637B6801337B60BA6B3B6B9A42ECD319
:1021500007F10C02BB6B134400221A7004237B634B
:1021600007F10C033B627C6B3D6A20462946ABBEFF
:102170000446FC61FA6B3B6BD31AFB63FB6B002BD1
:10218000CBD13B6818464037BD46B0BD80B500AFE7
:1021900000F0CEF8024B034A9A6000BF80BD00BF3A
:1021A00000ED00E00000000880B500AF00F0F4F89A
:1021B00000BF80BD80B584B000AFF860B9607A60C0
:1021C0003B603448FFF746FFFB681B6819463248FE
:1021D000FFF740FFFB685B6819463048FFF73AFF9E
:1021E000FB689B6819462E48FFF734FFFB68DB68E5
:1021F00019462C48FFF72EFFFB681B6919462A4831
:10220000FFF728FFFB685B6919462848FFF722FFA4
:10221000FB689B6919462648FFF71CFFFB68DB69D2
:1022200019462448FFF716FF2348FFF713FFB96844
:102230002248FFF70FFF224BDB6A19462148FFF7C0
:1022400009FF1F4B1B6B19461F48FFF703FF1C4B71
:10225000DB6B19461D48FFF7FDFEBB6803F08003EA
:10226000002B03D079681A48FFF7F4FEBB6803F42B
:102270000043002B03D039681648FFF7EBFE1648E1
:10228000FFF7E8FEB9691548FFF7E4FE00BF103715
:10229000BD4680BD2C5D00083C5D00084C5D00081B
:1022A0005C5D00086C5D00087C5D00088C5D0008CA
:1022B0009C5D0008AC5D0008BC5D0008C85D0008BE
:1022C00000ED00E0D85D0008E85D0008F85D00085A
:1022D000085E0008185E0008285E0008305E0008EE
:1022E00080B485B000AF78600B467B807B689B69CB
:1022F000FB60FB681B887A889A4213D17B681B6855
:10230000BB60BB68032B03D0042B03D000230AE07F
:1023100000BF00E000BF7B689B699A1C7B689A61E4
:10232000012300E0002318461437BD4680BC7047E7
:1023300080B500AF154A154B1B6843F001031360CD
:102340001249124B5A68124B13404B600F4A0F4B05
:102350001B6823F0847323F4803313600B4A0B4B08
:102360001B6823F480231360084A084B5B6823F43E
:10237000FE035360054B4FF41F029A6000F078F89B
:10238000044B4FF000629A6000BF80BD0010024015
:102390000000FFF800ED00E080B485B000AF00233E
:1023A000FB600023BB6000237B602C4B5B6803F069
:1023B0000C03FB60FB68042B07D0082B09D0002B13
:1023C00033D1274B274A1A6033E0254B254A1A6040
:1023D0002FE0224B5B6803F47013BB601F4B5B68FC
:1023E00003F480337B60BB689B0C0233BB607B686B
:1023F000002B06D1BB681C4A02FB03F3184A13608A
:1024000017E0164B5B6803F40033002B06D0BB6863
:10241000154A02FB03F3124A13600AE0BB68114A33
:1024200002FB03F30E4A136003E00D4B0D4A1A60E2
:1024300000BF0A4B5B6803F0F0031B090B4AD35C37
:10244000DBB2FB60064B1A68FB6822FA03F3044A0E
:10245000136000BF1437BD4680BC704700100240B7
:102460002000002000127A0000093D002400002016
:1024700080B500AF00F002F800BF80BD80B483B02B
:1024800000AF00237B6000233B603A4A394B1B6856
:1024900043F480331360374B1B6803F400333B6015
:1024A0007B6801337B603B68002B03D17B68B3F50D
:1024B000A06FF0D12F4B1B6803F40033002B02D028
:1024C00001233B6001E000233B603B68012B4BD1C3
:1024D000294A294B1B6843F010031360264A264BF8
:1024E0001B6823F003031360234A234B1B6843F04C
:1024F000020313601F4A1F4B5B6853601D4A1D4B4C
:102500005B6853601B4A1B4B5B6843F480635360FA
:10251000184A184B5B6823F47C135360154A154B1B
:102520005B6843F4E8135360124A124B1B6843F094
:102530008073136000BF0F4B1B6803F00073002B08
:10254000F9D00C4A0B4B5B6823F003035360094A34
:10255000084B5B6843F00203536000BF054B5B68A8
:1025600003F00C03082BF9D100BF0C37BD4680BC2B
:10257000704700BF001002400020024080B588B0C4
:1025800000AF78600B46FB704148FFF73DF9002132
:102590003F48FFF70BFB002240F225513C48FFF774
:1025A00053FB27233B7700237B770023BB77012353
:1025B000FB7707F11C031846FDF74AFF01210820AD
:1025C000FFF73AF801214FF48020FFF76FF84FF43E
:1025D00000633B830323BB760423FB7607F11803D8
:1025E00019462C48FEF7D2FC4FF480633B8303234B
:1025F000BB761823FB7607F1180319462548FEF72A
:10260000C5FCFB78002B03D04FF41643BB6002E0FF
:102610004FF4E133BB600023BB810023FB81002327
:102620003B820023BB820C237B8207F108031946FF
:102630001748FFF75FF901211548FFF7B7FA0122A4
:1026400040F225511248FFF7FFFAC821124800F066
:1026500029FA40210E48FFF71FFC0346002B0CBF50
:1026600001230023DBB2002B0CD00C4B1B78DBB218
:1026700083F00103DBB2002BEBD00948FFF70CFD20
:10268000012300E0002318462037BD4680BD00BF6F
:1026900000480040000C0140340500201C050020CB
:1026A000745E000880B483B000AF78607B6800225D
:1026B0001A707B6800225A707B6818460C37BD463A
:1026C00080BC704780B586B000AF78607B68002220
:1026D0001A707B6801225A7001217868FFF74EFF5B
:1026E0000346002B14BF01230023DBB2002B02D0D2
:1026F0007B6801221A704FF4E133BB600023BB8179
:102700000023FB8100233B820023BB820C237B82BE
:1027100007F1080319460748FFF7ECF8786800F05E
:10272000D3F87B6800225A707B681B7818461837EC
:10273000BD4680BD0048004080B584B000AF7860E1
:102740003960786800F0C0F80023BB60386802F098
:10275000BDFE0346BB600023FB60FA68BB689A427B
:102760001ADAFB683A68134493F900309BB21946B1
:102770000C48FFF71FFB40210A48FFF78DFB03467B
:10278000002B0CBF01230023DBB2002B00D0F2E7AB
:10279000FB680133FB60E0E7002318461037BD46B5
:1027A00080BD00BF0048004080B483B000AF7860B7
:1027B0003960084B1B685A1C06490A603A6812784F
:1027C00051B2054AD154002318460C37BD4680BC8F
:1027D000704700BF100500202801002080B586B09A
:1027E00000AF78603960386802F070FE0346FB6025
:1027F00000237B612B4B1B687A699A42B4BF01238B
:102800000023DBB2002B47D000233B613A69FB6811
:102810009A42EFDA244A7B6913441B785AB23B6927
:1028200039680B4493F900309A420CBF012300230E
:10283000DBB2002B1CD01B4B1B687A699A420CBF81
:1028400001230023DBB2002B22D17B6901337B61A2
:102850003B6901333B613A69FB689A42D6D17B6997
:102860009AB2FB689BB2D31A9BB201339BB214E0BD
:102870000C4B1B687A699A420CBF01230023DBB220
:10288000002B07D17B6901337B6100233B61BDE7EE
:1028900000BFAFE700BFADE7002318461837BD46BD
:1028A00080BD00BF100500202801002080B582B047
:1028B00000AF78600348FFF7EFFB002318460837A6
:1028C000BD4680BD2801002080B485B000AF78608F
:1028D0000023FB81FB89B3F57A7F07D2FB89084A85
:1028E0000021D154FB890133FB81F3E7054B002222
:1028F0001A60002318461437BD4680BC704700BFDD
:10290000280100201005002080B485B000AFF860D9
:10291000B96011461A460B46FB8013467B71FB6873
:10292000BA681A60FB68FA889A807B79002B03D01A
:10293000FB6810229A7102E0FB6848229A71FB68DA
:102940000322DA71FB6818461437BD4680BC704715
:1029500080B584B000AF78607B681B68164A9342EC
:102960000BD0164A93420DD0154A934200D00EE088
:1029700001210420FEF760FE09E001210820FEF796
:102980005BFE04E001211020FEF756FE00BF7B68CD
:102990009B88BB817B68DB79BB737B689B79FB730E
:1029A0007B681B6807F10C0211461846FEF7EEFA29
:1029B00000BF1037BD4680BD000C01400010014033
:1029C0000008014080B483B000AF78607B681B686A
:1029D0007A6892881A6100BF0C37BD4680BC704788
:1029E00080B483B000AF78607B681B687A68928897
:1029F0005A6100BF0C37BD4680BC704780B400AF41
:102A0000084B1B68002B14BF01230023DBB2002BF3
:102A100004D0044B1B68013B024A136000BFBD4653
:102A200080BC70471405002080B400AF0E4B1B68BB
:102A3000002B14BF01230023DBB2002B05D00A4B6F
:102A40001B68013B084A13600AE0084B1B78DBB2A5
:102A5000002B05D0064B01221A70044B00221A707D
:102A600000BFBD4680BC7047180500201D05002032
:102A70001C05002080B483B000AF7860084A7B68F2
:102A80001360074B1B68002B14BF01230023DBB22C
:102A9000002B00D0F5E700BF0C37BD4680BC704767
:102AA0001405002080B483B000AF78603960074A15
:102AB0003B681360064B00221A70064B01221A7005
:102AC00000BF0C37BD4680BC704700BF1805002012
:102AD0001C0500201D05002080B500AFFFF78EFF0C
:102AE000FFF7A2FF00BF80BD80B400AF1846BD460F
:102AF00080BC704780B483B000AF387118460C3783
:102B0000BD4680BC704700BF80B483B000AF387151
:102B100018460C37BD4680BC704700BF80B483B0F8
:102B200000AF786020227B68B3FA83F3D31A013BAD
:102B300018460C37BD4680BC704700BF80B483B0D8
:102B400000AF786039603B6818460C37BD4680BCE2
:102B5000704700BF80B483B000AF03463960FB719B
:102B600097F90730002B0BDA0D49FB7903F00F03BF
:102B7000043B3A68D2B21201D2B20B441A7609E091
:102B8000084997F907303A68D2B21201D2B20B4421
:102B900083F8002300BF0C37BD4680BC704700BFE0
:102BA00000ED00E000E100E080B582B000AF7860A9
:102BB0007B68013BB3F1807F01D301230FE00A4A18
:102BC0007B68013B53600F214FF0FF30FFF7C2FFDE
:102BD000054B00229A60044B07221A600023184616
:102BE0000837BD4680BD00BF10E000E080B582B070
:102BF00000AF7860094B1B68094AA2FB03239B09BD
:102C00001846FFF7D1FF074B00221A70064B00222F
:102C10001A7000BF0837BD4680BD00BF20000020ED
:102C2000D34D62101C0500201D050020F0B5A5B095
:102C300006AF78603960A348FFF72EFAA24B1B68F5
:102C40001946A248FFF706FA002387F87730A04814
:102C5000FFF7CCFF9F48FFF77BFE9F48FFF778FE0A
:102C60009E48FFF775FE9D48FFF7BAFE9948FFF7AB
:102C7000B7FE9948FFF7A6FE9948FFF723FD00F03D
:102C800097FD9848FFF708FA9748FFF705FA974825
:102C9000FFF702FA964B1B78012B40F08D81944B85
:102CA00000221A70934B1B78DBB2002B3FD000231D
:102CB00087F87730904BFB66F86E00F0A3FE034672
:102CC0003B62F86E00F0AEFE0346FB6107F11C02AA
:102CD00007F120031146184600F0B6FE0346002B0C
:102CE00018D007F12003184600F0D6FE03461B88D3
:102CF000A7F86A30814B1B88B7F86A209A4203D143
:102D0000012387F8773005E007F12003184600F02B
:102D1000B3FEDBE797F8773083F00103DBB2002BDB
:102D200000F04A817549744800F0C2FE44E1744BDA
:102D30001B78DBB2002B40D0724B1A886F4B1B887C
:102D40009A4240F039816D4B1B881A4607F12803DF
:102D50006D49184602F096FB07F1280319466048B2
:102D6000FFF7EAFC694B1B789E46694B1B789C4633
:102D7000684B1B781A46684B1B781946674B1B78C3
:102D80001C46674B1B781D46664B1B781E46664BE0
:102D90001B7807F12800059304960395029401918E
:102DA000009263467246614902F06CFB07F128030A
:102DB00019464B48FFF7C0FCFEE05D4B1B78DBB2C9
:102DC00083F00103DBB2002B06D05A4B1B78DBB239
:102DD000002B01D0012300E00023002B39D0474B0A
:102DE0001B881A4607F128034749184602F04AFB98
:102DF00007F1280319463A48FFF79EFC434B1B781E
:102E00009E46434B1B789C46424B1B781A46424BCE
:102E10001B781946414B1B781C46414B1B781D46BD
:102E2000404B1B781E46404B1B7807F1280005934A
:102E300004960395029401910092634672463B49C1
:102E400002F020FB07F1280319462548FFF774FC20
:102E5000B2E0374B1B78DBB2002B00F0AD800023D3
:102E600087F87730244B7B66786E00F0CBFD034605
:102E7000BB61786E00F0D6FD03467B6107F114025A
:102E800007F118031146184600F0DEFD0346002B3B
:102E900052D007F11803184600F0FEFD03461B88C8
:102EA000A7F86230154B1B88B7F862209A4203D10D
:102EB000012387F877303FE007F11803184600F048
:102EC000DBFDDBE7F85E0008200000200C5F000857
:102ED000340500203C050020440500204C0500205E
:102EE00038050020245F00086C5F0008885F000838
:102EF000300500205D050020640500201E0500202F
:102F00005F05002070050020A05F0008200500205C
:102F10002105002022050020230500202405002093
:102F2000250500202605002027050020AC5F0008AD
:102F30005E0500206005002097F8773083F00103DC
:102F4000DBB2002B38D0914B1B881A4607F12803BF
:102F50008F49184602F096FA07F1280319468D4862
:102F6000FFF7EAFB8C4B1B789E468C4B1B789C46EC
:102F70008B4B1B781A468B4B1B7819468A4B1B7858
:102F80001C468A4B1B781D46894B1B781E46894B75
:102F90001B7807F12800059304960395029401918C
:102FA000009263467246844902F06CFA07F12803E6
:102FB00019467848FFF7C0FB0A20FFF75BFD7F4BFF
:102FC0001B78DBB2002B3FF465AE7D497148FFF7FB
:102FD00005FC0346002B14BF01230023DBB2002BAA
:102FE00005D0784B01221A70774B00221A7077496E
:102FF0006848FFF7F3FB0346002B14BF01230023AF
:10300000DBB2002B45D06F4B00221A706E4B0022B2
:103010001A706F4800F0F6FC04466D4800F002FD9F
:1030200003461946204600F063FD694BFB65F86DC9
:1030300000F0E8FC03463B61F86D00F0F3FC03464A
:10304000FB6007F10C0207F110031146184600F06F
:10305000FBFC0346002B1CD007F11003184600F0C0
:103060001BFD03461B88A7F85A30B7F85A2007F112
:1030700028035849184602F005FA07F128031946B3
:103080004448FFF759FB07F11003184600F0F4FC21
:10309000D7E751493F48FFF7A1FB0346002B14BF78
:1030A00001230023DBB2002B05D04C4B01221A7008
:1030B000454B00221A704A493648FFF78FFB0346FA
:1030C000002B14BF01230023DBB2002B08D0434B9D
:1030D00000221A703C4B00221A70424B00221A70D8
:1030E00041492C48FFF77AFB0346002B14BF01230C
:1030F0000023DBB2002B02D0334B01221A703B4974
:103100002448FFF76BFB0346002B14BF0123002369
:10311000DBB2002B0AD000212D4800F0F9FC034659
:103120001A88334B1A802F4B01221A7031491948E3
:10313000FFF754FB0346002B14BF01230023DBB22F
:10314000002B60D0224800F0F3FC02462A4B1B689B
:103150009A428CBF01230023DBB2002B50D0264BB8
:103160001B680133244A1360234B1B681946184817
:1031700000F0CEFC03461A881D4B1A801E4B1B68BC
:1031800019461E48FEF766FF3DE000BF1E05002001
:10319000A05F000838050020200500202105002040
:1031A00022050020230500202405002025050020FD
:1031B0002605002027050020AC5F00085C050020E4
:1031C000C85F00085D05002060050020D05F000892
:1031D00064050020DC5F0008E45F00085E05002055
:1031E000EC5F00085F050020F45F0008FC5F00084A
:1031F0007005002004600008740500200C600008C1
:10320000BA48FEF727FFBA49BA48FFF7E7FA03467C
:10321000002B14BF01230023DBB2002B7FD0C8207A
:10322000FFF728FCB44B04221A70B44B02221A7028
:10323000B34B10221A70B34B81221A70B24B00228A
:103240001A70B24B00221A70B14B00221A70B14BA7
:1032500000221A7004214FF4F66000F0F7FAC8203B
:10326000FFF708FCA44B04221A70A44B01221A7029
:10327000A34B3E221A70A34B01221A70A24B0022CC
:103280001A70A24B00221A70A14B00221A70A14B97
:1032900000221A7004214FF4F66000F0D7FAC8201B
:1032A000FFF7E8FB944B04221A70944B04221A7027
:1032B000934B30221A70934B2E221A70924B072296
:1032C0001A70924BFF221A70914B00221A70914B88
:1032D00000221A7006214FF4F66000F0B7FAC820F9
:1032E000FFF7C8FB844B04221A70844B04221A7027
:1032F000834B30221A70834B2E221A70824B072286
:103300001A70824B00221A70814B00221A70814B76
:1033100000221A7006214FF4F66000F097FA7E49F9
:103320007448FFF75BFA0346002B14BF0123002308
:10333000DBB2002B00F0F28000233B673B6FFE2BDB
:1033400000F3EC806C4B50221A706C4B02221A7006
:103350003B6FDAB26A4B1A706A4B86221A706A4B5C
:1033600028221A70694B56221A70694B07221A706C
:10337000684B9F221A70082140F2E75000F066FA6D
:103380005D4B51221A705D4B02221A705C4BA022D9
:103390001A705C4BCA221A705B4B1E221A705B4B70
:1033A00050221A705A4BF4221A705A4BE8221A70A3
:1033B000082140F2E75000F049FA4F4B52221A70B0
:1033C0004E4B02221A704E4B51221A704D4B9A22CC
:1033D0001A704D4B14221A704C4B75221A704C4BBC
:1033E00005221A704B4BCC221A70082140F2E7508C
:1033F00000F02CFA404B53221A70404B02221A70F4
:103400003F4B64221A703F4BFF221A703E4BDF2263
:103410001A703E4B4D221A703D4B0A221A703D4BDA
:103420001E221A70082140F2E75000F00FFA324BCA
:1034300054221A70314B02221A70314B50221A70EA
:10344000304BF4221A70304BFF221A702F4BA322FC
:103450001A702F4BF0221A702E4B41221A7008213D
:1034600040F2E75000F0F2F9234B55221A70234B3B
:1034700002221A70224BE8221A70224B10221A7074
:10348000214B80221A70214B00221A70204B0022FF
:103490001A70204B00221A70082140F2E75000F009
:1034A000D5F94FF47A70FFF7E5FA134B00221A7042
:1034B000124B00221A70124B00221A70114BDA22A2
:1034C0001A70114B00221A70104B00221A70104B08
:1034D00000221A700F4B00221A70082140F2E750A8
:1034E00000F0B4F93B6F04333B6727E7186000082E
:1034F0002460000838050020280500202905002048
:103500002A0500202B0500202C0500202D05002079
:103510002E0500202F0500202C6000085C495D4826
:10352000FFF75CF90346002B14BF01230023DBB235
:10353000002B1CD0584B04221A70584B00221A70D2
:10354000574B00221A70574B00221A70564B00221C
:103550001A70564B00221A70554B00221A70554BA8
:1035600000221A7008214FF4687000F06FF9524978
:103570004848FFF733F90346002B14BF012300230B
:10358000DBB2002B0ED04D48FFF72AFA4C48FFF76C
:1035900019FAC820FFF76EFA4848FFF721FA4848A1
:1035A000FFF71EFA47493B48FFF718F90346002B7F
:1035B00014BF01230023DBB2002B0ED03F48FFF7DE
:1035C00001FA3F48FFF70CFAC820FFF753FA3B48CF
:1035D000FFF706FA3A48FFF703FA3B492D48FFF791
:1035E000FDF80346002B14BF01230023DBB2002BA0
:1035F00021D03648FFF7E6F98720FFF73BFA33483A
:10360000FFF7EEF95A20FFF735FA3048FFF7DAF9FD
:103610005A20FFF72FFA2D48FFF7E2F94FF47A60AE
:10362000FFF728FA2948FFF7CDF93C20FFF722FAE7
:103630002648FFF7D5F926491648FFF7CFF8034685
:10364000002B14BF01230023DBB2002B15D01F4831
:10365000FFF7B8F98720FFF70DFA1C48FFF7C0F90C
:103660004FF47A60FFF706FA1848FFF7ABF93C20F1
:10367000FFF700FA1548FFF7B3F90648FFF716F908
:103680000448FFF721F9134B00221A70FFF702BB21
:103690003460000838050020280500202905002096
:1036A0002A0500202B0500202C0500202D050020D8
:1036B0002E0500202F0500203C6000083C0500205E
:1036C00044050020446000084C6000084C050020C0
:1036D000586000085C05002080B582B000AF104B38
:1036E0001B889BB203F02003002B14BF012300238F
:1036F000DBB2002B10D00A48FEF79AFB0346DBB280
:10370000FB71FB1D19460748FFF74EF8FB790D2B9F
:1037100002D1054B01221A7000BF0837BD4680BD9B
:1037200000480040380500205C05002080B582B0CC
:1037300000AF01210920FDF77FFF01214FF000704C
:10374000FDF7B4FF01214FF4EA10FDF747FD4FF4F8
:103750008073BB800323BB710423FB713B1D19469F
:103760000848FDF713FC4FF40073BB801823FB716E
:103770003B1D19460348FDF709FC00BF0837BD464D
:1037800080BD00BF000C014080B582B000AF1423A3
:103790003B7100237B710023BB710123FB713B1D37
:1037A0001846FCF755FE00BF0837BD4680BD00BF78
:1037B00080B588B000AFFFF7E7FFFFF7B7FF2248FB
:1037C000FCF7C6FE07F114031846FDF75BF900236A
:1037D000BB760023FB7600233B7700237B77002317
:1037E000BB770123FB770023BB750023FB750E23FA
:1037F0003B7603237B762423BB8207F1140319460F
:103800001148FCF7D9FE0346002B0023BB730023AD
:10381000FB7301233B740023BB800023FB80002348
:103820003B8100237B810023BB8101237B74012228
:1038300002210548FDF73AFB3B1D1846FDF72AF823
:1038400000BF2037BD4680BD0064004080B588B011
:1038500000AF03460A46FB8013467B71FB88FB6082
:1038600000237B7500233B757B79BB75224B1B784E
:10387000FB75224B1B783B76214B1B787B76214BCB
:103880001B78BB76204B1B78FB76204B1B783B7755
:103890001F4B1B787B771F4B1B78BB771E4B9B689E
:1038A00003F08063002B0DD11B4B9B6803F000637A
:1038B000002B07D1184B9B6803F08053002B01D1DC
:1038C000012300E00023002B02D0FB88FB60E5E72A
:1038D00007F10C0319461048FDF7FEF80346042BC8
:1038E0000CBF01230023DBB2002B01D0FB88FB605F
:1038F00000BF2037BD4680BD2805002029050020D7
:103900002A0500202B0500202C0500202D05002075
:103910002E0500202F0500200064004080B586B0F1
:1039200000AF3B461A4600212348FDF7E9F9234B37
:1039300000221A6000237B617B69072B0FDC07F1F3
:103940000B027B6913441B78002B04D11B4B1B68B3
:1039500001331A4A13607B6901337B61ECE7174B33
:103960001B68082B14BF01230023DBB2002B1ED0E1
:103970003B689AB2124B1A80FA7A124B1A703A7B51
:10398000114B1A707A7B114B1A70BA7B104B1A705C
:10399000FA7B104B1A703A7C0F4B1A707A7C0F4BE3
:1039A0001A70BA7C0E4B1A700E4B01221A7000BFAF
:1039B0001837BD4680BD00BF006400407805002078
:1039C0001E050020200500202105002022050020E2
:1039D00023050020240500202505002026050020C1
:1039E000270500203005002080B582B000AF786048
:1039F0007B68184600F0B8F87B6818460837BD4663
:103A000080BD00BF80B584B000AF78607A6807F1F0
:103A10000C031146184600F0CFF8FB681846103723
:103A2000BD4680BD80B584B000AF78607B681A1D4C
:103A300007F10C031146184600F0BEF8FB68184663
:103A40001037BD4680BD00BF90B583B000AF786031
:103A50003960786800F0C0F803461C68386800F0E8
:103A6000BBF803461B689C4214BF01230023DBB252
:103A700018460C37BD4690BD80B483B000AF786067
:103A80007B681B689A1C7B681A607B6818460C3739
:103A9000BD4680BC704700BF80B483B000AF786083
:103AA0007B681B6818460C37BD4680BC704700BF5A
:103AB00080B582B000AF786039607B685A687B68F7
:103AC0009B689A420CD078687B685B683A681946B4
:103AD00000F096F87B685B689A1C7B685A6003E08C
:103AE0003968786800F0A0F800BF0837BD4680BD8F
:103AF00090B585B000AF78603960FEF7F5FF2246DB
:103B00003968786800F0F6F800BF1437BD4690BDFC
:103B100080B483B000AF786039607B681A683B6816
:103B20005B00134418460C37BD4680BC704700BF8D
:103B300080B483B000AF78607B685B681A467B68AE
:103B40001B68D31A5B1018460C37BD4680BC704703
:103B500080B582B000AF7860786800F00FF97B68BC
:103B600018460837BD4680BD80B582B000AF78608A
:103B70007B68184600F0ECF87B6818460837BD46AD
:103B800080BD00BF80B582B000AF78607B681968E7
:103B90007B689B681A467B681B68D31A5B101A46C1
:103BA000786800F0F7F87B681846FFF7D1FF7B686C
:103BB00018460837BD4680BD80B483B000AF78603A
:103BC00039603B681A687B681A607B6818460C3756
:103BD000BD4680BC704700BF80B483B000AF786042
:103BE0007B6818460C37BD4680BC704780B483B0F4
:103BF00000AF78607B6818460C37BD4680BC7047C4
:103C000080B584B000AFF860B9607A607868FFF77B
:103C1000EDFF03461A46B968F86800F0CFF800BF18
:103C20001037BD4680BD00BFB0B586B000AF78602C
:103C300039602F4A0121786800F0DAF878617B68F2
:103C40007969184600F01CF938613B69FB607C68B3
:103C50007868FFF76DFF03465B003A69D51838684E
:103C6000FFF7C4FF03461A4629462046FFF7C8FF60
:103C70000023FB607B681C687B685D687B68184676
:103C800000F012F903463A692946204600F016F979
:103C9000F860FB680233FB607B681C687B685D68CA
:103CA0007B68184600F000F903461A46294620466C
:103CB00000F01EF978687B6819687B689B681A4673
:103CC0007B681B68D31A5B101A4600F063F87B68A8
:103CD0003A691A607B68FA685A607B695B003A69E6
:103CE0001A447B689A6000BF1837BD46B0BD00BF5C
:103CF00064600008B0B584B000AFF860B9603A7194
:103D000007F1080207F10C0311461846FFF79CFE65
:103D10000346002B17D007F10C0207F108031146E8
:103D2000184600F0F3F803461846FEF7F7FE034680
:103D30005A002B46B968F86800F0FEF82246B968C8
:103D4000F86800F031F900BF1037BD46B0BD00BFC4
:103D500080B582B000AF7860786800F05DF97B686C
:103D600000221A607B6800225A607B6800229A60F9
:103D70007B6818460837BD4680BD00BF80B582B05D
:103D800000AF7860786800F053F97B681846083710
:103D9000BD4680BD80B584B000AFF860B9607A6080
:103DA000BB68002B05D0FB687A68B968184600F03C
:103DB00049F900BF1037BD4680BD00BF90B585B042
:103DC00000AFF860B9607A607868FFF70FFF0346CC
:103DD0001C88BB6819460220FEF7B0FE0346002B84
:103DE00001D022461A8000BF1437BD4690BD00BFE7
:103DF00090B587B000AFF860B9607A60F86800F0FD
:103E000031F90446F868FFF793FE0346E21ABB68EF
:103E10009A4234BF01230023DBB2002B02D0786822
:103E200001F0D8F8F868FFF783FE0446F868FFF75A
:103E30007FFE03463B6107F1080207F110031146BC
:103E4000184600F021F903461B6823447B61F8689B
:103E5000FFF76EFE02467B699A4206D8F86800F0CA
:103E600001F902467B699A4204D2F86800F0FAF838
:103E7000034600E07B6918461C37BD4690BD00BF75
:103E800080B582B000AF786039603B68002B06D007
:103E90007B683968184600F00BF9034600E0002300
:103EA00018460837BD4680BD80B483B000AF786047
:103EB0007B6818460C37BD4680BC704790B585B00E
:103EC00000AFF860B9607A603B60F86800F000F914
:103ED0000446B86800F0FCF801463B687A68204662
:103EE00000F006F9034618461437BD4690BD00BFE2
:103EF00080B584B000AFF860B9607A60B968F868DE
:103F000000F008F900BF1037BD4680BD90B583B002
:103F100000AF786039607868FFF75EFE03461B6883
:103F20001C463868FFF758FE03461B68E31A5B100F
:103F300018460C37BD4690BDF0B587B000AFF860AD
:103F4000B9607A603B7007F10C0207F10803114673
:103F50001846FFF7DBFF0346102BCCBF01230023DD
:103F6000DBB2002B1CD07B68002B06D13346BA682D
:103F7000B968F86800F0DCF812E07B68013B7B6010
:103F80002A46B968F86800F0E9F803467B612346E1
:103F90007A68B9687869FFF7CFFF7B69BB60D2E7C1
:103FA0001C37BD46F0BD00BFF0B585B000AFF8606E
:103FB000B9603A7107F10C0207F10803114618467F
:103FC000FFF7A4FF0346102BCCBF01230023DBB275
:103FD000002B18D007F10C031021184600F0FEF852
:103FE000034632461946F86800F01AF907F10C0347
:103FF0001021184600F0F2F803462A46B968184620
:1040000000F074F904E02246B968F86800F008F995
:1040100000BF1437BD46F0BD80B582B000AF7860F8
:10402000786800F087F97B6818460837BD4680BD80
:1040300080B483B000AF78607B6818460C37BD460B
:1040400080BC704780B584B000AFF860B9607A601A
:104050007A68B968F86800F077F900BF1037BD4694
:1040600080BD00BF80B582B000AF78607B68184625
:1040700000F084F90346184600F074F90346184628
:104080000837BD4680BD00BF80B483B000AF786004
:1040900039607B681A683B681B689A4201D23B68AA
:1040A00000E07B6818460C37BD4680BC704700BFF7
:1040B00080B582B000AF78603960002239687868D6
:1040C00000F066F9034618460837BD4680BD00BFBC
:1040D00080B584B000AF786007F10C0379681846AA
:1040E00000F074F9FB6818461037BD4680BD00BF6C
:1040F00080B584B000AFF860B9607A603B607A68E0
:10410000B968F86800F070F9034618461037BD46E4
:1041100080BD00BF80B582B000AF7860396039687B
:10412000786800F073F900BF0837BD4680BD00BF56
:10413000B0B584B000AFF860B9607A603B702B46D0
:104140007A68B968F86800F06BF92246B968F868CF
:1041500000F098F900BF1037BD46B0BDF0B589B08A
:1041600002AFF860B9603A7107F10C0207F1080379
:1041700011461846FFF7CAFE0346DA0F13445B10D8
:104180001A4607F10C031146184600F027F80346BB
:104190007B6107F10C030121184600F01FF805466A
:1041A00007F108030121184600F092F903468DF843
:1041B00000407A692946F86800F0A4F907F10C0379
:1041C0000121184600F00AF83346FA68B96800F091
:1041D000EFF9034618461C37BD46F0BD80B584B0E4
:1041E00000AF786039607B681A683B685B001344F5
:1041F000FB6007F10C0207F1080311461846FFF7B0
:10420000DBFCBB6818461037BD4680BD80B483B068
:1042100000AF78607B6818460C37BD4680BC70479D
:10422000F0B589B000AFF860B9603A7107F10802E3
:1042300007F10C031146184600F002FA0346002B62
:104240004FD107F10C0301211846FFF7C7FF0346C2
:10425000BB6107F1080207F1180311461846FFF782
:10426000F3FB0346002B3DD03B1DFA68B9691846A5
:1042700000F0FEF90346002B26D007F1180318467C
:10428000FFF70AFC03461846FFF7C0FF03461B88EA
:10429000FB8207F1180301211846FFF79FFF034631
:1042A0001A46B969F86800F0FFF907F10C031846DF
:1042B000FFF7F2FB044607F116031846FFF7A6FFC7
:1042C00003461B88238006E03046FEF71DFC294686
:1042D000B86900F001FA07F118031846FFF7CCFBA4
:1042E000B7E700BF2437BD46F0BD00BFB0B586B00C
:1042F00000AFF860B9603A71FB683B6107F10802F2
:1043000007F1100311461846FFF79EFB0346002BEA
:104310000CD02846FEF7F8FB2146386900F0DCF99E
:1043200007F110031846FFF7A7FBE7E700BF1837B0
:10433000BD46B0BD80B483B000AF78607B681846DE
:104340000C37BD4680BC704780B584B000AFF860C4
:10435000B9607A60B86800F027FE00BF1037BD462C
:1043600080BD00BF80B582B000AF7860786800F093
:10437000FFF9034618460837BD4680BD80B483B0B8
:1043800000AF78607B6818460C37BD4680BC70472C
:1043900080B584B000AFF860B9607A60F86800F06A
:1043A000E7F90246BB689A4234BF01230023DBB21F
:1043B000002B01D000F00BFEBB685B00184600F03C
:1043C000F5FD034618461037BD4680BD80B483B066
:1043D00000AF786039607B683A681A607B6818467D
:1043E0000C37BD4680BC704780B586B000AFF86022
:1043F000B9607A600123FB757A68B968F86800F0E3
:10440000C3F9034618461837BD4680BD80B483B053
:1044100000AF7860396000BF0C37BD4680BC704784
:10442000B0B586B000AFF860B9607A603B702A46DC
:10443000B968F86800F0B8F9BB687B613A1D07F10C
:1044400014031146184600F003FA0346002B14D05B
:104450003B46FA687969184600F00AF90346002BD2
:1044600005D023467A69B968F86800F009FA07F1BF
:1044700014031846FFF700FBE0E700BF1837BD46FE
:10448000B0BD00BF90B585B000AFF860B9603A71BB
:1044900007F10C0207F1080311461846FFF736FD35
:1044A0000346012BCCBF01230023DBB2002B0BD032
:1044B00007F10803184600F021FA2346BA68B968E4
:1044C000F86800F0DDF9E3E700BF1437BD4690BDA2
:1044D00080B584B000AF786039607B681A683B684B
:1044E0005B005B421344FB6007F10C0207F1080319
:1044F00011461846FFF760FBBB6818461037BD46EB
:1045000080BD00BF80B584B000AFF860B9607A604C
:104510003B607A68B96807F1180000F0A9F8034613
:10452000002B20D03A68796807F1180000F0A0F855
:104530000346002B04D07968F86800F0EFF932E008
:104540003A68B96807F1180000F092F80346002BAA
:1045500004D03968F86800F0E1F924E0B968F86837
:1045600000F0DCF91FE03A68B96807F1180000F0C4
:104570007FF80346002B04D0B968F86800F0CEF944
:1045800011E03A68796807F1180000F071F8034605
:10459000002B04D03968F86800F0C0F903E07968AE
:1045A000F86800F0BBF900BF1037BD4680BD00BF02
:1045B00080B584B000AFF860B9607A603B703B466C
:1045C0007A68F968184600F053F80346002B05D0C6
:1045D00007F10C031846FFF74FFAF0E707F108035D
:1045E000184600F08BF93B46BA687968184600F027
:1045F0003FF80346002B05D007F10803184600F0EA
:104600007DF9F0E707F1080207F10C03114618469F
:1046100000F01EF9034683F00103DBB2002B01D04A
:10462000FB6809E0B968F86800F078F907F10C0355
:104630001846FFF721FAC2E718461037BD4680BD7D
:1046400090B583B000AF786039607868FFF7C4FA3E
:1046500003461C683868FFF7BFFA03461B689C4294
:104660000CBF01230023DBB218460C37BD4690BDBA
:1046700090B585B000AFF860B9607A6007F10803C3
:104680001846FFF709FA03461C883B1D1846FFF73A
:1046900003FA03461B889C4234BF01230023DBB28C
:1046A00018461437BD4690BD90B585B000AFF86090
:1046B000B9607A60F86800F049F90446B86800F01B
:1046C00045F903467A681946204600F04BF903463F
:1046D00018461437BD4690BD90B585B000AF7860E0
:1046E00039703B1D1846FFF7D7F903461846FFF708
:1046F0008DFD03461B88FB817B68BB6007F10803C7
:10470000184600F0FBF807F10E013B46BA68184660
:1047100000F04EF90346002B18D03B1D1846FFF75A
:10472000BBF9044607F108031846FFF7B5F903463D
:104730001846FFF76BFD03461B882380BB687B6030
:1047400007F10803184600F0D9F8DCE73B1D1846CE
:10475000FFF7A2F9044607F10E031846FFF756FDCE
:1047600003461B88238000BF1437BD4690BD00BFA1
:1047700080B483B000AF78606FF0004318460C3708
:10478000BD4680BC704700BF80B584B000AFF86004
:10479000B9607A607A68B968F86800F021F9034670
:1047A00018461037BD4680BD90B58BB002AFF8609B
:1047B000B9603A7107F10C0207F108031146184677
:1047C000FFF7A4FB0346012BD4BF01230023DBB278
:1047D000002B37D107F10C0207F1080311461846E8
:1047E000FFF794FBB861BB69023BDA0F13445B101F
:1047F000FB6107F10C03F9691846FFF7EFFC03466C
:104800007B6107F114031846FFF746F90346184683
:10481000FFF7FCFC03461B887B8207F11203184656
:10482000FFF7F4FC03461B888DF80040BA69F9696C
:10483000F86800F0EDF8FB69002B05D0FB69013B3F
:10484000FB61D6E700BF00E000BF2437BD4690BD46
:1048500090B583B000AF786039607868FFF7BCF935
:1048600003461C683868FFF7B7F903461B689C428B
:1048700034BF01230023DBB218460C37BD4690BD80
:10488000B0B588B002AFF860B9607A603B703B1D8C
:104890001846FFF701F903461846FFF7B7FC034631
:1048A0001B88FB823B1D1846FFF7F6F8044607F10C
:1048B0000C031846FFF7F0F803461846FFF7A6FC6E
:1048C00003461B88238007F10C0207F108031146F9
:1048D0001846FFF71BFB044607F116031846FFF7BF
:1048E00095FC03461B888DF8005022460021F8688D
:1048F00000F08EF800BF1837BD46B0BD80B483B05D
:1049000000AF78607B681B689A1E7B681A607B68C2
:1049100018460C37BD4680BC704700BF90B583B0C9
:1049200000AF786039603B1D1846FFF7B5F80446C4
:104930003B461846FFF7B0F803461946204600F0FC
:104940000FF900BF0C37BD4690BD00BF80B582B0E7
:1049500000AF7860786800F023F9034618460837FE
:10496000BD4680BDB0B586B000AFF860B9607A6072
:10497000F86800F01FF90446B86800F01BF9054616
:10498000786800F017F903461A462946204600F0D9
:104990001DF903467B6107F1140207F1100311466C
:1049A0001846FFF709F93B6918461837BD46B0BDF0
:1049B00090B585B000AFF860B9607A60BB681C88BC
:1049C0003B1D1846FFF768F803461B889C4234BF1E
:1049D00001230023DBB218461437BD4690BD00BF4B
:1049E00090B585B000AFF860B9607A60F86800F003
:1049F000FFF80446B86800F0FBF803467A681946E9
:104A0000204600F001F9034618461437BD4690BD14
:104A1000F0B58FB002AFF860B9607A607B80BB6898
:104A2000BB62BB68FB627B68013BDA0F13445B101F
:104A30001A46FB6A9A4244DDFB6A01335B00FB6263
:104A400007F10C03F96A1846FFF7C8FB0446FB6A36
:104A50005A1E07F10C0311461846FFF7BFFB034629
:104A60001A46214607F14800FFF702FE0346002BD5
:104A700002D0FB6A013BFB6207F10C03B9681846E0
:104A8000FFF7ACFB03467B6107F114031846FFF701
:104A900003F8044607F10C03F96A1846FFF79EFB7A
:104AA0000346BB6107F118031846FEF7F5FF0346FE
:104AB0001846FFF7ABFB03461B882380FB6ABB60ED
:104AC000B1E77B6803F00103002B33D17B68023B25
:104AD000DA0F13445B101A46FB6A9A422AD1FB6A2A
:104AE00001335B00FB6207F10C03B9681846FFF75E
:104AF00075FB0346FB6107F11C031846FEF7CCFF6C
:104B00000446FB6A5A1E07F10C0311461846FFF7CC
:104B100065FB03463B6207F120031846FEF7BCFF26
:104B200003461846FFF772FB03461B882380FB6A87
:104B3000013BBB60BB1C1846FFF768FB03461C88A3
:104B40003046FDF7D7FF8DF800502346BA6AB968A2
:104B5000F86800F075F800BF3437BD46F0BD00BFFF
:104B600080B584B000AF786039607868FFF74EFB9D
:104B700003461B88FB813868FFF748FB03461A8809
:104B80007B681A8007F10E031846FFF73FFB0346C8
:104B90001A883B681A8000BF1037BD4680BD00BF31
:104BA00080B483B000AF78607B6818460C37BD4690
:104BB00080BC704780B582B000AF7860786800F044
:104BC000A9F8034618460837BD4680BD80B586B0B3
:104BD00000AFF860B9607A600123FB757A68B96844
:104BE000F86800F0A5F8034618461837BD4680BDA2
:104BF00080B582B000AF7860786800F0BBF80346FB
:104C000018460837BD4680BDB0B584B000AFF86027
:104C1000B9607A60F86800F0BBF80446B86800F044
:104C2000B7F80546786800F0B3F803461A462946F7
:104C3000204600F0B9F8034618461037BD46B0BD0F
:104C400090B589B000AFF860B9607A607B80BB68CE
:104C5000013BDA0F13445B10FB61BA687B689A4230
:104C600011DD07F10C03F9691846FFF7B7FA0146A1
:104C7000BB1C1A4607F1300000F0A8F80346002BD1
:104C800001D0012300E00023002B2AD007F10C0300
:104C9000B9681846FFF7A2FA03463B6107F1100313
:104CA0001846FEF7F9FE044607F10C03F9691846A9
:104CB000FFF794FA03467B6107F114031846FEF7E9
:104CC000EBFE03461846FFF7A1FA03461B88238034
:104CD000FB69BB60BB68013BDA0F13445B10FB61EF
:104CE000BBE707F10C03B9681846FFF777FA0346EC
:104CF000BB6107F118031846FEF7CEFE0446BB1C45
:104D00001846FFF783FA03461B88238000BF243729
:104D1000BD4690BD80B582B000AF78603B1D18469F
:104D2000FEF75AFF03461B6818460837BD4680BD8C
:104D300080B586B000AFF860B9607A60BA68FB6889
:104D4000D31A5B107B617B69002B0AD07B695B0007
:104D50005B427A68D0187B695B001A46F96800F0FC
:104D6000BCFA7B695B005B427A68134418461837CB
:104D7000BD4680BD80B582B000AF78603B1D18464F
:104D800000F03CF8034618460837BD4680BD00BF1A
:104D900080B582B000AF7860786800F03BF80346D9
:104DA00018460837BD4680BD80B586B000AFF860B4
:104DB000B9607A600123FB757A68B968F86800F019
:104DC00033F8034618461837BD4680BD80B584B019
:104DD00000AFF860B9607A6007F108031846FEF783
:104DE0005BFE03461A887B681B889A4234BF012306
:104DF0000023DBB218461037BD4680BD80B483B0B7
:104E000000AF78607B681B6818460C37BD4680BCD5
:104E1000704700BF80B483B000AF78607B681846ED
:104E20000C37BD4680BC704780B586B000AFF860D7
:104E3000B9607A60BA68FB68D31A5B107B617B69E2
:104E4000002B06D07B695B001A46F968786800F091
:104E500044FA7B695B007A68134418461837BD46EC
:104E600080BD00BF80B582B000AF786039607B68DC
:104E7000012B26D13B684FF6FF72934221D118488F
:104E8000FDF710FC01234FF4006216491648FDF7A8
:104E90003BFD01234FF4805212491448FDF734FDC5
:104EA00001234FF480720F491148FDF72DFD0023B7
:104EB0004FF400420F491048FDF726FD0F48FEF75A
:104EC00093FD7B68002B07D13B684FF6FF7293423E
:104ED00002D10A4800F014F800BF0837BD4680BD73
:104EE00038050020000801403C0500204405002052
:104EF0004C050020000C01405405002064050020F2
:104F0000B0B582B000AF78607B681C687B685D6874
:104F10007B681846FEF7C8FF03461A462946204616
:104F2000FEF7E6FF7B681846FEF72CFE7B68184606
:104F30000837BD46B0BD00BF80B500AF4FF6FF716A
:104F40000120FFF78FFF80BD80B500AF4FF6FF71E6
:104F50000020FFF787FF80BD80B400AF00BFBD46D3
:104F600080BC704780B400AFFEE700BF80B400AFE4
:104F7000FEE700BF80B400AFFEE700BF80B400AF23
:104F8000FEE700BF80B400AF00BFBD4680BC7047E5
:104F900080B400AF00BFBD4680BC704780B400AF96
:104FA00000BFBD4680BC704700F076B910B5002840
:104FB00014BF04460124204600F066F930B900F021
:104FC0000DF808B9FCF7E8FF8047F4E710BD08B515
:104FD000FCF7E2FF08B5FCF7DFFF0000024B1868A2
:104FE000BFF35F8F704700BF7C050020244B1A6819
:104FF000D0075CBF01221A60224B1A68D1075CBF40
:1050000001221A60204B1A68D2075CBF01221A6085
:105010001E4B1A68D0075CBF01221A601C4B1A682D
:10502000D1075CBF01221A601A4B1A68D2075CBF15
:1050300001221A60184B1A68D0075CBF01221A605F
:10504000164B1A68D1075CBF01221A60144B1A680C
:10505000D2075CBF01221A60124B1A68D0075CBFEE
:1050600001221A60104B1A68D1075CBF01221A6036
:105070000E4B1A68D2075CBF01221A60704700BF4E
:10508000AC050020A8050020A4050020A0050020F4
:105090009C05002098050020940500209005002024
:1050A0008C05002088050020840500208005002054
:1050B000184B1A68D1075CBF01221A60164B1A6898
:1050C000D2075CBF01221A60144B1A68D0075CBF7C
:1050D00001221A60124B1A68D1075CBF01221A60C4
:1050E000104B1A68D2075CBF01221A600E4B1A6877
:1050F000D0075CBF01221A600C4B1A68D1075CBF55
:1051000001221A600A4B1A68D2075CBF01221A609A
:10511000704700BFCC050020C8050020C405002052
:10512000C0050020BC050020B8050020B405002003
:10513000B0050020244B1A68D0075CBF01221A601A
:10514000224B1A68D1075CBF01221A60204B1A68F3
:10515000D2075CBF01221A601E4B1A68D0075CBFE1
:1051600001221A601C4B1A68D1075CBF01221A6029
:105170001A4B1A68D2075CBF01221A60184B1A68D2
:10518000D0075CBF01221A60164B1A68D1075CBFBA
:1051900001221A60144B1A68D2075CBF01221A6000
:1051A000124B1A68D0075CBF01221A60104B1A68B4
:1051B000D1075CBF01221A600E4B1A68D2075CBF90
:1051C00001221A60704700BFFC050020F80500208E
:1051D000F4050020F0050020EC050020E805002083
:1051E000E4050020E0050020DC050020D8050020B3
:1051F000D4050020D0050020184B1A68D1075CBFE9
:1052000001221A60164B1A68D2075CBF01221A608D
:10521000144B1A68D0075CBF01221A60124B1A683F
:10522000D1075CBF01221A60104B1A68D2075CBF1D
:1052300001221A600E4B1A68D0075CBF01221A6067
:105240000C4B1A68D1075CBF01221A600A4B1A681E
:10525000D2075CBF01221A60704700BF1C06002005
:105260001806002014060020100600200C0600205E
:10527000080600200406002000060020014B1868E4
:10528000704700BF94000020024B0146186800F0F0
:105290008BB800BF94000020024B0146186800F054
:1052A00037B800BF9400002010B5C9B20244904244
:1052B000034605D01C7801308C42F8D1184610BD49
:1052C000002010BD10B5431E0A44914204D011F8CD
:1052D000014B03F8014FF8E710BD884210B501EB10
:1052E000020301D8421E0BE09842FBD28118D21A69
:1052F000D34204D013F8014D01F8014DF8E710BD79
:10530000994204D011F8014B02F8014FF8E710BDA3
:1053100038B50546002944D051F8043C0C1F002B39
:10532000B8BFE41800F014F91E4A1368114613B907
:105330006360146030E0A3420DD92268A018834254
:1053400001BF18685B681218226063600C6023E07C
:10535000A24203D813465A68002AF9D118681918CE
:10536000A1420BD12168014458188242196013D11F
:1053700010685268014419605A600DE002D90C238C
:105380002B6009E021686018824201BF10685268F2
:105390000918216062605C602846BDE8384000F072
:1053A000D8B838BD2406002070B5CD1C25F0030503
:1053B00008350C2D38BF0C25002D064601DBA9420F
:1053C00002D90C23336046E000F0C2F8234B1C687E
:1053D0001A462146A1B10B685B1B0ED40B2B03D9D7
:1053E0000B60CC18CD501EE08C420BBF63684B683D
:1053F0001360636018BF0C4615E00C464968E9E786
:10540000174C23681BB9304600F02CF82060294661
:10541000304600F027F8431C18D0C41C24F00304C5
:10542000A0420DD12560304600F093F804F10B0046
:10543000231D20F00700C31A0ED05A42E25070BD5F
:10544000211A304600F00EF80130EBD10C23336006
:10545000304600F07EF8002070BD00BF240600201A
:105460002006002038B5064C002305460846236078
:10547000FCF79CFD431C02D1236803B12B6038BDAF
:10548000280600200EB400B54FF402719CB0ADF8B0
:1054900014106FF00041049107914FF6FF711DAB9E
:1054A00002900690084853F8042BADF816100068D7
:1054B00002A9019300F0A8F8029B00221A701CB008
:1054C0005DF804EB03B0704794000020034613F826
:1054D000012B002AFBD1181A0138704730B5141E71
:1054E00005469BB0184604DA8B232B604FF0FF3043
:1054F0001DE04FF40273ADF80C300CBF234604F1ED
:10550000FF33029305934FF6FF7300910491ADF8BA
:105510000E3002461E9B6946284600F075F8431C73
:10552000BCBF8B232B6014B1009B00221A701BB0F0
:1055300030BD000007B5009313460A4601460348F4
:105540000068FFF7CBFF03B05DF804FB9400002078
:10555000704770472DE9F0478E6882469E420C46A0
:10556000914698463ED88A8912F4906F3AD02568C1
:10557000096902236F1A656905EB450595FBF3F58B
:105580007B1C43449D4238BF1D4653050FD5294619
:10559000FFF70AFF064698B13A462169FFF792FEE7
:1055A000A38923F4906343F08003A38113E02A4688
:1055B00000F0BAFA064670B921695046FFF7A8FE16
:1055C0000C23CAF80030A3894FF0FF3043F04003AA
:1055D000A381BDE8F08726613E44266046466561AA
:1055E000ED1BA560464528BF464649463246206821
:1055F000FFF773FEA36800209B1BA36023681E4473
:105600002660BDE8F08700002DE9F04F9DB00393C0
:105610008B8980461C060D4616460DD50B695BB975
:105620004021FFF7C1FE2860286118B90C23C8F893
:105630000030CDE040236B610023099320238DF8D7
:105640002930DFF89CB130238DF82A3037463C46AC
:1056500014F8013B1BB9B7EB060910D003E0252B6A
:10566000F9D02746F3E74B46324629464046FFF736
:1056700071FF013000F0A780099B4B4409933B78F0
:10568000002B00F0A08000234FF0FF32049307931B
:10569000059206938DF853301A930126052221783E
:1056A0004E48FFF701FE671C049B38B14B4A3C464D
:1056B000801A06FA00F018430490EFE7D90644BFB9
:1056C00020228DF853201A0744BF2B228DF8532037
:1056D00022782A2A03D0079A00210A200BE0039A95
:1056E000111D12680391002A10DA524243F00200A1
:1056F000079204900BE027463B780134303B092B9E
:1057000003D800FB02320121F5E701B107923B7893
:105710002E2B1ED17B782A2B0AD1039B02371A1D10
:105720001B680392002BB8BF4FF0FF33059310E0C6
:10573000002319460593781C0A2407463A7801305D
:10574000303A092A03D804FB01210123F5E703B10C
:105750000591032239782248FFF7A6FD40B1402386
:10576000CBEB000003FA00F0049B013718430490D0
:10577000397806221B487E1C8DF82810FFF794FD0F
:1057800088B1194B33B9039B073323F00703083360
:10579000039314E003AB00932A46144B04A940463C
:1057A000AFF3008007E003AB00932A460F4B04A938
:1057B000404600F093F8B0F1FF3F824603D0099BCA
:1057C0005344099342E7AB895B0601D4099801E091
:1057D0004FF0FF301DB0BDE8F08F00BFE060000863
:1057E000E6600008EA600008000000005555000867
:1057F0002DE9F04791461F460A698B680646934299
:10580000B8BF1346C9F8003091F843200C46DDF8C4
:10581000208012B10133C9F800302368990642BFD5
:10582000D9F800300233C9F80030256815F00605B4
:1058300010D104F1190A07E00123524639463046D7
:10584000C04701301AD00135E368D9F800209B1A0F
:105850009D42F1DB94F843302268003318BF0123E6
:1058600092060FD5E118302081F843005A1C94F8B5
:1058700045102244023382F8431003E04FF0FF301A
:10588000BDE8F08704F1430239463046C047013095
:10589000F4D02268D9F80050E36802F00602042A26
:1058A00008BF5D1B2269A3680CBF25EAE5750025CA
:1058B0009342C4BF9B1AED184FF000091A344D45AE
:1058C00009D00123224639463046C0470130D5D0A1
:1058D00009F10109F3E70020BDE8F0872DE9F04365
:1058E00017460A7E85B06E2A984606460C460C9BE3
:1058F00001F1430E00F0AE8011D8632A22D009D8FE
:10590000002A00F0BB80582A40F0CA8081F8452068
:10591000834955E0642A1ED0692A1CD0C0E0732A4E
:1059200000F0B08009D86F2A2ED0702A40F0B880DD
:105930000A6842F020020A603EE0752A24D0782AE4
:105940003AD0ADE01A6801F14205111D19601368E3
:1059500084F84230A8E021681A6811F0800F02D064
:10596000111D196008E011F0400F02F104011960E7
:1059700002D0B2F9003000E01368002B3CDA2D228F
:105980005B4284F8432037E021681A6811F0800FE9
:1059900002D0111D196007E011F0400F02F104015F
:1059A000196001D0138800E01368227E5C496F2AD9
:1059B00014BF0A2208221BE078225A4984F84520A5
:1059C0002268186812F0800F00F104051D6003D1F1
:1059D000550601D5038800E00368D00744BF42F0B4
:1059E000200222601BB9226822F0200222601022CD
:1059F000002084F8430001E049490A226568002D2F
:105A0000A56008DB206820F0040020602BB9002D81
:105A10007DD175460CE0002B79D07546B3FBF2F0D2
:105A200002FB1033CB5C05F8013D03460028F5D19D
:105A3000082A0BD12368DA0708D5236962689A42DD
:105A4000DEBF302305F8013C05F1FF35C5EB0E0341
:105A500023612EE008681A6810F0800F496903D0AE
:105A6000101D1860136808E010F0400F02F10400E8
:105A70001860136801D0198000E0196000232361C9
:105A8000754616E01A68111D1960156800216268D4
:105A90002846FFF709FC08B1401B6060636804E01A
:105AA00004F1420584F8422001232361002384F895
:105AB0004330CDF800803B4603AA21463046FFF72D
:105AC00097FE013002D14FF0FF3026E023692A46CD
:105AD00039463046C0470130F5D023689B0710D5C2
