:020000040800F2
:1000000000000220B1010008FD11000801120008E3
:1000100005120008091200080D1200080000000077
:1000200000000000000000000000000011120008A5
:100030001512000800000000191200081D12000827
:100040004102000841020008410200084102000884
:100050004102000841020008410200084102000874
:100060004102000841020008410200084102000864
:100070004102000841020008410200084102000854
:100080004102000841020008410200084102000844
:100090004102000841020008410200084102000834
:1000A0004102000841020008410200084102000824
:1000B0004102000841020008410200084102000814
:1000C0004102000841020008410200084102000804
:1000D00041020008410200084102000841020008F4
:1000E0002D100008410200084102000841020008EA
:1000F00041020008410200084102000841020008D4
:1001000041020008410200084102000841020008C3
:1001100041020008410200084102000841020008B3
:1001200041020008410200084102000841020008A3
:100130004102000841020008410200084102000893
:100140004102000841020008410200084102000883
:100150004102000841020008410200084102000873
:100160004102000841020008410200084102000863
:100170004102000841020008410200084102000853
:10018000410200084102000808B5064B064A07482C
:1001900003E011681960043304328342F9D301F09B
:1001A000A7FA08BD0000002094260C086404002073
:1001B00070B51B4B1B4A002101E0196004339342C8
:1001C000FBD3194B194DED1AAD1000241E4603E068
:1001D00056F8243098470134A542F9D8144B154DF0
:1001E000ED1AAD1000241E4603E056F8243098475F
:1001F0000134A542F9D801F07BFA00F0A7FE0646CB
:100200000D4B0E4CE41AA4101D4603E0013C55F8BA
:1002100024309847002CF9D1304601F005FA00BF90
:1002200064040020AC040020680200086C0200088E
:100230006C0200086C0200086C0200086C020008E6
:10024000FEE700BFFEE700BFFEE700BFFEE700BF1E
:10025000FEE700BFFEE700BFFEE700BFFEE700BF0E
:08026000FEE700BFFEE700BF4E
:040268008901000800
:10027000014B1860704700BF64040020014B1880D8
:1002800059807047FEFF016010B503460C464E20B2
:100290001946FFF7F3FF4F202146FFF7EFFF10BD90
:1002A0002222014B1A807047FEFF0160014B5880EB
:1002B000704700BFFEFF016010B582B00446002108
:1002C00001910846FFF7E0FF4FF496330193FFF7E3
:1002D000E7FF02E02046FFF7E9FF019B5A1E01926B
:1002E000002BF7D102B010BD10B51446FFF7CCFFBC
:1002F000FFF7D6FF2046FFF7D9FF10BD2DE9F84FD5
:1003000005460E46BDF828905B1A121A83EAE37080
:10031000A0EBE37082EAE271A1EBE271884204DCB7
:1003200011461A460B46002100E00121002B04DA99
:100330005F1E5B424FF0FF3A02E05F1C4FF0010A84
:1003400023B14FEA024898FBF3F801E04FF00008B0
:1003500069B90024A3461AE005EB2B40311980B29D
:1003600089B24A46FFF7C0FFC344544401E0002469
:10037000A346BC42F0D1BDE8F88F281906EB2B410B
:1003800080B289B24A46FFF7AFFFC3445444BC422F
:10039000F3D1BDE8F88F00BF2DE9F04182B00746E8
:1003A0000E4690461C46BDF8205000950B46FFF7C0
:1003B000A5FF00954046314642462346FFF79EFF83
:1003C0000095404621463A462346FFF797FF0095A1
:1003D000384621463A463346FFF790FF02B0BDE863
:1003E000F08100BF2DE9F04182B0044688461546F1
:1003F0001F46BDF8206008E0009620464146224690
:100400003B46FFF77BFF0134A4B2AC42F4D302B009
:10041000BDE8F0812DE9F04F85B0814688461F4642
:100420005600C6F103061546002449E0EDB11FFA57
:1004300085FA0AEB080B1FFA8BFBA3B20393C3EBFD
:10044000090292B2CAEB080A1FFA8AFA009710460C
:1004500059465346FFF752FF039A4A4492B2009717
:10046000104659465346FFF749FFECB11FFA84FA8C
:100470000AEB080B1FFA8BFBABB20393C3EB090229
:1004800092B2CAEB080A1FFA8AFA00971046594638
:100490005346FFF733FF039A4A4492B2009710463F
:1004A00059465346FFF72AFF002E03DA06EB84066F
:1004B000063604E0631B06EB83060A36013D013471
:1004C000AC42B3D905B0BDE8F08F00BF2DE9F04FC5
:1004D00083B007460E469A464FEA420BCBF1030B18
:1004E0001546002471E007EB0408B8F1EF0F09D8B6
:1004F0007319B3F5A07F05D21FFA88F099B252465E
:10050000FFF7F2FEB8F1EF0F06D83819711B80B271
:1005100089B25246FFF7E8FE7319B3F5A07F05D202
:10052000381B80B299B25246FFF7DEFE1FFA84F8FC
:100530001FFA85F9C8EB0700C9EB060180B289B242
:100540005246FFF7D1FEEB190193EF2B0CD8A319FC
:10055000B3F5A07F08D207EB090006EB080180B2D3
:1005600089B25246FFF7C0FE019BEF2B08D807EB7C
:100570000900C8EB060180B289B25246FFF7B4FE0B
:10058000A319B3F5A07F08D2C9EB070006EB080159
:1005900080B289B25246FFF7A7FEC9EB0700C8EB4D
:1005A000060180B289B25246FFF79EFEBBF1000FF2
:1005B00004DA0BEB840B0BF1060B05E0631B0BEB72
:1005C000830B0BF10A0B013D0134AC428BD903B014
:1005D000BDE8F08F2DE9F04F83B082468B469146FF
:1005E000019300251D4EDFF8788030E039F81520A2
:1005F000A8FB0301C908C90007FA01F120462141FF
:100600000A4201D10C2B07D9024112F0010F05D18A
:100610000C2B05D8002304E0012302E0002300E0B6
:1006200001233BB9C4EB0B010139504689B2019A51
:10063000FFF75AFE013401E00024802733689B88CD
:10064000A342D3D80AF1010A1FFA8AFA01353368A6
:10065000DB88AB42F0D803B0BDE8F08F6404002023
:10066000ABAAAAAA38B5203AD2B2054C24682568AC
:10067000E48804FB02F205EB4202FFF7ABFF38BD52
:10068000640400202DE9F04180460C4615461F46C3
:100690000D4E09E0404621463B46FFF7E3FF336835
:1006A0009B88E41AA4B201352A78601C31688B88D3
:1006B00080B2111C18BF01219842B8BF0021002947
:1006C000E8D1BDE8F08100BF640400202DE9F84FB7
:1006D00083468A4691461F460A9D4FF0000816E061
:1006E0000BEB080080B25146FFF7CEFDFFF7D8FDB7
:1006F000002406E0AE1C2888FFF7D8FD0134A4B220
:100700003546BC42F6D308F101081FFA88F8C845FF
:10071000E6D3BDE8F88F00BFF0B583B000250095A3
:1007200001951C20012101F057FA4FF4005300936A
:1007300001278DF8047002268DF80560454869464A
:1007400001F006F94CF6B37300938DF804608DF850
:1007500005508DF806508DF807503F4C20466946ED
:1007600001F0F6F8204629460C2201F049F920460E
:1007700039460C2201F044F9204604210C2201F0F4
:100780003FF9204605210C2201F03AF920460721C5
:100790000C2201F035F9204608210C2201F030F935
:1007A000204609210C2201F02BF920460A210C22B7
:1007B00001F026F920460B210C2201F021F92046F8
:1007C0000E210C2201F01CF920460F210C2201F011
:1007D00017F94FF6807300938DF804608DF805507B
:1007E0008DF806508DF8075004F580642046694660
:1007F00001F0AEF8204607210C2201F001F9204655
:1008000008210C2201F0FCF8204609210C2201F0FD
:10081000F7F820460A210C2201F0F2F820460B21BD
:100820000C2201F0EDF820460C210A4601F0E8F810
:1008300020460D210C2201F0E3F820460E210C2267
:1008400001F0DEF820460F210C2201F0D9F803B0A8
:10085000F0BD00BF00080240000C024010B596B089
:1008600000240F94109411941294139414941594DA
:10087000684621463C2201F0D1FE0120014601F0EC
:10088000B9F90F940A2311931394159400940194C9
:1008900002941023039304940694079408944FF44D
:1008A000805309930A940B940C940FAB0D930E9301
:1008B0000594684600F0D0FF2046012101F032F88F
:1008C00016B010BD00B585B0684601F029F90B4A95
:1008D000019BA2FB03139B09013BB3F1807F09D26B
:1008E000074A5360F021074B83F8231000239360DD
:1008F0000723136005B05DF804FB00BFD34D621001
:1009000010E000E000ED00E082B00190019A044B9D
:100910001A601A461368002BFCD102B0704700BF62
:100920006804002010B51C4C20464FF4005101F023
:1009300061F81E20FFF7E8FF20464FF4005101F058
:1009400057F80A20FFF7E0FF07202121FFF796FC68
:1009500000200121FFF792FC07202321FFF78EFCE6
:1009600010200021FFF78AFC1E20FFF7CDFF072093
:100970003321FFF783FC112046F21801FFF77EFCBC
:1009800002204FF4C061FFF779FC012042F63F31AD
:10099000FFF774FC10BD00BF00080240034B1B684A
:1009A0001BB1024B1A68013A1A60704768040020B4
:1009B00041F2707303FB00F0002300E00133834237
:1009C000FCD3704770B586B004460D4602238DF8FF
:1009D000143001238DF816308DF8173003238DF86D
:1009E00015302D4B984204D003F5806398421CD0FB
:1009F00037E04FF40010012101F00AF90220012133
:100A000001F0EAF806A9C02341F8083D234E30461C
:100A100000F09EFF30460621042200F0F1FF304630
:100A20000721042200F0ECFF1BE04FF480000121BD
:100A300001F0EEF80220012101F0CEF806A94FF4F2
:100A4000406341F8083D154E304600F081FF3046C6
:100A50000A21042200F0D4FF30460B21042200F0CA
:100A6000CFFF0F4B00930023ADF804304BF6FF721D
:100A7000ADF80620ADF80830ADF80A504FF48043C9
:100A8000ADF80C302046012101F03CF820466946C3
:100A900000F0CEFF06B070BD0054004000040240DC
:100AA000A086010070B40123164601E002FB03F3A7
:100AB000B1FBF3F435469442F8D200240EE0B1FBCA
:100AC000F3F203FB1211B3FBF5F3092A02D9373213
:100AD000025501E0303202550134E4B2002BEED170
:100AE000035570BC704700BF2DE9F04F83B0002460
:100AF000294E2A4D64274AE001F0DAFD80FB0623E7
:100B000000EB0309C317C3EBE919C9EB09194FEA55
:100B10000919C9EB00091FFA89F901F0C9FD85FB24
:100B20000038C317C3EBE81808EB88084FEA8818A9
:100B3000C8EB00081FFA88F801F0BAFD80FB062315
:100B4000C218C317C3EBE212C2EB02121201821ADF
:100B50001FFA82FA01F0ACFD85FB0032C317C3EB2C
:100B6000E21303EB83039B01C31A1FFA83FB01F01B
:100B70009FFD80B2C3009BB2009348464146524657
:100B80005B46FFF7BBFB3846FFF7BEFE0134632C24
:100B9000B2D903B0BDE8F08F898888886766666639
:100BA0002DE9F04F83B00024384E394D69E001F053
:100BB0007FFD80FB062300EB030AC317C3EBEA1A91
:100BC000CAEB0A1A4FEA0A1ACAEB000A1FFA8AFA93
:100BD00001F06EFD85FB0039C317C3EBE91909EB82
:100BE00089094FEA8919C9EB00091FFA89F901F04F
:100BF0005FFD80FB062300EB0308C317C3EBE81877
:100C0000C8EB08184FEA0818C8EB00081FFA88F864
:100C100001F04EFD85FB0037C317C3EBE71707EB69
:100C20008707BF01C71BBFB201F042FD1FFA80FB5F
:100C300001F03EFD85FB0032C317C3EBA20303EBBB
:100C400083035B00C31A9BB2042B0BD94FEACB0B77
:100C50001FFA8BF300935046494642463B46FFF746
:100C60009BFB0AE04FEACB0B1FFA8BF30093504635
:100C7000494642463B46FFF7B5FB6420FFF744FE7A
:100C80000134182C93D903B0BDE8F08F8988888887
:100C9000676666662DE9F84F0024DFF8C090DFF83C
:100CA000C0802C4F51E001F003FD80FB092300EBD5
:100CB000030BC317C3EBEB1B8C2303FB1B0B1FFAAC
:100CC0008BFB01F0F5FC88FB002AC317C3EBEA0A93
:100CD000DC2303FB1A0A1FFA8AFA01F0E9FC87FBFE
:100CE0000036C317C3EB2616322303FB1606013664
:100CF000B6B201F0DDFCC00085B201F0D9FC164BA4
:100D000083FB0023C217C2EBA30303EB83035B0047
:100D1000C31A9BB2042B0AD90BF132000AF132013B
:100D200080B289B232462B46FFF7D0FB09E00BF1C7
:100D300032000AF1320180B289B232462B46FFF707
:100D400069FB6420FFF7E0FD0134182CABD9BDE846
:100D5000F88F00BF1F85EB5167666666EBA00EEA51
:100D600095204F09F0B587B00020FFF7A5FA694C30
:100D70002046FFF77DFA0E2040F22711664A4FF613
:100D8000FF73FFF77FFC03A800210A22FFF78AFE0A
:100D90002B2040F2271103AA4FF6FF73FFF772FCD6
:100DA000482040F21F115D4A4FF6FF73FFF76AFCBF
:100DB0005B48FFF75DFA612040F21D11594A4FF67A
:100DC000FF73FFF75FFC584B00937820C321462246
:100DD0001346FFF77BFC5548FFF74AFADC2040F248
:100DE0000311534A4FF6FF73FFF74CFCE62040F225
:100DF0000311504A4FF6FF73FFF744FC2046FFF7FC
:100E000037FA462400272B2640F2271517E00097D3
:100E1000304629463D221923FFF7E4FA03A821466C
:100E20000A22FFF73FFE3046294603AA4FF6FF731A
:100E3000FFF728FC1420FFF767FD013CA4B2002C4B
:100E4000E5D13D484FF4005100F0D6FD0020FFF7FA
:100E500033FA3A4B0093002040F23F11F0224FF456
:100E6000A073FFF733FC40F6B830FFF74DFD0020CC
:100E7000FFF722FA274C2046FFF7FAF96B20FF21F3
:100E80002F4A4FF6FF73FFF7FDFB4FF4FA60FFF7B1
:100E90003BFD0020FFF710FAFFF726FE4FF4FA7033
:100EA000FFF732FD0020FFF707FA2046FFF7E0F9D1
:100EB0006B2040F22711234A4FF6FF73FFF7E2FB46
:100EC0004FF4FA60FFF720FD0020FFF7F5F9FFF778
:100ED00067FE4FF4FA70FFF717FD0020FFF7ECF9FB
:100EE0002046FFF7C5F96B2040F20F11164A4FF666
:100EF000FF73FFF7C7FB4FF4FA60FFF705FD002013
:100F0000FFF7DAF9FFF7C6FE4FF4FA70FFF7FCFCC3
:100F100007B0F0BD10000020086E0008186E000831
:100F200008000020206E0008C047000800000020D4
:100F3000346E0008486E0008000C0240906E0008F5
:100F40005C6E00086C6E0008806E000870B582B0A0
:100F5000FFF7B8FCFFF7E0FBFFF780FCFFF7E2FCD0
:100F600000F0DCF800F0D6F9284B1A88284B5A63B9
:100F70000020FFF7A1F9FFF7F5FE26484FF4806146
:100F8000FFF720FD40F6B830FFF7BEFC224C234EA1
:100F9000234D6420FFF7B8FC2368052BF9D1009698
:100FA000002040F23F11F0224FF4A073FFF78EFBB8
:100FB00040F6B830FFF7A8FC0095002040F23F1142
:100FC000F0224FF4A073FFF781FB40F6B830FFF733
:100FD0009BFC144B0093002040F23F11F0224FF491
:100FE000A073FFF773FB40F6B830FFF78DFC0E4B94
:100FF0000093002040F23F11F0224FF4A073FFF75E
:1010000065FB40F6B830FFF77FFCC2E71800002010
:1010100000080040005400401C00002090C6020858
:10102000901E05089076070890CE090800B585B097
:101030004FF4805000F000FC002861D003A80DF1AF
:101040000E0100F0B1FABDF80C30A02B08D92E4AE1
:101050001268042A04DC2C4B1A6801321A6013E06F
:10106000A02B03D90122284B1A600DE09F2B08D832
:10107000254B1B68012B04DD234B1A68013A1A60CB
:1010800002E00522204B1A601F4B1B68013B032B1B
:101090002ED8DFE803F0020D18231C4B009300202C
:1010A00040F23F11F0224FF4A073FFF70FFB1FE057
:1010B000174B0093002040F23F11F0224FF4A07331
:1010C000FFF704FB14E0134B0093002040F23F11A4
:1010D000F0224FF4A073FFF7F9FA09E00E4B0093EA
:1010E000002040F23F11F0224FF4A073FFF7EEFA18
:1010F0004FF4FA70FFF75CFC4FF4805000F0A6FB51
:1011000005B05DF804FB00BF1C00002090C602087B
:10111000901E05089076070890CE09082DE9F04149
:101120008AB00420012100F073FD0820012100F0A5
:1011300053FD4FF4805308934FF002088DF824803C
:1011400003278DF8257000258DF8265001248DF891
:101150002740264E304608A900F0FAFB30460C2105
:10116000424600F04DFC4FF4005308938DF82440A4
:101170008DF825708DF826508DF82740304608A947
:1011800000F0E6FB1A4B1A681A4BA3FB02131B0E66
:10119000013B9BB2184A138040F299220692ADF8A7
:1011A0001430ADF81C50ADF81650A6F50136304697
:1011B00005A900F0A7FD6023ADF80030ADF80240AE
:1011C0000295ADF80C503046694600F0F5FD30460A
:1011D000082100F029FE3046214600F0D1FD3046BE
:1011E000214600F0DBFD0AB0BDE8F081000C0240B2
:1011F0002400002029D942666C040020704700BFFB
:10120000FEE700BFFEE700BFFEE700BFFEE700BF4E
:10121000704700BF704700BF704700BF08B5FFF7B9
:10122000BDFB074A1378013BDBB213703BB9C82200
:10123000034B1A7003484FF4005100F0DDFB08BD6A
:1012400020000020000C024070B506460C4D022420
:101250002846214600F034FD0028F9D008483146E0
:1012600000F02CFD064D01242846214600F028FD03
:101270000028F9D0024800F01DFDC0B270BD00BFCB
:101280000038004038B50D4C20464FF4006100F0A6
:10129000B1FBD020FFF7D8FF0020FFF7D5FF0002F9
:1012A00085B20020FFF7D0FF284485B220464FF4D6
:1012B000006100F09DFB280938BD00BF000402401A
:1012C00038B50D4C20464FF4006100F093FB9020A0
:1012D000FFF7BAFF0020FFF7B7FF000285B200203A
:1012E000FFF7B2FF284485B220464FF4006100F0BA
:1012F0007FFB280938BD00BF0004024010B5FFF78E
:10130000DFFF034CA080FFF7BDFFE080012010BD90
:10131000880400202DE9F04782B04FF4804001217D
:1013200000F084FC4FF48040012100F071FC0220A9
:10133000012100F051FC454D28460D21052200F009
:101340005FFB28460E21052200F05AFB28460F219C
:10135000052200F055FB4FF002088DF804808DF84F
:10136000058000268DF806608DF8078002AF4FF4E7
:10137000005347F8083D2846694600F0E9FA4FF463
:10138000004300932846694600F0E2FA4FF4804992
:10139000CDF800902846694600F0DAFA4FF4006A6A
:1013A000CDF800A001248DF804408DF806600323D9
:1013B0008DF805308DF807402846694600F0C8FAD8
:1013C0002846514600F014FB21490E804FF48272EA
:1013D0004A808E80A1F806800C814FF400724A8109
:1013E00030228A81CE8107220A82DFF8708040464F
:1013F00000F02AFC4046214600F04EFC48462146BB
:1014000000F014FC8DF804608DF807604FF48058EC
:10141000CDF800802846694600F09AFA20460C2153
:1014200000F056FC0B48C0F8008006710823437199
:10143000847100F0B9F9084828230370447084705F
:10144000C47000F077F902B0BDE8F08700040240F4
:1014500074040020A4040020700400200038004020
:101460002DE9F0438BB04C484FF4805100F0B8FAAE
:101470000546002840F08A80FFF740FF0024474ED1
:101480000DE0FFF73BFF50B1B2880AA800EB440320
:1014900023F8282CF28823F8142C0134E4B2092C08
:1014A000EFD90A2C6ED11CE00AAD05EB430232F8ED
:1014B000285C5E1C0DF1280909EB460232F8282C45
:1014C000954208D909EB460626F8285C09EB40004E
:1014D00020F8282C41460133DBB209E03946634647
:1014E00006E000210B46013C4FF001080F468C46F8
:1014F00018462246A342D7DB0029EFD10C46002331
:101500004FF001089C4619E00AAE06EB430535F89A
:10151000146C5F1C0DF1280935F8125CAE4208D935
:1015200009EB470727F8146C09EB400020F8145C1E
:1015300044460133DBB201E00C46634618469A424A
:10154000E2DC002CF8D1BDF80610BDF808301944D3
:10155000BDF80A301944124B83FB01010F4A9180F8
:10156000BDF81A00BDF81C100844BDF81E10014457
:1015700083FB0143C3F5FF630733D3800125094B88
:101580001D7004E00022074B1A7000E00025284679
:101590000BB0BDE8F08300BF0004024088040020C7
:1015A000565555556E040020F8B507460E46FFF710
:1015B00057FF1B4CA088673800F090FD14A3D3E9B7
:1015C000002300F01BFF01F001F885B22580E088C0
:1015D000683800F083FD10A3D3E9002300F00EFF6C
:1015E00000F0F4FF80B26080F02D01D9F02121805D
:1015F000B0F5A07F03D94FF4A072094B5A80084B75
:101600001A883A805B883380F8BD00BFAFF3008052
:10161000CDCCCCCCCCCC1E403D0AD7A3703D1640DF
:1016200088040020AFF30080FEE700BF82B00023F3
:10163000019300932A4B1A6842F480321A601A46CA
:10164000136803F400330093019B01330193009B63
:101650001BB9019BB3F5A04FF2D1214B1B6813F4CA
:10166000003F02D00123009301E000230093009B80
:10167000012B32D11A4B1A6C42F080521A64194A6B
:10168000116841F4404111609A689A609A6842F486
:1016900000429A609A6842F4A0529A60124A5A60D4
:1016A0001A6842F080721A601A46136813F0007FBD
:1016B000FBD040F205620D4B1A60A3F580639A6877
:1016C00022F003029A609A6842F002029A601A4677
:1016D000936803F00C03082BFAD102B0704700BFE7
:1016E000003802400070004019544007003C02409E
:1016F00008B50D4B1A6842F001021A60002199608A
:101700001A6822F0847222F480321A60074A5A6002
:101710001A6822F480221A60D960FFF787FF4FF021
:101720000062034B9A6008BD00380240103000246C
:1017300000ED00E010B4C3781BB3194BDB68DB434A
:10174000C3F30223C3F10402D2B20F2141FA03F31F
:10175000417801FA02F2D2B2847803EA040111431B
:101760000901C9B202780F4B1A4482F800130278BB
:10177000510902F01F02012000FA02F243F8212071
:101780000AE00378590903F01F03012202FA03F368
:101790002031044A42F821305DF8044B704700BF05
:1017A00000ED00E000E100E010B48379002B33D0BD
:1017B000204B1968026821EA02021A60596802681F
:1017C00021EA02025A60027902F1804202F59E3259
:1017D00014680168214311609968026821EA0202D5
:1017E0009A60D968026821EA0202DA604379102B14
:1017F00009D1104B996802680A439A60D968026857
:101800000A43DA6012E003F1804303F59E3319685E
:1018100002680A431A6009E0037903F1804303F583
:101820009E331A68016822EA01021A605DF8044BCF
:10183000704700BF003C0140034B5B69034201D08D
:101840000120704700207047003C0140014B586167
:10185000704700BF003C014010B4036841688268D3
:101860001143C268114302691143426911438269FD
:101870001143C2691143026A1143426A1143826AE9
:101880001143C26A1143026B0A434FF0204141F8F1
:1018900023208368082B07D102680B4651F82210D9
:1018A00041F0400143F8221003685C1C436B1A6846
:1018B000596842EA01119A6841EA0221DA6841EA6C
:1018C00002411A6941EA02515A6941EA02629B697E
:1018D0001A434FF0204141F82420C36AB3F5804FEA
:1018E00014D10468836B1A68596842EA01119A6836
:1018F00041EA02211A6941EA02515A6941EA026247
:101900009B691A43064B43F8242005E002686FF0F8
:101910007041034B43F822105DF8044B704700BF41
:10192000040100A041B14FF0204353F8202042F0C1
:10193000010243F8202070474FF0204252F8201057
:10194000024B0B4042F82030704700BFFEFF0F00F3
:10195000F0B40023012503263EE005FA03F20C68EB
:101960001440944237D107685A0006FA02F4E4435F
:1019700027400760D0F800C00F7997404CEA07076E
:1019800007600F79013FFFB2012F16D887683C40EE
:10199000846087684C7994403C43846047689CB27B
:1019A00005FA04FC27EA0C074760476891F806C06F
:1019B0000CFA04F4A4B23C434460C7689CB26400CF
:1019C00006FA04F427EA0404C460C468CF7907FA6D
:1019D00002F22243C26001330F2BBED9F0BC704724
:1019E00003690B4201D0012070470020704700BFFF
:1019F0000183704741837047436959404161704793
:101A000030B401F007039B009A40C908083150F830
:101A100021400F2505FA03F324EA030340F821309F
:101A200050F821301A4340F8212030BC704700BFE5
:101A300070B584B004460D46868826F03F0636040D
:101A4000360C684600F06CF8029A2B49A1FB0201A3
:101A5000890C88B20643A680238823F001031B0467
:101A60001B0C23802B68254EB34209D85B00B2FBC8
:101A7000F3F292B2032A00D804220130208424E039
:101A8000EE884BF6FF70864205D103EB4303B2FBB1
:101A9000F3F292B208E003EB830303EB8303B2FBA0
:101AA000F3F292B242F48042C2F30B030BB942F05C
:101AB000010242F400424FF4967301FB03F1104B14
:101AC00083FB0101891101312184A28323889BB208
:101AD00043F001032380228892B222F4816222F033
:101AE0000202A9886B890B4313432380AA892B899F
:101AF0001343238104B070BD83DE1B43A086010025
:101B0000D34D621029B103889BB243F001030380D7
:101B10007047038823F001031B041B0C03807047EC
:101B200010B4294B9B6803F00C03042B05D0082B41
:101B300006D053BB254B036029E0254B036026E00C
:101B4000214B5A685B6803F03F0312F4800F09D001
:101B50001F4AB2FBF3F31C4A5268C2F3881202FB1D
:101B600003F308E0194AB2FBF3F3174A5268C2F3D1
:101B7000881202FB03F3144A5268C2F30142013295
:101B80005200B3FBF2F3036001E0104B03600E4917
:101B90008B68C3F303130F4AD35CDBB2046824FAE7
:101BA00003F343608C68C4F38224145DE4B223FA27
:101BB00004F484608968C1F34231525CD2B2D340EC
:101BC000C3605DF8044B7047003802400024F40005
:101BD00000127A002800002021B1054B1A6B104337
:101BE00018637047024B1A6B22EA000018637047B3
:101BF0000038024021B1054B9A6B1043986370473F
:101C0000024B9A6B22EA000098637047003802404A
:101C100021B1054B1A6C104318647047024B1A6CC3
:101C200022EA0000186470470038024021B1054BD9
:101C30005A6C104358647047024B5A6C22EA0000F9
:101C400058647047003802402DE9F003028802F41E
:101C50004152B1F800904B88B1F80480B1F806C049
:101C60000F894E898D89CC8949EA030348EA030329
:101C70004CEA03033B4333432B4323431343038087
:101C8000838B23F400631B041B0C83830B8A038266
:101C9000BDE8F003704700BF29B103889BB243F051
:101CA000400303807047038823F040031B041B0C90
:101CB00003807047808980B2704700BF8181704780
:101CC0000389194201D0012070470020704700BFEE
:101CD00030B401F0030292000F2494408908084BAD
:101CE000023153F8215025EA040443F8214053F807
:101CF00021409040044343F8214030BC704700BF6E
:101D00000038014003889BB21B4A904212D002F572
:101D1000806290420ED0B0F1804F0BD0A2F580329D
:101D2000904207D002F58062904203D002F58062B3
:101D3000904203D123F070034A8813430F4A904224
:101D400008D002F58062904204D023F440739BB225
:101D50000A89134303804B68C3620B880385064BD3
:101D6000984203D003F58063984201D18B7A0386B1
:101D700001238382704700BF000001400010004033
:101D800029B103889BB243F0800303807047038826
:101D900023F080031B041B0C0380704729B10388C8
:101DA0009BB243F0010303807047038823F00103D3
:101DB0001B041B0C0380704730B4038C23F0010319
:101DC0001B041B0C0384038C8488A4B2028B22F0B6
:101DD00073021204120C0D882A4323F002031B0421
:101DE0001B0C8D892B434D882B430E4DA84203D0ED
:101DF00005F58065A8420DD123F00803CD892B435A
:101E000023F004038D882B4324F440740D8A2C4363
:101E10004D8A2C43848002838A684263038430BCE9
:101E2000704700BF00000140038B23F008031B0430
:101E30001B0C19430183704781F0004102E000BF91
:101E400083F0004330B54FEA41044FEA430594EA7A
:101E5000050F08BF90EA020F1FBF54EA000C55EAB5
:101E6000020C7FEA645C7FEA655C00F0E2804FEA86
:101E70005454D4EB5555B8BF6D420CDD2C4480EA68
:101E8000020281EA030382EA000083EA010180EA98
:101E9000020281EA0303362D88BF30BD11F0004FE6
:101EA0004FEA01314FF4801C4CEA113102D040421C
:101EB00061EB410113F0004F4FEA03334CEA133357
:101EC00002D0524263EB430394EA050F00F0A7806F
:101ED000A4F10104D5F1200E0DDB02FA0EFC22FA6A
:101EE00005F2801841F1000103FA0EF2801843FA5E
:101EF00005F359410EE0A5F120050EF1200E012A4F
:101F000003FA0EFC28BF4CF0020C43FA05F3C0188C
:101F100051EBE37101F0004507D54FF0000EDCF105
:101F2000000C7EEB00006EEB0101B1F5801F1BD3AE
:101F3000B1F5001F0CD349085FEA30004FEA3C0CB2
:101F400004F101044FEA445212F5800F80F09A80A8
:101F5000BCF1004F08BF5FEA500C50F1000041EBAC
:101F6000045141EA050130BD5FEA4C0C404141EBB0
:101F7000010111F4801FA4F10104E9D191F0000FD7
:101F800004BF01460020B1FA81F308BF2033A3F15A
:101F90000B03B3F120020CDA0C3208DD02F1140C51
:101FA000C2F10C0201FA0CF021FA02F10CE002F18C
:101FB0001402D8BFC2F1200C01FA02F120FA0CFC85
:101FC000DCBF41EA0C019040E41AA2BF01EB0451CE
:101FD000294330BD6FEA04041F3C1CDA0C340EDCCC
:101FE00004F11404C4F1200220FA04F001FA02F30F
:101FF00040EA030021FA04F345EA030130BDC4F1CD
:102000000C04C4F1200220FA02F001FA04F340EAC1
:102010000300294630BD21FA04F0294630BD94F072
:10202000000F83F4801306BF81F480110134013D59
:102030004EE77FEA645C18BF7FEA655C29D094EACA
:10204000050F08BF90EA020F05D054EA000C04BF48
:102050001946104630BD91EA030F1EBF0021002033
:1020600030BD5FEA545C05D14000494128BF41F0D2
:10207000004130BD14F580043CBF01F5801130BD36
:1020800001F0004545F0FE4141F470014FF00000C1
:1020900030BD7FEA645C1ABF194610467FEA655C72
:1020A0001CBF0B46024650EA013406BF52EA033514
:1020B00091EA030F41F4002130BD00BF90F0000F02
:1020C00004BF0021704730B54FF4806404F132043E
:1020D0004FF000054FF0000150E700BF90F0000FF7
:1020E00004BF0021704730B54FF4806404F132041E
:1020F00010F0004548BF40424FF000013EE700BFEE
:1021000042004FEAE2014FEA31014FEA02701FBF7D
:1021100012F07F4393F07F4F81F06051704792F04F
:10212000000F14BF93F07F4F704730B54FF46074C9
:1021300001F0004521F0004120E700BF50EA010214
:1021400008BF704730B54FF000050AE050EA0102C1
:1021500008BF704730B511F0004502D5404261EB31
:1021600041014FF4806404F132045FEA915C3FF472
:10217000DCAE4FF003025FEADC0C18BF03325FEA0B
:10218000DC0C18BF033202EBDC02C2F1200300FAC0
:1021900003FC20FA02F001FA03FE40EA0E0021FAE5
:1021A00002F11444C1E600BF70B54FF0FF0C4CF4CF
:1021B000E06C1CEA11541DBF1CEA135594EA0C0F85
:1021C00095EA0C0F00F0DEF82C4481EA030621EAC0
:1021D0004C5123EA4C5350EA013518BF52EA0335FB
:1021E00041F4801143F4801338D0A0FB02CE4FF0AD
:1021F0000005E1FB02E506F00042E0FB03E54FF0DD
:102200000006E1FB03569CF0000F18BF4EF0010ED4
:10221000A4F1FF04B6F5007F64F5407404D25FEAD0
:102220004E0E6D4146EB060642EAC62141EA555183
:102230004FEAC52040EA5E504FEACE2EB4F1FD0CC5
:1022400088BFBCF5E06F1ED8BEF1004F08BF5FEA43
:10225000500E50F1000041EB045170BD06F00046F5
:1022600046EA010140EA020081EA0301B4EB5C04A2
:10227000C2BFD4EB0C0541EA045170BD41F480119A
:102280004FF0000E013C00F3AB8014F1360FDEBFBF
:10229000002001F0004170BDC4F10004203C35DA9B
:1022A0000C341BDC04F11404C4F1200500FA05F31E
:1022B00020FA04F001FA05F240EA020001F00042BF
:1022C00021F0004110EBD37021FA04F642EB060135
:1022D0005EEA430E08BF20EAD37070BDC4F10C045F
:1022E000C4F1200500FA04F320FA05F001FA04F223
:1022F00040EA020001F0004110EBD37041F100010F
:102300005EEA430E08BF20EAD37070BDC4F1200519
:1023100000FA05F24EEA020E20FA04F301FA05F281
:1023200043EA020321FA04F001F0004121FA04F229
:1023300020EA020000EBD3705EEA430E08BF20EAF9
:10234000D37070BD94F0000F0FD101F00046400033
:1023500041EB010111F4801F08BF013CF7D041EAB5
:10236000060195F0000F18BF704703F000465200B9
:1023700043EB030313F4801F08BF013DF7D043EA8A
:102380000603704794EA0C0F0CEA135518BF95EA40
:102390000C0F0CD050EA410618BF52EA4306D1D1C7
:1023A00081EA030101F000414FF0000070BD50EAE6
:1023B000410606BF1046194652EA430619D094EA70
:1023C0000C0F02D150EA013613D195EA0C0F05D15A
:1023D00052EA03361CBF104619460AD181EA0301AE
:1023E00001F0004141F0FE4141F470014FF0000066
:1023F00070BD41F0FE4141F4780170BD70B54FF001
:10240000FF0C4CF4E06C1CEA11541DBF1CEA135580
:1024100094EA0C0F95EA0C0F00F0A7F8A4EB050462
:1024200081EA030E52EA03354FEA013100F0888059
:102430004FEA03334FF0805545EA131343EA126322
:102440004FEA022245EA111545EA10654FEA0026D7
:102450000EF000419D4208BF964244F1FD0404F590
:10246000407402D25B084FEA3202B61A65EB0305EC
:102470005B084FEA32024FF480104FF4002CB6EBA9
:10248000020E75EB030E22BFB61A754640EA0C0029
:102490005B084FEA3202B6EB020E75EB030E22BF69
:1024A000B61A754640EA5C005B084FEA3202B6EBAA
:1024B000020E75EB030E22BFB61A754640EA9C0069
:1024C0005B084FEA3202B6EB020E75EB030E22BF39
:1024D000B61A754640EADC0055EA060E18D04FEAF7
:1024E000051545EA16754FEA06164FEAC30343EA97
:1024F00052734FEAC2025FEA1C1CC0D111F4801F64
:102500000BD141EA00014FF000004FF0004CB6E75C
:1025100011F4801F04BF01430020B4F1FD0C88BFFB
:10252000BCF5E06F3FF6AFAEB5EB030C04BFB6EB06
:10253000020C5FEA500C50F1000041EB045170BDF9
:102540000EF0004E4EEA113114EB5C04C2BFD4EB26
:102550000C0541EA045170BD41F480114FF0000EAA
:10256000013C90E645EA060E8DE60CEA135594EA26
:102570000C0F08BF95EA0C0F3FF43BAF94EA0C0F29
:102580000AD150EA01347FF434AF95EA0C0F7FF49E
:1025900025AF104619462CE795EA0C0F06D152EAF2
:1025A00003353FF4FDAE1046194622E750EA4106D6
:1025B00018BF52EA43067FF4C5AE50EA41047FF4E7
:1025C0000DAF52EA43057FF4EBAE12E74FEA41024A
:1025D00012F5001215D211D56FF47873B3EB625275
:1025E00012D94FEAC12343F0004343EA505311F09C
:1025F000004F23FA02F018BF404270474FF000002E
:10260000704750EA013005D111F0004008BF6FF06B
:10261000004070474FF00000704700BFF0B48407DF
:1026200043D0541E002A3ED0CDB2034603E0621EC2
:10263000002C38D0144603F8015B9A07F7D1032C1D
:102640002AD9CDB245EA05250F2C45EA054515D90D
:10265000A4F110073F0903F1100606EB07161A460E
:10266000156055609560D5601032B242F8D104F023
:102670000F040137032C03EB07130DD91E46224626
:10268000043A032A46F8045BFAD8221F22F0030218
:102690000432134404F003042CB1C9B21C4403F8FF
:1026A000011BA342FBD1F0BC704714460346C6E7AA
:1026B00010B40C4B0C481C680C4BD4F8A820D4F870
:1026C000AC1000FB02F003FB0101A2FB032301326B
:1026D0000B4443F10003C4E92A2323F000405DF8D2
:1026E000044B7047600400202DF451582D7F954C09
:1026F00000000000000000000000000000000000DA
:1027000000000000000000000000000000000000C9
:1027100000000000000000000000000000000000B9
:102720000000800180018001800180018001800122
:102730008001800180018001800180010000000093
:102740008001800100000000000000000000000087
:1027500000000000CC00CC00CC00CC00CC00CC00B1
:102760000000000000000000000000000000000069
:102770000000000000000000000000000000000059
:10278000000000000000000000000000600C600C71
:10279000600C30063006FE1FFE1F30063807180397
:1027A000FE1FFE1F180318038C018C018C01000012
:1027B00000008000E003F80F9C0E8C1C8C188C002D
:1027C0009800F801E007800E801C8C188C189C186B
:1027D000B80CF00FE0038000800000000000000053
:1027E0000000000000000E181B0C110C1106110651
:1027F000110311039B018E01C038C06C604460441A
:10280000304430441844186C0C38000000000000BC
:102810000000E001F0033807180618063003F00145
:10282000F000F8009C310E33061E061C061C063F05
:10283000FC73F02100000000000000000000000018
:10284000000000000C000C000C000C000C000C0040
:102850000000000000000000000000000000000078
:102860000000000000000000000000000000000068
:102870000000000200038001C000C0006000600092
:1028800030003000300030003000300030003000C8
:1028900060006000C000C000800100030002000072
:1028A000000020006000C0008001800100030003E0
:1028B00000060006000600060006000600060006E8
:1028C0000003000380018001C000600020000000C0
:1028D000000000000000000000000000C000C00078
:1028E000D806F807E00130033807000000000000B8
:1028F00000000000000000000000000000000000D8
:1029000000000000000000000000000080018001C5
:10291000800180018001FC3FFC3F8001800180013B
:1029200080018001000000000000000000000000A5
:102930000000000000000000000000000000000097
:102940000000000000000000000000000000000087
:1029500000008001800100010001800000000000F3
:102960000000000000000000000000000000000067
:102970000000000000000000E007E0070000000089
:102980000000000000000000000000000000000047
:102990000000000000000000000000000000000037
:1029A0000000000000000000000000000000000027
:1029B0000000C000C0000000000000000000000097
:1029C0000000000C000C00060006000600030003D7
:1029D00000038003800180018001C000C000C000AE
:1029E0006000600000000000000000000000000027
:1029F0000000E003F007380E180C0C180C180C1827
:102A00000C180C180C180C180C180C18180C380E84
:102A1000F007E003000000000000000000000000DC
:102A2000000000018001C001F001980188018001CF
:102A3000800180018001800180018001800180018E
:102A40008001800100000000000000000000000084
:102A50000000E003F80F180C0C180C1800180018F0
:102A6000000C000600038001C00060003000180068
:102A7000FC1FFC1F00000000000000000000000020
:102A80000000E001F807180E0C0C0C0C000C0006FE
:102A9000C003C007000C001800180C180C18180C04
:102AA000F807E00300000000000000000000000044
:102AB0000000000C000E000F000F800DC00C600C19
:102AC000600C300C180C0C0CFC3FFC3F000C000C94
:102AD000000C000C000000000000000000000000DE
:102AE0000000F80FF80F180018000C00EC03FC07AA
:102AF0001C0E001C0018001800180C181C0C180ED6
:102B0000F807E003000000000000000000000000E3
:102B10000000C007F00F381C181818000C00CC0378
:102B2000EC0F3C0E1C1C0C180C180C18181C380E42
:102B3000F007E003000000000000000000000000BB
:102B40000000FC1FFC1F000C0006000600038003B1
:102B50008001C001C000E000600060007000300033
:102B60003000300000000000000000000000000005
:102B70000000E003F007380E180C180C180C38068B
:102B8000F007F007180C0C180C180C180C18380C5F
:102B9000F80FE0030000000000000000000000004B
:102BA0000000E003F007380E1C0C0C180C180C1871
:102BB0001C1C381EF81BE0190018000C000C1C0E21
:102BC000F807F00100000000000000000000000015
:102BD00000000000000000000000000080018001F3
:102BE00000000000000000000000000000000000E5
:102BF00080018001000000000000000000000000D3
:102C000000000000000000000000000080018001C2
:102C100000000000000000000000000000000000B4
:102C20008001800100010001800000000000000020
:102C30000000000000000000000000000000000094
:102C40000010001C800FE003F8001800F800E003FB
:102C5000800F001C001000000000000000000000B9
:102C60000000000000000000000000000000000064
:102C7000F81F000000000000F81F00000000000026
:102C80000000000000000000000000000000000044
:102C90000000000000000000000000000000000034
:102CA00008003800F001C007001F0018001FC0070F
:102CB000F0013800080000000000000000000000E3
:102CC0000000E003F80F180C0C180C180018000C8A
:102CD000000600038001C000C000C000000000002A
:102CE000C000C00000000000000000000000000064
:102CF00000000000E00718180420C229224A1144ED
:102D000009440944094409221113E20C0240042039
:102D10001818E0070000000000000000000000009C
:102D2000000080038003C006C006C006600C600C73
:102D3000301830183018F83FF83F1C700C600C60E9
:102D400006C006C0000000000000000000000000F7
:102D50000000FC03FC0F0C0C0C180C180C180C0CCD
:102D6000FC07FC0F0C180C300C300C300C300C181D
:102D7000FC1FFC0700000000000000000000000035
:102D80000000C007F01F38381C300C7006600600C9
:102D90000600060006000600060006600C701C30E7
:102DA000F01FE0070000000000000000000000002D
:102DB0000000FE03FE0F060E061806180630063049
:102DC0000630063006300630063006180618060EA5
:102DD000FE0FFE03000000000000000000000000E5
:102DE0000000FC3FFC3F0C000C000C000C000C0031
:102DF000FC1FFC1F0C000C000C000C000C000C0055
:102E0000FC3FFC3F0000000000000000000000004C
:102E10000000F83FF83F18001800180018001800CC
:102E2000F81FF81F180018001800180018001800E4
:102E30001800180000000000000000000000000062
:102E40000000E00FF83F3C780E6006E007C003008A
:102E5000030003FE03FE03C007C006C00EC03CF023
:102E6000F83FE00F0000000000000000000000003C
:102E700000000C300C300C300C300C300C300C30AE
:102E8000FC3FFC3F0C300C300C300C300C300C3064
:102E90000C300C30000000000000000000000000BA
:102EA000000080018001800180018001800180019B
:102EB000800180018001800180018001800180010A
:102EC0008001800100000000000000000000000000
:102ED00000000006000600060006000600060006C8
:102EE0000006000600060006000618061806380749
:102EF000F003E001000000000000000000000000FE
:102F0000000006300618060C060606038601C600F9
:102F100066007600DE008E0106030606060C061823
:102F20000630066000000000000000000000000005
:102F300000001800180018001800180018001800E9
:102F400018001800180018001800180018001800C1
:102F5000F81FF81F00000000000000000000000043
:102F600000000EE01EF01EF01EF036D836D836D81F
:102F700036D866CC66CC66CCC6C6C6C6C6C6C6C67D
:102F800086C386C3000000000000000000000000AF
:102F900000000C301C303C303C306C306C30CC309D
:102FA000CC308C310C330C330C360C360C3C0C3CD6
:102FB0000C380C3000000000000000000000000091
:102FC0000000E007F81F1C380E70066003C003C045
:102FD00003C003C003C003C003C006600E701C38EA
:102FE000F81FE007000000000000000000000000E3
:102FF0000000FC0FFC1F0C380C300C300C300C3077
:103000000C18FC1FFC070C000C000C000C000C0042
:103010000C000C0000000000000000000000000098
:103020000000E007F81F1C380E70066003E003C0C4
:1030300003C003C003C003C007E006630E3F1C3C8F
:10304000F83FE0F700C000000000000000000000B2
:103050000000FE0FFE1F0638063006300630063828
:10306000FE1FFE0706030606060C061806180630A5
:1030700006300660000000000000000000000000B4
:103080000000E003F80F1C0C0C180C180C001C00BE
:10309000F803E00F001E0038063006300E301C1C0E
:1030A000F80FE00700000000000000000000000032
:1030B0000000FE7FFE7F8001800180018001800191
:1030C00080018001800180018001800180018001F8
:1030D00080018001000000000000000000000000EE
:1030E00000000C300C300C300C300C300C300C303C
:1030F0000C300C300C300C300C300C300C301818FC
:10310000F81FE007000000000000000000000000C1
:10311000000003600630063006300C180C180C183E
:10312000180C180C380E3006300670076003600368
:10313000C001C0010000000000000000000000000D
:1031400000000360C361C361C361663366336633E5
:103150006633663366336C1B6C1B6C1B2C1A3C1E6F
:10316000380E380E000000000000000000000000D3
:1031700000000FE00C7018303018700C600EC007A3
:1031800080038003C003E006700C301C18180C305C
:103190000E6007E0000000000000000000000000DA
:1031A000000003C006600C301C383818300C600674
:1031B000E007C0038001800180018001800180015F
:1031C00080018001000000000000000000000000FD
:1031D0000000FC7FFC7F006000300018000C00063F
:1031E00000038001C0006000300018000C000600E1
:1031F000FE7FFE7F000000000000000000000000D5
:103200000000E003E0036000600060006000600018
:1032100060006000600060006000600060006000AE
:1032200060006000600060006000E003E0030000F8
:10323000000030003000600060006000C000C0008E
:10324000C000C00180018001800100030003000371
:103250000006000600000000000000000000000062
:103260000000E003E0030003000300030003000389
:103270000003000300030003000300030003000336
:1032800000030003000300030003E003E003000069
:1032900000000000C001C00160036003600330064D
:1032A0003006180C180C00000000000000000000A0
:1032B000000000000000000000000000000000000E
:1032C00000000000000000000000000000000000FE
:1032D00000000000000000000000000000000000EE
:1032E0000000FFFFFFFF00000000000000000000E2
:1032F00000000C000C000C000C000C000C00000086
:1033000000000000000000000000000000000000BD
:1033100000000000000000000000000000000000AD
:10332000000000000000000000000000F003F807AB
:103330001C0C0C0C000FF00FF80C0C0C0C0C1C0FE0
:10334000F80FF0180000000000000000000000006E
:10335000000018001800180018001800D803F80F13
:10336000380C181818181818181818181818380CB5
:10337000F80FD8030000000000000000000000006B
:10338000000000000000000000000000C003F00783
:10339000300E180C1800180018001800180C300E09
:1033A000F007C00300000000000000000000000063
:1033B000000000180018001800180018C01BF01FAB
:1033C000301C181818181818181818181818301C45
:1033D000F01FC01B00000000000000000000000003
:1033E000000000000000000000000000C003F00F1B
:1033F000300C1818F81FF81F180018003818301C67
:10340000F00FC007000000000000000000000000F6
:103410000000800FC00FC000C000C000F007F00720
:10342000C000C000C000C000C000C000C000C0009C
:10343000C000C0000000000000000000000000000C
:10344000000000000000000000000000E00DF80F88
:10345000180E0C0C0C0C0C0C0C0C0C0C0C0C180E90
:10346000F80FE00D000C0C0C1C06F807F001000032
:10347000000018001800180018001800D807F80FEE
:10348000381C181818181818181818181818181898
:1034900018181818000000000000000000000000CC
:1034A0000000C000C000000000000000C000C0001C
:1034B000C000C000C000C000C000C000C000C0000C
:1034C000C000C0000000000000000000000000007C
:1034D0000000C000C000000000000000C000C000EC
:1034E000C000C000C000C000C000C000C000C000DC
:1034F000C000C000C000C000C000F800780000009C
:1035000000000C000C000C000C000C000C0C0C0655
:103510000C038C01CC006C00FC009C018C030C03A0
:103520000C060C0C00000000000000000000000071
:103530000000C000C000C000C000C000C000C0004B
:10354000C000C000C000C000C000C000C000C0007B
:10355000C000C000000000000000000000000000EB
:103560000000000000000000000000007C3CFF7E26
:10357000C7E383C183C183C183C183C183C183C1C5
:1035800083C183C1000000000000000000000000B3
:103590000000000000000000000000009807F80F85
:1035A000381C181818181818181818181818181877
:1035B00018181818000000000000000000000000AB
:1035C000000000000000000000000000C003F00F39
:1035D000300C181818181818181818181818300C53
:1035E000F00FC00300000000000000000000000019
:1035F000000000000000000000000000D803F80FE9
:10360000380C181818181818181818181818380C12
:10361000F80FD80318001800180018001800000050
:10362000000000000000000000000000C01BF01FB0
:10363000301C181818181818181818181818301CD2
:10364000F01FC01B00180018001800180018000018
:10365000000000000000000000000000B007F003C0
:10366000700030003000300030003000300030009A
:1036700030003000000000000000000000000000EA
:10368000000000000000000000000000E003F00364
:10369000380E180C3800F003C007000C180C380E58
:1036A000F007E00300000000000000000000000040
:1036B000000000008000C000C000C000F007F0075C
:1036C000C000C000C000C000C000C000C000C000FA
:1036D000C00780070000000000000000000000009C
:1036E000000000000000000000000000181818187A
:1036F0001818181818181818181818181818381C26
:10370000F01FE019000000000000000000000000B1
:103710000000000000000000000000000C18180C61
:10372000180C180C30063006300660036003600386
:10373000C001C00100000000000000000000000007
:10374000000000000000000000000000C141C14175
:10375000C3616363636363633636363636361C1C77
:103760001C1C1C1C000000000000000000000000E9
:103770000000000000000000000000001C38381CA1
:10378000300C600660036003600360036006300C69
:10379000381C1C3800000000000000000000000081
:1037A0000000000000000000000000001830301889
:1037B00030187018600C600CE00CC006C006800366
:1037C0008003800380018001C001F00070000000D0
:1037D000000000000000000000000000FC1FFC1FB3
:1037E000000C000600038001C000600030001800DB
:1037F000FC1FFC1F00000000000000000000000093
:10380000000000038001C000C000C000C000C00074
:10381000C00060006000300060004000C000C000D8
:10382000C000C000C000C000800100030000000014
:103830000000800180018001800180018001800101
:103840008001800180018001800180018001800170
:1038500080018001800180018001800180010000E1
:1038600000006000C000C001800180018001800173
:1038700080010003000300060003000180018001B5
:103880008001800180018001C00060000000000014
:103890000000000000000000000000000000000028
:1038A000F010F81F080F00000000000000000000EA
:1038B0000000000000000000000000000000000008
:1038C00000000000000000000000000000000000F8
:1038D0000000000000000000000000200020002088
:1038E0000020002000200020000000200000000038
:1038F00000000050005000500000000000000000D8
:103900000000000000000000000000090009001293
:10391000007F0012007F001200240024000000003D
:1039200000100038005400500050003800140054BB
:1039300000540038001000000000803000490049A9
:10394000004AC032200520092009C01000000000F4
:103950000000000C001200120014001800250023C3
:103960000023801D000000000000004000400040D7
:103970000000000000000000000000000000000047
:10398000000000080010001000200020002000208F
:103990000020002000100010000000400020002047
:1039A0000010001000100010001000100020002077
:1039B0000000002000700020005000000000000007
:1039C00000000000000000000000000000000008EF
:1039D0000008007F00080008000000000000000050
:1039E00000000000000000000000000000000000D7
:1039F0000000002000200040000000000000000047
:103A00000000000000700000000000000000000046
:103A100000000000000000000000000000000000A6
:103A20000000002000000000000000100010001046
:103A30000020002000200020004000400000000086
:103A400000000010002800440044004400440044EA
:103A5000002800100000000000000010003000509E
:103A600000100010001000100010001000000000F6
:103A7000000000300048004400040008001000204E
:103A80000040007C000000000000003000480004FE
:103A9000000800100008004400480030000000004A
:103AA0000000000800180018002800280048007CCA
:103AB00000080008000000000000003C002000405A
:103AC000007000480004004400480030000000007E
:103AD000000000180024004000500068004400442A
:103AE00000280010000000000000007C0004000816
:103AF0000010001000100020002000200000000036
:103B00000000001000280044002800100028004495
:103B100000280010000000000000001000280044F1
:103B20000044002C00140004004800300000000095
:103B30000000000000000020000000000000000065
:103B40000000002000000000000000000000002035
:103B500000000000000000000000002000200040E5
:103B600000000000000400080030004000300008A1
:103B70000004000000000000000000000000007CC5
:103B800000000000007C00000000000000000000B9
:103B90000000000000400020001800040018002071
:103BA00000400000000000000000003800640044F5
:103BB00000040008001000100000001000000000C9
:103BC0000000800F4010A02EA05120512051205104
:103BD0002053C04D202040100000000800140014A5
:103BE00000140022003E00220041004100000000BD
:103BF0000000003C002200220022003C00220022A3
:103C00000022003C000000000000000E0011002116
:103C100000200020002000210011000E0000000004
:103C20000000003C00220021002100210021002191
:103C30000022003C000000000000003E00200020A8
:103C40000020003E002000200020003E0000000078
:103C50000000003E002000200020003C002000204A
:103C600000200020000000000000000E00110021D4
:103C700000200027002100210011000E000000009C
:103C800000000021002100210021003F002100212F
:103C90000021002100000000000000200020002082
:103CA0000020002000200020002000200000000054
:103CB000000000080008000800080008000800488C
:103CC000004800300000000000000022002400280E
:103CD00000280038002800240024002200000000F2
:103CE00000000020002000200020002000200020F4
:103CF0000020003E00000000000080208031803164
:103D00008031802A802A802A802A802400000000B6
:103D10000000002100310031002900290025002386
:103D200000230021000000000000000C0012002110
:103D300000210021002100210012000C00000000E1
:103D40000000003C002200220022003C0020002055
:103D500000200020000000000000000C00120021E4
:103D600000210021002100210016000D00010000AB
:103D70000000003E002100210021003E002400221E
:103D800000218020000000000000001C0022002212
:103D90000020001C000200220022001C0000000085
:103DA0000000003E000800080008000800080008A5
:103DB0000008000800000000000000210021002190
:103DC00000210021002100210012000C0000000051
:103DD00000000041004100220022002200140014D3
:103DE000001400080000000000004044404A402A3F
:103DF000802A802A802A802A802A00110000000060
:103E000000000041002200140014000800140014F7
:103E100000220041000000000000004100220022BA
:103E20000014000800080008000800080000000056
:103E30000000007E000200040008001000100020B6
:103E40000040007E00000000000000300020002044
:103E50000020002000200020002000200020002062
:103E60000000004000400020002000200020002032
:103E70000010001000000000000000600020002082
:103E80000020002000200020002000200020002032
:103E90000000001000280028002800440000000056
:103EA0000000000000000000000000000000000012
:103EB0000000000000000000000000000000007E84
:103EC0000040002000000000000000000000000092
:103ED00000000000000000000000000000000038AA
:103EE00000440004003C00440044003C000000008A
:103EF00000000040004000580064004400440044BA
:103F000000640058000000000000000000000030C5
:103F10000048004000400040004800300000000021
:103F20000000000400040034004C0044004400443D
:103F3000004C0034000000000000000000000038C9
:103F400000440044007C00400044003800000000B1
:103F500000000060004000E00040004000400040E1
:103F6000004000400000000000000000000000349D
:103F7000004C004400440044004C00340004004461
:103F80000000004000400058006400440044004429
:103F90000044004400000000000000400000004019
:103FA0000040004000400040004000400000000091
:103FB0000000004000000040004000400040004081
:103FC0000040004000400040000000400040004829
:103FD0000050006000500050004800480000000001
:103FE0000000004000400040004000400040004011
:103FF00000400040000000000000000000000052EF
:10400000006D0049004900490049004900000000D6
:104010000000000000000058006400440044004418
:1040200000440044000000000000000000000038D0
:1040300000440044004400440044003800000000F4
:1040400000000000000000580064004400440044E8
:1040500000640058004000400000000000000034F0
:10406000004C004400440044004C003400040004B0
:1040700000000000000000500060004000400040D0
:104080000040004000000000000000000000003080
:1040900000480040003000080048003000000000E8
:1040A00000000040004000E00040004000400040B0
:1040B000004000600000000000000000000000441C
:1040C0000044004400440044004C00340000000060
:1040D00000000000000000440044002800280028E0
:1040E000002800100000000000000000000000494F
:1040F0000049005500550055005500220000000001
:1041000000000000000000440028002800100028E3
:1041100000280044000000000000000000000044EF
:104120000044002800280028001000100010001093
:1041300000000000000000780008001000200020AF
:104140000040007800000000000000100020002067
:10415000002000200040002000200020002000203F
:10416000000000200020002000200020002000206F
:10417000002000200020002000000040002000203F
:10418000002000200010002000200020002000203F
:104190000000000000000000007400580000000053
:1041A000000000000000000000000000007000504F
:1041B00000500050005000500050007000000000FF
:1041C00000000000000000000000000000000000EF
:1041D000400040004000400040004000000040001F
:1041E000A000A000A00000000000000000000000EF
:1041F000000024002400FE004800FC0048004800A5
:1042000038005400500038001400140054003800E6
:104210004400A800A800500014001A002A0024003E
:10422000100028002800100074004C004C003000E2
:10423000100010001000000000000000000000004E
:1042400008001000100010001000100010000800FE
:10425000100008000800080008000800080010000E
:1042600000000000240018003C001800240000009A
:1042700000000000100010007C0010001000000082
:10428000000000000000000000000800080010000E
:1042900000000000000000003C00000000000000E2
:1042A00000000000000000000000000018001800DE
:1042B0000800080008001000100020002000200066
:1042C00018002400240024002400240024001800E6
:1042D000080018002800080008000800080008006E
:1042E00038004400000004000800100020007C009A
:1042F0001800240004001800040004002400180022
:1043000004000C001400240044007E00040004009B
:104310003C002000200038000400040024001800A5
:104320001800240020003800240024002400180075
:104330003C000400080008000800100010001000F5
:104340001800240024001800240024002400180071
:1043500018002400240024001C000400240018007D
:10436000000000001000000000001000000000002D
:10437000000000000800000000000800100000001D
:1043800000000000040018002000180004000000D5
:104390000000000000003C0000003C0000000000A5
:1043A0000000000020001800040018002000000099
:1043B0001800240004000800100010000000100085
:1043C0003C0042009900A500A5009D004200380075
:1043D00038004400440044007C0044004400440091
:1043E0007800440044007800440044004400780011
:1043F0001C002200420040004000420022001C003D
:10440000700048004400440044004400480070002C
:104410007C00400040007C004000400040007C00E8
:104420003C00200020003800200020002000200058
:104430001C002200420040004E00420022001C00EE
:104440004400440044007C00440044004400440014
:1044500010001000100010001000100010001000DC
:1044600004000400040004000400240024001800D8
:1044700044004800500070005000480048004400CC
:1044800020002000200020002000200020003C0010
:104490008200C600C600AA00AA00AA00AA009200D4
:1044A00042006200520052004A004A0046004200A8
:1044B000180024004200420042004200240018007C
:1044C0007800440044004400780040004000400070
:1044D0001800240042004200420042002C001A0052
:1044E0007800440044007800500048004400420036
:1044F0003800440040003800040044004400380004
:104500007C001000100010001000100010001000BF
:1045100042004200420042004200420024001800D3
:10452000440044002800280028002800280010002B
:104530009200AA00AA00AA00AA00AA00AA004400A9
:104540004200240024001800180024002400420027
:104550004400280028001000100010001000100077
:104560007C000400080010001000200040007C00C7
:104570001C001000100010001000100010001C00A3
:1045800010001000080008000800080004000400E3
:104590001C000400040004000400040004001C00CB
:1045A000100028004400000000000000000000008F
:1045B00000000000000000000000000000000000FB
:1045C00020001000100000000000000000000000AB
:1045D00000000000180004001C00240024001C003F
:1045E000200020002800340024002400340028008B
:1045F0000000000018002400200020002400180003
:104600000400040014002C00240024002C001400DA
:1046100000000000180024003C00200024001800C6
:10462000000018001000100018001000100010000A
:1046300000001800240024001800040024001800C2
:10464000200020002800340024002400240024003E
:1046500010000000100010001000100010001000EA
:1046600008000000080008000800080028001000EA
:10467000200020002400280030002800240024000E
:1046800010001000100010001000100010001000AA
:1046900000000000A600DA00920092009200920052
:1046A000000000002800340024002400240024001E
:1046B000000000001800240024002400240018003A
:1046C00000002800340024003800200020002000D2
:1046D000000014002C0024001C000400040004004E
:1046E000000000002C0030002000200020002000EE
:1046F000000000001800240010000800240018002A
:104700000000100038001000100010001000180009
:104710000000000024002400240024002C001400C9
:104720000000000044004400280028002800100079
:10473000000000009200AA00AA00AA00AA004400FB
:104740000000000044002800100010002800440071
:1047500000002800280028001000100010001000A1
:10476000000000003C0004000800100020003C0095
:1047700000000800100010002000100010000800C9
:1047800010001000100010001000100010001000A9
:1047900000001000080008000400080008001000D5
:1047A000000000000000600092000C00000000000B
:1047B000FF00FF00FF00FF00FF00FF00FF00FF0001
:1047C000E8E6E8E6E8E6E8E6E8E6E8E6E8E6E8E679
:1047D000E8E6E8E6E8E6E8E6E8E6E8E6E8E6E8E669
:1047E000E8E6E8E6E8E6E8E6E8E6E8E6E8E6E8E659
:1047F000E8E6E8E6E8E6E8E6E8E6E8E6E8E6E8E649
:10480000E8E6E8E6E8E6E8E6E8E6E8E6E8E6E8E638
:10481000E8E6E8E6E8E6E8E6E8E6E8E6E8E6E8E628
:10482000E8E6E8E6E8E6E8E6E8E6E8E6E8E6E8E618
:10483000E8E6E8E6E8E6E8E6E8E6E8E6E8E6E8E608
:10484000E8E6E8E6E8E6E8E6E8E6E8E6E8E6E8E6F8
:10485000E8E6E8E6E8E6E8E6E8E6E8E6E8E6E8E6E8
:10486000E8E6E8E6E8E6E8E6E8E6E8E6E8E6E8E6D8
:10487000E8E6E8E6E8E6E8E6E8E6E8E6E8E6E8E6C8
:10488000E8E6E8E6E8E6E8E6E8E6E8E6E8E6E8E6B8
:10489000E8E6E8E6E8E6E8E6E8E6E8E6E8E6E8E6A8
:1048A000E8E6E8E6E8E6E8E6E8E6E8E6E8E6E8E698
:1048B000E8E6E8E6E8E6E8E6E8E6E8E6E8E6E8E688
:1048C000E8E6E8E6E8E6E8E6E8E6E8E6E8E6E8E678
:1048D000E8E6E8E6E8E6E8E6E8E6E8E6E8E6E8E668
:1048E000E8E6E8E6E8E6E8E6E8E6E8E6E8E6E8E658
:1048F000E8E6E8E6E8E6E8E6E8E6E8E6E8E6E8E648
:10490000E8E6E8E6E8E6E8E6E8E6E8E6E8E6E8E637
:10491000E8E6E8E6E8E6E8E6E8E6E8E6E8E6E8E627
:10492000E8E6E8E6E8E6E8E6E8E6E8E6E8E6E8E617
:10493000E8E6E8E6E8E6E8E6E8E6E8E6E8E6E8E607
:10494000E8E6E8E6E8E6E8E6E8E6E8E6E8E6E8E6F7
:10495000E8E6E8E6E8E6E8E6E8E6E8E6E8E6E8E6E7
:10496000E8E6E8E6E8E6E8E6E8E600000000000041
:104970000000000000000000000000000000000037
:104980000000000000000000000000000000000027
:104990000000000000000000000000000000000017
:1049A0000000000000000000000000000000000007
:1049B00000000000000000000000000000000000F7
:1049C00000000000000000000000000000000000E7
:1049D00000000000000000000000000000000000D7
:1049E00000000000000000000000E8E6E8E6E8E65D
:1049F000E8E6E8E6E8E6000000000000000000004D
:104A000000000000000000000000000000000000A6
:104A10000000000000000000000000000000000096
:104A20000000000000000000000000000000000086
:104A30000000000000000000000000000000000076
:104A40000000000000000000000000000000000066
:104A50000000000000000000000000000000000056
:104A60000000000000000000000000000000000046
:104A7000000000000000E8E6E8E6E8E6E8E6E8E630
:104A8000E8E6000000000000000000000000000058
:104A90000000000000000000000000000000000016
:104AA0000000000000000000000000000000000006
:104AB00000000000000000000000000000000000F6
:104AC00000000000000000000000000000000000E6
:104AD00000000000000000000000000000000000D6
:104AE00000000000000000000000000000000000C6
:104AF00000000000000000000000000000000000B6
:104B00000000E8E6E8E6E8E6E8E6E8E6E8E60000D1
:104B10000000000000000000000000000000000095
:104B20000000000000000000000000000000000085
:104B30000000000000000000000000000000000075
:104B40000000000000000000000000000000000065
:104B50000000000000000000000000000000000055
:104B60000000000000000000000000000000000045
:104B70000000000000000000000000000000000035
:104B80000000000000000000000000000000E8E657
:104B9000E8E6E8E6E8E6E8E6E8E60000000000000F
:104BA0000000000000000000000000000000000005
:104BB00000000000000000000000000000000000F5
:104BC00000000000000000000000000000000000E5
:104BD00000000000000000000000000000000000D5
:104BE00000000000000000000000000000000000C5
:104BF00000000000000000000000000000000000B5
:104C000000000000000000000000000000000000A4
:104C100000000000000000000000E8E6E8E6E8E62A
:104C2000E8E6E8E6E8E6000000000000000000001A
:104C30000000000000000000000000000000000074
:104C40000000000000000000000000000000000064
:104C50000000000000000000000000000000000054
:104C60000000000000000000000000000000000044
:104C70000000000000000000000000000000000034
:104C80000000000000000000000000000000000024
:104C90000000000000000000000000000000000014
:104CA000000000000000E8E6E8E6E8E6E8E6E8E6FE
:104CB000E8E6000000000000000000000000E8E658
:104CC000E8E6E8E6E8E6E8E6E8E6E8E6E8E6E8E674
:104CD000E8E6E8E6E8E6E8E6E8E6E8E6C7DE87DEF6
:104CE00047D627CE86BDE5A4248C446BE2418010D4
:104CF00000000000000000000000000000000000B4
:104D000000000000000000000000000000000000A3
:104D10000000000000000000000000000000000093
:104D20000000000000000000000000000000000083
:104D30000000E8E6E8E6E8E6E8E6E8E6E8E600009F
:104D40000000000000000000000000000000E12062
:104D50008473C7E6E8E6E8E6E8E6E8E6E8E6E8E6DB
:104D6000E8E6E8E6E8E6E8E6E8E6E8E6E8E6E8E6D3
:104D7000E8E6E8E6E8E6E8E6E8E6E8E6A6BD647325
:104D80000121000000000000000000000000000001
:104D90000000000000000000000000000000000013
:104DA0000000000000000000000000000000000003
:104DB0000000000000000000000000000000E8E625
:104DC000E8E6E8E6E8E6E8E6E8E6000000000000DD
:104DD00000000000000000000000000000006473FC
:104DE000E8E6E8E6E8E6E8E6E8E6A59C446B024289
:104DF0000121A11020002008A1108131A35A65943F
:104E000067D6E8E6E8E6E8E6E8E6E8E6C7E64594D9
:104E1000E118000000000000000000000000000099
:104E20000000000000000000000000000000000082
:104E30000000000000000000000000000000000072
:104E400000000000000000000000E8E6E8E6E8E6F8
:104E5000E8E6E8E6E8E600000000000000000000E8
:104E6000000000000000000000004129E8E6E8E63C
:104E7000E8E6E8E6E8E600000000000000000000C8
:104E8000000000000000000000000000200083522D
:104E9000C6C5E8E6E8E6E8E6E8E6E8E687DE635267
:104EA0000000000000000000000000000000000002
:104EB00000000000000000000000000000000000F2
:104EC00000000000000000000000000000000000E2
:104ED000000000000000E8E6E8E6E8E6E8E6E8E6CC
:104EE000E8E60000000000000000000000000000F4
:104EF0000000000000006010E8E6E8E6E8E6E8E60A
:104F0000E8E60000000000000000000000000000D3
:104F10000000000000000000000000002000446BC2
:104F2000C7DEE8E6E8E6E8E6E8E6E8E6C47B000097
:104F30000000000000000000000000000000000071
:104F40000000000000000000000000000000000061
:104F50000000000000000000000000000000000051
:104F60000000E8E6E8E6E8E6E8E6E8E6E8E600006D
:104F70000000000000000000000000000000000031
:104F800000000000E8E6E8E6E8E6E8E6E8E600001B
:104F90000000000000000000000000000000000011
:104FA000000000000000000000000000823147D631
:104FB000E8E6E8E6E8E6E8E6E8E6A47B00000000CC
:104FC00000000000000000000000000000000000E1
:104FD00000000000000000000000000000000000D1
:104FE0000000000000000000000000000000E8E6F3
:104FF000E8E6E8E6E8E6E8E6E8E6000000000000AB
:1050000000000000000000000000000000000000A0
:10501000E8E6E8E6E8E6E8E6E8E60000000000008A
:105020000000000000000000000000000000000080
:1050300000000000000000000000212147D6E8E643
:10504000E8E6E8E6E8E6E8E6635200000000000073
:105050000000000000000000000000000000000050
:105060000000000000000000000000000000000040
:1050700000000000000000000000E8E6E8E6E8E6C6
:10508000E8E6E8E6E8E600000000000000000000B6
:10509000000000000000000000000000E8E6E8E674
:1050A000E8E6E8E6E8E60000000000000000000096
:1050B00000000000000000000000000000000000F0
:1050C0000000000000000000A239C7E6E8E6E8E6BC
:1050D000E8E6E8E667D6C11800000000000000001E
:1050E00000000000000000000000000000000000C0
:1050F00000000000000000000000000000000000B0
:10510000000000000000E8E6E8E6E8E6E8E6E8E699
:10511000E8E60000000000000000000000000000C1
:105120000000000000000000E8E6E8E6E8E6E8E647
:10513000E8E60000000000000000000000000000A1
:10514000000000000000000000000000000000005F
:105150000000000000008473E8E6E8E6E8E6E8E620
:10516000E8E6859C00000000000000000000000050
:10517000000000000000000000000000000000002F
:10518000000000000000000000000000000000001F
:105190000000E8E6E8E6E8E6E8E6E8E6E8E600003B
:1051A00000000000000000000000000000000000FF
:1051B00000000000E8E6E8E6E8E6E8E6E8E60000E9
:1051C00000000000000000000000000000000000DF
:1051D00000000000000000000000000000000000CF
:1051E0000000400807CEE8E6E8E6E8E6E8E6C7E6BD
:1051F0004129000000000000000000000000000045
:10520000000000000000000000000000000000009E
:105210000000000000000000000000000000E8E6C0
:10522000E8E6E8E6E8E6E8E6E8E600000000000078
:10523000000000000000000000000000000000006E
:10524000E8E6E8E6E8E6E8E6E8E600000000000058
:10525000000000000000000000000000000000004E
:10526000000000000000000000000000000000003E
:105270000363E8E6E8E6E8E6E8E6E8E645940000E9
:10528000000000000000000000000000000000001E
:10529000000000000000000000000000000000000E
:1052A00000000000000000000000E8E6E8E6E8E694
:1052B000E8E6E8E6E8E60000000000000000000084
:1052C000000000000000000000000000E8E6E8E642
:1052D000E8E6E8E6E8E60000000000000000000064
:1052E00000000000000000000000000000000000BE
:1052F0000000000000000000000000006010A7DEB9
:10530000E8E6E8E6E8E6E8E687DE200800000000D8
:10531000000000000000000000000000000000008D
:10532000000000000000000000000000000000007D
:10533000000000000000E8E6E8E6E8E6E8E6E8E667
:10534000E8E600000000000000000000000000008F
:105350000000000000000000E8E6E8E6E8E6E8E615
:10536000E8E600000000000000000000000000006F
:10537000000000000000000000000000000000002D
:1053800000000000000000000000E5A4E8E6E8E6F8
:10539000E8E6E8E6E8E6224A000000000000000037
:1053A00000000000000000000000000000000000FD
:1053B00000000000000000000000000000000000ED
:1053C0000000E8E6E8E6E8E6E8E6E8E6E8E6000009
:1053D00000000000000000000000000000000000CD
:1053E00000000000E8E6E8E6E8E6E8E6E8E60000B7
:1053F00000000000000000000000000000000000AD
:10540000000000000000000000000000000000009C
:10541000000000000000436BE8E6E8E6E8E6E8E6A6
:10542000E8E6847B000000000000000000000000AF
:10543000000000000000000000000000000000006C
:105440000000000000000000000000000000E8E68E
:10545000E8E6E8E6E8E6E8E6E8E600000000000046
:10546000000000000000000000000000000000003C
:10547000E8E6E8E6E8E6E8E6E8E600000000000026
:10548000000000000000000000000000000000001C
:10549000000000000000000000000000000000000C
:1054A0000000E241E8E6E8E6E8E6E8E6E8E6E5A44A
:1054B00000000000000000000000000000000000EC
:1054C00000000000000000000000000000000000DC
:1054D00000000000000000000000E8E6E8E6E8E662
:1054E000E8E6E8E6E8E60000000000000000000052
:1054F000000000000000000000000000E8E6E8E610
:10550000E8E6E8E6E8E60000000000000000000031
:10551000000000000000000000000000000000008B
:105520000000000000000000000000000000012159
:10553000E8E6E8E6E8E6E8E6E8E6E6C500000000BA
:10554000000000000000000000000000000000005B
:10555000000000000000000000000000000000004B
:10556000000000000000E8E6E8E6E8E6E8E6E8E635
:10557000E8E600000000000000000000000000005D
:105580000000000000000000E8E6E8E6E8E6E8E6E3
:10559000E8E60000000000000000E8E6E8E6E8E6D3
:1055A000E8E6E8E6E8E6E8E6E8E6E8E6E8E6E8E68B
:1055B000E8E6E8E6E8E6E8E6C7DE87DEE7E6E7E60F
:1055C000C8E6E7E6C7E687DEE2418010000000009B
:1055D00000000000000000000000000000000000CB
:1055E00000000000000000000000000000000000BB
:1055F0000000E8E6E8E6E8E6E8E6E8E6E8E60000D7
:10560000000000000000000000000000000000009A
:1056100000000000E8E6E8E6E8E6E8E6E8E6000084
:1056200000000000000000000000E1208473C7E6D5
:10563000E8E6E8E6E8E6E8E6E8E6E8E6E8E6E8E6FA
:10564000E8E6E8E6E8E6E8E6E8E6E8E6E8E6E8E6EA
:10565000E8E6E8E6E8E6E8E6A6BD647301210000B6
:10566000000000000000000000000000000000003A
:105670000000000000000000000000000000E8E65C
:10568000E8E6E8E6E8E6E8E6E8E600000000000014
:10569000000000000000000000000000000000000A
:1056A000E8E6E8E6E8E6E8E6E8E6000000000000F4
:1056B000000000000000000000006473E8E6E8E677
:1056C000E8E6E8E6E8E6A59C446B02420121A11069
:1056D00020004008C8E6C7E6C8E6C8E6C7E6E8E630
:1056E000E8E6E8E6E8E6E8E6C7E64594E118000003
:1056F00000000000000000000000000000000000AA
:1057000000000000000000000000E8E6E8E6E8E62F
:10571000E8E6E8E6E8E6000000000000000000001F
:10572000000000000000000000000000E8E6E8E6DD
:10573000E8E6E8E6E8E600000000000000000000FF
:105740000000000000004129E8E6E8E6E8E6E8E6B7
:10575000E8E600000000000000000000000060100B
:10576000E8E6E8E6E8E6E8E6C7E687DEC6C5E8E696
:10577000E8E6E8E6E8E6E8E687DE635200000000D7
:105780000000000000000000000000000000000019
:10579000000000000000E8E6E8E6E8E6E8E6E8E603
:1057A000E8E600000000000000000000000000002B
:1057B0000000000000000000E8E6E8E6E8E6E8E6B1
:1057C000E8E600000000000000000000000000000B
:1057D00000006010E8E6E8E6E8E6E8E6E8E6000053
:1057E000000000000000000000000121E8E6E8E6FB
:1057F000E8E6E8E6E8E6A6BD2000446BC7DEE8E69A
:10580000E8E6E8E6E8E6E8E6C47B00000000000021
:105810000000000000000000000000000000000088
:105820000000E8E6E8E6E8E6E8E6E8E6E8E60000A4
:105830000000000000000000000000000000000068
:1058400000000000E8E6E8E6E8E6E8E6E8E6000052
:105850000000000000000000000000000000000048
:10586000E8E6E8E6E8E6E8E6E8E600000000000032
:10587000000000000000E241E8E6E8E6E8E6E8E6CD
:10588000E8E6A59C00000000823147D6E8E6E8E69D
:10589000E8E6E8E6E8E6A47B00000000000000007F
:1058A0000000000000000000000000000000E8E62A
:1058B000E8E6E8E6E8E6E8E6E8E6000000000000E2
:1058C00000000000000000000000000000000000D8
:1058D000E8E6E8E6E8E6E8E6E8E6000000000000C2
:1058E000000000000000000000000000E8E6E8E61C
:1058F000E8E6E8E6E8E6000000000000000000003E
:105900000000446BE8E6E8E6E8E6E8E6E8E6236B54
:10591000000000000000212147D6E8E6E8E6E8E6BE
:10592000E8E6E8E663520000000000000000000026
:1059300000000000000000000000E8E6E8E6E8E6FD
:10594000E8E6E8E6E8E600000000000000000000ED
:10595000000000000000000000000000E8E6E8E6AB
:10596000E8E6E8E6E8E600000000000000000000CD
:105970000000000000000000E8E6E8E6E8E6E8E6EF
:10598000E8E600000000000000000000000005A59F
:10599000E8E6E8E6E8E6E8E6E8E68131000000004F
:1059A00000000000A239C7E6E8E6E8E6E8E6E8E637
:1059B00067D6C118000000000000000000000000D1
:1059C000000000000000E8E6E8E6E8E6E8E6E8E6D1
:1059D000E8E60000000000000000000000000000F9
:1059E0000000000000000000E8E6E8E6E8E6E8E67F
:1059F000E8E60000000000000000000000000000D9
:105A000000000000E8E6E8E6E8E6E8E6E8E6000090
:105A100000000000000000006010A7DEE8E6E8E6F5
:105A2000E8E6E8E627CE00000000000000000000E5
:105A300000008473E8E6E8E6E8E6E8E6E8E6859C48
:105A40000000000000000000000000000000000056
:105A50000000E8E6E8E6E8E6E8E6E8E6E8E6000072
:105A60000000000000000000000000000000000036
:105A700000000000E8E6E8E6E8E6E8E6E8E6000020
:105A80000000000000000000000000000000000016
:105A9000E8E6E8E6E8E6E8E6E8E600000000000000
:105AA00000000000236BE8E6E8E6E8E6E8E6E8E662
:105AB00064730000000000000000000000004008C7
:105AC00007CEE8E6E8E6E8E6E8E6C7E641290000B2
:105AD0000000000000000000000000000000E8E6F8
