:020000040800F2
:1000000000000220B1010008550F0008590F000838
:100010005D0F0008610F0008650F00080000000078
:10002000000000000000000000000000690F000850
:100030006D0F000800000000710F0008290500087E
:100040004102000841020008410200084102000884
:100050004102000841020008ED0C0008050D0008EF
:100060002D0D0008590D000841020008150F000869
:100070004102000841020008410200084102000854
:100080004102000841020008410200084102000844
:10009000410200084102000841020008810D0008E9
:1000A00041020008010C000841020008410200085A
:1000B0008D0C0008CD0C0008410200084102000828
:1000C0004102000841020008410200084102000804
:1000D0004102000841020008E90B00084102000843
:1000E00041020008410200084102000841020008E4
:1000F000AD0C000841020008410200080D0F000885
:100100004102000841020008410200081D0F0008DA
:1001100041020008410200084102000801050008F0
:1001200041020008410200084102000841020008A3
:100130004102000841020008410200084102000893
:100140004102000841020008410200084102000883
:100150004102000841020008410200084102000873
:100160004102000841020008410200084102000863
:100170004102000841020008410200084102000853
:10018000410200084102000808B5064B064A07482C
:1001900003E011681960043304328342F9D300F09C
:1001A0007DFF08BD00000020A01400082C000020E6
:1001B00070B51B4B1B4A002101E0196004339342C8
:1001C000FBD3194B194DED1AAD1000241E4603E068
:1001D00056F8243098470134A542F9D8144B154DF0
:1001E000ED1AAD1000241E4603E056F8243098475F
:1001F0000134A542F9D800F051FF00F00DFB06468E
:100200000D4B0E4CE41AA4101D4603E0013C55F8BA
:1002100024309847002CF9D1304600F0DBFE00BFB7
:100220002C000020C8630020680200086C0200084F
:100230006C0200086C0200086C0200086C020008E6
:10024000FEE700BFFEE700BFFEE700BFFEE700BF1E
:10025000FEE700BFFEE700BFFEE700BFFEE700BF0E
:08026000FEE700BFFEE700BF4E
:040268008901000800
:10026C00F0B583B004460E4615461F46204A904210
:10027C001AD007D81F4B98420CD003F580639842D4
:10028C000DD01FE01C4B984213D003F580639842AD
:10029C0014D017E00120014601F072F812E00220A0
:1002AC00012101F06DF80DE00420012101F068F846
:1002BC0008E00820012101F063F803E0102001217F
:1002CC0001F05EF800968DF80450012D01D18DF8E7
:1002DC0006709DF820308DF807309DF824308DF88D
:1002EC0005302046694601F003F803B0F0BD00BFAD
:1002FC000008024000000240000C024001837047DD
:10030C004183704708B5012000F05CFD002000F02F
:10031C0059FD022000F056FD032000F053FD002093
:10032C0000F082FD012000F07FFD022000F07CFD3A
:10033C00032000F079FD08BD08B5002000F074FD25
:10034C00012000F071FD022000F06EFD032000F092
:10035C006BFD08BD08B5002000F05AFD012000F02F
:10036C0057FD022000F054FD032000F051FD08BDA4
:10037C0000EB4000420092B2002301E001339BB23B
:10038C009342FBD3704700BF2DE9F04387B005467D
:10039C000F4690460B46002402E00134E4B25B08A1
:1003AC00012BFAD1514B9D422DD008D8A3F50063F7
:1003BC009D420CD003F580639D4216D04CE04C4B13
:1003CC009D422ED003F580639D4238D044E001203D
:1003DC00014600F0D5FF4FF48040012100F0DEFF14
:1003EC000020214600F0F2FF36E00220012100F04F
:1003FC00C7FF4FF48040012100F0D0FF01202146BF
:10040C0000F0E4FF28E00420012100F0B9FF4FF4D4
:10041C008040012100F0C2FF0220214600F0D6FFEF
:10042C001AE00820012100F0ABFF4FF480400121BD
:10043C0000F0B4FF0320214600F0C8FF0CE01020B0
:10044C00012100F09DFF4FF48040012100F0A6FF38
:10045C000420214600F0BAFF00268DF80C604FF006
:10046C0001098DF80F908DF80E6003238DF80D3077
:10047C0006A941F8107D284600F03AFF04978DF844
:10048C0014608DF815808DF8169004A800F0E2FE2B
:10049C001CB906238DF804301AE0012C03D1072374
:1004AC008DF8043014E0022C03D108238DF80430AD
:1004BC000EE0032C03D109238DF8043008E0042C42
:1004CC0003D10A238DF8043002E017238DF8043091
:1004DC0000238DF805308DF8063001238DF8073098
:1004EC0001A800F0F7FD07B0BDE8F083000802405A
:1004FC00000C024008B54FF08040012100F094FF41
:10050C0040B14FF08040012100F09AFF024B1A8855
:10051C0001321A8008BD00BF2C000020034B1B6861
:10052C001BB1024B1A68013A1A6070473000002068
:10053C0082B00190019B4FF47A7202FB03F2044BE0
:10054C001A601A461368002BFCD102B0704700BF2A
:10055C003000002082B00190019A044B1A601A46B8
:10056C001368002BFCD102B0704700BF3000002094
:10057C0010B504461C480821FFF7C2FE14F0800F8A
:10058C0003D019480821FFF7B9FE17480421FFF7DB
:10059C00B7FE14F0400F03D013480421FFF7AEFE52
:1005AC0011480221FFF7ACFE14F0200F03D00E48C7
:1005BC000221FFF7A3FE0C480121FFF7A1FE14F066
:1005CC00100F03D008480121FFF798FE064C204677
:1005DC008021FFF793FE0120FFF7BCFF204680210E
:1005EC00FFF78EFE10BD00BF000C024010B5044694
:1005FC00FFF7BEFF200100F0F000FFF7B9FF32203B
:10060C00FFF7A8FF10BD00BF10B5044606484021F7
:10061C00FFF776FE2046FFF7E9FF032C02D80220F5
:10062C00FFF786FF10BD00BF000C024010B504465A
:10063C0005484021FFF762FE2046FFF7D7FF034B2A
:10064C001A7801321A7010BD000C02400000002014
:10065C0010B5044602E0FFF7E9FF013420780028CA
:10066C00F9D110BD10B58020FFF7CEFF064C204607
:10067C00FFF7EEFFC020FFF7C7FF2046FFF7E8FFAC
:10068C008020FFF7C1FF10BD5C14000830B583B0AB
:10069C000820012100F074FECF23009301248DF873
:1006AC00044000238DF806308DF8074002238DF8A6
:1006BC0005301C4D2846694600F01AFE284680215C
:1006CC00FFF71EFE28464021FFF71AFE1E20FFF7FB
:1006DC002FFF3820FFF74CFF0420FFF729FF3820AD
:1006EC00FFF746FF6420FFF735FF3820FFF740FF88
:1006FC003220FFF72FFF2020FFF73AFF3220FFF7C1
:10070C0029FF2820FFF780FF0820FFF77DFF2046F8
:10071C00FFF77AFF0620FFF777FF0E20FFF774FF35
:10072C0003B030BD000C024008B509282DD8DFE815
:10073C0000F005090D1115191D2125293020FFF791
:10074C0075FF08BD3120FFF771FF08BD3220FFF7A0
:10075C006DFF08BD3320FFF769FF08BD3420FFF79C
:10076C0065FF08BD3520FFF761FF08BD3620FFF798
:10077C005DFF08BD3720FFF759FF08BD3820FFF794
:10078C0055FF08BD3920FFF751FF08BD70B5044671
:10079C00092801D8FFF7C8FFA4F10A03DBB2592BD3
:1007AC000ED8184BA3FB0403DB0803EB83004000BB
:1007BC00201AC5B21846FFF7B7FF2846FFF7B4FF5B
:1007CC00632C1DD90F49A1FB0423DB0803EB830029
:1007DC004000201AC5B2DAB2A1FB0203DB0803EB1E
:1007EC0083035B00D31ADEB2074BA3FB0420400942
:1007FC00FFF79AFF3046FFF797FF2846FFF794FF65
:10080C0070BD00BFCDCCCCCC1F85EB512DE9F04198
:10081C0082B0002301490A2205E000BF4C000020F1
:10082C00CA5401339BB2B3F5C64FF9D3CA4BA722B6
:10083C005A60F021C94A82F8231000279F600722D2
:10084C001A60C74C204604210C22FFF79DFD204660
:10085C0008210C22FFF798FDFFF754FDFFF77AFDF6
:10086C00FFF714FFFFF7FEFEBE48FFF7F1FE04F59D
:10087C0000642046012100F08DFB2046022100F08F
:10088C0089FB2046042100F085FB2046082100F05E
:10089C0081FB2046102100F07DFB2046202100F03A
:1008AC0079FB2046402100F075FB2046802100F0AA
:1008BC0071FB20464FF4807100F06CFB20464FF426
:1008CC00007100F067FB20464FF4806100F062FB82
:1008DC0020464FF4006100F05DFB20464FF4805140
:1008EC0000F058FB20464FF4005100F053FB20461B
:1008FC004FF4804100F04EFB20464FF4004100F0D5
:10090C0049FB20460121FFF7FBFC20460221FFF7A3
:10091C00F7FC20460421FFF7F3FC20460821FFF7E3
:10092C00EFFC20461021FFF7EBFC20462021FFF7BF
:10093C00E7FC20464021FFF7E3FC20468021FFF72F
:10094C00DFFC20464FF48071FFF7DAFC20464FF4B1
:10095C000071FFF7D5FC20464FF48061FFF7D0FC07
:10096C0020464FF40061FFF7CBFC20464FF480513A
:10097C00FFF7C6FC20464FF40051FFF7C1FC2046A0
:10098C004FF48041FFF7BCFC20464FF40041FFF7C9
:10099C00B7FC754D012600964FF00308CDF8048086
:1009AC002846802132463B46FFF75AFC0096CDF88C
:1009BC00048028464FF4807132463B46FFF750FCCA
:1009CC000096CDF8048028464FF4007132463B4621
:1009DC00FFF746FC0096CDF8048028464FF4806162
:1009EC0032463B46FFF73CFC0096CDF80480284687
:1009FC004FF4006132463B46FFF732FC0096CDF8CF
:100A0C00048028464FF4805132463B46FFF728FCC1
:100A1C0028468021FFF772FC28464FF48071FFF7BF
:100A2C006DFC28464FF40071FFF768FC28464FF424
:100A3C008061FFF763FC28464FF40061FFF75EFC12
:100A4C0028464FF48051FFF75BFC28464FF40061B9
:100A5C00FFF756FC6420FFF76BFD28464FF400614E
:100A6C00FFF74CFC6420FFF763FD28464FF48061D0
:100A7C00FFF746FC28468021FFF742FC4FF6FF7734
:100A8C00678328464FF48071FFF73AFC28464FF4F1
:100A9C008071FFF733FC28468021FFF72FFC26835B
:100AAC0028464FF48071FFF72BFC28464FF48071D9
:100ABC00FFF724FC28464FF48061FFF71FFC284603
:100ACC004FF48061FFF71CFC28468021FFF718FCCF
:100ADC00678328464FF48071FFF712FC28464FF4C9
:100AEC008071FFF70BFC28468021FFF707FC20469E
:100AFC00314600F039FA2046022100F035FA204642
:100B0C00042100F031FA2046082100F02DFA20468D
:100B1C00102100F029FA2046202100F025FA204669
:100B2C00402100F021FA2046802100F01DFA2046D9
:100B3C004FF4807100F018FA20464FF4007100F069
:100B4C0013FA20464FF4806100F00EFA20464FF461
:100B5C00006100F009FA09E010E000E000ED00E0AF
:100B6C0000000240701400080010024020464FF4B0
:100B7C00805100F0F9F920464FF4005100F0F4F9DF
:100B8C0020464FF4804100F0EFF920464FF400412D
:100B9C0000F0EAF928464FF40071FFF7B1FB206929
:100BAC00C0B2FFF7F3FD28464FF40071FFF7A6FB28
:100BBC0028464FF48061FFF7A1FB41F28830FFF724
:100BCC00B7FCFFF74FFD0348FFF742FD024B1E60D9
:100BDC00FEE700BF781400083C00002008B503486D
:100BEC0000F032FC0022024B1A6008BD00440040A9
:100BFC000800002008B51C48012100F015FC002855
:100C0C0030D01A4B1B78DBB2012B1AD10120FFF725
:100C1C00AFFB174B1B7813F0010F0DD1154B1A6856
:100C2C0015490869C0B2154988541A6801321A600E
:100C3C0001220F4B1A7004E00D4B1A780132D2B21C
:100C4C001A700C4B1B68B3F5C64F04D10648012132
:100C5C00002200F0DDFB002000F0F2F80248012138
:100C6C0000F0EEFB08BD00BF000001404800002072
:100C7C003400002044000020001002404C000020F2
:100C8C0008B54FF08040012100F0CEFB38B14FF099
:100C9C008040012100F0D4FB012000F0D1F808BD08
:100CAC0008B50648012100F0BFFB30B10348012113
:100CBC0000F0C6FB022000F0C3F808BD00040140A0
:100CCC0008B50648012100F0AFFB30B10348012103
:100CDC0000F0B6FB032000F0B3F808BD00040040A0
:100CEC0008B50022034B1A60FFF726FB012000F029
:100CFC00F9FA08BD0400002008B5074B1B68012B4E
:100D0C0006D14FF48042054B1A830222024B1A6023
:100D1C00022000F0E7FA08BD400000200004024069
:100D2C0008B5084B1A6801219140074A106820EA5F
:100D3C00010111601A68013A1A60042000F0D2FA1D
:100D4C0008BD00BF380000200400002008B5074B88
:100D5C001A6801321A601B6801229A40044B196808
:100D6C000A431A60082000F0BDFA08BD38000020C4
:100D7C000400002010B5114B5A6982F001025A612F
:100D8C005A6982F002025A615A6982F004025A616D
:100D9C000B4C2046322100F033FB2046322100F070
:100DAC0031FB2046322100F02FFB2046322100F08F
:100DBC002DFB202000F096FA10BD00BF0008024069
:100DCC000008004010B582B004460E4B53F82000CA
:100DDC00012100F0D5FA0C4B33F8143000930123A9
:100DEC008DF8043000228DF806208DF80730022390
:100DFC008DF80530054B53F82400694600F078FA5D
:100E0C0002B010BD88140008981400080C000020D3
:100E1C00034B53F82030034A32F810201A837047E2
:100E2C000C00002098140008034B53F82030034AA0
:100E3C0032F810205A8370470C00002098140008D8
:100E4C00044B53F820305969034A32F810204A40B9
:100E5C005A6170470C00002098140008F8B5224B1A
:100E6C001868224B196800F0BFF900283BD0204BC2
:100E7C001B68002B2DD01C4C206800F0ADF900280D
:100E8C00FAD1194C2068194B196800F0C9F9194EA0
:100E9C00336819498B60164D2B684FF6FF77BB42B0
:100EAC0094BF0B610F61206800F05EF9206801218E
:100EBC0000F086F92B68BB4238BF1F46326802EB44
:100ECC0047023260DF1B2F602068012100F078F9A7
:100EDC00F8BD054C2068002100F072F92068034B26
:100EEC00196800F09DF9F8BD2000002024000020B6
:100EFC001C0000204C6300208C63002000207047F5
:100F0C0008B5FFF7ABFF08BD08B5FFF7A7FF08BD95
:100F1C0008B50B48022100F051FA78B1094B1B6857
:100F2C00022B05D1FFF7EAFF0146042000F00CF973
:100F3C00FFF7E4FF0146024800F03EFA08BD00BF8F
:100F4C00003C004028000020704700BFFEE700BFB7
:100F5C00FEE700BFFEE700BFFEE700BF704700BF23
:100F6C00704700BF704700BF30B4002303250DE06D
:100F7C0041FA03F212F0010F06D004685A0005FA88
:100F8C0002F224EA020202600133DBB20F2BEFD92A
:100F9C0030BC7047F0B400230327012610E041FA5F
:100FAC0003F212F0010F09D004685A0007FA02F597
:100FBC0024EA050406FA02F2224302600133DBB292
:100FCC000F2BECD9F0BC7047FEE700BF82B00023BA
:100FDC00019300932A4B1A6842F480321A601A4625
:100FEC00136803F400330093019B01330193009BBE
:100FFC001BB9019BB3F5A04FF2D1214B1B6813F425
:10100C00003F02D00123009301E000230093009BDA
:10101C00012B32D11A4B1A6C42F080521A64194AC5
:10102C00116841F4404111609A689A609A6842F4E0
:10103C0000429A609A6842F4A0529A60124A5A602E
:10104C001A6842F080721A601A46136813F0007F17
:10105C00FBD040F205620D4B1A60A3F580639A68D1
:10106C0022F003029A609A6842F002029A601A46D1
:10107C00936803F00C03082BFAD102B0704700BF41
:10108C00003802400070004008544007003C024009
:10109C0008B50D4B1A6842F001021A6000219960E4
:1010AC001A6822F0847222F480321A60074A5A605D
:1010BC001A6822F480221A60D960FFF787FF4FF07C
:1010CC000062034B9A6008BD0038024010300024C7
:1010DC0000ED00E010B4C3781BB3194BDB68DB43A5
:1010EC00C3F30223C3F10402D2B20F2141FA03F37A
:1010FC00417801FA02F2D2B2847803EA0401114376
:10110C000901C9B202780F4B1A4482F80013027815
:10111C00510902F01F02012000FA02F243F82120CB
:10112C000AE00378590903F01F03012202FA03F3C2
:10113C002031044A42F821305DF8044B704700BF5F
:10114C0000ED00E000E100E082B000230193054BCC
:10115C000193019B184400F108030193019B196052
:10116C0002B070470074004010B40268134B134077
:10117C000C68CA6814434A6914438A691443CA69DF
:10118C0014430A6A14434A6A14438A6A14434A6B26
:10119C0014438A6B224313430360446924F007040D
:1011AC00CA6A0B6B1343234343610B6943604B685F
:1011BC0083608B68C3605DF8044B70473F801CF004
:1011CC0021B1036843F0010303607047036823F007
:1011DC0001030360704700BF036813F0010F01D0D7
:1011EC0001207047002070470B4B984202D8A3F2A5
:1011FC000F4300E0094B11F0005F01D05B6800E089
:10120C001B6823F0F02323F082130B4201D0012042
:10121C0070470020704700BF0F640240006402401A
:10122C000A4B984202D8A3F20F4300E0084B11F08E
:10123C00005F05D021F0F02121F08211D9607047B8
:10124C0021F0F02121F08211996070470F64024067
:10125C000064024010B48379002B33D0204B196802
:10126C00026821EA02021A605968026821EA020245
:10127C005A60027902F1804202F59E3214680168CC
:10128C00214311609968026821EA02029A60D968C8
:10129C00026821EA0202DA604379102B09D1104B63
:1012AC00996802680A439A60D96802680A43DA604E
:1012BC0012E003F1804303F59E33196802680A4378
:1012CC001A6009E0037903F1804303F59E331A6831
:1012DC00016822EA01021A605DF8044B704700BFF6
:1012EC00003C0140014B5861704700BF003C01407D
:1012FC00F0B40023012503263EE005FA03F20C6846
:10130C001440944237D107685A0006FA02F4E443B9
:10131C0027400760D0F800C00F7997404CEA0707C8
:10132C0007600F79013FFFB2012F16D887683C4048
:10133C00846087684C7994403C43846047689CB2D5
:10134C0005FA04FC27EA0C074760476891F806C0C9
:10135C000CFA04F4A4B23C434460C7689CB2640029
:10136C0006FA04F427EA0404C460C468CF7907FAC7
:10137C0002F22243C26001330F2BBED9F0BC70477E
:10138C0021B1054B1A6B104318637047024B1A6B53
:10139C0022EA0000186370470038024021B1054B67
:1013AC005A6C104358647047024B5A6C22EA000086
:1013BC005864704700380240818170470389194294
:1013CC0001D0012070470020704700BF30B401F0FD
:1013DC00030292000F2494408908084B023153F801
:1013EC00215025EA040443F8214053F82140904051
:1013FC00044343F8214030BC704700BF0038014023
:10140C004163704781637047C163704701647047E3
:10141C0022B183899BB21943818170478389C94367
:10142C0089B2194081817047038A82890A40194226
:10143C0002D01AB900207047002070470120704775
:10144C00C94389B2018270478088C0F30800704795
:10145C002020202020202020202020202020202080
:10146C00000000005779737A6C656D00546F20642E
:10147C007A69616C612120200000000008000000E6
:10148C000800000008000000080000000010002008
:04149C00004000808C
:1014A000800000000100000003000000000C02406A
:1014B000000C0240000C0240000C0240FFFF000044
:0C14C000B860024000000028010000009D
:04000005080001B13D
:00000001FF
